:100000000056002001660000516500006165000097
:100010007965000091650000A965000000000000FE
:10002000000000000000000000000000C1650000AA
:10003000D165000000000000E1650000F1650000EE
:10004000396500000000000000000000DD1801001C
:1000500019180100891801000000000000000000CC
:10006000F546000051FD000031FD000005190100BA
:100070000000000000000000000000002519010041
:100080002DE9F843054689464FF00108154E164CF8
:10009000164F12E0236943F00403236187F832808E
:1000A000BFF34F8F00BF30BF87F83200236923F0C2
:1000B00004032361BFF34F8F62B600F01DF872B6E0
:1000C000735D33B900F014F80028E3D000BF30BFEF
:1000D000F2E700237355B9F1000F00D0C84762B6AC
:1000E000BDE8F883CC22002000ED00E000001050B5
:1000F0005FF800F0254600005FF800F08500010081
:10010000FFFFFFFFFFFFFFFFFFFFFFFFFFFFFFFFFF
:10011000FFFFFFFFFFFFFFFFFFFFFFFFFFFFFFFFEF
:10012000FFFFFFFFFFFFFFFFFFFFFFFFFFFFFFFFDF
:10013000FFFFFFFFFFFFFFFFFFFFFFFFFFFFFFFFCF
:10014000FFFFFFFFFFFFFFFFFFFFFFFFFFFFFFFFBF
:10015000FFFFFFFFFFFFFFFFFFFFFFFFFFFFFFFFAF
:10016000FFFFFFFFFFFFFFFFFFFFFFFFFFFFFFFF9F
:10017000FFFFFFFFFFFFFFFFFFFFFFFFFFFFFFFF8F
:10018000FFFFFFFFFFFFFFFFFFFFFFFFFFFFFFFF7F
:10019000FFFFFFFFFFFFFFFFFFFFFFFFFFFFFFFF6F
:1001A000FFFFFFFFFFFFFFFFFFFFFFFFFFFFFFFF5F
:1001B000FFFFFFFFFFFFFFFFFFFFFFFFFFFFFFFF4F
:1001C000FFFFFFFFFFFFFFFFFFFFFFFFFFFFFFFF3F
:1001D000FFFFFFFFFFFFFFFFFFFFFFFFFFFFFFFF2F
:1001E000FFFFFFFFFFFFFFFFFFFFFFFFFFFFFFFF1F
:1001F000FFFFFFFFFFFFFFFFFFFFFFFFFFFFFFFF0F
:10020000FFFFFFFFFFFFFFFFFFFFFFFFFFFFFFFFFE
:10021000FFFFFFFFFFFFFFFFFFFFFFFFFFFFFFFFEE
:10022000FFFFFFFFFFFFFFFFFFFFFFFFFFFFFFFFDE
:10023000FFFFFFFFFFFFFFFFFFFFFFFFFFFFFFFFCE
:10024000FFFFFFFFFFFFFFFFFFFFFFFFFFFFFFFFBE
:10025000FFFFFFFFFFFFFFFFFFFFFFFFFFFFFFFFAE
:10026000FFFFFFFFFFFFFFFFFFFFFFFFFFFFFFFF9E
:10027000FFFFFFFFFFFFFFFFFFFFFFFFFFFFFFFF8E
:10028000704700BF034613F8012B002AFBD1181A50
:100290000138704700487047FCCA01003D20704794
:1002A0000120704708B506F0DFF808BD08B506F074
:1002B0003FF943690148984708BD00BFFCCA0100E7
:1002C00010B50C4611461A46012807D010B1022875
:1002D0000BD010BDE0B200F047F8FAE7BDF80830E7
:1002E000C9B2E0B200F082F8F3E7E0B200F046F9FC
:1002F000EFE700BF054B00229A80DA805A819A818D
:10030000B42119811A765A769A767047C023002054
:10031000014B1878704700BFC023002010B404467A
:10032000034B0FCB84E80F00204610BC704700BF82
:10033000C42300200346054901F1140248691860EE
:10034000098B927999809A7118467047C0230020D2
:10035000044B187E012803D0987E003018BF01207E
:10036000704700BFC023002010B504461D4B1B780A
:1003700013F0030F02D010F00C0F15D114F0030F7F
:100380001CD113F0080F02D014F0040F22D113F087
:10039000040F15D014F0080F12D0124B00229A80CF
:1003A000DA80B4221A810BE006F05EF802690D4B88
:1003B0001A61FFF79FFF00F019F901E0FFF79AFFBC
:1003C000084B1C70084C204600F090FE204600F0C0
:1003D0003DFB10BD034B00229A80DA80B4221A81C3
:1003E000EEE700BFC023002004CB010010B5044697
:1003F00000F0A4FF042C00D010BDFFF789FF10F01F
:100400000C0F05D000F0ABFF4368984700F0F8F8F8
:10041000564C204600F0B8FE204600F0BDFB544B81
:100420001A78042A30D0082A46D0514B5B89B3F59C
:10043000616F05D34E4B0021598199890131998112
:100440004B4B99894EF66023994250D0484BD9883E
:100450004EF6602399424ED0454B99884EF6602364
:1004600099424CD012F0080F4DD1414B1B8BB3F584
:10047000807F76D03E4B9B7E13B1013B3C4A937606
:100480003B4B1A7E5A76B7E73949CB8801339BB28A
:10049000CB803849A1FB0301490901EB8101A3EBA2
:1004A000C1039BB2002BC0D1314B59890131598115
:1004B000196901311961B8E72D490B89013B0B819D
:1004C0008B8801339BB28B802B49A1FB0301490927
:1004D000C1EB0111A3EB81039BB2002BA5D1244BEF
:1004E0005989013159811969013119619DE7204B01
:1004F00000219981AAE71E4B0021D980ACE71C4B53
:1005000000219980AEE700F02AFF4368984703680E
:10051000984760B9164B1B7813F0080FA5D0134805
:1005200000F06CFE78B1124BB4221A819DE700F006
:1005300016FF4368984700F0B2FD0128EAD10C4B42
:10054000B4221A81E6E70A4B1B7813F0080F8CD00F
:10055000074B1B89002B88D105F0EAFF03689847F9
:1005600083E7034B06229A768AE700BF04CB01009B
:10057000C0230020CDCCCCCC8988888810B5072832
:1005800019D8DFE800F019041D201823262C05F0E7
:100590006BFF044605F0CCFFC3684FF48062002176
:1005A00020469847FFF7A6FE0E4800F09FFD04F195
:1005B000F00000F038FA10BD0A4800F0BBFDFAE781
:1005C000094B1975F7E7084B5975F4E7064B997510
:1005D000F1E7054BD975034800F088FDEBE7024BC6
:1005E0001976E8E704CB0100C023002008B580227B
:1005F0000021024818F0E3F908BD00BFDC23002009
:100600002DE9F04F85B082460022924911F8323030
:100610006FF3C71301F8323001EBC20358786FF360
:10062000C710587098786FF3C7109870D8786FF328
:10063000C710D87018796FF3C710187158796FF315
:10064000C710587198796FF3C7109871D8796FF304
:10065000C710D8710132102AD8D1DAF80030984783
:1006600003900023029345E04FF001084FF0140C73
:10067000B5423AD801974FF04C0933464646984662
:100680002BE04FF001084FF0140CF1E7425C42F010
:100690008002425402F07F0202EB0C0BBBF14C0FC4
:1006A0000FDD425C69F30602425401339BB29C4267
:1006B0000FD319461EF80320D209E7D0002EF4D03C
:1006C000E4E7624410F801B062F3060B00F801B0F1
:1006D000EBE70135ADB2A84507D3A742F9D8019B96
:1006E0005C4A02EBC50E7046E3E7029B01330293BE
:1006F0000A2B66D09DF80880DAF8283040469847E3
:10070000012805D0DAF82830404698470228ECD175
:10071000DAF80C30404698478146DAF81030404607
:100720009847834603014C4A82FB0326F218DE17E2
:10073000C6EBE2264FEAC903484A82FB03271F445F
:10074000DB17C3EBA727DAF8183040469847DAF8EA
:10075000083040469847002814BF10240424B6B23D
:10076000351B25EAE575ADB226440F2EA8BF0F262E
:10077000B6B2BBB21F1B27EAE777BFB21C44072CF7
:10078000A8BF0724A4B2DAF8083040469847A9F178
:1007900043091FFA89F940F2B23399453FF664AF35
:1007A000BBF16E0F7FF66DAF002814BF4FF0140C35
:1007B0004FF0010C002814BF4FF001084FF0000863
:1007C00056E70026234F1FE0043AE55C62F3060576
:1007D000E55404E0013AE55C62F30605E5540133B3
:1007E000082B0ED0C25CD209F9D1C25C02F07F02A4
:1007F000122AEFD8032AE7D8E25C6FF30602E2542C
:10080000EDE70136102E04D0002307EBC6000446A6
:10081000E8E7039B1BB1002421460E4D05E0FFF7DE
:10082000E5FEF8E70134102C0DD0002305EBC400E1
:10083000C25C02F07F02092A84BF013189B2013310
:10084000082BF5D1EEE7034BA3F8801005B0BDE807
:10085000F08F00BFDC230020E1000EE049D6B9F2A2
:100860002DE9F04F83B0064601911446036898477E
:1008700070B13E4A92F88230013382F88230A1464C
:10088000002C5ED00027B8469346DFF8E8A037E09A
:10089000FFF7ACFE4FF00008019B83F8008055E0A5
:1008A000F3682046984740B333692046984720B301
:1008B000F36820469847054633692046984700016B
:1008C0008AFB00230344C017C0EBE32080B2ED0095
:1008D000274B83FB05232B44ED17C5EBA325ADB2B6
:1008E0000BEBC000435D03F07F03122B05D808F12A
:1008F00001085FFA88F8019B1C7001374F4510D042
:10090000FCB2B36A204698470128C9D0B36A204692
:1009100098470228C4D0B36A204698470328ECD1F0
:10092000BEE7B8F1000F0CD0104BB3F88030402B6D
:1009300010D8B8F1010F09D012D90023019A137011
:1009400004E04FF00008019B83F80080404603B0AC
:10095000BDE8F08F4FF00008019B83F80080F5E7B9
:100960004FF00008019B83F80080EFE7DC230020B4
:1009700049D6B9F2E1000EE0431E9BB24FF6FD727C
:1009800093421CD84B1E9BB293421AD809010E4BBE
:1009900083FB01231944C1F3CF21C0000B4B83FB20
:1009A00000231844C0F38F20094B03EBC101085CFE
:1009B00000F07F0013288CBF002001207047012029
:1009C00070470120704700BFE1000EE049D6B9F240
:1009D000DC230020F8B506460F4C2568238903EB7D
:1009E00083035B00F4336B8005F0A2FD043523899B
:1009F00003EB830307690A22314605EB4300B8473E
:100A0000238901339BB22381226852789A4201D80C
:100A100000222281F8BD00BF60240020704708B585
:100A2000FFF7D8FF08BD10B5044605F081FDC36887
:100A30004FF44472002120469847034B1C60462324
:100A400063700A23237010BD6024002030B5A5B068
:100A50000446436898474F4B1B7913F0030F09D0A6
:100A6000A368984710F0080F21D1A368984710F0A9
:100A7000040F1CD1474B1B7913F00C0F09D0A3684E
:100A8000984710F0020F41D1A368984710F0010F6A
:100A90003CD1A36898473F4D2871E36804A8984764
:100AA000BDF81830EB8000236B8125B030BD0025E8
:100AB00001950295ADF80C5005F03AFDC3680A2285
:100AC000294601A898479DF80430022262F30203E8
:100AD0008DF80430E36810A89847BDF80430BDF8DD
:100AE000462062F30F13ADF80430E3680CA8984772
:100AF000BDF83E30ADF80630E36808A898470B9B78
:100B0000ADF8083001A8FFF765FFB3E700250195B0
:100B10000295ADF80C5005F00BFDC3680A2229467A
:100B200001A898479DF80430032262F302038DF870
:100B3000043063689847BDF80430028862F30B13F1
:100B4000ADF80430134A52891209C3F3072362F344
:100B500007138DF80530E36820A89847BDF8823068
:100B6000ADF80630E3681CA89847BDF87030ADF8C2
:100B70000830E36818A89847BDF86E30ADF80A3021
:100B8000E36814A89847179BADF80C3001A8FFF74D
:100B900021FF7EE7602400202DE9F04FA9B0044634
:100BA00043689847A368984710F0080F04D1A368DA
:100BB000984710F0040F39D0236898474368984746
:100BC000054600F06CFA80B123689847436898475F
:100BD0008146002704970597ADF8187002460A2150
:100BE00004A800F048FAB846EEE0284600F05BFAA8
:100BF0000028E9D163689847B0F86030002B40F0D6
:100C00007381B84BDD880135E36818A89847BDF8B3
:100C100068309D4200F0D781E3680EA89847B14B39
:100C2000BDF84020DA805A8901325A8129B0BDE8E6
:100C3000F08FF36828469847336928469847236819
:100C4000984743689847834600F035FAB0F1000AA8
:100C5000C0F2448163689847C388ADF80830636880
:100C600098470389ADF80A30636898474388BDF810
:100C700008201344ADF80C30636898478388BDF8AA
:100C80000A201344ADF80E305FFA8AFADBF80C3014
:100C9000504698470190DBF810305046984702AA1A
:100CA0000146019800F0C0F9002840F019814FF486
:100CB000C973ADF8083040F66A03ADF80A3040F267
:100CC000A623ADF80C3040F62413ADF80E30DBF857
:100CD0000C30504698470190DBF81030504698474A
:100CE00002AA0146019800F09FF9003018BF0120C8
:100CF0009DF8223060F345138DF8223063689847E1
:100D000090F86330C3F302039DF8242063F30202DA
:100D10008DF824206368984790F866A00AF0FD0AD1
:100D20006369984701280ED14AF0020A6368984720
:100D300090F86830FF2B06D06368984790F86830C9
:100D4000013380F868306368984780F866A063686C
:100D50009847BDF8243090F8662062F3C803ADF8D8
:100D60002430B368284698479DF8253060F3820305
:100D70008DF82530B369284698471F2828BF1F20C3
:100D8000BDF8223060F38A13ADF82230F3692846AB
:100D900098471F2828BF1F209DF8233060F3C70302
:100DA0008DF82330336A28469847C0F38F001F28F8
:100DB00028BF1F209DF8253060F3C7038DF825302C
:100DC00007A8FFF707FE0137D9F800309847FBB2B4
:100DD0008342BFF40FAFFBB228AA134413F8905C10
:100DE000CDF81C80CDF82080ADF82480D9F82830CB
:100DF00028469847012805D0D9F828302846984732
:100E00000328E0D123689847436898470646E3687B
:100E10000AA89847BDF82CA005F08AFBC3680A22EF
:100E2000414607A898479DF81C306FF302038DF8E0
:100E30001C30B36A28469847012814BF00200120BF
:100E40009DF81C3060F3C3038DF81C30BDF81C30D6
:100E5000BDF82E2062F30F13ADF81C304FEA1A12C2
:100E60009DF81E3062F303038DF81E309DF820308C
:100E70006AF303038DF82030F36828469847BDF8DD
:100E80001E3060F30F13ADF81E30336928469847C3
:100E9000BDF8203060F30F13ADF82030236912A89D
:100EA00098479DF822309DF8482062F301038DF8A1
:100EB0002230736A284698479DF8223060F38303F6
:100EC0008DF8223003F00C030C2B7FF4B2AE9DF8AA
:100ED000223043F00C038DF82230AAE6404607E7A3
:100EE000012005E76024002000230A930B93ADF84E
:100EF00030302368984743689847064600F0DBF88F
:100F0000051E4FDB05F014FBC3680A2200210AA866
:100F100098479DF82830012262F302038DF82830AB
:100F2000E36814A89847BDF82830BDF8562062F34E
:100F30000F13ADF828306368984790F8603013F0CD
:100F4000020F3AD16368984790F8603013F0040FAD
:100F500035D16368984790F8603013F0080F30D1AE
:100F60006368984790F8603013F0100F14BF0622A2
:100F700000229DF82A3062F303038DF82A30EDB287
:100F8000F36828469847BDF82A3060F30F13ADF890
:100F90002A30336928469847BDF82C3060F30F1388
:100FA000ADF82C300AA8FFF715FD636898470023B9
:100FB000A0F860301B4A538123E60122D9E70422BE
:100FC000D7E70522D5E700250A950B95ADF83050F7
:100FD00005F0AEFAC3680A2229460AA898479DF888
:100FE0002830042262F302038DF82830E36824A835
:100FF0009847BDF82830BDF8962062F30F13ADF87E
:101000002830E36820A89847BDF88E30ADF82A3024
:10101000E3681CA898471F9BADF82C300AA8FFF77F
:10102000D9FCF9E560240020134672B1128882428F
:101030000DD89A8882420CD3DA888A420BD358881A
:1010400088428CBF0020012070470020704700209C
:101050007047002070470020704710B504460846CE
:1010600011460023224600F0BBF90021204600F083
:10107000E4F9C0B210BD08B5002300F0B1F908BD15
:1010800008B500F0ADF908BD08B5002100F0D5F9AC
:10109000C0B208BD08B500F0D0F9C0B208BD08B5AF
:1010A00000F076F908BD08B500F086F908BD08B56E
:1010B00000F05AF908BD08B500F0E6F908BD0000D7
:1010C00010B5436898470488003418BF012405F020
:1010D0002FFA8368224603210220984705F028FA58
:1010E0008368224603210420984710BDF8B50746BF
:1010F0000F4B1B68BBB1002425460D4E56F825301A
:1011000053B156F82530984703682BB156F825306F
:1011100098470368384698470134E4B2254656F8A4
:101120002430002BEAD13846FFF7CAFFF8BD00BFD4
:10113000280F0020F8B50746124B1B68F3B10024B6
:101140002546104E56F825308BB156F82530984775
:1011500043683846984750B156F825309847C368D9
:101160002BB156F825309847C36838469847013464
:10117000E4B2254656F82430002BE3D13846FFF779
:101180009FFFF8BD280F00202DE9F04107461A4BBC
:101190001B68002B2DD000242646174D05E0013496
:1011A000E4B2264655F824301BB355F82630002B00
:1011B000F5D055F8263098474368384698470028B8
:1011C000EDD055F82630984790F81480BB689847C2
:1011D00018EA000FE3D055F8263098478368002BB3
:1011E000DDD055F826309847836838469847002860
:1011F000D5D0BDE8F08100BF280F00202DE9F041D7
:1012000007461C4B1B68002B32D000242646194D84
:1012100005E00134E4B2264655F824302BB355F8E6
:101220002630002BF5D055F82630984743683846CD
:1012300098470028EDD055F82630984790F814804C
:10124000BB68984718EA000FE3D055F82630984756
:101250000369002BDDD055F82630984703693846DE
:1012600098470028D5D0012000E00020BDE8F0819B
:101270000020FBE7280F002008B543689847007856
:10128000C0F3400008BD704730B587B0044603681E
:1012900098474368984702461F4903A800F0E9FCB5
:1012A0009DF8153013F0020F2ED0BDF80C30CD3B59
:1012B0009BB240F29D22934229D8BDF80E2040F601
:1012C0007B039A4225D99DF81430043BDBB2382BBE
:1012D00001D9002019E00023019302934FF002038B
:1012E000012565F387138DF8043005F021F9436873
:1012F00001A898476368984790F8603043F002036C
:1013000080F86030284600E0002007B030BD0020A3
:10131000FBE70020F9E700BF6C24002008B54FF47C
:101320009F7354224021024800F08EFC08BD00BF8C
:101330006C240020004870471CCB010010B51446F7
:10134000012802D0022805D010BD1A46204600F020
:1013500081FDF9E71946104600F04AFDF4E701481F
:10136000704700BF34CB010038B505460368984785
:1013700048B10024AB68E0B29847034630B9013465
:101380000A2CF7D100E00023184638BD0123FBE703
:1013900038B505460368984750B10024AB6AE0B2FF
:1013A0009847012806D001340A2CF7D1002000E02C
:1013B000002038BD0120FCE738B505460368984792
:1013C00050B10024AB6AE0B29847032806D001343C
:1013D0000A2CF7D1002000E0002038BD0120FCE7F6
:1013E0002DE9F84F824689461646984600252F4635
:1013F00009E07B1CDBB20AF807404B451BD01F46B7
:1014000001350A2D17D0ECB2B36A20469847002860
:10141000F6D0F368204698478346336920469847BC
:10142000B8F1000FE5D0424601465846FFF7FCFDF3
:101430000028DED1E4E7BDE8F88F2DE9F843074640
:1014400088460024264604E00136F6B201340A2C10
:1014500017D0E5B2BB6A284698470028F6D0FB684B
:101460002846984781463B6928469847B8F1000FBF
:10147000EAD0424601464846FFF7D6FD0028E3D1B0
:10148000E4E770B2BDE8F88338B5054603689847CD
:1014900060B10024AB6AE0B2984728B901340A2C45
:1014A000F8D14FF0FF3038BD60B2FCE74FF0FF30AD
:1014B000F9E7000008B5436898470078C0F3C0001A
:1014C00008BD064B43221A80BE225A8040F2F532F4
:1014D0009A8040F6B502DA80704700BF8824002069
:1014E000F0B585B0044643699847244DA876236833
:1014F000984743689847024605F1080102A800F0A2
:1015000078FA9DF80830022B03D00025284605B054
:10151000F0BDBDF80A70BDF80C602A463146384669
:10152000FFF782FD05460028F0D0002300930193C9
:101530004FF00203042262F38503012565F387134C
:101540008DF8003047FA02F38DF8023046FA02F3C4
:101550008DF8033006F00F0646EA07168DF8046092
:1015600004F0E6FF4368684698476368984790F838
:10157000603043F0080380F86030C7E7882400201B
:1015800010B584B00D4C46230393642302931E23AD
:101590000193032200921223012104F1080000F0BC
:1015A00001FA43232380BE23638040F2F533A380F6
:1015B00040F6B503E38004B010BD00BF88240020CE
:1015C000004870473CCB010008B543689847037852
:1015D00013F0240F14BF0120002008BD38B5436864
:1015E0009847C58804894188294482882244034B4E
:1015F0005D809C80D9801A8138BD00BFC024002046
:101600002DE9F04784B08046436898470378C3F3D8
:101610008009C3F34017D8F8143098473F4D85F838
:101620002600D8F80030984743689847024605F1ED
:10163000140102A800F0DDF99DF808A0BDF80A60C9
:10164000BDF80C40AA1C21463046FFF7EDFC30BB2C
:1016500005F10A0221463046FFF7E6FC0346002862
:101660005AD1184604B0BDE8F0872C4B1A700023FD
:10167000F7E71FB3294B1B78012B1FD00023F0E79E
:10168000D8F80430984790F8603043F0040380F8AD
:1016900060300123E5E70023E3E70023E1E70022D0
:1016A000BAF1010FE1D0BAF1020FF4D1B9F1000F94
:1016B000DFD01FB9194B1B78002BEED1002301930B
:1016C0004FF00203012262F3850362F387138DF862
:1016D0000030124D2B788DF8013033118DF8023027
:1016E00023118DF8033004F00F0444EA06168DF838
:1016F000046004F01DFF4368684698472B78002B70
:10170000BED0D8F80430984790F8603043F02003FA
:1017100080F860300123A4E70122C1E7C024002043
:1017200030B587B00546036904A898479DF8133083
:10173000FBB9264C4623039364230293242301938D
:101740000523009312230222114604F1140000F035
:1017500029F96B689847C588018942882A4483889B
:101760000B446580A180E28023816F2140F6F40262
:101770001FE0164C0A23039364230293242301934E
:101780000723009312230322022104F1140000F026
:1017900009F96B689847C588018942882A4483887B
:1017A0000B446580A180E280238140F22C4140F609
:1017B0006602064B43205881998140F2F531D98168
:1017C0001A8200221A7007B030BD00BFC02400206A
:1017D0000048704754CB010010B50446028B038AC1
:1017E0009A4202D90123C375037594F82730012B5F
:1017F00012D0A37C012B14D0A27D0D4B53F82230C4
:1018000020469847012811D0022814BF002002204A
:10181000A38D0133A38510BD0423E3750123237534
:10182000E7E70523E37501232375E5E70120EFE7EB
:10183000380F0020C289B0F91A30B0F922105B1AB3
:10184000002BB8BF5B42934218DCB0F91C30B0F9F2
:1018500024105B1A002BB8BF5B429A4210DBB0F930
:10186000282043889A4207DCB0F92C304089834213
:10187000CCBF002001207047002070470020704737
:101880000020704770B5044690F82650012D05D908
:10189000AB1EDBB2012B08D9002070BD01230375FC
:1018A0000020A0750323E375F7E7068D013636B2F5
:1018B0000685FFF7BFFF08B901232375032D01D06B
:1018C0000020EAE723889E42BCBF0123237563887A
:1018D0009E42C4BF012323750023A375627D237B31
:1018E0009A4201D00020D8E7B4F92A30A288934266
:1018F000BCBF01222275E2889342C4BF0123237535
:10190000B4F92C3022899342BCBF0122227562892E
:101910009342C4BF0123237500236385237D4BB10C
:1019200000202075A685E38B6383238CA38301238A
:101930006375B2E7002363750220AEE710B5044675
:1019400090F8263023B9438D01334385002010BD24
:10195000012B25D1FFF76EFF18B90223E375012390
:10196000237501222285637D1344DBB26375A27562
:10197000B4F92210E183B4F9242022843BB1237D01
:101980002BB9607D012814BF00200120DFE7002073
:1019900020750123A38560856183A2836375F0E7C9
:1019A0000020D4E730B4BDF80850BDF80C400280E8
:1019B000438001FB02F292B2AB1A8380A21AC2806A
:1019C000058144810173BDF81030C381BDF8143026
:1019D0000382002303754375438583850385C3759F
:1019E0004FF6FF7242838283C2830284837530BCC8
:1019F0007047F0B585B005460C46164600230193A6
:101A00000293ADF80C30898B608BFEF7B5FFD0B137
:101A10000A2201A93046FEF723FF012822D900231C
:101A2000237563756385A3852385E3754FF6FF7280
:101A30006283A283E2832284A3752B706B80AB80C8
:101A4000284605B0F0BD0023237563756385A38523
:101A50002385E3754FF6FF726283A283E2832284BB
:101A6000A375D5E79DF8047000B3F368384698472E
:101A70006084336938469847A084B36A38469847EB
:101A800084F82600B3693846984720833046FFF72C
:101A90000EFBA0B9002384F827302046FFF79CFEF8
:101AA000628BA38B28706A80AB80C9E74FF6FF7307
:101AB0006384A384002384F826302383E6E701238C
:101AC00084F82730E9E700BF70B504460E46157864
:101AD0008B6A28469847012801D0012070BD002359
:101AE00023806380A380E38023816381A381E381DA
:101AF00023746374227E02F0F80263F3C302227639
:101B0000F36828469847A081336928469847E081C2
:101B1000237C01332374E0E72DE9F04104460F46AE
:101B20001678CB683046984780463B6930469847E0
:101B30000546BB6A30469847032841D0A389A8EBE5
:101B400003031BB22380B4F902209A42B8BF1A469D
:101B500016466280B4F904709F42A8BF1F46A78052
:101B6000E089281A00B2E080B4F908208242B8BFA8
:101B700002462281B4F90A108142A8BF0146618160
:101B8000B4F9125001EB050C604553DA491B884249
:101B900050DD521B904203DC227E42F0020222768C
:101BA000EA1993424BDA7F1BBB4248DD721B93421A
:101BB000DEBF237E43F0080323760120BDE8F081D9
:101BC00000232374B4F90020E38A9A4222DB217EA9
:101BD00001F00801002914BF0020102059428A4258
:101BE00006DC227E12F0040F04BF40F00800C0B2F1
:101BF000B4F9062093420FDC237E13F0020F0BD1C1
:101C000040F00400C0B29142D8DB237E13F0010FF4
:101C100008D0D3E70020E1E7914207DB237E13F0F1
:101C2000010F03D140F00200C0B2C7E7002808BF8F
:101C30000120C3E7217E41F001012176A9E7227E40
:101C400042F004022276B1E741828282C3820023FD
:101C5000038043808380C380038143818381C38168
:101C600003744374027E02F0F80263F3C302027647
:101C700070472DE9F04186B004460D461646002314
:101C80008DF81730314903AA03C982E80300009395
:101C90000193ADF808300A2269463046FFF7DDF9B6
:101CA00080469DF800708DF81770B36A38469847E3
:101CB000002831D0B8F1010F2ED1B36938469847CA
:101CC000AB8A834228D3B3683846984720BBF36871
:101CD0009DF817009847804633699DF8170098478C
:101CE00007462B7C06AA02EB830353F80C3C0DF14C
:101CF0001702314628469847A989EA896B7C5E1C01
:101D00006E7421806280A4F80480E7802372607280
:101D1000204606B0BDE8F08100232B806B80AB80AD
:101D2000EB802B816B81AB81EB812B746B742A7EF2
:101D300002F0F80263F3C3022A7623806380A38053
:101D4000E380237201236372E2E700BF6CCB0100E2
:101D5000014B1888704700BF042500200A207047F7
:101D6000024B5B6803EB0010807B7047042500206A
:101D7000024B5B680001185C704700BF042500201F
:101D8000024B5B6803EB001040887047042500207D
:101D9000024B5B6803EB001080887047042500202D
:101DA000024B5B6803EB0010C088704704250020DD
:101DB000024B5B6803EB001000897047042500208C
:101DC000024B5B6803EB001040897047042500203C
:101DD000024B5B6803EB00108089704704250020EC
:101DE000024B5B6803EB001040787047042500202D
:101DF000014B198058607047042500200048704747
:101E000074CB010001EB4011024B1B6833F9110048
:101E1000704700BF0C25002001EB4011024B5B68AE
:101E200033F91100704700BF0C25002001EB401171
:101E3000024B9B6833F91100704700BF0C2500204E
:101E400001EB4011024BDB6833F91100704700BF12
:101E50000C250020014B43F8210070470C25002081
:101E6000014B03EB80007047A0CB0100704700BF1F
:101E70002DE9F043054683B0092002F04BFB804674
:101E80000A2002F047FB07460DF0CEFE0446194E2D
:101E900098F80000184902F04FFBDFF86C903246CA
:101EA0002046002103F080FBEDB298F800001349B2
:101EB00002F042FB2B4642462046494600960FF070
:101EC000CBF838780E4902F037FB32462046002125
:101ED00003F006FF38780B4902F02EFB00962B46E4
:101EE0003A4609F1240120460FF004F903B0BDE899
:101EF000F08300BFD14500008D570000515700000E
:101F0000415F0000495E0000280E0020002330B52C
:101F10000F4A104D83B0044629461268632000938F
:101F20008DF8043000F0CEFC0120FFF7A1FF0A4B32
:101F300029461A68632000F0C5FC01238DF80030A3
:101F400000989DF8043020602046237103B030BD16
:101F5000A0040020288C0100A404002038B50B4BFD
:101F60000B491A68632000F0ADFC0A4C04F1180517
:101F700054F8043B1B699847AC42F9D1064B04491D
:101F80001A686320BDE8384000F09CBCA004002023
:101F9000648C010028000020A404002010B50B4B25
:101FA0000B4C1A682146632000F08CFC094A0A4B4E
:101FB000127853F82230DB689847084B2146BDE879
:101FC00010401A68632000F07DBC00BFA004002010
:101FD000588C0100400F002028000020A40400209D
:101FE00010B50B4B0B4C1A682146632000F06AFCBD
:101FF0000021094B094A1B6811705B689847084B20
:102000002146BDE810401A68632000F05BBC00BFA9
:10201000A00400204C8C010028000020400F00206C
:10202000A404002000232DE9F041504D8CB004465B
:1020300002A800938DF8043007F062FE2B78002B85
:102040005FD04B4A4B4B1278684653F822309B685E
:1020500098472B789DF817209A4250D09DF817305A
:10206000DBB2002B2B700CBF02250125424B9DF8E3
:102070002A201978914204D09DF82A00C0B2187025
:1020800030B39DF8203013B101238DF800309DF856
:1020900021301BB10122394B83F82220012D1AD0A7
:1020A000022D0BD09DF8002082BB00989DF80430D3
:1020B0002060204623710CB0BDE8F08107232C4D31
:1020C0008DF800302B78052BEFD00527B8460BE0B4
:1020D0000AF07CFAD5E70623254D8DF800302B78E1
:1020E000042BE2D00427B846224E56F82330DB6892
:1020F000984756F828302F705B689847D5E7002539
:10210000B4E79DF81720002AA4D19AE7184D013AA8
:1021100029780B46062AC8D801A050F822F000BF43
:102120003D21000055210000AB2000004B210000A4
:10213000AB200000E1200000C72000000029B4D03F
:1021400001290CD00027B846CEE70329ADD00327DC
:10215000B846C9E70129A8D00127B846C4E700223C
:102160000748174602709046BEE700BF420F0020A6
:10217000400F002028000020410F0020BC0D00204F
:10218000B80D002038B5114B11491A68632000F0D2
:1021900099FB0AF099FF10B90E4B1A789AB90E4CB8
:1021A00004F1180554F8043B1B689847AC42F9D178
:1021B00000240A4B0A4A1C70126805496320BDE8D6
:1021C000384000F07FBB1870E9E700BFA004002092
:1021D000408C0100420F002028000020400F00200A
:1021E000A404002030B4184D0022D5F8014001327B
:1021F0002346186802EBC201294480B1586898B19F
:102200009868B0B1D868C8B1042A1BD0D1F80130A1
:102210000132186802EBC20129440028EED120687F
:10222000186058680028EBD16068586098680028EA
:10223000E8D1A0689860D8680028E5D1E068042A51
:10224000D860E3D130BC70474004002030B4184D52
:102250000022D5F8014001322346186802EBC20182
:10226000294480B1586898B19868B0B1D868C8B1AD
:10227000042A1BD0D1F801300132186802EBC201E8
:1022800029440028EED12068186058680028EBD156
:102290006068586098680028E8D1A0689860D8689D
:1022A0000028E5D1E068042AD860E3D130BC70474B
:1022B0007004002010B501F0EBFF094B1B68984734
:1022C000084B1B689847084B1B689847BDE81040AF
:1022D000064A074B127853F822305B68184700BF54
:1022E00014000020800D0020480D0020440F002025
:1022F00098930100F0B50024A3B017AE21463046F4
:102300002C2211ADCDE91144CDE913441594ADF85B
:10231000584016F054FB0BABCDE90333CDE908442C
:10232000CDE90644CDE90056074F05930EA80C945D
:102330000B94CDF833402B463C682A460290294640
:102340000B20A04723B0F0BD0C2600200B4A08B597
:1023500012780B4B53F82230DB689847FFF7CAFF1F
:10236000084B1B699847084B1B699847074B1B692B
:102370009847BDE8084001F027BF00BF440F002088
:102380009893010014000020800D0020480D0020CB
:1023900070B505468AB007F063FF022D24D0032DE7
:1023A00020D0012D044614BF04460024274D2B786D
:1023B000A34215D0684607F0A3FC2B78012B15D05B
:1023C000234E56F82330DB68984756F824302C709B
:1023D0005B68984728780AB0BDE8704007F046BFB0
:1023E0000AB070BD0224E1E70124DFE7002CE7D149
:1023F0009DF822309BB90AF067FED8B100242A78F4
:10240000134B53F82230DB689847124B2C705B68F3
:10241000984722461049642000F054FADAE70AF09F
:1024200017F8044609F0AEFF0AF04EFE0028E5D189
:10243000002CE3D10024FFF789FF2C70FFF73AFF4F
:1024400022460649642000F03DFAC3E7440F00200D
:102450009893010014000020449301007093010040
:102460002DE9F04792B007F02FFC08A807F048FCD0
:10247000584A594B127806A853F82230574C9B689B
:1024800098479DF819909DF81A6003F0D7FF07F060
:10249000F7FE22789DF8263082469A4206D09DF8B3
:1024A000260005F01FFF9DF826302370012400252B
:1024B0004B4BDFF84C81986805F0C0F949484A4F0A
:1024C0002246214643460390CDE9015500946420FD
:1024D00000F0ACF93B6898F80020997891420FD051
:1024E000CDE901552546414A023303920094224624
:1024F0002146642000F09AF93B689B7888F8003008
:102500000DF0C6FE3B688DF81700DB7883421BD1C7
:10251000BAF1000F29D145BB5EB39DF83930002BCD
:102520009DF8383018BF00263BB3002007F09EFE10
:102530004FF00109012E2DD076BB4846FFF728FF4A
:10254000012012B0BDE8F087012200232848CDE920
:10255000013303900DF1170364200092114600F03F
:1025600065F93B68D8780DF07FFE002007F08EFEFD
:1025700002269DF83830002BD7D19DF82F30FBB9BB
:102580009DF82730002BD5D007F06AFE0228CCD06A
:10259000012ED1D10FF018FB164B17491A68632092
:1025A00000F090F9FFF7D2FEFFF784FE134B1249BB
:1025B0001A68632000F086F9012012B0BDE8F087A8
:1025C00007F04EFE0228B0D09DF82730002BB1D086
:1025D000DAE700BF440F002098930100430F00206A
:1025E00028060020109301005C0600201C930100C7
:1025F00038930100A0040020FC920100A4040020F4
:10260000D40400202DE9F0479CB0044602A8884677
:1026100007F076FB0023524E9DF81F20C6E90033D9
:10262000C6E902333382002A54D094F82B0094F880
:102630002AA094F82990504594F828E036D8A0F1C3
:102640001B01A0F10F07821EC9B2FFB2D2B2F14541
:1026500022D84B4612E0A3F10A04022C3DD800EB2D
:10266000431438F91450022436F914C0AC45B8BFED
:1026700026F814500133DBB29E450DD3022AEAD965
:10268000022F33D8A3F10A04022C41D800EB4314E3
:1026900038F914500524E7E70130C0B201310137A1
:1026A00001328245C9B2FFB2D2B2D0D23E2200215D
:1026B0000DF1320016F083F9002340F60115822453
:1026C00000961A460CA91E20ADF830508DF8354002
:1026D00007F044FF1CB0BDE8F0879C1F022C23D8F4
:1026E00000EB431438F914500124BDE70229C1D886
:1026F000A3F10A04022C20D99C1F022C29D99C1E6C
:10270000022CB7D800EB431438F914500624ABE779
:102710009C1F022C17D99C1E022CABD800EB431433
:1027200038F9145003249FE79C1E022CA2D800EB1A
:10273000431438F91450002496E700EB431438F999
:102740001450082490E700EB4315042438F9155081
:102750008AE700EB431438F91450072484E700BFDC
:10276000480F0020F0B5204E83B0054601F120004F
:1027700014461F467160FDF785FD1C4B1C4A996885
:10278000213037604860946060782278E37802FBFB
:1027900000F203F07F0303FB02F3164C22790B6077
:1027A000D3B2012B01D003B0F0BD7721FF221E462A
:1027B000114F397022712379FF2B10D12022294625
:1027C000684616F0CDF8009B032B04EB830206DC71
:1027D000019BD2F8052006FA03F31342EBD105233F
:1027E0003B7003B0F0BD00BF8419002080060020BC
:1027F00064080020FC1B00203007002070B515463F
:1028000000F120042046DF220E4616F097F945B16C
:102810003046FDF737FD2946C0F1DF02204416F0AF
:102820008DF92046BDE87040FDF72CBDF0B5C3B072
:1028300004460E4615460146202202A81F4616F001
:102840008FF8029B032B0EDC01221D48039900EB3D
:102850008303D3F805C002FA01F313EA0C0F02D088
:102860000379934201D043B0F0BD4FF48072002150
:1028700002A816F0A4F800234B99DF220AA8CDE99C
:10288000003316F05BF90AA8FDF7FCFC9DF803C0C5
:10289000489B499A8DF8070063F3060C20464A9C32
:1028A00062F3C71C3B4602A96A468DF800608DF8AA
:1028B00001508DF806408DF803C0FFF753FFD2E7B3
:1028C000FC1B0020F0B5C3B004460D461646014679
:1028D000202202A816F044F8029B032B0DDC0122F3
:1028E0001649039801EB8303D3F8057002FA00F34D
:1028F0003B4202D00B79934201D043B0F0BD002798
:102900004FF48072394602A816F059F8324629462B
:1029100002A8CDE90077FFF771FF3B468DF807006D
:102920006A4602A92046ADF800708DF803708DF854
:1029300004708DF80670FFF715FFDEE7FC1B002022
:10294000F0B585B0654601F043FE01F073FE00214D
:10295000084601F027FBD5E90121044600270120A4
:102960000426CDE90107054823460390009672200E
:10297000FFF75CFF204605B0F0BD00BF5495010095
:102980002DE9F04790F815C082B0BCF1000F2BD0B4
:102990001C4600254FEA4C0606EB8C0603EB061698
:1029A000216294F8247084F8245094F8257084F8F7
:1029B000255094F8267084F8265094F8277084F8EF
:1029C000275094F8287084F8285094F8297084F8D7
:1029D000295094F82A7084F82A5094F82B7084F8BF
:1029E0002B503034A642DBD1BCF1000F2FD09846DB
:1029F0009146824600269AF814301BB300257700D2
:102A0000DAF8003006225C5D68466110013115F08D
:102A1000A7FF9AF8142004F0010406FB0291009B22
:102A20003C449B0004EB440403EB041401984B5D0D
:102A30004444216A00EB8000834001350B43AA42E5
:102A40002362DDDC9AF815300136B342D3DC02B0E4
:102A5000BDE8F0872DE9F04100241962196593F86B
:102A6000241083F8244093F8251083F8254093F828
:102A7000261083F8264093F8271083F8274093F810
:102A8000541083F8544093F8551083F8554093F848
:102A9000561083F8564093F8571083F8574093F830
:102AA000281083F8284093F8291083F8294093F8D8
:102AB0002A1083F82A4093F82B1083F82B4093F8C0
:102AC000581083F8584093F8591083F8594093F8F8
:102AD0005A1083F85A4093F85B1083F85B40017DED
:102AE00082B019B306461D46571E3368062213F8F6
:102AF000048068464FEA6801013115F031FF08F0A3
:102B0000010800994FEA480290448A0002EB08123B
:102B100001992A4417F8013F106A01EB81018B40AB
:102B200003431362337D0134A342DEDC02B0BDE80F
:102B3000F08100BF2DE9F04F95B004AFD1F801301E
:102B400004463863022100203B6101F02BFA00218A
:102B50003862084601F026FA01F06CFBEC46257D50
:102B6000647D804604FB05F2D01DC008ACEBC000BC
:102B70008546EC46960006F10A03DB08ACEBC30C75
:102B800004A8E54600210DF1100CC7F824C0FC6232
:102B9000FE60786115F013FF3246FF21786A15F068
:102BA0000EFF042307F1400202F8043D1146012004
:102BB0007A6001F05FFC3B699A68AB009178FB6139
:102BC000D37812785B1A01339A4240F32F810A239B
:102BD0004FF000092E46BB626300BB60BB6A984998
:102BE0001F2B40F310811A4601FB03F103EB431343
:102BF00002EB431303EBC33301F1404103F14043C4
:102C00002031904A013341F01F018F489362C2E99D
:102C1000081330328242F8D1012204248B4B0192F6
:102C2000CDE902930094BD6A11467B686420FD6380
:102C3000FFF7FCFD3D6AFA680021284615F0BFFE4B
:102C4000FB6A002B00F0D38000234FF0405B7D63D4
:102C5000BB614FF0000A01254FF4FA74BB693A6971
:102C60005344137701F0B4FC01F0E4FC8BF8F3500B
:102C7000D6B1D7E90C3C186806EB000E10F8013B02
:102C800003F0010252450BD15B1008EBC313B3F8FC
:102C900040201988DCF80030521A1344CCF8003078
:102CA00070450CF1040CE9D1013C8BF8F390D9D1BB
:102CB000BAF1000F02D14FF0010ACDE77A6BF96942
:102CC000BB690A447A63BA6802339342BB61C0D1DC
:102CD00004235F4ACDE90034CDE902423D6A324621
:102CE0002B46F96A6420FFF7A1FD7B6AD7F814A090
:102CF000D7F828B0A5F1040CA3F1040E86B17246F2
:102D00006046002350F8041F52F8045FA94238BF00
:102D10000AF803B003F1010338BF11609E42F1D1FC
:102D2000FB6901349C449E44FB6AB244A342E5D152
:102D30000123484ACDE90039CDE90292FD6A7B6959
:102D4000324629466420FFF771FD0423BA6A2946FA
:102D500001321446BA62404ACDE90039CDE9029207
:102D600064207B6A3246FFF761FD3E2C7FF436AF6C
:102D7000FB6A3546B3B100227B6A384E191F5DB13C
:102D80000C46002054F8043F0130A6FB03C38542E3
:102D90004FEA53132360F5D1FB6901321944FB6AF2
:102DA0009342ECD1002400222D496420FFF78AFDD4
:102DB0000122284B642003937B69CDE901440092F2
:102DC000FE6A2A463146FFF731FD22462549642036
:102DD000FFF778FD0420CDE901441F4B2A460393F9
:102DE0007B6A314600906420FFF720FD23E0184BFA
:102DF00032460393F96A0094CDE9011164203B6ADD
:102E0000FFF714FD94E7BB6A1A4601FB03F103EBDD
:102E1000431302EB43130B4A03EBC3330A48936299
:102E2000C2E9081330328242F8D1F5E600220E4999
:102E30006420FFF747FD4437BD46BDE8F08F00BF73
:102E40002084100298000460380604608C9401000D
:102E500098940100AC940100B8940100D34D621025
:102E6000C4940100D8940100E89401002DE9F043D6
:102E7000437D8646007DF3B1002601F1FF3C0F49FA
:102E80004FEA430898B16446DEF80020871812F82C
:102E9000019B14F8015F09F00103334403EB430382
:102EA00001EB031303EB59039742DD73EFD10236B5
:102EB00046458444E6D1BDE8F08300BF9800046035
:102EC00070B5644684B0DCF800000E460125FFF7BB
:102ED000CDFFD4E901210020054CCDE901003346A6
:102EE000009503946420FFF7A1FC04B070BD00BFFF
:102EF00058940100427D02B3F0B40026037DDFF850
:102F00003CC0ABB100247700056806FB03122D5DC1
:102F100005F001033B4403EB43030CEB031303EB0A
:102F20005503DB7B1355037D0134A342ECDC427D6A
:102F30000136B242E5DCF0BC70477047980004608F
:102F40002DE9F04F8146A5B0049160220F460CA8F0
:102F5000002115F034FD4FF4B4620021864815F0CD
:102F60002EFD99F81480B8F1000F21D0002301251F
:102F7000D9F800607C7F9C4217DCBA7F9A4214DB50
:102F8000F25C02F0010E4FEA4E0171441F2A0DF16E
:102F9000900E05FA02FC0EEB011100F3578251F876
:102FA0005C2C42EA0C0241F85C2C01334345E2D12F
:102FB00099F81550002D00F0598200210124D9F80C
:102FC0000420A81812F8013B04FA03F3904241EAE6
:102FD0000301F7D1C1F3130200234FF0405C9DF8C9
:102FE0003E00049E9DF86E707668140C20F00F0071
:102FF00092B22043ADF83C20ADF86C209DF8312012
:1030000027F00F078DF83E0030783C436FF3C30282
:103010008DF86E408DF85F00BDF838408DF88F0058
:103020008DF831209DF83A009DF85E2004F00304ED
:1030300020F03F0022F01F029DF86170ADF838408B
:103040008DF83A00BDF868409DF86A008DF85E2062
:103050009DF88E2063F3C30722F01F0204F00304DF
:1030600020F03F008DF88E200696ADF85C308DF88C
:103070003B30ADF88C308DF86B308DF86170ADF869
:1030800068408DF86A00049E3269CCF84810002D23
:1030900000F0CF814FF0010B4746CDE901329A464F
:1030A000354B039341F480130B932AF003031A4624
:1030B0004FF0000ED9F804C007931CF80A30043210
:1030C0000BFA03F8C8F31308C8F30D039B00099328
:1030D000CDF814804FEA9833039CDDF818800892ED
:1030E0000A9326464FEA4E0524AB754403EB0515BB
:1030F000603D0FCD0FC60FCD0FC695E80F0086E8D7
:103100000F00019A238862F309032380002F00F047
:103110008E8102996FF000420B460F4413F8011B99
:103120008A42A8BF0A469F42F8D1D2B2E27298F80A
:103130000630002B40F05B812368059A62F31F3351
:10314000236094F82E3098F8052023F01F0399F897
:10315000151084F82E304FF00003501EA38506286A
:1031600000F28781DFE810F01C010901E300E100B3
:10317000DF00DD000A0000BF980004600B1F53450C
:1031800040F372810CEB0A031D7994F82E300BFA90
:1031900005F5C5F3044023F01F030343A58584F818
:1031A0002E30C5F31405BAF1030F12DD0CEB0A0340
:1031B00013F8040C94F82E300BFA00F00543C5F315
:1031C000044023F01F030343A58584F82E30C5F384
:1031D0001405CB1E534511DD0CEB0A03D87894F887
:1031E0002E300BFA00F00543C5F3044023F01F0313
:1031F0000343A58584F82E30C5F31405BAF1020FF8
:1032000012DD0CEB0A0313F8030C94F82E300BFAC2
:1032100000F00543C5F3044023F01F030343A585D5
:1032200084F82E30C5F314058B1E534511DD0CEBCD
:103230000A03987894F82E300BFA00F00543C5F392
:10324000044023F01F030343A58584F82E30C5F303
:103250001405BAF1010F08DD0CEB0A0313F8023C68
:103260000BFA03F31D43C5F31405236894F82E00ED
:1032700045EA133545F48015C5F3140320F01F000B
:10328000013940EA13405145A58584F82E000FDD31
:103290000CEB0A035B78C1B20BFA03F32B43C3F3C5
:1032A000140321F01F0141EA1341A38584F82E1075
:1032B000BAF1000F07D0D4441CF8011C0BFA01F13D
:1032C0000B43C3F3140383F4FF130B9883F4FF53EE
:1032D00094F82E1083F01F030340C3F3044021F041
:1032E0001F010143012AA38584F82E100BD0DB4374
:1032F000E268A17BC2F31302134021F00F0242EAFD
:103300001342A381A2733034BEF1000F57D1049B46
:10331000D9F804C0D3F8048099F814704FF0010E66
:10332000DFE6002555E700257EE700259DE701390A
:10333000514540F381800CEB0A035B7894F82E1022
:103340000BFA03F3C3F3044221F01F011143A385D9
:10335000C3F3140284F82E10BAF1000F70D0D444D5
:103360001CF8013C0BFA03F313430B9AC3F3140349
:103370001340C3F31401DB4308E0404A236882EAA8
:1033800013330B9A1340C3F31401DB4394F82E203C
:10339000A18522F01F0242EA114284F82E20A7E7FD
:1033A0004FF0000294F82E30A28523F01F0343F063
:1033B000100384F82E303034BEF1000FA7D0019AEC
:1033C00099F815302032C2F309020192039A0AF1EA
:1033D000010A60320392029A534502F120020292DE
:1033E00027DD049B99F814705B6806935DE6079BE4
:1033F0000CEB0301089B0CEB030511F8013B206863
:103400000BFA03F3226843EA103363F31F328D4251
:103410002260F2D12389099A03F003031343238125
:10342000A37A0A9A23F03F031343A37289E6FF228B
:103430007CE625B0BDE8F08F0022BAF1000F8ED1F6
:103440000B9B1340C3F31401DB439FE711F8580CA7
:10345000203A844605FA02F2C0F30100024362F307
:10346000010C01F858CCA0E500259CE62A46294627
:10347000B2E54FF0FF33002188E700BFFFFF0F00E8
:10348000002900F09F802DE9F04FD1F80120ADF523
:10349000017D0CCA93F8009093F801B01278884629
:1034A00009EB0B0708A9064605929D7893F804A03E
:1034B000DC78FFF71FFD444BF9B2481C83F8290064
:1034C00009F1010C09F1FF3083F8221083F824C0C0
:1034D00083F82500059A002A6FD1A9F10A0983F81B
:1034E00027904FF00009384B4A469E460AF03F0CA1
:1034F00005F01F0004F00F0183F8289002F1140377
:103500000EEB43039C7801326CF305049C705C88DD
:10351000112A60F38A14C4F3072561F3C6055C80A1
:10352000DD70EBD14FF04050002280F8A720347DB1
:10353000BCB14FF0010C3168234D013911F8013F46
:103540001C2BEA5402F1010209DD90F8A7E01D3BB3
:103550000CFA03F343EA0E03DBB280F8A730A24271
:10356000ECD1D8F801103046FFF7EAFC08A9304644
:10357000FFF77CFCD8F8013030465968DA68C97921
:10358000124BFFF7FDF949F640437F00012400206C
:103590000422033793FBF7F70D490290CDE900248D
:1035A000039107AB2246214664200797FFF73EF9B7
:1035B00020460DF5017DBDE8F08F0BF1010B83F87E
:1035C00027B08EE70846704700000460980004604A
:1035D00044950100F0B50C4699B0602200210746E1
:1035E000684615F0ECF930220021544815F0E7F94F
:1035F0004FF4F0709DF80130626843F008038DF8D5
:103600000130BDF80010537960F30901013BADF8BA
:103610000010032B03D8DFE803F07F6D02024FF0A8
:10362000FF344FF0405100209DF82E30ADF82C4073
:1036300043F01F038DF82E30C1F830014FF00133F5
:1036400000216D461278CDF813308DF82F20CDF87B
:103650001730CDF81B308DF81F30CDF80F308DF8B6
:103660000B100CAC0FCD0FC40FCD0FC495E80F009D
:1036700084E80F003D7D3DB33C680126254407E00A
:1036800052F85C3CA54243EA070342F85C3C1BD07D
:1036900014F8013B03F00100420002441F2B18A85C
:1036A00006FA03F700EB0212EADD12F8581C203B81
:1036B000084606FA03F3C1F301010B4363F301006B
:1036C000A54202F8580CE3D16C461C4F0FCC0FC733
:1036D0000FCC0FC794E80F0087E80F00184E0CAD11
:1036E0000FCD0FC60FCD0FC695E80F0086E80F006F
:1036F00019B0F0BD4FF0FF344FF0405100209DF85D
:103700002E30ADF82C4023F01F0343F00F038DF84B
:103710002E30C1F8300191E700204FF040519DF864
:103720002E30ADF82C0023F01F03064843F01003A1
:103730008DF82E30C1F8300180E700BF38060460F4
:1037400068060460FFFF0F00002900F086802DE965
:10375000F84FD1F80160424AD6E900531C7893F83B
:10376000018095F800A004EB0805EDB204F1010911
:1037700093F802C093F804E0DF7805F1010B5FFADB
:1037800089F9631E82F829B082F8225082F8253028
:1037900082F82490BAF1000F5AD10A3C82F82740EF
:1037A00000242F4B224698460EF03F0E0CF01F0CC3
:1037B00007F00F0783F8284002F1140308EB4303D6
:1037C0009C7801326EF305049C705C88112A6CF3BE
:1037D0008A14C4F3072567F3C6055C80DD70EBD15E
:1037E0004FF0405500221F4C1F4B85F8A72084F84E
:1037F0002F9083F82F90077DCFB14FF0010E046812
:10380000DFF85CC0013C14F8013F1C2B0CF80320CE
:1038100002F1010209DD95F8A7801D3B0EFA03F3C2
:1038200043EA0803DBB285F8A730BA42EBD10D4674
:1038300004463146FFF7CEFED5F8013020465968E0
:10384000DA68C979074BFFF705F90120BDE8F88F61
:1038500008F1010882F82780A2E70846704700BFF8
:103860004C0004603806046068060460F0B400256B
:103870004FF040530326D0F8011001248A684D749C
:103880001778042083F82C7157784FF4B47C83F8B0
:103890002D71977983F82A71177A83F82B719778AD
:1038A00083F82E71D27883F82F21D1E9002117787F
:1038B00083F8257183F88E60C9780F27491B18BFDC
:1038C000012183F8841083F8814083F8805083F8C5
:1038D000AE0083F8AF00557893F8891085EA0406A6
:1038E00066F30511022683F8891093F8A11065F399
:1038F000041183F8A11083F88D0083F8B04083F899
:10390000C570A3F8C8C083F8CC60507A517983F8A9
:103910000001907883F80501D07883F80A0183F8D4
:103920000D11117983F81011117A83F8DA10D27918
:1039300083F8A020F0BC00F07FBD00BF012138B5A6
:103940004FF04053D0F80140084693F8415100F041
:1039500029FB637C0649EDB200EBC31001EB054186
:10396000802215F021F8637C0133637438BD00BFF9
:1039700080070160D0F801305B689B7953B3F0B4E5
:103980004FF0C047144EDFF854C084B000246D4699
:1039900069463A46002052F824308032B24241F85B
:1039A000043B1844F7D1394655F8043BA0EB4303D8
:1039B0005B1041F8243080318A42F5D10134202C4B
:1039C000E5D107F50077674506F50076DED104B04E
:1039D000F0BC7047704700BF000200600008006044
:1039E0004FF04053F0B503250021D0F80100012627
:1039F00082680424177883F8E07092F801C00F27DA
:103A000083F8E1C092F802C083F8E2C092F803C0E4
:103A100083F8E3C092F806C083F8E6C0127A83F810
:103A2000E720426883F88E50D278521A18BF0122DC
:103A300083F8842083F8816083F8801083F8AE4097
:103A400083F8AF40026893F8891092F801C08CEABD
:103A5000060E6EF3051183F8891093F8A1106CF32C
:103A6000041183F8A11083F88D4083F8B06083F8C7
:103A7000C57083F88750C17F01EB4101A940A3F8CD
:103A8000C81090F82010B94228BF3946B140C9B2D9
:103A900083F8CC10517A83F80011917883F80511DE
:103AA000D17883F80A11117983F81011117A83F80B
:103AB000DA10D27983F8A020BDE8F04000F0BCBC59
:103AC0004FF04053F0B403264FF0000CD0F8010043
:103AD00001258268017F147801EB410183F8E04001
:103AE000547883F8E14097788C0083F8E270D178BD
:103AF000042783F8E310917983F8E610127A83F8AB
:103B0000E720426883F88E60D278B2EB0C0218BFCF
:103B1000012283F8842083F8815083F880C00268F2
:103B200093F88910507880EA050C6CF305114FF07A
:103B30000F0C83F8891093F8A11060F3041183F837
:103B4000A11083F88D7083F8B05083F8C5C083F856
:103B50008760A3F8C84083F8CC50517A83F80011ED
:103B6000917883F80511D17883F80A11117983F8D7
:103B70001011117A83F8DA10D27983F8A020F0BC02
:103B8000704700BF2DE9F04F93B004AF07F138053F
:103B9000654C664E45F8300D07F1240807F1140A0C
:103BA00094E80F008AE80F0007F160035046414691
:103BB000CAE902567B63FCF763FB94E80F005C4C98
:103BC00088E80F00404607F13401C8E90254FCF7C9
:103BD00057FB012000F09EFC002800F09E80002191
:103BE000E9460A46BB680546D0F801005E7D1C7DAB
:103BF0000368D0F804C004FB06FBC7E903465C7801
:103C00009CF802607C604B4C597002F1140304EB89
:103C100043035988013241F4F861112A5980F4D1E3
:103C20006A460BF10703DB08A2EBC3039D469CF831
:103C3000013004AC01695A4620463B6014F0B4FEE2
:103C40003B68BBF1000F09D0224604EB0B0012F8D1
:103C5000011B0431824202F8011CF8D148F0010234
:103C60004AF00101CDE9002101205A4619462346B8
:103C700002F0FAFDD7E903214FF0000A0123DFF833
:103C8000B8800093CDE901AACDF80C8023466420CA
:103C9000FEF7CCFDD7F810B0D34542DDD646D7E9C4
:103CA000020ABAF1000F0EDD0023027DD5F80110E3
:103CB0000EFB0232496914F802C0C95C0133614449
:103CC0005345A154F1D10EF1010EDE45E9D1214653
:103CD000FFF7CCF8D7E903214FF0000A0120234673
:103CE0000090CDE901AA6420CDF80C80FEF79EFD7E
:103CF0005246104806F01F0602F1140300EB43037E
:103D00005988013266F38A11112A5980F4D1D5F805
:103D100001303A791B685A70CD463C37BD46BDE844
:103D2000F08FB868D3E700BF908B010041290000F5
:103D3000C12E000000000460589401002DE9F04FEE
:103D4000ADF5037D04AF786001200C4600F0E2FB86
:103D50000026D0F80130D4F801201B6854685A7846
:103D6000B8605E700121914607F118004FF4F072BF
:103D700094F801A014F023FEADF5F16D0DF1100BD8
:103D8000584631464FF4F06214F019FEBAF1010FB3
:103D900053DD0124A046384DFE60ABF1040B374ED5
:103DA000304611222146303614F009FEAE42F7D1DA
:103DB00001220426324B07F114000393FB681146DD
:103DC000CDE901830096034664207C61FEF72EFD59
:103DD00000F0FEFB00F02EFCFB682A4ACDE90183CF
:103DE00003924FF0C04320220F2100967220FEF76D
:103DF0001DFD59464FF0C043DFF894C007F118028B
:103E0000186851F8046F04338642BCBF1470086010
:103E1000634502F10102F3D11B4BCDF800800393FF
:103E2000FB680134CDE90133202207F118030F218B
:103E30006420FEF7FBFCA245B1D1786807F11801B8
:103E4000FFF714F801240021BB681048D3F80130B3
:103E50001A6807F1180382F80190CDE90111039067
:103E6000202200940F216420FEF7E0FC07F5FE7786
:103E7000BD46BDE8F08F00BF47060460A7000460A0
:103E80006494010030BB0100589401007494010057
:103E90008007006030B585B000F0CCFB00210846FB
:103EA00000F080F80025044604210120064ACDE9EF
:103EB000010500910392234620220F217220FEF774
:103EC000B5FC204605B030BD30BB0100012170B506
:103ED0000446084600F066F800210546012000F07F
:103EE00061F8D4F801202B1F147C011F05F17C061A
:103EF00053F8042F02FB04F2B3424FEAE21241F8F6
:103F0000042FF5D100F17C0105F1FC0053F8042FDA
:103F100002FB04F298424FEAE21241F8042FF5D175
:103F200070BD00BF704700BF4FF0405393F8412170
:103F3000002082F0010283F8412193F8432182F0AE
:103F4000010283F8432170474FF0405310B593F8B6
:103F50002430CBB172B60E4A14689CB90D490E4B91
:103F600008681160027803EBC2035B68984701237D
:103F70000A4A1375BFF34F8F4FF0405208490C7235
:103F80001370937062B610BD0CF02EFAE2E700BF1A
:103F90005C0F0020840F0020D80400200000105087
:103FA000CC22002001290CD007D3022903D1074BD2
:103FB00053F82000704700207047054B53F820004D
:103FC0007047044B53F82000704700BFAC0F00202F
:103FD000C40F0020DC0F00204FF0C04370B5584CD8
:103FE000584E594D594962682360336029601AB1AF
:103FF0005749201D08F026F873681BB155495648EB
:1040000008F020F86B681BB15449554808F01AF8BD
:104010004F4A4FF48071534807F0A4FF4D4A4FF4C4
:1040200080714D4807F09EFF4C4A4FF480714C4818
:1040300007F098FFA3681BB14B494C4808F002F801
:10404000B3681BB14A494B4807F0FCFFAB681BB192
:1040500049494A4807F0F6FF434A8821434807F098
:1040600081FF434A8821434807F07CFF424A882168
:10407000424807F077FFE3681BB14149414807F028
:10408000E1FFF3681BB14049404807F0DBFFEB68F4
:104090001BB13F493F4807F0D5FF394A5021394805
:1040A00007F060FF384A5021384807F05BFF384A74
:1040B0005021384807F056FF23691BB1364937486D
:1040C00007F0C0FF33691BB13549364807F0BAFF26
:1040D0002B691BB13449354807F0B4FF2E4A8821BB
:1040E0002E4807F03FFF2E4A88212E4807F03AFF5E
:1040F0002D4A88212D4807F035FF63691BB12C49F3
:104100002C4807F09FFF73691BB12B492B4807F020
:1041100099FF6B691BB12A492A4807F093FF244A8B
:104120005021244807F01EFF234A5021234807F05E
:1041300019FFBDE87040224A5021224807F012BF03
:10414000C40F0020DC0F0020AC0F002000008560B1
:10415000A8950100BC950100E00F0020D895010052
:10416000B00F0020C80F0020F4950100CC0F0020F4
:1041700010960100E40F002030960100B40F0020DB
:1041800050960100D00F00206C960100E80F00202F
:104190008C960100B80F0020AC960100D40F0020CF
:1041A000C8960100EC0F0020E8960100BC0F00202B
:1041B00008970100D80F002024970100F00F00207D
:1041C00044970100C00F00202DE9F047114C124E1A
:1041D000124DDFF84CA0DFF84C90DFF84C8004F172
:1041E000140754F8043F1BB15146204607F02AFF3C
:1041F00055F8043F1BB14946284607F023FF56F8FF
:10420000043F1BB14146304607F01CFFBC42E8D1D9
:10421000BDE8F087C40F0020AC0F0020DC0F0020A9
:10422000689501007895010090950100004870475D
:10423000000084600048704700000230F8B5164660
:104240001D4604460F46FFF71BF908B10F4B1F60D0
:1042500031462046FFF778FA08B10C4B5E60069AAB
:104260002946204601F082FC18B1084B069AC3E9A2
:104270000225DDE90712204601F092FC20B1034B34
:10428000089A1A61079A5A610120F8BD640F00204C
:104290002DE9F04F8DB004AF0BF0C6FC02240546AB
:1042A0003861982200215A4814F089FB594B2A7D25
:1042B0002968D3F801000094574B00F0BFFC574B1E
:1042C0006A7D6968D3F80100554B009400F0B6FC94
:1042D0002422FF215348C7F80CD014F070FB0BF0D8
:1042E000A3FC427D067DD31D03F4FC73ADEB030DEF
:1042F00004AB7A617B6041680468B960002A79D0B8
:10430000084613460A4618180DF10F0112F8013B32
:10431000C3F12103824201F8013FF7D100F086FC8E
:10432000814600F087FC8246002E6CD0A3194FF026
:10433000010B98463B4D07F11806C7F800A014F88A
:1043400001AB08224FEA4A01304614F009FB19F983
:104350000A30B96903EBC3032B44FA69585C0BFAC2
:1043600002F20243A0455A54E9D17B69D7F800A074
:1043700013B34FF0010B7B697C6823447B61BB68FE
:1043800003F1FF3814F8011B18F8019F49000822B7
:10439000304614F0E5FA1AF90930B969023303EB33
:1043A000C303FA692B44585C01320BFA02F2024350
:1043B0005A547B699C42E5D1D7F80CD00FF0B2F982
:1043C0000FF0FAF90FF068F9FDF70CFFFDF73EFF6B
:1043D0001249154A154B009138691549CDE901324A
:1043E0000C4B144AFFF72AFFFFF7F6FD2437BD46B2
:1043F000BDE8F08F00F01AFC814600F01BFC8246FD
:10440000002ED9D092E707F11806064DB1E700BF9C
:104410000000046040040020B02E00207004002042
:104420009826002060270020640400201802002045
:104430005C0A0020A80A002008B50BF00FFF054B0E
:104440001B78984204D01846BDE808400BF0E8BE3F
:1044500008BD00BFD404002010B50BF0FFFE0446D9
:104460000BF0F0FE844203D0BDE810400BF0D8BE44
:1044700010BD00BF2DE9F04100248046104B0E46D0
:10448000202221460F481C6014F099FAA04514DD43
:104490002146013E0C4D0B4F06EB080C16F8014F60
:1044A0000A4B53F8042F1078A04204BF47F821208C
:1044B0000131AB42F5D16645F0D1BDE8F08100BFD6
:1044C0005C0F0020840F0020800F0020600F002070
:1044D00070B50E4D2C68B4B1206803780A2B12D841
:1044E0000B4E56F833309847636863B12B682268E7
:1044F000191D29603AB15868037806EBC306736842
:104500009847012070BD0020286070BD5C0F00201E
:10451000D8040020074B10B403F1200453F8042FF3
:104520001178814202D0A342F8D10022104610BC7B
:10453000704700BF600F0020044B11B143F82010FA
:104540007047034A43F82020704700BFA8040020AA
:10455000253F000070B5094C094E04F1200554F8C0
:10456000040F03785A1E092A02D856F823309847B8
:10457000AC42F4D1BDE87040FFF76EBF800F002061
:10458000A804002010B572B60C4A1468A4B90C49EE
:104590000C4B08681160027803EBC2035B68984714
:1045A0000422094B1A75BFF34F8F4FF0405301227D
:1045B00006490C721A709A7062B610BD5C0F00202A
:1045C000840F0020D804002000001050CC220020CE
:1045D000FFF7BABCFFF7D6BF002208B5054B1A7229
:1045E0000CF0AAF9044B054A1A60BDE80840FFF731
:1045F000ABBC00BFCC220020A40F0020493F00002C
:1046000008B50CF0B1F9002303480449044A0360DB
:104610000B60136008BD00BFA40F0020A80F00208E
:10462000F40F0020024B1868003018BF01207047BB
:104630005C0F002008B5084908200BF0F3FCFFF7D9
:1046400089FF0CF091F9002304480549054A0360ED
:104650000B60136008BD00BF293F0000A40F0020BD
:10466000A80F0020F40F002038B572B60CF07CF9CA
:1046700000200E490E4A0F4B08601060186062B6A9
:104680000D4B1C6884B10D4BA3F1200553F8042990
:104690002168914218BF5860AB42F7D1BDE838405D
:1046A000074908200BF0BEBC38BD00BFA40F002096
:1046B000A80F0020F40F00205C0F0020A00F0020A6
:1046C000293F000008B5044908200BF0ABFCBDE809
:1046D0000840FFF73FBF00BF293F000008B504496D
:1046E000082014F051FABDE80840FFF733BF00BFBF
:1046F000293F0000082270B5304C314D23682A60F4
:10470000B3B118680278022A31D05A6882B1FFF733
:10471000DFFE00283FD001232A4A1375BFF34F8FD5
:104720004FF040520020284908721370937012E035
:1047300001260020244A23491672244A087512686B
:104740000AB1904723681868214B027853F8323039
:1047500098470023236010221E4B2A60D3F80021C3
:1047600012071CD44FF0405300225A7070BDD0F88D
:104770000120567C002EC8D1154B1B699847012398
:10478000104A1375BFF34F8F4FF040520E490E720F
:1047900013709370DFE701220B4B1A72DBE70022E4
:1047A00008240D480D49C3F8804102704FF0405372
:1047B000C1F8402100225A7070BD00BF5C0F00207C
:1047C000D408002000001050CC220020EC22002051
:1047D000D804002000E100E0D008002000000250D2
:1047E000F0B5012A83B0164605460C461F462DDC5F
:1047F0000146684614F0B4F836B3009B3F2B1D46C3
:10480000A8BF3F25019A002B134405F03F05B8BF10
:1048100000253F2B1A46A8BF3F22002B4FF0000176
:1048200002F03F03B8BF002304F1100207EB420C73
:1048300009B30A19103207EB4202907965F30500BB
:1048400090710131B142F3DB03B0F0BD104607F0C7
:1048500053FB044106FB04F40F2C294606DD01221C
:10486000684614F07DF80126009BC7E7324668468B
:1048700014F076F8C1E79CF8062063F305028CF883
:104880000620DEE7F0B5012A83B0154604460E4641
:104890001F462DDC0146684614F062F8009B2DB3DC
:1048A0003F2B1C46A8BF3F24019A002B134404F061
:1048B0003F04B8BF00243F2B1A46A8BF3F22002B5D
:1048C0004FF0000102F03F03B8BF002306F11002D1
:1048D00007EB420CF1B18A19103207EB42029079D2
:1048E00064F30500907101318D42F3D103B0F0BD46
:1048F000104607F001FBF30744BF06416E43214613
:104900002A46684654BF06F1FF36013614F028F8EF
:10491000009BC5E79CF8062063F305028CF806208F
:10492000E1E700BF30B5DCF8103085B06446984749
:10493000FFF780FED4E90232002001210425029015
:104940000448CDE9005103907220FDF76FFFA06885
:1049500005B030BD8097010030B5DCF8103085B06F
:1049600064469847FFF766FED4E902320020012131
:10497000042502900448CDE9005103907220FDF710
:1049800055FFA06805B030BD8097010030B5DCF858
:104990000C3085B0644600259847FFF74BFE012197
:1049A0000420064AA36800900392CDE90115142261
:1049B0007220FDF73BFFA06805B030BD8097010075
:1049C00030B5DCF80C3085B0644600259847FFF719
:1049D00031FE01210420064AA36800900392CDE92C
:1049E000011514227220FDF721FFA06805B030BD2B
:1049F000809701002DE9F04F0D46CC1D890087B04E
:104A000024F007040A3121F0070106AFADEB040DD5
:104A10000DF11808ADEB010D9B4606AEBC6A9DB1C9
:104A20000023013800EB050E10F8011F1AB112F82F
:104A300001C008F803C01CB154F8211046F8231037
:104A4000704503F10103EFD1EAB14FF0010A4FF0D5
:104A500000092B4B514603932A464346CDE9019961
:104A6000CDF800A06420FDF7E1FEFB6AFA6AD3F8F6
:104A700001301178D3E9002312780A299B79524436
:104A800014D006292CD06CB14FF0000C0121042465
:104A90001C48334603902A46CDE9011C009464204B
:104AA000FDF7C4FE0437BD46BDE8F08F009340F625
:104AB0004A30CDE9036BCDE9015840F212234FF49F
:104AC000487102F055F804200F4A00900392CDE996
:104AD00001995B4651462A466420FDF7A7FED2E7BE
:104AE000009340F64A30CDE9036BCDE901588223AB
:104AF0004FF4487102F03CF80420044AE5E700BF97
:104B0000FC9701001898010004980100109801001A
:104B10002DE9F04F0D46CC1D890087B024F0070425
:104B20000A3121F0070106AFADEB040D0DF11808B5
:104B3000002DADEB010D9B4606AEBC6A13DD0023D4
:104B4000013800EB050E10F8011F1AB112F801C070
:104B500008F803C01CB154F8211046F82310704522
:104B600003F10103EFD1EAB14FF0010A4FF0000960
:104B70002A4B514603932A464346CDE90199CDF885
:104B800000A06420FDF752FEFB6AFA6AD3F80130F8
:104B90001178D3E90023127809299B79524414D063
:104BA00005292CD06CB14FF0000C012104241C48C5
:104BB000334603902A46CDE9011C00946420FDF79A
:104BC00035FE0437BD46BDE8F08F009340F64A300D
:104BD000CDE9036BCDE9015840F212234FF448713F
:104BE00001F0C6FF04200F4A00900392CDE901991D
:104BF0005B4651462A466420FDF718FED2E7009333
:104C000040F64A30CDE9036BCDE9015882234FF4D9
:104C1000487101F0ADFF0420034AE5E7D497010095
:104C2000F0970100DC970100E89701000048704709
:104C3000B02E002000487047982600202DE9F04F44
:104C400085B0406804AFD7F828904578D01D20F093
:104C5000070009FB05F5ADEB000D0DF1100A0E463E
:104C60005046002190461C4613F0A9FEA94540DBA2
:104C70004FF0000B08F1FF3922224FF0FF312046A0
:104C800013F09DFE33784FFA8BF0B8F1010FE0542A
:104C90002CDD4FF0000E6FEA060C711C11F8012B91
:104CA000A356B3F1FF3F05D1431CAB42ACBF002379
:104CB0005BB2A354984219D092FBF5F005FB10208B
:104CC000012814BF01204FF0FF30204482569A4241
:104CD0000CD00CEB01029145A1EB06027BD0904574
:104CE00001DD1846DAE7BEF1000F40D1BBF1000F3D
:104CF0003AD000223B496420FDF7E4FDB8F1000FF3
:104D00005CDD013EB14606EB080119F8013F93FB5B
:104D1000F5F205FB12324945E254F6D10121002299
:104D2000314BCDE9011203930091234642466420A2
:104D3000FDF77CFD0AF1FF3316F8012FA256B145AD
:104D400003F8012FF8D1012100242848534603908D
:104D500042466420CDE901140091FDF767FD20462D
:104D60000437BD46BDE8F08F4FF0010B84E7012109
:104D700000221D4BCDE901120091039342462346C8
:104D80006420013EFDF752FD06EB08010AF1FF33F6
:104D900016F8012FA256B14203F8012FF8D10124D1
:104DA00000211248CDE90141039053466420424658
:104DB00000942146FDF73AFD2046D1E7012100206D
:104DC000094ACDE90110039223460091424664202E
:104DD000FDF72CFDB7E79045C9DD4FF0010E1846F1
:104DE0005CE700BF9C970100C09701008C97010011
:104DF0002DE9F047D2F8017006467A680D465278E0
:104E00009846012A19D9002815DD00244FF04C09D5
:104E10004D1E01E07B685A78510094FBF1F301FBD1
:104E2000134315F8010F611009FB03830134FFF7E9
:104E3000D7FCA642EED1BDE8F0870028FBDD0024B8
:104E40004FF04C0ADFF8249019F904306110002B60
:104E500006DB7A680AFB03835278285DFFF7C0FC03
:104E60000134A642F0D1BDE8F08700BFB02E00208B
:104E700010B5644684B0DCF80420084BFFF7B8FF97
:104E8000012100202368E268054CCDE90100009172
:104E900003947220FDF7CAFC04B010BD3007046013
:104EA0007497010010B5644684B0DCF80420084B08
:104EB000FFF79EFF012100202368E268054CCDE941
:104EC0000100009103947220FDF7B0FC04B010BD06
:104ED00060080460749701002DE9F047D2F8016082
:104EE0001F4672685278012A1ED900281ADD4D1E0D
:104EF00021244FF04C0805EB000901E073685A7853
:104F0000510094FBF1F301FB134315F8010F04EB7F
:104F1000D47108FB03734910FFF7B4FCA94504F1F1
:104F2000FF34EBD1BDE8F0870028FBDD0D464FF0E4
:104F30004C0A0D4C01EB000904F1220814F9013B65
:104F4000A8EB040101EBD171002B4FEA610106DBF4
:104F500072680AFB037352782878FFF793FC0135D7
:104F60004D45EBD1BDE8F0879826002010B5DCF860
:104F7000042084B0084B6446FFF7AEFF01210022F5
:104F800006482368CDE90122039000911422722083
:104F9000FDF74CFC04B010BD980604607497010046
:104FA00010B5DCF8042084B0084B6446FFF794FF8A
:104FB0000121002206482368CDE9012203900091D7
:104FC00014227220FDF732FC04B010BDC807046043
:104FD00074970100F0B403268C68012527784FF000
:104FE000060C80F8E8706778002B80F8E970A778E5
:104FF000B8BF033380F8EA70E778C3F38F0380F813
:10500000EB70A779D2B280F8EE70247A072780F887
:10501000EF4080F88E60002690F88940096844F0DF
:10502000300480F8894090F8A1406FF3041480F8B0
:10503000A1400C7880F8A94080F8985090F88B40F7
:105040006FF3000480F88B4080F88D7080F8B050CA
:1050500080F8C56080F8815080F8805080F8AEC03C
:1050600080F8AF7080F884604C7A80F89F408C7A2A
:1050700080F89E4080F89C60A0F8CA3080F8CD206F
:105080004B7BF0BC80F800318B7880F80531CB7811
:1050900080F80A310B7980F810310B7B80F8DA3018
:1050A00090F8A330CA7962F3061380F8A33090F821
:1050B000A3300A7A62F3020380F8A330CB7A80F837
:1050C000A0307047D0F8011008B54A684FF4E66385
:1050D00052784FF040505200FFF77CFFBDE8084087
:1050E000FFF7BAB9D0F8011008B54A684FF4066363
:1050F00052784FF040505200FFF76CFFBDE8084077
:10510000FFF7AAB949F6404301441144033149006D
:1051100030B5012293FBF1F10025042487B0074844
:1051200006AB43F8041D0390CDE901251146009418
:105130006420FDF77BFB07B030BD00BF6497010022
:105140002DE9F04F4FF04C09984609FB03F909F19E
:10515000070383B023F0070300AFADEB030D7860C6
:105160003A600C4668464A46002113F028FCB8F124
:10517000000FEA4671DD6B461A200DEB09015A78E3
:10518000187002F0EC0242F002025A704C3399425D
:10519000F5D13A6814F0FF011369566964D053EAF7
:1051A00006020CBF4FF0010E4FF0000E00224FF030
:1051B000010C05E0BEF1000F10D101328A421FD070
:1051C000C2F1200506FA05F523FA02F0A2F1200447
:1051D000284326FA04F42043C007EBD54FF04C0BCC
:1051E0007868234C805C24561F280CFA00F50BFBD2
:1051F00004A425DC6069013205438A426561DFD180
:105200003B68B8F1000F5B6858780FDD00234C2530
:105210005524022807D105FB03A2D17C547421F048
:1052200001019474D17401339845F2D14A46514634
:10523000386B13F0B9FB386B0C37BD46BDE8F08F07
:10524000257E2038AB460CFA00F0C5F30105054376
:1052500065F3010B84F818B0AFE73A6814F0FF016A
:10526000136956699BD1E1E73B685B685878CDE7E5
:10527000B02E00202DE9F04F85B01546D0F8018002
:105280000A7DD8F8044002AF6678086803FB06F68A
:1052900003EBC30A1146334600954246FFF750FF21
:1052A0000AF10703D8F8044023F00703C7F804D035
:1052B000ADEB030D94F805B00DF1080948465246D0
:1052C0000021647813F07BFBBBF1020F00F0C58076
:1052D000BBF1040F00F0B180BBF1010F00F083803F
:1052E00052460021484613F06AFB002E40F3C58069
:1052F0002C464FF0000C4A460023E11812F8010B2F
:105300000133092B0872F8D10CF1010C664509F143
:10531000090904F14C04EEDC4FF0000E2846F1467A
:10532000D8F80480D7F804D098F8064004F01F0499
:1053300004F0030C4FEA8C1CA408002101F11003B7
:1053400000EB430393F806A0DA790AF03F0A22F053
:10535000070201314AEA0C0A2243112983F806A008
:10536000DA71EBD190F84A300EF1010E23F01F03F1
:10537000764580F8489080F8499080F84A3000F1EE
:105380004C00DADC002398F8049098F803A098F811
:1053900002B0504649465A469846012409EB0A0E87
:1053A0000BEB090CAEF10A0E0CF1010C5FFA8EFE4C
:1053B0005FFA8CFC01339E4285F802A02C7185F8BF
:1053C00003C085F8059085F806B085F807E085F8F4
:1053D0001980AC7605F14C05ECDCFFF793FE0C3739
:1053E000BD46BDE8F08F002E47DDCB464FF0000EE6
:1053F000DFF8A0A05946DFF8A0C00023022C03D09C
:10540000012C03D1012B01DC9E4506D003EBC30226
:1054100008781CF8022002430A700133042BEDD1F6
:105420000CF1010CD44501F10101E6D10EF1010EA0
:1054300076450BF1090BDDD15AE7002E1DDD4B46F9
:10544000AA2106EBC600484403F1090203F8011B38
:105450009342FBD18342F7D14AE7002E0DDD4B4644
:10546000AA2106EBC600484403F1090203F8011B18
:105470009342FBD18342F7D13AE7D8F80430D7F80A
:1054800004D0D87819799A78FFF73CFE0C37BD46DE
:10549000BDE8F08F69270020602700202DE9F04744
:1054A00092B0DFF8F4C002AFDFF8F0A007F12C04EF
:1054B00007F11C0907F1080605468846BA619AE813
:1054C0000F0089E80F00214607F16003C9E9026C6B
:1054D0004846FB63FAF7D4FE9AE80F00DFF8C0C035
:1054E00084E80F00C4E9026C204607F13C01FAF79A
:1054F000C7FE0520FFF70EF8034600210220D3F86F
:105500000160FB60FEF74EFDAA7EDFF898C0D31D58
:10551000BCF800C003F4FC73ADEB030D07F14001D0
:1055200021F83CCD02AB386102207A61BB60FEF706
:10553000A1FFBB699847FFF77DF8736844F0010449
:105540005878800106F0D8FCB26849F0010651890C
:10555000BB68CDE900467A6901F042FA79692868AA
:105560008B000A3323F00703ADEB030D02ADD7E93F
:105570000343BA68CDE900342B46FFF7C9FAB8F106
:10558000000F05D07A6929464046920013F00CFAC4
:105590004037BD46BDE8F08725490000A08B0100DB
:1055A000714E0000B08B01002DE9F04792B0DFF89A
:1055B000F0C002AFDFF8ECA007F12C0407F11C09E2
:1055C00007F1080605468846BA619AE80F0089E89F
:1055D0000F00214607F16003C9E9026C4846FB63EE
:1055E000FAF74EFE9AE80F00DFF8BCC084E80F001F
:1055F000C4E9026C204607F13C01FAF741FE09209C
:10560000FEF788FF034600210420D3F80160FB6009
:10561000FEF7C8FC0923AA7E07F1400101F83C3DD2
:10562000D31D03F4FC73ADEB030D02AB3861012015
:105630007A61BB60FEF71EFFBB699847FEF7FAFF71
:10564000736844F001045878800106F055FCB26894
:1056500049F001065189BB68CDE900467A6901F03D
:10566000BFF9796928688B000A3323F00703ADEB93
:10567000030D02ADD7E90343BA68CDE900342B46E8
:10568000FFF746FAB8F1000F05D07A69294640467F
:10569000920013F089F94037BD46BDE8F08700BF9E
:1056A00059490000A08B0100A54E0000F8B59B00F1
:1056B00003F10A0424F0070400AF002AADEB040D47
:1056C000EC460CDDBC69ACF10405013C224414F845
:1056D000016F51F82660944245F8046FF7D11A46DD
:1056E000614613F061F9BD46F8BD00BF70B582B0E8
:1056F0000AF09AFA012104460220FEF753FC002129
:1057000006460220FEF74EFC0546A27E3146920078
:1057100013F04AF92168A37E227D2846009129468C
:10572000FFF7C4FF02B070BD38B50AF07DFA012161
:1057300005460220FEF736FC044600210220FEF753
:1057400031FCAA7E2146BDE83840920013F02CB906
:1057500070B582B00AF068FA012104460420FEF711
:1057600021FC002106460420FEF71CFC0546A27E13
:105770003146920013F018F92168A37E227D284655
:1057800000912946FFF792FF02B070BD38B50AF0CC
:105790004BFA012105460420FEF704FC04460021D3
:1057A0000420FEF7FFFBAA7E2146BDE838409200A8
:1057B00013F0FAB8D0F8011008B54A684FF4D36373
:1057C00052784FF040505200FFF704FCBDE808400B
:1057D000FEF742BED0F8011008B54A684FF4F963ED
:1057E00052784FF040505200FFF7F4FBBDE80840FC
:1057F000FEF732BE2DE9F04F4C261C4606FB03F6A1
:10580000F31D85B023F0070300AFADEB030DF86087
:10581000BA600D4668463246002113F0D0F8002CDD
:10582000E8467BDD6B4600200DEB06015A781870C8
:1058300002F0EC0242F012025A704C339942F5D158
:10584000BB68002DD3F810E0D3F814C06EDD5EEA1B
:105850000C030CBF4FF0010A4FF0000A2346002250
:1058600054464FF001097E609A4603E084B9013244
:10587000954222D0C2F120000CFA00F02EFA02F379
:10588000A2F1200103432CFA01F10B43DB07EDD514
:105890004C26FB6827499B5CC3F12100C9561F2891
:1058A00009FA00FB06FB01812ADC4B69013243EA5D
:1058B0000B0B9542C1F814B0DCD15446BB68002CE8
:1058C0005B687E68587811DD00234FF04C0C6FF058
:1058D0005505022807D10CFB0382D17C557421F0B9
:1058E00001019574D17401339C42F2D13246414694
:1058F000B86B13F059F8B86B1437BD46BDE8F08F9C
:10590000087EC3F10103834609FA03F3C0F30100E3
:10591000184360F3010B81F818B0A8E7BB68002DAD
:10592000D3F810E0D3F814C091DCDFE7BB685B6804
:105930005878C9E7982600202DE9F04F87B01C461B
:1059400094460B46D0F8016002AFFA607268497D58
:105950005578586804FB05F5CDF800C02B46324653
:10596000FFF748FF04EBC402D31D746823F007035C
:10597000C7F808D0ADEB030D94F805900DF10808B9
:1059800040460021647813F01AF8B9F1020F00F0D4
:10599000CD80B9F1040F00F0B980B9F1010F7ED0CC
:1059A000002D40F3D3804FF0000CFC6842460023EA
:1059B000E11812F8010B0133092B0872F8D10CF130
:1059C000010C654508F1090804F14C04EEDC4FF0C8
:1059D000000ED7F80CC0F1466046D6F80480D7F820
:1059E00008D098F8064004F01F0404F00306B6013E
:1059F000A408002101F1100300EB430393F806A073
:105A0000DA790AF03F0A22F0070201314AEA060A6F
:105A10002243112983F806A0DA71EBD190F84A30BD
:105A20000EF1010E23F01F03754580F8489080F8B1
:105A3000499080F84A3000F14C00DADC002398F8F5
:105A4000049098F803A098F802B0504649465A4688
:105A50009846012409EB0A0E0BEB0906AEF10A0E7B
:105A600001365FFA8EFEF6B201339D428CF802A039
:105A70008CF804408CF803608CF805908CF806B024
:105A80008CF807E08CF819808CF81A400CF14C0C5B
:105A9000EADCFFF737FB1437BD46BDE8F08F002D79
:105AA00054DDAB1C7D60C3464FF0020EA4461D467C
:105AB000DFF8B49058462B4CAEF1020A0023BCF13B
:105AC000020F20D0BCF1010F07D1012B05DD022B05
:105AD0000CBF00220122524505D003EBC30201781E
