:10000000002200000007000071AE000000000000A8
:1000100000000000000000000000000000000000E0
:10002000023524120FCC900002E422023123023C5C
:100030008F0000020826D2AF320000020816D2AFAD
:1000400032000002242DD2AF32000002081E7F02CF
:1000500012384A122C5C902E20E030E2F9903D815B
:10006000E4122C9CFFA3E090023BCFF0EF122C7A1D
:100070007F02123D5E90017BE0FEA3E0FF4E700E1A
:1000800090023BE0FCA3E0FDECFEEDFF8014EF25C9
:10009000E0FFEE33FE90023CE02FFF90023BE012C7
:1000A0002CBD90017BEEF0A3EFF0900175E07002A3
:1000B000A3E0700F90017BE0FFA3E0900175CFF00B
:1000C000A3EFF0E4900235F0122C1B5010EF122B2E
:1000D000E3120F8F00002710122CC680EBE4900271
:1000E00036F0900236E0C394057480948040030299
:1000F0000A71E4900235F0122C1B4003020A68A337
:10010000E02401FDE433FC749B2F122CCDD3ED9F32
:100110007480F86C984003020A62900235E0FF1286
:10012000384A900235E0FF122C5C902E20E030E23D
:10013000F9900235E0FF903D7F122C9CFCA3E0FD7E
:10014000EF122C88F583ECF0ED122C7A900235E05A
:10015000FF123D5E900235E0900175703EE0FEA317
:10016000E0FFE4C0E0C0E0EEC0E0EFC0E090017B63
:10017000E0FEA3E0FBEEFAE4F9F8D0E0FFD0E0FE09
:10018000D0E0FDD0E0FC120E06E47B08FA120E145B
:10019000E47B0AFAF9F8123AF38014E0FEA3E0FFD8
:1001A00090017BE0FCA3E0FDC3EF9DFFEE9CFE9081
:1001B0000235E0122C88F583EE8FF0120CE7122C3A
:1001C00013122C8A122C4AFD122C51F583ECF0A349
:1001D000EDF0122C13122C38122C4AFD4C7009121F
:1001E0002C51122BFBFF8019900235E0FBED25E02E
:1001F000FFEC33FEEB122C52122C4A2FFFEC122C88
:10020000BD900235E0FD122C36122C0B122BF14E54
:10021000700CED122C36122BFBFFED122C02122C5F
:1002200013247DF582E43401122C4AFDECC0E0ED8C
:10023000C0E0EF122C36122BFBFFE4FCFD900248CD
:10024000120F83900235E090024CF0D0E0FDD0E038
:10025000FCE4FF12100B900235E0FD122C02ED12AF
:100260002BE3C083C082120F77122BF12400FFEE24
:1002700034E8FE3395E0FDFC120DF9D082D08312F4
:100280000F83122CC60208D7900236E004F0020851
:10029000C2902E23E4F0900235F0122C1B40030292
:1002A0000C1EEF122BE3C083C082120F77E8C0E070
:1002B000E9C0E0EAC0E0EBC0E0900235E0249B1228
:1002C0002CCDFBE4FAF9F8122BDF120F6B123AF384
:1002D000D0E0FBD0E0FAD0E0F9D0E0F8120DF9D090
:1002E00082D083120F83122BDF120F6BE47B507AC4
:1002F000C3F9F8C3120F31500A122BDF120F8F000F
:1003000000C350900235E0FF122BE3120F77E83361
:10031000500BEF122BE3120F8F00000000122C1372
:10032000122C42122C4A4C7009EF122BE3120F6B65
:10033000802C900235E0122C40122BFBFF7C007DBC
:1003400002120FDEECF8EDF9EEFAEFFB122BDF12E2
:100350000F6B120DF9E47B03FAF9F8120E9F90026D
:1003600035E0FD122C40F583EEF0A3EFF0122CA83F
:10037000122BFB4E700EED122C40122BFBFF122C99
:10038000A8122C0B122C13122C2AC083C082120F1D
:1003900077EF122BF2FFE4FCFD120DF9D082D0832F
:1003A000120F83122C13122C94F583E475F00112B2
:1003B0000CE7EF122C92122BFBFFD3940AEE940061
:1003C0004034EFFBEEFAE4F9F8900235E0122C2805
:1003D000120F6B120E9F900235E0FD122CD7122CDB
:1003E0000BED122C92F583E4F0A3F0ED122C281201
:1003F0000F8F00000000900138E07002A3E0703819
:10040000900235E0FD122BF2FFED122CD7122C4A90
:10041000FD123CF8900235E0FD122CE1122C0BEDA0
:10042000122CE1122BFBD39406EE9400400A9001AB
:10043000387407F0A374D0F0122CC6020A7A22BBDB
:10044000010689828A83E0225002E722BBFE02E392
:100450002289828A83E49322BB010689828A83F0FF
:10046000225002F722BBFE01F322EF8DF0A4A8F088
:10047000CF8CF0A428CE8DF0A42EFE22BC000BBEA3
:100480000029EF8DF084FFADF022E4CCF875F00880
:10049000EF2FFFEE33FEEC33FCEE9DEC984005FCB5
:1004A000EE9DFE0FD5F0E9E4CEFD22EDF8F5F0EE7D
:1004B0008420D21CFEADF075F008EF2FFFED33FD68
:1004C0004007985006D5F0F222C398FD0FD5F0EA08
:1004D00022C2D5EC30E709B2D5E4C39DFDE49CFC13
:1004E000EE30E715B2D5E4C39FFFE49EFE120C5C2C
:1004F000C3E49DFDE49CFC8003120C5C30D507C373
:10050000E49FFFE49EFE22C5F0F8A3E028F0C5F0CA
:10051000F8E582158270021583E038F022BB010AEB
:1005200089828A83E0F5F0A3E022500687F009E78C
:100530001922BBFE07E3F5F009E3192289828A83B9
:10054000E493F5F074019322BB0110E58229F58252
:10055000E5833AF583E0F5F0A3E0225009E925822E
:10056000F886F008E622BBFE0AE92582F8E2F5F0FB
:1005700008E222E5832AF583E993F5F0A3E99322C3
:10058000BB010DC58229C582C5833AC583020CE72C
:100590005011C58229F808E5F026F618F5F0E58235
:1005A00036F622BBFE11C58229F808E225F0F5F0E7
:1005B000F218E23582F222F8E58229F582E5832AF3
:1005C000F58374019325F0F5F0E4933822BB010A1A
:1005D00089828A83F0E5F0A3F0225006F709A7F09C
:1005E0001922BBFE06F3E5F009F31922F8BB01114D
:1005F000E58229F582E5833AF583E8F0E5F0A3F09A
:10060000225009E92582C8F608A6F022BBFE09E9B6
:100610002582C8F2E5F008F222EF2BFFEE3AFEED5C
:1006200039FDEC38FC22C3EF9BFFEE9AFEED99FDFD
:10063000EC98FC22E88FF0A4CC8BF0A42CFCE98E83
:10064000F0A42CFC8AF0EDA42CFCEA8EF0A4CDA83A
:10065000F08BF0A42DCC3825F0FDE98FF0A42CCD43
:1006600035F0FCEB8EF0A4FEA9F0EB8FF0A4CFC523
:10067000F02ECD39FEE43CFCEAA42DCE35F0FDE4AD
:100680003CFC2275F008758200EF2FFFEE33FECDA3
:1006900033CDCC33CCC58233C5829BED9AEC99E542
:1006A0008298400CF582EE9BFEED9AFDEC99FC0FD2
:1006B000D5F0D6E4CEFBE4CDFAE4CCF9A88222B89A
:1006C00000C1B90059BA002DEC8BF084CFCECDFC1F
:1006D000E5F0CBF97818EF2FFFEE33FEED33FDECAC
:1006E00033FCEB33FB10D703994004EB99FB0FD895
:1006F000E5E4F9FA227818EF2FFFEE33FEED33FD33
:10070000EC33FCC933C910D7059BE99A4007EC9B31
:10071000FCE99AF90FD8E0E4C9FAE4CCFB2275F0C1
:1007200010EF2FFFEE33FEED33FDCC33CCC833C8D2
:1007300010D7079BEC9AE899400AED9BFDEC9AFCD8
:10074000E899F80FD5F0DAE4CDFBE4CCFAE4C8F987
:1007500022EB9FF5F0EA9E42F0E99D42F0EC6480C6
:10076000C864809845F022EB9FF5F0EA9E42F0E9DC
:100770009D42F0E89C45F022E8600FECC313FCEDCD
:1007800013FDEE13FEEF13FFD8F122E0FCA3E0FD12
:10079000A3E0FEA3E0FF22E0F8A3E0F9A3E0FAA3C0
:1007A000E0FB22ECF0A3EDF0A3EEF0A3EFF022A823
:1007B000828583F0D083D082120FA6120FA6120F6B
:1007C000A6120FA6E473E493A3C583C5F0C583C83E
:1007D000C582C8F0A3C583C5F0C583C8C582C82239
:1007E000A42582F582E5F03583F58322E0FBA3E0C2
:1007F000FAA3E0F922EBF0A3EAF0A3E9F022EC8EF1
:10080000F0A4CCC5F0CCCDF8EFA4CEC5F02DFDE41E
:100810003CFCE8A42EC8C5F03DFDE43CFCEFA4FF81
:10082000E5F028FEE43DFDE43CFC22900246ECF0BD
:10083000A3EDF0900245EFF0123422C083C0829005
:10084000024CE0D082D08312341CE0704612341384
:10085000123430C083C08290024CE0D082D0831228
:10086000341C120F6BE4FBFAF9F8C3120F47602334
:1008700012341312343AC083C08290024CE0D0820A
:10088000D08312341C120F6BE4F8C3120F476003BD
:1008900002116F123457C3900247E09FFF90024647
:1008A000E09E121330C083C08290024CE0FCD082E4
:1008B000D08312341CEEF0A3EFF0ED123422123488
:1008C0006EE06050900245E0FF123475C083C08234
:1008D00090024CE0D082D08312341CE0FCA3E0FDF7
:1008E000EF75F005A4246CF582E4343DF583E493C0
:1008F000FE740193FFD3ED9FEC9E40181234131247
:100900003426C083C08290024CE0D082D08312345F
:100910001C7405F0123457123413123430C083C0E3
:100920008290024CE0D082D08312341C120F8312CA
:100930003413123444C083C08290024CE0D082D081
:10094000831233FC12343AC083C08290024CE0D050
:1009500082D08312341C120F83900245E0FF1234C0
:1009600022C083C08290024CE0FED082D083123439
:100970001CE0D3940074809480400EEF12342275F2
:10098000F00EEE120FC0E014F090024802132C1289
:100990003413123430C083C08290024CE0D082D035
:1009A0008312341C120F6B90024D120F83123413FA
:1009B00012343AC083C08290024CE0D082D08312BD
:1009C000341C120F6B90025112344E123413123435
:1009D00083C083C08290024CE0D082D08312341C4A
:1009E000E0F9F8120F58EFFBEEFAEDF9ECF81234DB
:1009F00051120E06900255120F8390024D120F6B8A
:100A0000900248120F77120DF9900255120F7712CB
:100A10000DF912348D123457123413123430C0834E
:100A2000C08290024CE0D082D08312341C12344E2B
:100A300012341312343AC083C08290024CE0D08248
:100A4000D08312341C12344EECC0E0EDC0E0EEC096
:100A5000E0EFC0E0123413123444C083C08290022D
:100A60004CE0D082D08312341CE0FEA3E0FBEEFA0F
:100A7000E4F9F8D0E0FFD0E0FED0E0FDD0E0FC12D9
:100A80000E9F12348D900245E06401600302132929
:100A9000123457EFFBEEFA123451C3EF9BFFEE9A7C
:100AA000121330C083C08290024CE0FCD082D0830D
:100AB00012341CEEF0A3EFF0ED12347512346EE038
:100AC000FEA3E0FF900245E0FB75F005A4246AF563
:100AD00082E4343DF583E493FC740193FDD3EF9DF0
:100AE000EE9C4065123457EB75F01CA4123430C0F4
:100AF00083C08290024CE0D082D08312341C120F4B
:100B000083123413123444C083C08290024CE0D06C
:100B100082D0831233FC12343AC083C08290024CDC
:100B2000E0D082D08312341C120F8312341312349B
:100B300026C083C08290024CE0D082D08312341C45
:100B40007405F012345712348D900251120F6B223B
:100B5000FE123D47900245E0FD75F01CA42402F50D
:100B600082E43402F58322900232121D49400302CE
:100B70001680121BBF120D28D39DE5F09C403490C7
:100B8000010A121C6B121BCA121CF2D3EF9430EE36
:100B90009475400C9002337475F0A37430F08006A5
:100BA000121BBF121CFD900232E0121D59F583E4A6
:100BB000021406900104121C6BFF121BE0121E00AF
:100BC000121BDC121CF2D3EF9410EE9427400C9011
:100BD00002337427F0A37410F08013900104121CE8
:100BE0006BFF121BE0121E00121BDC121CFD121CFC
:100BF0008E900232E0FD121D59121C8630001DED50
:100C0000121D59121BF7D3942CEE94014014121D9F
:100C10000EF5837427F0A37410F08006121D0E12D7
:100C20001C61E4900233F0A3F0121C21E0606F120B
:100C30001D19D39400EC648094804020EF25E024BB
:100C400022121C7FD3ED9FEC9E4011900232E012E5
:100C50001D63F583E4F0A37464F08022900232E017
:100C6000FF121D63121C08D39400EC9400400F90F7
:100C70000107121BDC120D28FFE5F0121DA89002DF
:100C800032E0FF121D6D7401F0EF25E02480F58243
:100C9000E43402F583740FF0A374A0F0800F121CEB
:100CA000A1F5837403F0A374E8F0123C25D39002FD
:100CB00034E09400900233E0648094805003021684
:100CC0003CE0FEA3E0FF121C68121BE0121D77EE51
:100CD0003395E0FDFCE47BB87A88F9F8C3120F3154
:100CE000500A9002337488F0A374B8F030003C12BC
:100CF0001C21E07016EF25E0243AF8E6FC08E6FD3A
:100D0000121C8EC39DEE9C5063801A900232E02527
:100D1000E02422F8E6FC08E6FDA3E0FEA3E0FFC322
:100D20009DEE9C50477C007DC8803B900232121C97
:100D3000CD121C08D39400EC940050089000F1E010
:100D400064207028EF25E02422121C7F121D19C395
:100D50009FEC9E5017ED9400EC64809480400D123F
:100D60001C8E7C007D0A120CB1121DA7121C21E002
:100D7000606FEF121CA6121BF74E7011900232A387
:100D8000E0FCA3E0FD121681121DA7802F121BEAC2
:100D9000FF121D19123CF8D3EF9432EE9400401C60
:100DA000121CA1121C08D394C8EC9400400EEF1240
:100DB0001CA6F58374FF75F09C120CE7121BEAFF6A
:100DC0007C007D07120FDE900233121C30EE33954B
:100DD000E0FDFC120DF9E47B08FAF9F8120E9F8091
:100DE00003121C8E900232E025E02442F582E434A6
:100DF00001121C86121BEAFFD39405EE9400400EEC
:100E0000EF9410EE94005006900233EE801590029D
:100E100032121CE6121C08FDEF121BEE2DFFEE3CF9
:100E2000900233F0A3EFF0D3900234E094309002BC
:100E300033E0648094F540077475F0A37430F0E5F6
:100E4000DB5404705B121C8E900110121C6BFD129F
:100E50001BE0121D77EF24A8FFEE8031E5DB540480
:100E6000703E121C68FF121BE0121DEAEF121CE814
:100E7000121BF7FF900110121C6BFD121BE0121DDC
:100E800077ED121BE0120D2824A8FFE5F03461FE77
:100E900090010D120FCC75F002ED121BE3121D77BD
:100EA00022900235EFF0A3ECF0A3EDF0EF12331235
:100EB000E0FEA3E0FF123CF8D3EF9432EE94004042
:100EC0001C1232E2120F8F000000001232AEE4F06A
:100ED00012332C12330EEEF0A3EFF0804312329D4A
:100EE000E0FEA3E0FFD39400EE940040339002367E
:100EF000E0FCA3E0FDD3EF9DEE9C400B900235E0BB
:100F00001232D5E04401F0900235E0FF1232A1E048
:100F1000FAA3E0C39DEA9C50071232D4E04402F0E9
:100F2000900235E01232E7C083C082120F7712338D
:100F30002CE4FCFD120DF9D082D083120F839002B5
:100F400035E0FF123335E475F001120CE7EF75F070
:100F500007A4243EF582E4343DF583E493FE740156
:100F600093FF900235E0FDC454F02461F582E4342F
:100F700002F583E0FAA3E0C39FEA9E500302190141
:100F8000ED123335E0FEA3E0FFFBEEFAE4F9F89052
:100F90000235E01232E7120F6B120E9F90023812E8
:100FA0000F8312329DE0FEA3E0FFEEC0E0EFC0E051
:100FB000123342EFFDEEFCD0E0FFD0E0FE123CF831
:100FC00090023CEEF0A3EFF0900235E0FD75F007E3
:100FD000A42439F582E4343DF583C37401939FE47E
:100FE000939E401FED1232A1E0FEA3E04E601490EC
:100FF0000235E0FB12331FE0FEA3E0C394B8EE9489
:101000000B5021900235E0FF1232A1E0FCA3E04C2E
:101010007008EF12331FE4F0A3F012334212329D36
:10102000EE0218ABEB6007640160030218B1E490B4
:10103000023EF090023CE0FEA3E0FFD39450EE9419
:10104000004006A37408F08032900235E01232D5D9
:10105000E064036026D3EF943CEE940040089002D5
:101060003E7402F08015D390023DE0943290023C31
:10107000E09400400690023E7401F012329DE0FEC2
:10108000A3E0FFE4FCFD123348D3120F4740119058
:10109000023EE0FF12329DE48FF0120CE70218E7E7
:1010A000D390023DE0945090023CE09400405812EE
:1010B000329DC083C082E0FEA3E0FF90023EE0FDCF
:1010C000C3EF9DFFEE9400D082D083F0A3EFF080B9
:1010D0003612329DE0FEA3E0FF4E700D123348EB56
:1010E000FFEAFEE9FDE8FC80167C007D07120FDEBA
:1010F000123348120DF9E47B08FAF9F8120E9F1228
:10110000329DEEF0A3EFF01232E2120F8F000000DA
:10111000001232AEE4F012334212330EEEF0A3EFBF
:10112000F012329DE0FCA3E0FDD39400EC9400406B
:101130005612332C123CF8900235E075F007A424C7
:101140003BF582E4343DF583D37401939FE4939E91
:10115000400F900235E0FF1232A11232F4E4F08029
:1011600026900235E0FF75F007A4243DF582E434B3
:101170003DF583E493FE123300E0C39E5009123222
:101180009D1232F4E004F012332C22900232EFF080
:10119000A37402F0A374BCF0E4A3F0A3F0D3900115
:1011A000E5E094009001E4E09400401E90010412F8
:1011B0001C9AE0FF121BE0120D2824C8FDE435F054
:1011C000FC90010A121BDC121D9790027AE070025B
:1011D000A3E0600B900233E4F0A37464F0800B9002
:1011E000001AE0641170037420F0900232E0FB12E8
:1011F0001C26E06017900232E0FA121C13120F8FC7
:1012000000000000EA121C56EB021BB8121C0FC0B3
:1012100083C082120F77E8C0E0E9C0E0EAC0E0EBEB
:10122000C0E0900104121C9AE0121BE0121E0AE4B6
:10123000FCFDD0E0FBD0E0FAD0E0F9D0E0F8120DF0
:10124000F9D082D083120F83900232E0FF121DB0DA
:10125000121D40EF121DBC121BF7FF900233E0FC81
:10126000A3E0FDC3EF9DEE9C5003021BBE121C0FBA
:10127000C083C082120F6BECC0E0EDC0E0EEC0E0B6
:10128000EFC0E0900232E0121DB0121BF7FBEEFA45
:10129000E4F9F8D0E0FFD0E0FED0E0FDD0E0FC12B1
:1012A0000E9FD082D083120F83121C97E0121BE096
:1012B000120D282450FFE435F0FEE4FCFD121C0F53
:1012C000120F77D3120F47403B90027AE07002A3CF
:1012D000E07031900232E0FB121D6DE0702690024A
:1012E00032E0FF121C4A121D40EF121C4A121BF77B
:1012F000D39403EE94004023EB121C13121C3E12F5
:101300001C618017900232E0FB121C13121C3E126B
:101310001C61900232E0121D6DE4F0900232E0FF99
:10132000121C4A121C084C6003021BA190010A12F5
:101330001BDC120D28FFC3900236E09F900235E0BF
:1013400095F0506B121C97121BC8121CF2123D47ED
:10135000C3EF94E8EE648094835054900232E064CA
:101360000190010A701F121C9AE0121BE0121E0A63
:101370007C007D04120FDE900235121C30121D829B
:10138000E47B058022121C9AE0121BE0121E0A7CEC
:10139000007D02120FDEECF8EDF9EEFAEFFB9002A1
:1013A00035121D7DE47B03FAF9F8120E9F80089038
:1013B0000235E0FEA3E0FF121C97E0121BE0121DB5
:1013C00077900232E0FB121C13120F8F0000000016
:1013D000EB121C56900232E0121DBC121C612290CE
:1013E000010A120FCC900232E0FF75F002A4F582E0
:1013F00085F083120D28FDACF0900104120FCCEFA4
:1014000075F002A4F58285F08322900232E025E097
:101410002442F582E43401F583E0FEA3E022EF25C7
:10142000E02400F582E43401F583E0FCA3E022909F
:101430000232E075F00AA4244EF582E43401F5830B
:1014400022900232E0FF244CF582E43401F583223D
:10145000ECF8EDF9EEFAEFFBE0FEA3E0FF22120F4D
:101460006B900235EEF0A3EFF0EB75F00AA4245474
:10147000F582E434012275F00AA42452F582E434A2
:1014800001F583E4F0A3F022900107120FCC900243
:1014900032E02275F00AA42426F8E50825E028F8B1
:1014A000E6FE08E6FF22F583EEF0A3EFF0229002BD
:1014B00033E0FEA3E0FF2290010A120FCC9002322B
:1014C00022900232E0FF25E0248CF582E4340222EF
:1014D000900232E025E024A7F582E4340122EF25D2
:1014E000E025E02497F582E43401F58322E0FF252E
:1014F000E02488F582E4340222900233E0FFC394B2
:10150000027480948022E0FF25E0243AF582E434DE
:101510000122120D28C39DFFE5F09CFE22120D282A
:10152000C39DFEE5F09C900233F0A3CEF022ED25A2
:10153000E024E0F582E4340122900233E0FCA3E0F1
:10154000FD2225E024ABF582E434012225E0248746
:10155000F582E434012225E0248BF582E434012273
:10156000F583E475F001020CE7EFF0D390027BE025
:10157000940090027AE094002225E024DCF582E4D5
:1015800034012225E02484F582E434022224F7F594
:1015900082E43401F58322EE8FF0020DCCE0FEA34D
:1015A000E0FFE4FCFD020DF9900232E0FF25E024AB
:1015B000EEF582E4340122EC8DF0020DCCC3E50897
:1015C00094047480948022EE900233F0A3EFF02212
:1015D00075F00AA42452F582E434012275F00AA4BD
:1015E0002456F582E4340122900107120FCC9002B8
:1015F00032E0FF2290027C7403F0A37420F022EB0F
:1016000025E02483F582E4340122E4F5F0020DCCD8
:1016100025E0243EF582E434012275F002020FC079
:10162000120D28FDACF090010A22120D28FFAEF039
:1016300022900233EFF0E0FF244CF582E43401F510
:1016400083E07003021EE0EF1229DCE0FEA3E04E0F
:1016500070269001BBE0FEA3E0FF900233E0FD1294
:1016600029DCEEF0A3EFF01229C4FFED1229B8E552
:10167000F0F0A3EFF0021F04900233E01229DCE047
:10168000FEA3E0FF9001BBE0FCA3E0FD123CF8905C
:1016900001D9120FCC900233E0FD122A38EE8FF000
:1016A000120DCC74AF2D122A26E070339001D9129E
:1016B00029C7C3940FE5F0940050101229C4FFED20
:1016C0001229B8E5F0F0A3EFF08014E4FFEF122A3E
:1016D0007B500C74AF2F122A267401F00F80EE128B
:1016E00029D7E0FCA3E09001BB122A95400A74B10F
:1016F0002F122A6EE4F0802C122A687401F08024E4
:101700001229D7E4F0A3F01229B7E4F0A3F074AFE4
:101710002F122A26E4F0122A06E4F0A3F01229F987
:10172000E4F0A3F0122A1FE070030220441229B74C
:10173000E0FEA3E0D39400EE940050030220441294
:101740002A8F900233E0FD1229CBFFAEF0ED122973
:10175000B8E0FCA3E0FD123CF8900234EEF0A3EFF9
:10176000F012299F122AAC400CD3900235E0945A13
:10177000122A61501312299F122AB6505390023533
:10178000E09496122A614048122A1FE4F0EF1229D1
:10179000DCE4F0A3F0122A8FEF1229CBFF90023382
:1017A000E0FD1229B8E0FAA3E0C39FEA95F0500CDF
:1017B000ED122A4FE4F0A374C8F0800E900233E0DB
:1017C000122A4F7401F0A3742CF0122A68E4F0225C
:1017D00012299F122AAC404CD3122A5B4046900239
:1017E00033E01229FAE0FEA3E0122A885036122ACA
:1017F0002E74FF75F0F7120D601229F9E475F009E7
:10180000120CE7122A06122A835019122AA1400D3F
:10181000122A0774FF75F0F7120CE78007122A07E7
:10182000E4F0A3F012299F122AB65038122A5B4026
:1018300033122A2EE475F009120D60122A06E4759F
:10184000F009120CE71229F9122A835017122AA163
:10185000400B1229FA74FF75F0F7020CE71229FA0F
:10186000E4F0A3F022D390027BE09F90027AE09E06
:10187000400AA3E09FF090027AE09EF090027F126F
:10188000364E90027EE09C400CA3E09FF090027EDA
:10189000E09EF08002D28AD390027DE09F90027C8D
:1018A000E09E400AA3E09FF090027CE09EF012369A
:1018B0005F5003123659D3900285E09F900284E076
:1018C0009E400AA3E09FF0900284E09EF0D3900235
:1018D00089E09F900288E09E400AA3E09FF090027A
:1018E00088E09EF0D390028DE09F90028CE09E40B5
:1018F0000AA3E09FF090028CE09EF0D39001E1E01B
:101900009F9001E0E09E400AA3E09FF09001E0E09C
:101910009EF0D3900281E09F900280E09E400AA357
:10192000E09FF0900280E09EF090029112364E907F
:101930000290E09C400AA3E09FF0900290E09EF0AD
:1019400012366D5003123659D3900287E09F9002F1
:1019500086E09E400AA3E09FF0900286E09EF0D3CE
:1019600090028BE09F90028AE09E400AA3E09FF0E5
:1019700090028AE09EF0D390028FE09F90028EE06A
:101980009E400AA3E09FF090028EE09EF0D390026A
:1019900083E09F900282E09E400AA3E09FF09002C5
:1019A00082E09EF0D39001E3E09F9001E2E09E4050
:1019B0000AA3E09FF09001E2E09EF012367B500314
:1019C000123659D39001C6E09F9001C5E09E400AAF
:1019D000A3E09FF09001C5E09EF0D39001C8E09F86
:1019E0009001C7E09E400AA3E09FF09001C7E09EEF
:1019F000F09001941236C1900193E09C400AA3E05C
:101A00009FF0900193E09EF0D39001E5E09F90015C
:101A1000E4E09E400AA3E09FF09001E4E09EF09095
:101A200001961236C1900195E09C400AA3E09FF018
:101A3000900195E09EF01236895003123659123605
:101A40009750031236591236A550031236591236E2
:101A5000B35003123659D3900139E09F900138E01A
:101A60009E400AA3E09FF0900138E09EF022122CE5
:101A7000EBD390027BE0940090027AE09400400364
:101A800002242C9001BD120F7790011FE0FEA3E00D
:101A9000FFE4FCFD120DF99001BD120F839001C10E
:101AA000E475F001120CE7C39001C4E09464900166
:101AB000C3E0940050030223179001BD120F6BEC9A
:101AC000C0E0EDC0E0EEC0E0EFC0E09001C1E0FE9C
:101AD000A3E0FBEEFAE4F9F8D0E0FFD0E0FED0E0BE
:101AE000FDD0E0FC120E9F9001BD120F839001BD4E
:101AF000120F6B9001BBEEF0A3EFF0A3120F8F005B
:101B0000000000E49001C1F0A3F0A3F0A3F0900264
:101B10007AE07002A3E0701F900232F0122A765031
:101B200016EF122A4FE0FEA3E04E7003121E119032
:101B30000232E004F080E5E4900232F0122A7640AE
:101B40000302242C744C2FF582E43401F583E0FF6A
:101B50006022900232E0FE1229EDE0FCA3E04C701E
:101B60001390011FE0FCA3E0FDEE1229EDECF0A3C1
:101B7000EDF08024EF7021122A8F900232E01229BA
:101B8000CBC39496E5F09400500E1229E8E4F0A33C
:101B9000F0122A42E4F0A3F01229E8E0FCA3E04CA2
:101BA0007003022423122A8F75F002EF1229CED37C
:101BB0009410E5F094275003022423900232E0129F
:101BC00029EDE0FCA3E090011F122A954019EF12C5
:101BD00029EDE0FCA3E0C39BFDEC9AFCEF122A1375
:101BE000ECF0A3EDF0800B900232E0122A13E4F047
:101BF000A3F0900232E0FF122A13E0FCA3E0D3949A
:101C00000AEC9400403D122A42E0FEA3E0C394286F
:101C1000EE9423502E900232E0FB249BF582E434B4
:101C200002F583E075F018A4FFAEF0EB122A13E082
:101C3000FCA3E0FD120C4A900232E0122A43EEF0BF
:101C4000A3EFF0900232E004F002231C22C0E0C0B7
:101C5000F0C083C082C0D0E8C0E0D2AFD390027B96
:101C6000E0940090027AE094004003123640D39052
:101C7000027FE0940190027EE0940040051236401D
:101C80008002D28AD390027DE0940090027CE0949E
:101C900000400312364012365F5003123647D3908D
:101CA0000285E09400900284E094004003123640E4
:101CB000D3900289E09400900288E09400400312DF
:101CC0003640D390028DE0940090028CE094004066
:101CD00003123640D39001E1E094009001E0E094DB
:101CE000004003123640D3900281E09400900280BD
:101CF000E094004003123640D3900291E0940190AA
:101D00000290E09400400312364012366D500312E8
:101D10003647D3900287E09400900286E09400401A
:101D200003123640D390028BE0940090028AE09434
:101D3000004003123640D390028FE0940090028E50
:101D4000E094004003123640D3900283E094009068
:101D50000282E094004003123640D39001E3E09405
:101D6000009001E2E09400400312364012367B50AE
:101D700003123647D39001C6E094009001C5E09469
:101D8000004003123640D39001C8E094009001C790
:101D9000E094004003123640D3900194E094019007
:101DA0000193E094004003123640D39001E5E094A3
:101DB000009001E4E094004003123640D390019675
:101DC000E09401900195E0940040031236401236F1
:101DD000895003123647123697500312364712368F
:101DE000A550031236471236B35003123647D3902C
:101DF0000139E09400900138E0940040031236402D
:101E0000D0E0F8D0D0D082D083D0F0D0E0327A00C9
:101E100079007DFF1227427A0179007DF71227426F
:101E20007B017A0279797D1A7C00123D0E902DE0BB
:101E3000E493900001F09000047411F0A37422F078
:101E4000A37433F0902DE2E493900012F0902DE310
:101E5000E493900014F09000FB7401F090004A7439
:101E600011F09000F114F0900024F0A37420F07BA6
:101E7000017A00793E900104120FD57A00794290E0
:101E8000010A120FD57A007946900107120FD57A10
:101E900000793290010D120FD57A00793A90011035
:101EA000120FD57A007936900113120FD57A007986
:101EB000809001D9120FD57A00790A900149120F4A
:101EC000D57A00791B900146120FD57A00792A90B5
:101ED0000116120FD57A007926900119120FD57AC2
:101EE00000792E90011C120FD5900116120FCCE430
:101EF00075F0C8120DAD900119120FCCE475F064A5
:101F0000120DAD90011C120FCCE475F096120DADC0
:101F1000753A00753BC8752200752396900116121C
:101F2000080375F0C8120DCC90011912080375F062
:101F300064120DCC90011C12080375F096120DCCA2
:101F4000753C00753DC87524007525969000207479
:101F500010F090027A7407F0A374D0F0E490027944
:101F6000F0227B017C00123D0E22900232EFF01233
:101F70001CB4121BF7FFC39404EE9400502A900285
:101F800032E0121BFFFD121CBEC083C082900232E1
:101F9000E0FFD082D083121DFAECF0A3EDF0EF1237
:101FA0001CB4121D400227ED9002377401F090021C
:101FB00037E0FFC3121DA0503A121CBEC083C0827E
:101FC000900232E0FED082D083121DFAE0FCA3E042
:101FD000FDEF25E025E02493F582E43401F58375D7
:101FE000F002EE120FC0ECF0A3EDF0900237E00427
:101FF000F080BB900232E0FF121BFFFDEF25E024D2
:10200000A3F582E43401F583ECF0A3EDF090023304
:10201000120F8F00000000E4900237F0121CB01283
:102020001BF7FF900237E0FDD3EF9DEE9400402DAB
:10203000900233120F77900237E0121CBFC083C0AA
:1020400082900232E0D082D083121DFA121D7D9060
:102050000233120F83900237E004F080BF90023306
:10206000120F6BECC0E0EDC0E0EEC0E0EFC0E0129C
:102070001CB0121BF7FBEEFAE4F9F8D0E0FFD0E059
:10208000FED0E0FDD0E0FC120E9F900233120F83D1
:10209000900233020F6B90023CEFF0902E22E0FF93
:1020A000900240E4F0A3EFF0758A50902E22740164
:1020B000F090023CE01238B77404F0A3E4F0900210
:1020C0003DF090023DE0FFC3940D74809480400386
:1020D000022992EFF87E02E4088006CEA2E713CE32
:1020E00013D8F8FF90023EEEF0A3EFF04E70079089
:1020F000023EF0A304F0902E207401F0902E20E018
:1021000030E2F990023CE0FF902E001238BAE0FC79
:10211000A3E0D394FEEC940740401238DDE0FEA328
:10212000E0FF90023EE0FCA3E0FDEF2DFFEE3CFE61
:10213000C3EF94FFEE940790023CE075F002902EFE
:1021400010500B120FC0EC8DF0120CE78054120FE0
:10215000C07407F0A374FFF0804890023CE0FF12C7
:1021600038B7E0FCA3E0FD90023EE0FAA3E0FBD329
:10217000ED9BEC9A40211238DDC083C082C3A3E0FE
:102180009BFF0582D5820215831582E09AD082D00A
:1021900083F0A3EFF0800B90023CE01238B7E4F03C
:1021A000A3F0902E20E4F0F58D90023DE004F002C3
:1021B00028A2900240A3E0902E22F0758A1022906F
:1021C0000107120FCC900233E0FF75F002A4F582F4
:1021D00085F083120D28FDEF25E024B7F582E43465
:1021E00001F58322900107120FCCED75F002A4F5E2
:1021F0008285F083020D28900233E0FF25E024B3AE
:10220000F582E43401F58322900232E0FF25E024D8
:10221000E6F582E43401F58322EF25E024CDF58252
:10222000E43401F58322EF25E024C9F582E434018A
:10223000F5832225E024EAF582E43401F583229037
:102240000233E0FF24AFF582E43401F583229001EC
:102250000A120FCC900233E075F002A4F58285F0EB
:102260008322EF25E024EEF582E43401F583222574
:10227000E024C5F582E43401F58322900235E09430
:1022800014900234E0940022900233E024B1F582ED
:10229000E43401F58322900232E0FFC3940274809B
:1022A000948022E0FEA3E0FFC39430EE9475229068
:1022B0000107020FCCFDE0FAA3E0FBD3ED9BEC9A03
:1022C00022EF9409EE9400900233E022E0FEA3E0B6
:1022D000D39DEE95F022E0FEA3E0C39DEE95F022A3
:1022E000900232121D494003022BDE300042900260
:1022F00032E0121D0F121BF74E9002326019E0FF00
:1023000025E0243AF87627087610EF25E02422F815
:10231000761F0876408045E0FF25E0243AF87613E2
:10232000087688EF25E02422F87611087694802C30
:10233000121D88121C0824C8FDE43CF8EF25E02497
:102340003AC8F608EDF6121D88121C082496FDE422
:102350003CF8EF25E02422C8F608EDF6121DC8125D
:102360001BE0120D28FDEF25E0243A121C7FC3ED7F
:102370009FE5F09E5024900232E0121C26E060316E
:10238000121DC8121BE0120D28FDEF25E0242212B9
:102390001C7FC3ED9FE5F09E4017900232121CCDCA
:1023A000121C084C703A744C2F121C287401F080D7
:1023B0002F9000F1E064209002327009E0121CCFEF
:1023C000121C61800CE0121CCFF583E4F0A374C8EA
:1023D000F0900232121C24E4F0EF121D63121C6113
:1023E000900232E0121C26E06003121DD490014DD1
:1023F000E0C454F0FF90014CE04F90004BF022906D
:102400000235E025E025E0243DF582E43402F58341
:1024100022ED25E0247DF582E43401F583E0FEA37E
:10242000E02225E0247DF582E43401F583EEF0A37B
:10243000EFF022900235E0FF25E022900235E0FF28
:10244000C39402748094802225E025E0242CF58238
:10245000E43401F5832225E02477F582E434012277
:1024600025E02487F582E4340122F583E0FCA3E033
:1024700022EF25E024F2F582E4340122123CDF75DC
:102480008A5075B28F902E207401F022F583E49368
:102490002420F582E4342EF58322A3F0902E20E44C
:1024A000F0758A1075B2932225E02437F582E43462
:1024B000022225E02434F582E43401229375F002EF
:1024C000902E00120FC0E022ED25E02471F582E489
:1024D000340122EF903D7F93903D7C93223EFE7C21
:1024E000007D03020C5C900235E004F022F582E4EA
:1024F0003402F583E0FF2225E02428F582E434014C
:102500002225E02424F582E4340122758D20438DB8
:1025100020538D7FE4F5B275B6FF75B7FF75B2A293
:1025200043B20153A8FB538B7F758B10438B08E597
:102530008B20E7030080F8538B7F758B11438B084A
:10254000E58B20E7030080F8900299E5B5F0A3E55C
:10255000B4F0758B01E4F5B27F02FE122045123C07
:102560008FE4F58D90011FE0FEA3E0FF4E700E1288
:102570003D73FD90011FE5F0F0A3EDF022123D73D5
:10258000FDC3EF9DFFEE95F0FE123D47D3EF940A99
:10259000EE648094804022123D73FFC3900120E0DE
:1025A0009F90011FE095F05006E475F001800790C0
:1025B000011F74FFF5F0020CE790011FE0FEA3E09D
:1025C000FF7C007D03120FDEECC0E0EDC0E0EEC04A
:1025D000E0EFC0E0123D73FFAEF0E4FCFDD0E0FBA5
:1025E000D0E0FAD0E0F9D0E0F8120DF9E47B04FA7B
:1025F000F9F8120E9F90011FEEF0A3EFF0220000F9
:102600000700AB2274AA7583F5758255A5745575BC
:1026100083FA7582AAA574A57583F5758255A522DE
:1026200002030AB00BB60CFF090208FF0D770E0477
:102630001307141010801500160001929212070B58
:102640000B100F040404040101011113120A1206F5
:10265000080803010204900235EFF0E4F50CF50BD5
:10266000F50AF509F50CF50BF50AF509F508121D43
:102670009D5025900235E0121C73E4FCFDE50C2F03
:10268000FFE50B3EFEED350AFDEC35098F0C8E0B98
:102690008D0AF509050880D6E47B04FAF9F8AF0C39
:1026A000AE0BAD0AAC09120E9F900235E0121D224E
:1026B000121C86E4750CA8750B61F50AF509F5087E
:1026C000121D9D5071900235E0FD121C73ED121D1C
:1026D00022121C08FD123CF8D3EF940AEE940090ED
:1026E0000235E0FF4008121D22121C08801175F00F
:1026F0000AA42426F8E50825E028F8E6FC08E6FD0B
:10270000EF25E02471F582E43401121BF7FFC3EDDD
:102710009FFFEC9EFE3395E0FDFCE50C2FFFE50BE3
:102720003EFEE50A3DFDE5093C8F0C8E0B8D0AF55A
:10273000090508022EA0E47F607EEAFDFCAB0CAA2E
:102740000BA90AA809D3120F47400BE4750C60755A
:102750000BEAF50AF509AE0BAF0C22123757123C03
:10276000C57A0179A71230197A0179977D10123054
:102770002D7A0179871230197A0179831230237A00
:1027800001798B1230237A01794C7D0212302D7F32
:1027900004123035E4FFEF121CDE5049121BFEFD1F
:1027A000121BD9121D97121BFEFD90010A121BDC91
:1027B000121D97900107121BDC121DEA90010D12E9
:1027C0001BDC746175F0A8120DCC900113121BDC98
:1027D000746175F0A8120DCC900110121BDC121D53
:1027E000EA0F022F767B017A0179AF7D2A7C0012F5
:1027F0003D0EE4900280F0A3F0A3F0A3F07B017AF9
:1028000001794E7D14FC123D0EE4900007F090001B
:102810004A7411F0A3F0121DD4900292E0700FC31D
:1028200090027BE094F490027AE09401500A9002C6
:102830007A7401F0A374F4F0227B017D047C001211
:102840003D0E227B017D047C00123D0E227B017C2B
:1028500000123D0E22900232EFF0E4900234F0902C
:102860000232E0FF900234E0C39F507612082EE45B
:10287000900233F0121CD95060123B7A900233E080
:10288000FD121D36121C86ED121D36F583E0F8A3ED
:10289000E0FFED75F00AA4242EC8F608EFF6ED75FA
:1028A000F00AA4FF2426F9E4FAFBC0E0C0E0E9C086
:1028B000E074282FF9E4900238120FD590023BE41F
:1028C000F0A37408F0D0E0F9D0E0FAD0E0FB1239C0
:1028D000C5900233E004F0809B900234E004F002E3
:1028E000303FE4900233F0121CD95056122E36902D
:1028F0000233E0FD25E02400F582E43401121C8659
:10290000ED121DF0121BF7FFED121D2C121C08FD1D
:10291000123CF87C007D05120C5C900233121CE620
:10292000F583ECF0A3EDF0EF121D2C121BF7FF90D6
:102930000233E0121DF0121C86900233E004F00214
:1029400030C722C0E0C083C082C0D075D018D2AFDB
:10295000E5DB30E422D207C206E5DB30E114123DAC
:1029600024E0F5DFEF64077069D28A900007F00277
:1029700031D5C2050231D8E5DB30E52C9000F0E01E
:1029800064AA7017758A10F5DAC2AFF5B2F5A8F52A
:10299000A9F58B758E01758DC080FED204300604BA
:1029A000C2068054C2078050C206E5DB30E125E54F
:1029B000DB30E044123D24E0F5DFEF24F9600C2425
:1029C000FA60042402700BD2088007D28A900007B4
:1029D000E4F0802120050A780DA6DFD205D206801A
:1029E00017123D24E5DFF0EF6424700990027C04A7
:1029F000F0A374F4F0780D0675DBFFD0D0D082D050
:102A000083D0E032E4FFFD90027EE07004A3E06436
:102A1000017011900007E06004D28AE4F0E49002B3
:102A20007EF0A3F090014CE0600E900024E0641072
:102A30006006EF4420FF8004EF4410FF90014DE05A
:102A4000600E900024E064106006EF4402FF8004F2
:102A5000EF4401FF90004AEFF09000FFE0FC6F6050
:102A60005B90004AE0FFEC6FFE9000FFEFF0208AE1
:102A70001BD28A90027EE4F0A37403F090027FE000
:102A800024FFFB90027EE034FF4B70F0900007E0E3
:102A9000700790004AE05E8013EEF4FF9000FFE0C4
:102AA0005FFDEEFF90004AE05FFFED4F900007F002
:102AB00090027E7403F0A374E8F0C28A229002357B
:102AC000E0C454F0245FF582E43402F58322EBC4C1
:102AD00054F0245DF582E43402F583E4F0A3F09031
:102AE0000235E0FFC454F02461F582E43402F5833A
:102AF000E4F0A3F0EFC454F02466F582E43402F568
:102B00008322900235E0FBC454F02459F582E4346A
:102B100002F58322E0FDA3E0900236CDF0A3EDF0B4
:102B2000EFC454F02465F582E43402F58322900268
:102B300035E0C454F02463F582E43402F58322C402
:102B400054F02467F582E43402F58322900236E0E3
:102B5000FEA3E0FF22C454F0245DF582E43402F5C4
:102B60008322900238020F6B900238020F77900197
:102B7000627407F0A304F0A314F0A304F0123BEF77
:102B80007B017A0179717D067C00123D0E7F021275
:102B90003C4FE4900231F090023112390A50761223
:102BA0003C4F900231E0903D7F93FF1238B7E0FC3C
:102BB000A3E0C39405EC9400400F1238DDE0FEA3BF
:102BC000E0D394F0EE94074017900231E0FF25E047
:102BD0002462F582E43401F583E4F0A3F0123C4F63
:102BE000902E23E4F09002311238B11238C02FFF3A
:102BF000EC3EFE900149120FCC900231E075F002DC
:102C0000A4F58285F083EE8FF0120DCC900231E0B6
:102C100004F002337790001D7410F02275F00E124C
:102C20000FC0E0FEA3E0FFE4FCFD900248120F7726
:102C3000120E14900245E075F01CA42275F00E02ED
:102C40000FC075F01CA42401F582E43402F5832240
:102C500024FDF582E43401F5832224F9F582E4347D
:102C600001F583222405F582E43402F58322120F54
:102C700083900251020F6B900248020F6BED75F0CA
:102C800005A42469F582E4343DF583E49322EC75D0
:102C9000F00E020FC075F01CA42402F582E4340289
:102CA000F583222404F582E43402F5832290025154
:102CB000020F83200803023523300003023523C2AC
:102CC00008E4900232F090023212390A506BE0FEB2
:102CD0001238B3E0FCA3E0FDEE1238F2ECF0A3ED05
:102CE000F0123C4F9002321238B11238C02FFFEC74
:102CF0003EFE900232E0FD1238FEEEF0A3EFF0ED62
:102D00001238FEE0FEA3E0FF900149120FCC75F0EF
:102D100002EDA4F58285F083EE8FF0120DCCED125A
:102D200038F2E0FEA3E0FFED1238B3EEF0A3EFF0CF
:102D3000900232E004F00234A690027C7403F0A307
:102D40007420F022787FE4F6D8FD75813D02356E5F
:102D50000200000237D3E493A3F8E493A34003F600
:102D60008001F208DFF48029E493A3F85407240CCF
:102D7000C8C333C4540F4420C8834004F4568001B0
:102D800046F6DFE4800B0102040810204080903BEF
:102D9000B7E47E019360BCA3FF543F30E509541FA4
:102DA000FEE493A360010ECF54C025E060A840B8B4
:102DB000E493A3FAE493A3F8E493A3C8C582C8CA32
:102DC000C583CAF0A3C8C582C8CAC583CADFE9DE05
:102DD000E780BE208A0302363FD390027BE094E86E
:102DE00090027AE094035077900193E07002A3E0A0
:102DF000706D900195E07002A3E07063F5B2758D7F
:102E000020438D20758D8043A808D2AFF58B9001AB
:102E100038E0FEA3E0FF4E6005758E508003758E8E
:102E2000FE20042F20072CE5DB54047026758A84CD
:102E3000200720E5DB5404701AF58675870300002F
:102E400000758601EF4E60047F5080027FFE7E0099
:102E5000122045758B01758A1053A8F7123C8F22FA
:102E600074FFF5F0020CE7E475F001020CE7EF24C3
:102E700001FDE43EFCD3E09D22EE8FF0020CE7C39F
:102E8000900157E094BC900156E0940222C3900157
:102E900061E094BC900160E0940222C39001C4E020
:102EA00094649001C3E0940022C3900268E094B857
:102EB000900267E0940B22C3900262E094F49002C7
:102EC00061E0940122C3900278E094B8900277E028
:102ED000940B22C3900272E094F4900271E094018A
:102EE00022EF2401FDE43EFCD3E09D22900020E08F
:102EF000642070037421F0900146120FCC120CFD77
:102F0000641045F07003123B37900001E064AA7032
:102F100003123914123A1620090890001AE06410BE
:102F2000700F90001A7411F0C209E4900279123DFA
:102F3000539000FBE06006E4F0900279F09001937A
:102F4000E07004A3E06401600C900195E07004A3BC
:102F5000E064017012E4900193F0A3F0A3F0A312D7
:102F60003D53E4900279F030040CC20490027C746A
:102F700001F0A374F4F0227B017A0179F97D387CA9
:102F800000123D0EE4FDEDC3940274809480506203
:102F9000E4900231F0900231E0FFC3940274809417
:102FA00080504B12345DFEED75F01CA4123483EF9B
:102FB00012346FEEF012345D04F87E007401088064
:102FC00005C333CE33CED8F9FFED75F01CA412340F
:102FD00044C083C082900231E0D082D08312341C7E
:102FE000EEF0A3EFF0900231E004F00237750D022D
:102FF00037662253A87F123CAB1225EE123C7312A7
:10300000080E43A880E4F58D1236CC900279E014C6
:10301000601614601E24FE603E240470E812334ED5
:103020009002797401F080DD122F3B9002797402D6
:10303000F080D212396F900020E0FF64206008EF2A
:10304000642160031235B3900025E0641070B690DF
:1030500002797404F080AE123AAB900025E064105F
:1030600060A39002797401F0809BE4FEEEC39407A4
:1030700074809480502FEE25E025E0241BF582E437
:10308000342EF583E5822FF582E43583F583E493CE
:10309000FDEE25E025E0241AF582E4342E122C6C96
:1030A000EDF00E80C7EFFD7C007019EF25E0246283
:1030B000F582E43401F583E0FAA3E04A7006902E2D
:1030C000217412F0ED64014C7006902E217412F000
:1030D00022E0FB903D7F93902E1075F002020FC00E
:1030E000E0FEA3E0FF7C007D0A120C4AEB25E02401
:1030F00062F582E43401F583E0FCA3E02275F0027E
:10310000EF902E10020FC0EF25E02493F582E434F7
:10311000012225E02437F582E43402F5832225E0FC
:103120002433F582E43402F58322E0FFC394027471
:10313000809480229002317408F0A3E4F0A3743FDD
:10314000F0A374DFF0E4FDFCF9123D32009002318F
:10315000E0FEA3E02DF582EE3CF583E493FF69F9F0
:103160000DBD00010CBC37E5BDDFE2900233E0FE8F
:10317000A3E0F5828E83E493FFE96F70089000016D
:103180007407F08005E4900001F0123D3200227FC8
:103190000112303512224EE4900231F090023112C9
:1031A0001CDC503B123A61900231E0FF12274AEEDC
:1031B000FCEFFD900104120FCC900231E0FF121BD6
:1031C000E0121D97121347900231E0FF122AC090BF
:1031D0000231E0FF12196B900231E004F080BD1261
:1031E00031E402349390023D120FD5900238120F51
:1031F000CC900240120FD590023BE07002A3E06039
:1032000034900240120FCC120C1FFF90023D120F9F
:10321000CCEF120C3890023EE475F001120CE790EE
:103220000241E475F001120CE790023B74FFF5F0E7
:10323000120CE780C222900013E0FF900293E06F2F
:10324000600CEFF09002907402F0A37458F09002BA
:1032500090E07004A3E064017026900293E0FF7E8A
:103260000064107002D200EF64204E7002C2009021
:103270000025E064106002D209E4900290F0A3F00F
:1032800022EF25E02471F582E434011238D6243C83
:10329000FDEC34F6FCEF25E02487F582E43401F5FB
:1032A00083E0FAA3E0C39DEA9C50161238E7123877
:1032B000D64C70161238E7F5837401F0A374F4F05D
:1032C000221238E7F583E4F0A3F022900025E064B1
:1032D00010703FF5B2758D20438D20538D7F53A81C
:1032E000F7F58BE5DB54047013200710F58AF5869B
:1032F000758703000000758601758A10758B019033
:1033000002927401F090027C7403F0A37420F01216
:103310003C8F22C2D5E830E70FB2D5E4C39BFBE473
:103320009AFAE499F9E498F8EC30E717B2D5123B31
:1033300029120E9FE4C39BFBE49AFAE499F9E498FE
:10334000F88003120E9F30D50DE4C39FFFE49EFE6C
:10335000E49DFDE49CFC22E4900231F0A3F0123DD8
:103360003200122DE475EA81E4F5F6F5F475F30800
:10337000F5F275EB0700E5EC30E7FBAFF3EFFEADE0
:10338000F2EDFF900146120FCCEE8FF0120DADE47E
:10339000F5EC75EB30123D320022EFFB121D2C12C2
:1033A0001BF7FF121DDF121C86EB121D36121C08C4
:1033B000FDECC0E0EDC0E0121DDF121BF7FFE4FCE6
:1033C000FD900248120F83EB90024CF0D0E0FDD04C
:1033D000E0FC7F0102100BC10742029B0505C108FA
:1033E0004102950041029400C103C101C100C10224
:1033F00041029300C105010D00C104C1064201F75D
:1034000000004100FF11C10943029601029900E446
:10341000FFEFC3940D748094805021EF25E02401C8
:10342000F582E4342EF583E493FEEF25E02400F5E5
:1034300082E4342E122C6CEEF00F80D5902F56E0E3
:10344000902E2BF022900235EFF0E075F010A424BE
:1034500059F9740235F0FA7B017D107C00123D0EA3
:10346000900235E012331F740BF0A374B8F0229071
:10347000023BEFF0123CDF90023BE0FF12384A9033
:10348000023BE0903D7F93FF12287690023BE0FFE5
:10349000023D5EE4F5DA75DA4043DA2075D740750F
:1034A000D64075DA5843A80275B80275F80222E5CD
:1034B000B254016006E5A85410700F75B29275B64B
:1034C000F9E4F5B743B20143A81022758A10538A74
:1034D000EF758601758F05E4F5AB75AC0F75913FFF
:1034E000F592D28A227B017A0179777D067C0012DF
:1034F0003D0E7B017A01797D7D067C00023D0EEF59
:10350000F87401088002C333D8FC42AB122CB3F428
:10351000529152935391DF22D3EF9DEE9C4007EFDF
:103520009DFFEE9CFE22C3ED9FFFEC9EFE22ED4C24
:103530006011E4120C380429F9E43AFAED1D70EE3A
:103540001C80EB22780DE6FF2400F582E43400F5C0
:103550008322758A10538AEF22009600960701F4A1
:10356000009600960701F4EE30E707C3E49FFFE4FE
:103570009EFE22F09001E404F0A374F4F022122CD9
:10358000B3429142884391202204001E0019010099
:10359000190019900296120FCC020CFD01022000B6
:1035A0000102000000000000000000000000000018
:1035B000000000000000000000000000000000000B
:1035C00000000000000000000000000000000000FB
:1035D00000000000000000000000000000000000EB
:1035E00000000000000000000000000000000000DB
:1037F00000000000000000000000000000000010B9
:1038000000000000000000000000000000000000B8
:1038100000000000000000000000000000000000A8
:00000001FF
