:1007E000002400000012000091DE00000000000064
:1007F00000000000000000000000000000000000F9
:10080000022B8D9001E57401F0222202276E023442
:10081000D20000020816D2AF32000002081ED2AF8A
:10082000320000021BE5D2AF320000020826E4903D
:1008300001C5F0A3F0122142900189121003123079
:100840009EE4FCFD120E8590018912100F90018D1F
:10085000E475F001120DEDC3900190E094649001F5
:100860008FE094005003020AD4900189120FF7EC34
:10087000C0E0EDC0E0EEC0E0EFC0E090018DE0FE32
:10088000A3E0FBEEFAE4F9F8D0E0FFD0E0FED0E020
:10089000FDD0E0FC120F2B90018912100F900189FE
:1008A000120FF7900187EEF0A3EFF0A312101B00D8
:1008B00000000090018D1230D39001E6E07002A399
:1008C000E06003020AD4900191E07002A3E06003AB
:1008D000020AD490013CE0700302096E900183E0AB
:1008E0007002A3E0701D900187E0FFA3E0900183F8
:1008F0001230821230DC9001937403F0A374E8F09C
:1009000002097E900187E0FEA3E0FFC3900184E02E
:100910009FFF900183E09EFE1235379001AD1210CB
:1009200058EE8FF0120E66900181E0701D9001ADBF
:1009300012308AC39406E5F09400500812308712F2
:1009400030DC80069001817401F0900187E0FEA305
:10095000E0FFD3900184E09F900183E09E4007E494
:10096000900182F080189001827401F08010900153
:10097000831230D3900181F09001951230D4900110
:1009800081E07003020AD4D3900186E094009001C4
:1009900085E094005003020AD4123087FF9001854D
:1009A000E0FCA3E0FDC3EF9DFFE5F09CFE123537B0
:1009B0009001C7EEF0A3EFF0A3E4F074C812308505
:1009C000D39494E5F09411400A9001C97403F0A304
:1009D0007420F09001C7E0FFA3E09001B1123082D3
:1009E000D3123091400CD39001C8E094641230BD12
:1009F000501312308712309050369001C8E094C8DE
:100A00001230BD402BE4900181F0900183F0123050
:100A1000851230909001915008E4F0A374C8F080E2
:100A2000077401F0A3742CF0E4900182F0020AD460
:100A3000123087FFD3123092404AD31230B740446D
:100A400090010812105874FF75F0F9120E2E9001E3
:100A500097E475F007120DEDC3900196E094E890CD
:100A60000195E09403501DA3E09407900195E09454
:100A700000400A74FF75F0F9120DED8007E4900153
:100A800095F0A3F012308712309050481230B740E2
:100A900043900108121058E475F007120E2E9001D1
:100AA00095E475F007120DEDC3900198E09458900D
:100AB0000197E09402501DA3E09407900197E09401
:100AC00000400A74FF75F0F9120DED8007E4900103
:100AD00097F0A3F090013CE0601B9001BBE0700236
:100AE000A3E0701190011DE0FFA3E09001BBCFF0E7
:100AF000A3EFF0801F90013CE07019123087C3947F
:100B000096E5F09400500DE49001BBF0A3F0900145
:100B1000BFF0A3F09001BBE07002A3E07003020BF2
:100B2000DC12309EC39001BCE09FFF9001BBE09EB1
:100B3000FE1235379001C5EEF0A3EFF012309ED3D0
:100B40009001BCE09F9001BBE09E400D9001C5E08C
:100B5000FFA3E09001BDCF801A9001C5E0FEA3E0A5
:100B6000FFD394C8EE9400400EEE13FEEF13FF90F7
:100B700001BDEEF0A3EFF0D39001BEE0940A900126
:100B8000BDE094004056123087D39488E5F094136A
:100B900040239001C0E094DC9001BFE09405503CFC
:100BA0009001BEE025E0FE9001BDE0339001BFF072
:100BB000A3CEF08027123087D394E8E5F094034069
:100BC0001B9001C0E094F49001BFE09401500D909F
:100BD00001BDE0FFA3E0A3CFF0A3EFF09001FAE0A6
:100BE00064016003020CAE90013CE06003020C9EC5
:100BF00012309EC39001A2E09F9001A1E09E50049C
:100C0000EE1230AF9001A7E07002A3E070671230DF
:100C10009ED39001A4E09F9001A3E09E401290011A
:100C2000A4E09FFF9001A3E09E9001A5F0A3EFF048
:100C3000D39001A6E094049001A5E094004008122E
:100C400030C47464F08015D39001A6E0940690013E
:100C5000A5E0940040061230C474C8F09001A77457
:100C600003F0A374E8F090011DE0FFA3E09001A35E
:100C7000CFF0A3EFF09001A9E07002A3E0700F1293
:100C800030A7E49001ABF0A3F09001C1801D90016A
:100C9000ABE0FFA3E09001C1CFF0A3EFF022123050
:100CA000A7E49001C1F0A3F09001ABF0A3F022E71C
:100CB00009F608DFFA8046E709F208DFFA803E8885
:100CC000828C83E709F0A3DFFA8032E309F608DFBC
:100CD000FA8078E309F208DFFA807088828C83E377
:100CE00009F0A3DFFA806489828A83E0A3F608DF33
:100CF000FA805889828A83E0A3F208DFFA804C8068
:100D0000D280FA80C680D4806980F28033801080DF
:100D1000A680EA809A80A880DA80E280CA8033893F
:100D2000828A83ECFAE493A3C8C582C8CCC583CC7D
:100D3000F0A3C8C582C8CCC583CCDFE9DEE7800D4F
:100D400089828A83E493A3F608DFF9ECFAA9F0ED2F
:100D5000FB2289828A83ECFAE0A3C8C582C8CCC58D
:100D600083CCF0A3C8C582C8CCC583CCDFEADEE85B
:100D700080DB89828A83E493A3F208DFF980CC8840
:100D8000F0EF60010E4E60C388F0ED2402B4040061
:100D900050B9F582EB2402B4040050AF23234582FE
:100DA00023900CFF73EF8DF0A4A8F0CF8CF0A42853
:100DB000CE8DF0A42EFE22C2D5EC30E709B2D5E4E8
:100DC000C39DFDE49CFCEE30E715B2D5E4C39FFF64
:100DD000E49EFE1210C3C3E49DFDE49CFC8003125C
:100DE00010C330D507C3E49FFFE49EFE22C5F0F890
:100DF000A3E028F0C5F0F8E582158270021583E0C3
:100E000038F022BB010A89828A83E0F5F0A3E02250
:100E1000500687F009E71922BBFE07E3F5F009E366
:100E2000192289828A83E493F5F074019322BB012D
:100E30000789828A83020DED500B09C5F027F7C59B
:100E4000F01937F722BBFE0D09F8E325F0F3C5F0E2
:100E500019E338F322F889828A8374019325F0C557
:100E6000F0F8E4933822BB010A89828A83F0E5F026
:100E7000A3F0225006F709A7F01922BBFE06F3E5FE
:100E8000F009F31922EF2BFFEE3AFEED39FDEC38B5
:100E9000FC22C3EF9BFFEE9AFEED99FDEC98FC223D
:100EA000E88FF0A4CC8BF0A42CFCE98EF0A42CFCF1
:100EB0008AF0EDA42CFCEA8EF0A4CDA8F08BF0A46F
:100EC0002DCC3825F0FDE98FF0A42CCD35F0FCEBCE
:100ED0008EF0A4FEA9F0EB8FF0A4CFC5F02ECD3993
:100EE000FEE43CFCEAA42DCE35F0FDE43CFC22758A
:100EF000F008758200EF2FFFEE33FECD33CDCC33FB
:100F0000CCC58233C5829BED9AEC99E58298400C62
:100F1000F582EE9BFEED9AFDEC99FC0FD5F0D6E440
:100F2000CEFBE4CDFAE4CCF9A88222B800C1B90026
:100F300059BA002DEC8BF084CFCECDFCE5F0CBF987
:100F40007818EF2FFFEE33FEED33FDEC33FCEB337F
:100F5000FB10D703994004EB99FB0FD8E5E4F9FAAD
:100F6000227818EF2FFFEE33FEED33FDEC33FCC992
:100F700033C910D7059BE99A4007EC9BFCE99AF925
:100F80000FD8E0E4C9FAE4CCFB2275F010EF2FFF94
:100F9000EE33FEED33FDCC33CCC833C810D7079BFE
:100FA000EC9AE899400AED9BFDEC9AFCE899F80F61
:100FB000D5F0DAE4CDFBE4CCFAE4C8F922EB9FF5F6
:100FC000F0EA9E42F0E99D42F0EC6480C8648098AB
:100FD00045F022EB9FF5F0EA9E42F0E99D42F0E8F1
:100FE0009C45F022E8600FECC313FCED13FDEE13FB
:100FF000FEEF13FFD8F122E0FCA3E0FDA3E0FEA387
:10100000E0FF22E0F8A3E0F9A3E0FAA3E0FB22EC82
:10101000F0A3EDF0A3EEF0A3EFF022A8828583F019
:10102000D083D082121032121032121032121032CB
:10103000E473E493A3C583C5F0C583C8C582C8F033
:10104000A3C583C5F0C583C8C582C822A42582F57F
:1010500082E5F03583F58322E0FBA3E0FAA3E0F913
:1010600022EBF0A3EAF0A3E9F022EC8EF0A4CCC5C9
:10107000F0CCCDF8EFA4CEC5F02DFDE43CFCE8A407
:101080002EC8C5F03DFDE43CFCEFA4FFE5F028FED2
:10109000E43DFDE43CFC22EF4E6012EF60010EEDFA
:1010A000BB010B89828A83F0A3DFFCDEFA2289F080
:1010B0005007F709DFFCA9F022BBFEFCF309DFFCB7
:1010C000A9F022BC000BBE0029EF8DF084FFADF02B
:1010D00022E4CCF875F008EF2FFFEE33FEEC33FC82
:1010E000EE9DEC984005FCEE9DFE0FD5F0E9E4CEB8
:1010F000FD22EDF8F5F0EE8420D21CFEADF075F087
:1011000008EF2FFFED33FD4007985006D5F0F2228F
:10111000C398FD0FD5F0EA22122B6060030211A1E3
:101120007F01122F3D122B67902E20E030E2F990C4
:1011300001FAE025E0245AF582E43435122B1890A8
:1011400001CA122B527F0112351A90015CE0FEA3F6
:10115000E0FF4E70089001CA122B7A801E7C007D41
:1011600003120DA59001CBE02FFF9001CAE03EFED7
:101170007802EFCEC313CE13D8F9FFEE122B104E28
:101180007003122B08122B08900158E07002A3E0A4
:10119000700F90015CE0FFA3E0900158CFF0A3EF47
:1011A000F09001CC12101B00002710E4FF122F3D1D
:1011B000E49001C7F09001C7E0FF7E00C39404747F
:1011C0008094804003021317EF2401FFEE33FE12D8
:1011D0002B2AFDD3EF9D7480F86E98400302130E06
:1011E000E4FF122B67902E20E030E2F99001FAE044
:1011F00025E02459F582E43435122B189001C812E9
:101200002B52FF12351A122B607057900158E0FED6
:10121000A3E0FFE4C0E0C0E0EEC0E0EFC0E090017A
:101220005CE0FEA3E0FBEEFAE4F9F8D0E0FFD0E0EA
:10123000FED0E0FDD0E0FC120E92E47B08FA120E24
:10124000A0E47B0AFAF9F81232D89001C8EE8FF0C8
:10125000120DED9001C8E0FFA3E090015ECFF0A376
:10126000EFF0900199E0FEA3E0FF9001C9E02FFFAD
:101270009001C8E03EFE90019BE0FCA3E0FDC3EFBF
:101280009DFFEE9CFE9001C8F0A3EFF09001B9EE37
:10129000F0A3EFF090015AE0FEA3E0FF4E7008903B
:1012A00001B9122B7A801E7C007D03120DA59001DE
:1012B000BAE02FFF9001B9E03EFE7802EFCEC313F3
:1012C000CE13D8F9FF90015AEEF0FAA3EFF0FB121B
:1012D0002B3CFFE4FCFD9001D112100FEBFFEAFE66
:1012E000E4FCFD9001D512100FE4FF121D5890018F
:1012F00062EEF0A3EFF0122B609001CC122B392498
:1013000000FFEE34E8FE3395E0FDFC122B849001E3
:10131000C7E004F00211B5902E23E4F09001CC1246
:101320001003E8C0E0E9C0E0EAC0E0EBC0E0122B47
:101330002AFFFBE4FAF9F8122B741232D8D0E0FB42
:10134000D0E0FAD0E0F9D0E0F8122B84E47F507EB0
:10135000C3FDFC9001CC121003D3120FBD400A90C4
:1013600001CC12101B0000C350122B74EC33500A36
:101370009001CC12101B00000000900168E0FAA35D
:10138000E0FB4A7005122B7480227E007F02EBFD89
:10139000EAFC12106AECF8EDF9EEFAEFFB122B748E
:1013A000120E85E47B03FAF9F8120F2B900168EE18
:1013B000F0A3EFF0900156E07002A3E0700F9001EF
:1013C00068E0FFA3E0900156CFF0A3EFF090012674
:1013D000122B39FFE4FCFD120E8590012612100F2E
:1013E00090012AE475F001120DED90012AE0FEA3B0
:1013F000E0FFD3940AEE94004029EFFBEEFAE4F903
:10140000F8900126120FF7120F2B900124EEF0A393
:10141000EFF0E490012AF0A3F090012612101B00D7
:1014200000000090012CE07002A3E0703A900124CB
:10143000E0FEA3E0FFC3900163E09FFF900162E044
:101440009EFE123537900122EEF0A3EFF0D3940602
:10145000EE9400401290012C7403F0A374E8F0A302
:10146000E475F001120DED900168E0FEA3E0FF22AB
:1014700012292A40030217619001081228FDFDE598
:10148000F0FC1228FAFFAEF0D39DEE9C402E1229FC
:1014900093D3EF9430EE9475400C9001C57475F0C1
:1014A000A37430F08010120E03C39DFEE5F09C90F3
:1014B00001C5F0A3CEF0E49001B38060120E03FFEB
:1014C000AEF0C3ED9FFBEC9EFAD3EB9410EA9427A9
:1014D000400C9001C57427F0A37410F08009C3ED8F
:1014E0009FFFEC9E1229509001C5E0FFA3E0900100
:1014F000B3CFF0A3EFF0300718D3E0942C9001B3F2
:10150000E0940140139001B57427F0A37410F080AB
:1015100007E49001B5F0A3F0E49001C5F0A3F090CA
:10152000013CE0604A122903D39400EE6480948069
:101530004014D3EF9509EE9508400B9001ECE4F0D0
:10154000A37464F0801BD39001EDE094009001EC53
:10155000E09400400C9001051228FDFFE5F01229EF
:1015600050D2049001F2740FF0A374A0F0800F9099
:1015700001F07403F0A374E8F0E4FF1233DBD390BE
:1015800001C6E094009001C5E0648094805003029D
:101590001736E0FEA3E0FF9001051228F11229039F
:1015A000EE3395E0FDFCE47BB87A88F9F8C3120FBE
:1015B000BD500A9001C57488F0A374B8F0D39001AF
:1015C000EFE094009001EEE0940050089000F1E00C
:1015D0006420702AE509240AFFE43508FE9001C55D
:1015E000E0FCA3E0FDC39FEC9E5013ED9400EC647F
:1015F00080948040381229037C007D0A80293007BE
:101600002C90013CE07011122903C39515EE95143E
:10161000501B7C027DBC800F122903C39509EE95F7
:1016200008500A7C027DBC120DB712294F90013C74
:10163000E070030216BB9001F0E07002A3E07014AA
:101640009001C5E0FEA3E0FDEEFCE4FF121762127C
:10165000294F8035122903C3900135E09FFF900187
:1016600034E09EFE123537D3EF9428EE64809480E8
:101670004017D39001F1E094C89001F0E09400404D
:101680000874FF75F09C120DED900134E0FEA3E0AC
:10169000FF7C007D0F12106AECF8EDF9EEFAEFFB1B
:1016A000122903EE3395E0FDFC120E85E47B10FA5F
:1016B000F9F8120F2B900134EE800B9001C5E0FF7A
:1016C000A3E0900134CFF0A3EFF0900134E0FEA34B
:1016D000E0FFD39405EE9400400EEF9410EE9400DA
:1016E00050069001C5EE8016900130E0FEA3E0FFA9
:1016F000900135E02FFF900134E03E9001C5F0A34A
:10170000EFF0D39001C6E094309001C5E06480947E
:10171000F540077475F0A37430F0E5DB54047041B4
:1017200012290390010E1228F19001C6E024A8FFAF
:101730009001C5E08022E5DB5404702512291E903B
:101740000130E0FEA3E0FF90010E1228F190010E9F
:101750001228FD24A8FFE5F03461FE90010B122849
:10176000F1229001C7EFF0A3ECF0A3EDF0EF122807
:10177000A6E0FEA3E0C39DFFEE9CFE123537D3EF3B
:101780009428EE64809480401C12287612101B006E
:10179000000000122842E4F01228C01228A2EEF045
:1017A000A3EFF0803B1228311228D640339001C8B5
:1017B000E0FCA3E0FDD3EF9DEE9C400B9001C7E061
:1017C000122869E04401F09001C7E0FF122835E0DB
:1017D000FAA3E0C39DEA9C5007122868E04402F097
:1017E0009001C7E012287BC083C082121003122828
:1017F000C0E4FCFD120E85D082D08312100F900140
:10180000C7E0FF1228C9E475F001120DEDEF75F085
:1018100007A42462F582E43435F583E493FE740171
:1018200093FF9001C7E0FDC454F02417F582E4341F
:1018300002F583E0FAA3E0C39FEA9E50030219CEAB
:10184000ED1228C9E0FEA3E0FFFBEEFAE4F9F89000
:1018500001C7E012287B120FF7120F2B9001CA125A
:10186000100F12282BE0FCA3E0C39FFFEC9EFE129A
:1018700035379001CEEEF0A3EFF09001C7E0FD7593
:10188000F007A4245DF582E43435F583C374019335
:101890009FE4939E401FED122835E0FEA3E04E60CA
:1018A000149001C7E0FB1228B3E0FEA3E0C394B894
:1018B000EE940B501E9001C7E0FF122835E0FCA308
:1018C000E04C7008EF1228B3E4F0A3F012282BEEDE
:1018D000021975EB600302197B9001D0F09001CEE4
:1018E000E0FEA3E0FFD39450EE94004006A37408FA
:1018F000F080329001C7E0122869E064036026D3CB
:10190000EF943CEE940040089001D07404F08015F0
:10191000D39001CFE094289001CEE094004006904F
:1019200001D07402F0122831E0FEA3E0FFE4FCFDD8
:101930001228E2D3120FD340119001D0E0FF1228F9
:1019400031E48FF0120DED0219B1D39001CFE09484
:10195000509001CEE094004058122831C083C082DC
:10196000E0FEA3E0FF9001D0E0FDC3EF9DFFEE9409
:1019700000D082D083F0A3EFF08036122831E0FE51
:10198000A3E0FF4E700D1228E2EBFFEAFEE9FDE84E
:10199000FC80167C007D0712106A1228E2120E8568
:1019A000E47B08FAF9F8120F2B122831EEF0A3EFBE
:1019B000F012287612101B00000000122842E4F0FA
:1019C0009001CA120FF71228A2EEF0A3EFF012282E
:1019D000311228D6405F9001C9E09FFF9001C8E016
:1019E0009EFE1235379001C7E075F007A4245FF51D
:1019F00082E43435F583D37401939FE4939E400FC2
:101A00009001C7E0FF122835122888E4F080269064
:101A100001C7E0FF75F007A42461F582E43435F5D1
:101A200083E493FE122894E0C39E500912283112D9
:101A30002888E004F01228C022D39001E7E09F90AC
:101A400001E6E09E400AA3E09FF09001E6E09EF0F0
:101A50009001EB1230EE9001EAE09C400CA3E09F75
:101A6000F09001EAE09EF08002D28AD39001E9E092
:101A70009F9001E8E09E400AA3E09FF09001E8E01B
:101A80009EF01231005003123138D39001EDE09FE7
:101A90009001ECE09E400AA3E09FF09001ECE09EF4
:101AA000F0D39001EFE09F9001EEE09E400AA3E0AA
:101AB0009FF09001EEE09EF0D39001F5E09F900141
:101AC000F4E09E400AA3E09FF09001F4E09EF0D382
:101AD0009001F1E09F9001F0E09E400AA3E09FF0AA
:101AE0009001F0E09EF0D39001F3E09F9001F2E0CE
:101AF0009E400AA3E09FF09001F2E09EF0D3900197
:101B0000B6E09F9001B5E09E400AA3E09FF09001EF
:101B1000B5E09EF09001F71230EE9001F6E09C40A7
:101B20000AA3E09FF09001F6E09EF012310E500300
:101B3000123138D3900192E09F900191E09E400ACB
:101B4000A3E09FF0900191E09EF090019412313E4D
:101B5000900193E09C400AA3E09FF0900193E09EE7
:101B6000F0D39001A8E09F9001A7E09E400AA3E077
:101B70009FF09001A7E09EF0D39001AAE09F900112
:101B8000A9E09E400AA3E09FF09001A9E09EF0909A
:101B9000016F12313E90016EE09C400AA3E09FF07D
:101BA00090016EE09EF0D39001B8E09F9001B7E005
:101BB0009E400AA3E09FF09001B7E09EF012311C16
:101BC000500312313812312A5003123138D39001A8
:101BD0002DE09F90012CE09E400AA3E09FF0900131
:101BE0002CE09EF022C0E0C0F0C083C082C0D0E8EC
:101BF000C0E0D2AFD39001E7E094009001E6E0941A
:101C00000040031230E7D39001EBE094019001EA29
:101C1000E0940040051230E78002D28AD39001E9B7
:101C2000E094009001E8E0940040031230E71231A4
:101C30000050031230F9D39001EDE094009001ECD4
:101C4000E0940040031230E7D39001EFE09400905D
:101C500001EEE0940040031230E7D39001F5E094E8
:101C6000009001F4E0940040031230E7D39001F1BA
:101C7000E094009001F0E0940040031230E7D3902C
:101C800001F3E094009001F2E0940040031230E789
:101C9000D39001B6E094009001B5E09400400312A7
:101CA00030E7D39001F7E094019001F6E094004012
:101CB000031230E712310E50031230F9D390019223
:101CC000E09400900191E0940040031230E7D3903B
:101CD0000194E09401900193E0940040031230E7F6
:101CE000D39001A8E094009001A7E0940040031273
:101CF00030E7D39001AAE094009001A9E09400405D
:101D0000031230E7D390016FE0940190016EE094EC
:101D10000040031230E7D39001B8E094009001B77F
:101D2000E0940040031230E712311C50031230F9E6
:101D300012312A50031230F9D390012DE094009013
:101D4000012CE0940040031230E7D0E0F8D0D0D06E
:101D500082D083D0F0D0E0329001D0EFF01226E7AD
:101D6000E070279001D0E012271E120FF7E4FBFA73
:101D7000F9F8C3120FD360129001D0E012273C1281
:101D80000FF7E4F8C3120FD370571227509001D108
:101D9000121E94EEF0A3EFF0ED1226E7E06029EDBD
:101DA00075F00AA42449F582E43435F583C083C074
:101DB000829001FAE0D082D0831226F5400A900189
:101DC000D0E01226E77405F012269CE0D39400744C
:101DD00080948040061226E6E014F09001D5021EA1
:101DE00090122719120FF79001D912100F12273BEA
:101DF000120FF79001DD12100F9001D0E012272D85
:101E0000120FF7EFF9122759E9F8120FE4EFFBEE82
:101E1000FAEDF9ECF8122759120E929001E1121026
:101E20000F9001D9120FF79001D5121003120E85F1
:101E30009001E1121003120E8512274A122719127F
:101E4000275612273B12275612275F121003120F34
:101E50002B12274A9001DD121E94EEF0A3EFF0ED55
:101E600075F00AA42445F582E43435F583C083C0B7
:101E7000829001FAE0D082D0831226F5400F12261C
:101E80009C7405F01227509001DD12100F9001DDB7
:101E9000120FF722EFFBEEFA120FF7C3EF9BFFEEE4
:101EA0009AFE1235379001D0E0FD75F013A4240599
:101EB000F582E43402F5832290017A12299A94047F
:101EC000EE94005022122963EF25E0FFEE33FE74FA
:101ED000722FF58274013EF583ECF0A3EDF09001D2
:101EE0007A122977021F839001C97401F09001C909
:101EF000E0FFC312293B5021EF122942FCA3E0FD71
:101F0000EF25E02470F582E43401F583ECF0A3EDD5
:101F1000F09001C9E004F080D490013CE0600280C0
:101F2000531228FAFF122963C3EF9DFFE5F09CFED0
:101F3000123537C3EF9428EE6480948050369001B8
:101F4000081228FDFFC3900101E09FFF900100E00F
:101F500095F0FE123537C3EF9414EE6480948050F0
:101F60000590010880039001021228FDFF9001787E
:101F7000E5F0800B900100E0FFA3E0900178CFF046
:101F8000A3EFF09001C512101B00000000E49001C7
:101F9000C9F09001C9E0FFD390017BE09F90017AE6
:101FA000E0940040259001C51210039001C9E01291
:101FB0002942FEA3E0FFE4FCFD120E859001C5124C
:101FC000100F9001C9E004F080C89001C5120FF70E
:101FD000ECC0E0EDC0E0EEC0E0EFC0E090017A12AE
:101FE000297ED0E0FFD0E0FED0E0FDD0E0FC120F73
:101FF0002B9001C512100F9001C5020FF79001C57B
:102000007402F0A374BCF0D39001B8E09400900186
:10201000B7E0940040111228FAFF900108121058FE
:10202000E5F08FF0120E669001E6E07002A3E0602A
:102030000B9001C5E4F0A37464F0800B90001AE0EB
:10204000641170037420F090013CE0600F7E007F0B
:102050000A7D007B017A01793D02109790013D12C3
:102060001003E8C0E0E9C0E0EAC0E0EBC0E01228FD
:10207000FAFFAEF0E4FCFDD0E0FBD0E0FAD0E0F9EE
:10208000D0E0F8120E8590013D12100F9001411220
:1020900029779001C512299A900146E09F90014549
:1020A000E09E500302214190013D120FF7ECC0E089
:1020B000EDC0E0EEC0E0EFC0E090014112297ED01B
:1020C000E0FFD0E0FED0E0FDD0E0FC120F2B90014D
:1020D0003D12100F9001081228FD2432FFE435F064
:1020E000FEE4FCFD90013D121003D3120FD3402EED
:1020F0009001E6E07002A3E07024200421900143E7
:10210000122978D3900144E09405900143E09400B3
:1021100040181228E8E4900143F0A3F0800C122844
:10212000E8E4900143F0A3F0C20490013D12101BBB
:1021300000000000E4900141F0A3F0900145F0A3FD
:10214000F022758D20438D20538D7FE4F5B275B656
:10215000FF75B7FF75B2A243B20153A8FB538B7F43
:10216000758B10438B08E58B20E7030080F8538BB9
:102170007F758B11438B08E58B20E7030080F89077
:102180000228E5B5F0A3E5B4F0758B01E4F5B212D1
:1021900034D2E4F58D90011DE0FEA3E0FF4E7010F7
:1021A00012346BFD90011DE5F0F0A3EDF002223238
:1021B00012346BFDC3EF9DFFEE95F0FE123537D361
:1021C000EF940AEE64809480402412346BFFC39035
:1021D000011EE09F90011DE095F05006E475F001AE
:1021E000800790011D74FFF5F0120DED8044900101
:1021F0001DE0FEA3E0FF7C007D0312106AECC0E04E
:10220000EDC0E0EEC0E0EFC0E012346BFFAEF0E4F2
:10221000FCFDD0E0FBD0E0FAD0E0F9D0E0F8120EFF
:1022200085E47B04FAF9F8120F2B90011DEEF0A360
:10223000EFF09001FAE06401700D7D0512344A70F0
:1022400002A3E0701A800B7D1012344A7002A3E0E2
:10225000700D900199E0FFA3E0A3CFF0A3EFF09001
:1022600001A1E07002A3E0700F90011DE0FFA3E068
:102270009001A1CFF0A3EFF0227FFF7A0079001246
:10228000354D7FC57A01790012354D7E007F147D72
:10229000007B017A0179E5121097902DE0E493908C
:1022A0000001F09000047411F0A37422F0A37433C1
:1022B000F0902DE2E493900012F0902DE3E49390DF
:1022C0000014F09000FB7401F09000367410F09050
:1022D00000F1F0900024F0A37420F07B017A0079E3
:1022E000409001021210617A0079449001081210A6
:1022F000617A0079429001051210617A00792E907E
:10230000010B1210617A00792A90010E1210617A85
:102310000079289001111210617A00796090011FF4
:102320001210617A0079809001AD1210617A007903
:10233000189001391210617A00791B900136121041
:10234000617A0079329001141210617A0079269036
:1023500001171210617A00793490011A12106190FD
:102360000114121058E475F0C8120E66900117128D
:102370001058E475F064120E6690011A121058E4B9
:1023800075F096120E667514007515C875080075FF
:1023900009969001E67407F0A374D0F0E49001E58B
:1023A000F0229001CCEFF0902E22E0FF9001D0E4DB
:1023B000F0A3EFF0758A50902E227401F01231B61E
:1023C0007404F0A3E4F09001CDF09001CDE0FFC3E0
:1023D000940D7480948040030224B6EFF87E02E4EA
:1023E000088006CEA2E713CE13D8F8FF9001CEEEF8
:1023F000F0A3EFF04E70079001CEF0A304F0902E02
:10240000207401F0902E20E030E2F99001CCE0FF42
:10241000902E001231BDE0FCA3E0D394FEEC9407B3
:1024200040401231DEE0FEA3E0FF9001CEE0FCA3CD
:10243000E0FDEF2DFFEE3CFEC3EF94FFEE9407901E
:1024400001CCE075F002902E10500B12104CEC8D68
:10245000F0120DED805012104C7407F0A374FFF0D1
:1024600080449001CCE0FF1231BAE0FCA3E0FD9083
:1024700001CEE0FAA3E0FBD3ED9BEC9A40211231B0
:10248000DEC083C082C3A3E09BFF0582D582021514
:10249000831582E09AD082D083F0A3EFF0800712F8
:1024A00031B6E4F0A3F0902E20E4F0F58D9001CD4C
:1024B000E004F00223CA9001D0A3E0902E22F07530
:1024C0008A30227FC87E007D967C0012292A400334
:1024D0000225B43007209001B5E07002A3E0600847
:1024E00075141375158880067514077515D0750851
:1024F0000675094080499001FAE0F964017006FE12
:102500007FC8FC7D969001BFE0FAA3E0FB2FF51594
:10251000EA3EF514CEECCEEDFFEB2FF509EA3EF5E1
:1025200008E964017019A3E0FEA3E0FF2515F51585
:10253000EE3514F514EF2509F509EE3508F5089088
:1025400001051228FDFFAEF0C39515EE9514500F4E
:1025500090013CE0601AC3EF9509EE950840119098
:1025600001EEE07002A3E0702990013C04F08022AB
:102570009000F1E064209001EE7005F0A3F0800778
:102580007401F0A374F4F0E490013CF09001EC12BB
:10259000298990013CE0FF6016900024E0641090CF
:1025A000003670057410F080037420F012296C90CE
:1025B000004BEFF022E4F526F525F524F523F5266A
:1025C000F525F524F523F522122938502AE5222590
:1025D000E0240AF8E6FE08E6FFE4FCFDE5262FFF0E
:1025E000E5253EFEED3524FDEC35238F268E258D29
:1025F00024F523052280D1E47B04FAF9F8AF26AE56
:1026000025AD24AC23120F2B90017EEEF0A3EFF04A
:10261000E47526A8752561F524F523F522122938DD
:10262000505590017E12290CC3122993123537D3CD
:10263000EF940AEE64809480401290017EE0FEA345
:10264000E0FF900156E0FCA3E0FD800790015612E8
:10265000290CC31229933395E0FDFCE5262FFFE5F5
:10266000253EFEE5243DFDE5233C8F268E258D2469
:10267000F523052202261DE47F607EEAFDFCAB26E1
:10268000AA25A924A823D3120FD3400BE4752660F2
:102690007525EAF524F523AE25AF26229001D51243
:1026A0000FF79001D0E0FB75F013A42400F582E44D
:1026B0003402F58312100FEB75F013A4240BF5828E
:1026C000E43402F583120FF79001D5121003120EB5
:1026D000A09001D0E0FB75F013A424FCF582E43453
:1026E00001F58312100FEB75F013A42404F582E4B6
:1026F0003402F5832275F00212104CE493FE74014B
:1027000093FFED75F013A42405F582E43402F583FC
:10271000E0FCA3E0D39FEC9E229001D0E0FB75F09B
:1027200013A42400F582E43402F58322EB75F01340
:10273000A42407F582E43402F58322EB75F013A498
:1027400024FCF582E43401F583229001DD12100FA0
:102750009001D5020FF712100F9001DD020FF7EB79
:1027600075F013A4240BF582E43402F58322C0E053
:10277000C083C082C0D075D018D2AFE5DB30E42270
:10278000D205C202E5DB30E114123529E0F5DFEFB6
:1027900064077065D28A900007F002281CC201020B
:1027A000281FE5DB30E52C9000F0E064AA70177577
:1027B0008A10F5DAC2AFF5B2F5A8F5A9F58B758EDA
:1027C00001758DC080FED200300204C2028050C26A
:1027D00005804CC202E5DB30E121E5DB30E0401250
:1027E0003529E0F5DFEF24F9600824EE700BD206FE
:1027F0008007D28A900007E4F0802120010A781631
:10280000A6DFD201D2028017123529E5DFF0EF648E
:102810002470099001E804F0A374F4F078160675AA
:10282000DBFFD0D0D082D083D0E0329001CA120F2B
:10283000F79001C7E0C454F02415F582E43402F5A2
:102840008322EBC454F02413F582E43402F583E4CC
:10285000F0A3F09001C7E0FFC454F02417F582E420
:102860003402F583E4F0A3F0EFC454F0241CF582A5
:10287000E43402F583229001C7E0FBC454F0240F36
:10288000F582E43402F58322E0FDA3E09001C8CD97
:10289000F0A3EDF0EFC454F0241BF582E43402F50C
:1028A00083229001C7E0C454F02419F582E4340275
:1028B000F58322C454F0241DF582E43402F583220A
:1028C0009001C8E0FEA3E0FF22C454F02413F58277
:1028D000E43402F58322E0FEA3E0FFD39400EE94FB
:1028E00000229001CA02100390013D120FF79001DF
:1028F00008121058EE8FF0020E6690010212105866
:10290000020E039001C5E0FEA3E0FF22E52225E0D0
:10291000240AF8E6FE08E6FFE0FCA3E0FD229001B1
:1029200005121058E4F5F0020E66D39001E7E0942A
:10293000009001E6E0940022C3E5229404748094A0
:10294000802225E02472F582E43401F583E022EE52
:102950009001C5F0A3EFF022121058746175F0A831
:10296000020E66900100E0FCA3E0FD229001E874F5
:1029700003F0A37420F022E475F001020DEDE0FEF7
:10298000A3E0FBEEFAE4F9F822F0A3F0900036742D
:1029900010F022EF9DFFEE9CFE22E0FEA3E0FFC3BD
:1029A00022122FAE1234977E007F2C7D007B017A9D
:1029B00001798112109712082EE490017AF0A3F0A9
:1029C000900168F0A3F0900166F0A3F090016AF026
:1029D000A3F07F04122D31900100E0FEA3E0FFA3DD
:1029E0001228F1900100E0FEA3E0FF1228EE122968
:1029F0001E90010B12295890011112295890010EB6
:102A0000122921E490013CF0FE7F0AFD7B017A014E
:102A1000793D121097E49001F4F0A3F09001F212C6
:102A20002989E490004BF012296C9001F8E0700FB6
:102A3000C39001E7E094F49001E6E09401500A901D
:102A400001E67401F0A374F4F022E49001C5F0A350
:102A5000F0900149F0A3F09001477412F0A3745C68
:102A6000F012331C7E007F047D007B017A017956D1
:102A70001210977F0112339FE4FF12339F1231C36C
:102A80009001C5CDF0A3EDF09001C5E0FCA3E0FD01
:102A9000C39405EC94004009D3ED94F0EC94074006
:102AA00017EF64014E70059001498004E4900147DE
:102AB000F0A3F0E4FF12339F902E23E4F01231C311
:102AC0009001C5CDF0A3EDF090001D7410F0EF64FF
:102AD000014E9001C570081231AA1231E880061229
:102AE00031AA1231F2E03EFE1231D2229001FAE018
:102AF00025E02459F582E43435F583E5822FF5820B
:102B0000E43583F583E493229001CAE0FFA3E0CF8C
:102B100090015CF0A3EFF022F583E49375F002904E
:102B20002E0012104CE0FFA3E0229001FAE0242ACC
:102B3000F582E43402F583E022121003900162E092
:102B4000FEA3E022F583E4932420F582E4342EF5FD
:102B50008322CFF0A3EFF0902E20E4F0758A30228C
:102B60009001FAE06401221234B5758A50902E204B
:102B70007401F0229001CC020FF7E0FCA3E0FDEC21
:102B8000FEEDFF22120E859001CC02100F787FE43B
:102B9000F6D8FD758126022BD7020000022CA9E48D
:102BA00093A3F8E493A34003F68001F208DFF480D6
:102BB00029E493A3F85407240CC8C333C4540F4426
:102BC00020C8834004F456800146F6DFE4800B0100
:102BD00002040810204080902DB1E47E019360BC77
:102BE000A3FF543F30E509541FFEE493A360010E98
:102BF000CF54C025E060A840B8E493A3FAE493A3BF
:102C0000F8E493A3C8C582C8CAC583CAF0A3C8C5DF
:102C100082C8CAC583CADFE9DEE780BEE49001C985
:102C2000F0A3F0200603022CA820077CC206900126
:102C3000FAE0902E12E0FFA3E09001C9CFF0A3EFDD
:102C4000F09001C9E0FFA3E09001C7CFF0A3EFF03F
:102C5000E4FF12339F1231C39001C9CDF0A3EDF010
:102C6000EF64014E9001C970081231AA1231E88058
:102C7000061231AA1231F2E03E9001C5F0A3EFF046
:102C80009001C5E0FEA3E0FF1231D29001FAE0907E
:102C900001C7E0FFA3E0902E12CFF0A3EFF0900168
:102CA000E87403F0A37420F02253A87F1234EE12CC
:102CB000227912335F12080E43A880E4F58D90004C
:102CC000F17420F0122E4A9001E5E01460151460B2
:102CD0001714603814604A240470E0122A4A12085B
:102CE0000380D81229A18031123474900020E0FFB3
:102CF00064206008EF64216003122EC8900025E074
:102D0000641070B79001E57404F080AF12080A9067
:102D100001E87403F0A37420F09001E57402F080E0
:102D20009A123290900025E06410608F12080380A0
:102D30008A9001C5EFF0E4A3F09001C5E0FFA3E0A5
:102D4000C39F502E12111812350990016AEEF0A39C
:102D5000EFF08E12F513C8740AC87400FCE4FDFB92
:102D60007A00790CFE7F08120D7F9001C6E004F016
:102D700080C71225B5900100EEF0A3EFF090016836
:102D800012299A900133E09FFF900132E09EFE12DB
:102D900035377C007D05120DB7900130ECF0A3EDC6
:102DA000F0900168E0FFA3E0900132CFF0A3EFF0D4
:102DB00022C10542022A0204C1064101FB00410171
:102DC000FA00C1074101F900C101011600C100C1AB
:102DD00002C104C1034100FF104302250102280083
:102DE0001202AB2474AA7583F5758255A5745575C6
:102DF00083FA7582AAA574A57583F5758255A522F7
:102E00000203030AB0B00BB6B60CFFFF09020208BA
:102E1000FFFF0D77770E04041307071410101080BE
:102E2000801500001600000192129212071B021872
:102E3000120F0404040404010101011118100F0F02
:102E40001218080D040302040204900020E064201C
:102E500070037421F0900136121058120E036410A2
:102E600045F07003123247900001E064AA7003122B
:102E700031491231FC20030890001AE06410700BF5
:102E800090001A7411F0C2031208039000FBE06076
:102E900006E4F09001E5F090016EE07004A3E064B8
:102EA00001701590016EF0A3F09001B77407F0A3C4
:102EB00074D0F0E49001E5F030000CC2009001E81D
:102EC0007401F0A374F4F022308A719001E6E0708E
:102ED00002A3E0706790016EE07002A3E0705DF500
:102EE000B2758D20438D20758D8043A808D2AF75B3
:102EF0008B4090012CE0FEA3E0FF4E758E14200065
:102F00002F20052CE5DB54047026758AA4200520AB
:102F1000E5DB5404701AF58675870300000075869A
:102F200001EF4E60047F2880027F7F7E00121A39F5
:102F3000758B01758A3053A8F71234D222E4FEEE65
:102F4000C39407748094805038EE75F005A424284B
:102F5000F582E4342EF583C083C0829001FAE0D07C
:102F600082D08375F00212104C122AFBFDEE75F030
:102F700005A42427F582E4342E122B44EDF00E80B4
:102F8000BEEF70109001FAE0700A900147E0700205
:102F9000A3E0600F122B607014900149E07002A34F
:102FA000E0700A9001FAE0902E217412F0227E0067
:102FB0007F137D007B017A0179FC121097E4FBEB13
:102FC000C394017480948050519001FAE0FFEB7536
:102FD000F00AA42443F582E43435F583E5822FF525
:102FE00082E43583F583E493FFE4FCFDFE12272C95
:102FF00012100F12272C120FF7EF04F87E00740145
:10300000088005C333CE33CED8F9FFEE3395E0FD0B
:10301000FC12275F12100F0B80A5229001EAE070CE
:1030200004A3E064017011900007E06004D28AE418
:10303000F0E49001EAF0A3F0900036E0FF9000FF8A
:10304000E06F603D900036E0FD9000FFF0900007DB
:10305000E09001FBF0540FF0ED7E0064207005E07D
:103060004420800CEF64104E700B9001FBE0441084
:10307000F0900007F0C28A9001EA7403F0A374E8AC
:10308000F022CFF0EFA3F0900105121058020E03CA
:10309000C3FF900186E09F900185E095F0229001AA
:1030A0001DE0FEA3E0FF2290011DE0FFA3E0CF9012
:1030B00001A1F0A3EFF0229001C8E0941E9001C797
:1030C000E09400229001A97413F0A37488F0A3E4A3
:1030D000F0A322E4F0A3F0A3F0A3F022FF90018577
:1030E000E5F0F0A3EFF02274FFF5F0020DEDEF2410
:1030F00001FDE43EFCD3E09D22E475F001020DEDFC
:10310000C3900146E094BC900145E0940222C39034
:103110000190E0946490018FE0940022C390021E1D
:10312000E094B890021DE0940B22C3900218E09442
:10313000F4900217E0940122EE8FF0020DEDEF24DF
:1031400001FDE43EFCD3E09D229001C57408F0A38C
:10315000E4F0A3743FF0A374DFF0E4FDFCF9758A9A
:1031600010538AEF009001C5E0FEA3E02DF582EE3A
:103170003CF583E493FF69F90DBD00010CBC37E514
:10318000BDDFE29001C7E0FEA3E0F5828E83E49309
:10319000FFE96F70089000017412F08005E4900060
:1031A00001F0758A30538AEF0022E0FEA3E0FF7C35
:1031B000007D0A020DA59001CCE0902E1075F00262
:1031C00002104C9001FAE0FF7E00902E12E0FDA369
:1031D000E022900139121058EE8FF0020E6675F061
:1031E00002EF902E1002104C90014AE02FFF900148
:1031F0004922900148E02FFF90014722900013E000
:10320000FF9001F9E06F600CEFF09001F67402F0AE
:10321000A37458F09001F6E07004A3E064017026F6
:103220009001F9E0FF7E0064107002D207EF642085
:103230004E7002C207900025E064106002D203E4E1
:103240009001F6F0A3F022E49001C5F0A3F0758A96
:1032500010538AEF00122DE475EA81E4F5F6F5F4D7
:1032600075F308F5F275EB0700E5EC30E7FBAFF31B
:10327000EFFEADF2EDFF900136121058EE8FF01216
:103280000E66E4F5EC75EB30758A30538AEF002258
:10329000900025E06410703FF5B2758D20438D20BD
:1032A000538D7F53A8F7F58BE5DB5404701320058D
:1032B00010F58AF586758703000000758601758A0A
:1032C00030758B019001F87401F09001E87403F0FF
:1032D000A37420F01234D222C2D5E830E70FB2D561
:1032E000E4C39BFBE49AFAE499F9E498F8EC30E73C
:1032F00017B2D512330E120F2BE4C39BFBE49AFADC
:10330000E499F9E498F88003120F2B30D50DE4C34B
:103310009FFFE49EFEE49DFDE49CFC22E4FFEFC3DE
:10332000940D74809480502E9001FAE0FEEF75F0B9
:1033300003A42401F582E4342EF583E5822E122ABB
:10334000FEFEEF75F003A42400F582E4342E122B68
:1033500044EEF00F80C8902F56E0902E2BF022E420
:10336000F5DA75DA4043DA2030881375D74075D620
:10337000409001FA04F09000157424F0801175D784
:103380004275D642E49001FAF09000157425F0538E
:1033900092FE75DA5843A80275B80275F8022290B9
:1033A00001CBEFF01234B59001CBE0FF122F3D902E
:1033B00001CBE0FF9001FAE025E02459F582E434E6
:1033C00035F583E5822FF582E43583F583E493FFB9
:1033D0001223A29001CBE0FF02351A9001C7EFF053
:1033E0007E007F10EEC0E0EFC0E07D00E075F010E1
:1033F000A4240FF9740235F0FA7B01D0E0FFD0E08D
:10340000FE1210979001C7E01228B3740BF0A3745A
:10341000B8F022900157E02430FF900156E034F8D4
:10342000FEC3900169E09F900168E09E50149001F6
:103430006EE07002A3E0701190016E04F0A374F4CA
:10344000F022E490016EF0A3F02290011DE0FEA3B3
:10345000E0FF7C0012106AE47B64FAF9F8120F2B8B
:10346000900199EEF0A3EFF0A3E022900225121054
:1034700058020E0312082E7F01122D31121EB89031
:1034800001021228F11214701224C3121FFD12300F
:103490001B123413022C1C7E007F047D007B017AFA
:1034A00001795A1210977E007F047D007B017A011A
:1034B0007962021097EFF87401088002C333D8FCD8
:1034C00042AB122AEC90355693F452915293539199
:1034D000DF22E5B254016006E5A85410700F75B202
:1034E0009275B67CE4F5B743B20143A81022758A01
:1034F00030538AEF758601758F05E4F5AB75AC0F17
:1035000075913E759201D28A22900168E0FEA3E097
:10351000FF900166EEF0A3EFF022122AEC903556F0
:103520009342914288439120227816E6FF2400F5C9
:1035300082E43400F58322EE30E707C3E49FFFE422
:103540009EFE2203030019001E001400197E007D58
:10355000007B010210970102200102010200960087
:10356000960701F4000000000000000000000000C9
:10357000000000000000000000000000000000004B
:10358000000000000000000000000000000000003B
:10359000000000000000000000000000000000002B
:1035A000000000000000000000000000000000001B
:103FD0000000000000000000000000000000007F62
:103FE00000000000000000000000000000000000D1
:103FF00000000000000000000000000000000000C1
:00000001FF
