:1007E00000250000001200009080000000000000C2
:1007F00000000000000000000000000000000000F9
:10080000022BA59001E57401F02222022786023412
:10081000FA0000020816D2AF32000002081ED2AF62
:10082000320000021BF6D2AF320000020826E4902C
:1008300001C5F0A3F0122153900189121003123068
:100840009EE4FCFD120E8590018912100F90018D1F
:10085000E475F001120DEDC3900190E094649001F5
:100860008FE094005003020AD4900189120FF7EC34
:10087000C0E0EDC0E0EEC0E0EFC0E090018DE0FE32
:10088000A3E0FBEEFAE4F9F8D0E0FFD0E0FED0E020
:10089000FDD0E0FC120F2B90018912100F900189FE
:1008A000120FF7900187EEF0A3EFF0A312101B00D8
:1008B00000000090018D1230D39001E6E07002A399
:1008C000E06003020AD4900191E07002A3E06003AB
:1008D000020AD490013CE0700302096E900183E0AB
:1008E0007002A3E0701D900187E0FFA3E0900183F8
:1008F0001230821230DC9001937403F0A374E8F09C
:1009000002097E900187E0FEA3E0FFC3900184E02E
:100910009FFF900183E09EFE12354E9001AD1210B4
:1009200058EE8FF0120E66900181E0701D9001ADBF
:1009300012308AC39406E5F09400500812308712F2
:1009400030DC80069001817401F0900187E0FEA305
:10095000E0FFD3900184E09F900183E09E4007E494
:10096000900182F080189001827401F08010900153
:10097000831230D3900181F09001951230D4900110
:1009800081E07003020AD4D3900186E094009001C4
:1009900085E094005003020AD4123087FF9001854D
:1009A000E0FCA3E0FDC3EF9DFFE5F09CFE12354E99
:1009B0009001C7EEF0A3EFF0A3E4F074C812308505
:1009C000D39494E5F09411400A9001C97403F0A304
:1009D0007420F09001C7E0FFA3E09001B1123082D3
:1009E000D3123091400CD39001C8E094641230BD12
:1009F000501312308712309050369001C8E094C8DE
:100A00001230BD402BE4900181F0900183F0123050
:100A1000851230909001915008E4F0A374C8F080E2
:100A2000077401F0A3742CF0E4900182F0020AD460
:100A3000123087FFD3123092404AD31230B740446D
:100A400090010812105874FF75F0F9120E2E9001E3
:100A500097E475F007120DEDC3900196E094E890CD
:100A60000195E09403501DA3E09407900195E09454
:100A700000400A74FF75F0F9120DED8007E4900153
:100A800095F0A3F012308712309050481230B740E2
:100A900043900108121058E475F007120E2E9001D1
:100AA00095E475F007120DEDC3900198E09458900D
:100AB0000197E09402501DA3E09407900197E09401
:100AC00000400A74FF75F0F9120DED8007E4900103
:100AD00097F0A3F090013CE0601B9001BBE0700236
:100AE000A3E0701190011DE0FFA3E09001BBCFF0E7
:100AF000A3EFF0801F90013CE07019123087C3947F
:100B000096E5F09400500DE49001BBF0A3F0900145
:100B1000BFF0A3F09001BBE07002A3E07003020BF2
:100B2000DC12309EC39001BCE09FFF9001BBE09EB1
:100B3000FE12354E9001C5EEF0A3EFF012309ED3B9
:100B40009001BCE09F9001BBE09E400D9001C5E08C
:100B5000FFA3E09001BDCF801A9001C5E0FEA3E0A5
:100B6000FFD394C8EE9400400EEE13FEEF13FF90F7
:100B700001BDEEF0A3EFF0D39001BEE0940A900126
:100B8000BDE094004056123087D39488E5F094136A
:100B900040239001C0E094DC9001BFE09405503CFC
:100BA0009001BEE025E0FE9001BDE0339001BFF072
:100BB000A3CEF08027123087D394E8E5F094034069
:100BC0001B9001C0E094F49001BFE09401500D909F
:100BD00001BDE0FFA3E0A3CFF0A3EFF09001FAE0A6
:100BE00064016003020CAE90013CE06003020C9EC5
:100BF00012309EC39001A2E09F9001A1E09E50049C
:100C0000EE1230AF9001A7E07002A3E070671230DF
:100C10009ED39001A4E09F9001A3E09E401290011A
:100C2000A4E09FFF9001A3E09E9001A5F0A3EFF048
:100C3000D39001A6E094049001A5E094004008122E
:100C400030C47464F08015D39001A6E0940690013E
:100C5000A5E0940040061230C474C8F09001A77457
:100C600003F0A374E8F090011DE0FFA3E09001A35E
:100C7000CFF0A3EFF09001A9E07002A3E0700F1293
:100C800030A7E49001ABF0A3F09001C1801D90016A
:100C9000ABE0FFA3E09001C1CFF0A3EFF022123050
:100CA000A7E49001C1F0A3F09001ABF0A3F022E71C
:100CB00009F608DFFA8046E709F208DFFA803E8885
:100CC000828C83E709F0A3DFFA8032E309F608DFBC
:100CD000FA8078E309F208DFFA807088828C83E377
:100CE00009F0A3DFFA806489828A83E0A3F608DF33
:100CF000FA805889828A83E0A3F208DFFA804C8068
:100D0000D280FA80C680D4806980F28033801080DF
:100D1000A680EA809A80A880DA80E280CA8033893F
:100D2000828A83ECFAE493A3C8C582C8CCC583CC7D
:100D3000F0A3C8C582C8CCC583CCDFE9DEE7800D4F
:100D400089828A83E493A3F608DFF9ECFAA9F0ED2F
:100D5000FB2289828A83ECFAE0A3C8C582C8CCC58D
:100D600083CCF0A3C8C582C8CCC583CCDFEADEE85B
:100D700080DB89828A83E493A3F208DFF980CC8840
:100D8000F0EF60010E4E60C388F0ED2402B4040061
:100D900050B9F582EB2402B4040050AF23234582FE
:100DA00023900CFF73EF8DF0A4A8F0CF8CF0A42853
:100DB000CE8DF0A42EFE22C2D5EC30E709B2D5E4E8
:100DC000C39DFDE49CFCEE30E715B2D5E4C39FFF64
:100DD000E49EFE1210C3C3E49DFDE49CFC8003125C
:100DE00010C330D507C3E49FFFE49EFE22C5F0F890
:100DF000A3E028F0C5F0F8E582158270021583E0C3
:100E000038F022BB010A89828A83E0F5F0A3E02250
:100E1000500687F009E71922BBFE07E3F5F009E366
:100E2000192289828A83E493F5F074019322BB012D
:100E30000789828A83020DED500B09C5F027F7C59B
:100E4000F01937F722BBFE0D09F8E325F0F3C5F0E2
:100E500019E338F322F889828A8374019325F0C557
:100E6000F0F8E4933822BB010A89828A83F0E5F026
:100E7000A3F0225006F709A7F01922BBFE06F3E5FE
:100E8000F009F31922EF2BFFEE3AFEED39FDEC38B5
:100E9000FC22C3EF9BFFEE9AFEED99FDEC98FC223D
:100EA000E88FF0A4CC8BF0A42CFCE98EF0A42CFCF1
:100EB0008AF0EDA42CFCEA8EF0A4CDA8F08BF0A46F
:100EC0002DCC3825F0FDE98FF0A42CCD35F0FCEBCE
:100ED0008EF0A4FEA9F0EB8FF0A4CFC5F02ECD3993
:100EE000FEE43CFCEAA42DCE35F0FDE43CFC22758A
:100EF000F008758200EF2FFFEE33FECD33CDCC33FB
:100F0000CCC58233C5829BED9AEC99E58298400C62
:100F1000F582EE9BFEED9AFDEC99FC0FD5F0D6E440
:100F2000CEFBE4CDFAE4CCF9A88222B800C1B90026
:100F300059BA002DEC8BF084CFCECDFCE5F0CBF987
:100F40007818EF2FFFEE33FEED33FDEC33FCEB337F
:100F5000FB10D703994004EB99FB0FD8E5E4F9FAAD
:100F6000227818EF2FFFEE33FEED33FDEC33FCC992
:100F700033C910D7059BE99A4007EC9BFCE99AF925
:100F80000FD8E0E4C9FAE4CCFB2275F010EF2FFF94
:100F9000EE33FEED33FDCC33CCC833C810D7079BFE
:100FA000EC9AE899400AED9BFDEC9AFCE899F80F61
:100FB000D5F0DAE4CDFBE4CCFAE4C8F922EB9FF5F6
:100FC000F0EA9E42F0E99D42F0EC6480C8648098AB
:100FD00045F022EB9FF5F0EA9E42F0E99D42F0E8F1
:100FE0009C45F022E8600FECC313FCED13FDEE13FB
:100FF000FEEF13FFD8F122E0FCA3E0FDA3E0FEA387
:10100000E0FF22E0F8A3E0F9A3E0FAA3E0FB22EC82
:10101000F0A3EDF0A3EEF0A3EFF022A8828583F019
:10102000D083D082121032121032121032121032CB
:10103000E473E493A3C583C5F0C583C8C582C8F033
:10104000A3C583C5F0C583C8C582C822A42582F57F
:1010500082E5F03583F58322E0FBA3E0FAA3E0F913
:1010600022EBF0A3EAF0A3E9F022EC8EF0A4CCC5C9
:10107000F0CCCDF8EFA4CEC5F02DFDE43CFCE8A407
:101080002EC8C5F03DFDE43CFCEFA4FFE5F028FED2
:10109000E43DFDE43CFC22EF4E6012EF60010EEDFA
:1010A000BB010B89828A83F0A3DFFCDEFA2289F080
:1010B0005007F709DFFCA9F022BBFEFCF309DFFCB7
:1010C000A9F022BC000BBE0029EF8DF084FFADF02B
:1010D00022E4CCF875F008EF2FFFEE33FEEC33FC82
:1010E000EE9DEC984005FCEE9DFE0FD5F0E9E4CEB8
:1010F000FD22EDF8F5F0EE8420D21CFEADF075F087
:1011000008EF2FFFED33FD4007985006D5F0F2228F
:10111000C398FD0FD5F0EA22122B7860030211A1CB
:101120007F01122F3D122B7F902E20E030E2F990AC
:1011300001FAE025E02471F582E43435122B3B906E
:1011400001CA122B6A7F0112353190015CE0FEA3C7
:10115000E0FF4E70089001CA122B92801E7C007D29
:1011600003120DA59001CBE02FFF9001CAE03EFED7
:101170007802EFCEC313CE13D8F9FFEE122B334E05
:101180007003122B2B122B2B900158E07002A3E05E
:10119000700F90015CE0FFA3E0900158CFF0A3EF47
:1011A000F09001CC12101B00002710E4FF122F3D1D
:1011B000E49001C7F09001C7E0FF7E00C394027481
:1011C0008094804003021328EF2401FFEE33FE12C7
:1011D0002B4DFDD3EF9D7480F86E98400302131FD2
:1011E000E4FF122B7F902E20E030E2F99001FAE02C
:1011F00025E02470F582E43435122B3B9001C812AF
:101200002B6AFF123531122B787055900158E0FE91
:10121000A3E0FFE4C0E0C0E0EEC0E0EFC0E090017A
:101220005CE0FEA3E0FBEEFAE4F9F8D0E0FFD0E0EA
:10123000FED0E0FDD0E0FC120E92E47B08FA120E24
:10124000A0E47B0AFAF9F81232D89001C8EE8FF0C8
:10125000120DED9001C8E0FFA3E090015ECF802564
:10126000900199E0FEA3E0FF9001C9E02FFF9001FB
:10127000C8E03EFE90019BE0FCA3E0FDC3EF9DFFB4
:10128000EE9C9001C8F0A3EFF09001C8E0FFA3E04E
:101290009001B9CFF0A3EFF090015AE0FEA3E0FF78
:1012A0004E70089001B9122B92801E7C007D0312B3
:1012B0000DA59001BAE02FFF9001B9E03EFE780243
:1012C000EFCEC313CE13D8F9FF90015AEEF0FAA374
:1012D000EFF0FB122B23FFE4FCFD9001D112100F65
:1012E000EBFFEAFEE4FCFD9001D512100FE4FF12C3
:1012F0001D69900162EEF0A3EFF0122B789001CC03
:10130000700B122B202400FFEE34F08009122B20EA
:101310002400FFEE34E8FE3395E0FDFC122B9C9098
:1013200001C7E004F00211B5902E23E4F09001CC47
:10133000121003E8C0E0E9C0E0EAC0E0EBC0E01250
:101340002B4DFFFBE4FAF9F8122B8C1232D8D0E0C7
:10135000FBD0E0FAD0E0F9D0E0F8122B9CE47F500B
:101360007EC3FDFC9001CC121003D3120FBD400AC6
:101370009001CC12101B0000C350122B8CEC335088
:101380000A9001CC12101B00000000900168E0FAE6
:10139000A3E0FB4A7005122B8C80227E007F02EBBB
:1013A000FDEAFC12106AECF8EDF9EEFAEFFB122BF5
:1013B0008C120E85E47B03FAF9F8120F2B9001686A
:1013C000EEF0A3EFF0900156E07002A3E0700F90F2
:1013D0000168E0FFA3E0900156CFF0A3EFF0900189
:1013E00026122B20FFE4FCFD120E85900126121020
:1013F0000F90012AE475F001120DED90012AE0FE34
:10140000A3E0FFD3940AEE94004029EFFBEEFAE448
:10141000F9F8900126120FF7120F2B900124EEF02D
:10142000A3EFF0E490012AF0A3F090012612101B24
:101430000000000090012CE07002A3E0703A9001DF
:1014400024E0FEA3E0FFC3900163E09FFF900162F0
:10145000E09EFE12354E900122EEF0A3EFF0D39401
:1014600006EE9400401290012C7403F0A374E8F08F
:10147000A3E475F001120DED900168E0FEA3E0FF1A
:10148000221229424003021772900108122915FD09
:10149000E5F0FC122912FFAEF0D39DEE9C402E1217
:1014A00029ABD3EF9430EE9475400C9001C5747560
:1014B000F0A37430F08010120E03C39DFEE5F09C83
:1014C0009001C5F0A3CEF0E49001B38060120E034A
:1014D000FFAEF0C3ED9FFBEC9EFAD3EB9410EA94C1
:1014E00027400C9001C57427F0A37410F08009C345
:1014F000ED9FFFEC9E1229689001C5E0FFA3E090EC
:1015000001B3CFF0A3EFF0300718D3E0942C900193
:10151000B3E0940140139001B57427F0A37410F068
:101520008007E49001B5F0A3F0E49001C5F0A3F0CA
:1015300090013CE0604A12291BD39400EE64809431
:10154000804014D3EF9509EE9508400B9001ECE430
:10155000F0A37464F0801BD39001EDE0940090013F
:10156000ECE09400400C900105122915FFE5F01203
:101570002968D2049001F2740FF0A374A0F0800FD8
:101580009001F07403F0A374E8F0E4FF1233DBD3AE
:101590009001C6E094009001C5E0648094805003FF
:1015A000021747E0FEA3E0FF900105122909122966
:1015B0001BEE3395E0FDFCE47BB87A88F9F8C312A2
:1015C0000FBD500A9001C57488F0A374B8F0D39091
:1015D00001EFE094009001EEE0940050089000F1DB
:1015E000E06420702AE509240AFFE43508FE900132
:1015F000C5E0FCA3E0FDC39FEC9E5013ED9400EC0E
:1016000064809480403812291B7C007D0A80293038
:10161000072C90013CE0701112291BC39515EE9523
:1016200014501B7C027DBC800F12291BC39509EE50
:101630009508500A7C027DBC120DB71229679001F3
:101640003CE070030216CC9001F0E07002A3E07061
:10165000149001C5E0FEA3E0FDEEFCE4FF12177359
:10166000122967803512291BC3900135E09FFF9036
:101670000134E09EFE12354ED3EF9428EE64809440
:10168000804017D39001F1E094C89001F0E09400FD
:10169000400874FF75F09C120DED900134E0FEA33C
:1016A000E0FF7C007D0F12106AECF8EDF9EEFAEF26
:1016B000FB12291BEE3395E0FDFC120E85E47B1036
:1016C000FAF9F8120F2B900134EE800B9001C5E06F
:1016D000FFA3E0900134CFF0A3EFF0900134E0FEDF
:1016E000A3E0FFD39405EE9400400EEF9410EE9427
:1016F0000050069001C5EE8016900130E0FEA3E098
:10170000FF900135E02FFF900134E03E9001C5F0DD
:10171000A3EFF0D39001C6E094309001C5E064805F
:1017200094F540077475F0A37430F0E5DB54047051
:101730004112291B90010E1229099001C6E024A82C
:10174000FF9001C5E08022E5DB54047025122936A4
:10175000900130E0FEA3E0FF90010E1229099001F4
:101760000E12291524A8FFE5F03461FE90010B123A
:101770002909229001C7EFF0A3ECF0A3EDF0EF12DE
:1017800028BEE0FEA3E0C39DFFEE9CFE12354ED3C3
:10179000EF9428EE64809480401C12288E12101B57
:1017A0000000000012285AE4F01228D81228BAEEDD
:1017B000F0A3EFF0803B1228491228EE403390014D
:1017C000C8E0FCA3E0FDD3EF9DEE9C400B9001C769
:1017D000E0122881E04401F09001C7E0FF12284D9B
:1017E000E0FAA3E0C39DEA9C5007122880E044027F
:1017F000F09001C7E0122893C083C0821210031238
:1018000028D8E4FCFD120E85D082D08312100F90F0
:1018100001C7E0FF1228E1E475F001120DEDEF754C
:10182000F007A42479F582E43435F583E493FE745B
:101830000193FF9001C7E0FDC454F02417F582E442
:101840003402F583E0FAA3E0C39FEA9E5003021935
:10185000DFED1228E1E0FEA3E0FFFBEEFAE4F9F889
:101860009001C7E0122893120FF7120F2B9001CAB4
:1018700012100F122843E0FCA3E0C39FFFEC9EFE72
:1018800012354E9001CEEEF0A3EFF09001C7E0FDCF
:1018900075F007A42474F582E43435F583C374012C
:1018A000939FE4939E401FED12284DE0FEA3E04E6F
:1018B00060149001C7E0FB1228CBE0FEA3E0C394C4
:1018C000B8EE940B501E9001C7E0FF12284DE0FCCB
:1018D000A3E04C7008EF1228CBE4F0A3F0122843E9
:1018E000EE021986EB600302198C9001D0F0900192
:1018F000CEE0FEA3E0FFD39450EE94004006A37424
:1019000008F080329001C7E0122881E0640360266D
:10191000D3EF943CEE940040089001D07404F08022
:1019200015D39001CFE094289001CEE094004006BA
:101930009001D07402F0122849E0FEA3E0FFE4FC1D
:10194000FD1228FAD3120FD340119001D0E0FF12FC
:101950002849E48FF0120DED0219C2D39001CFE0B7
:1019600094509001CEE094004058122849C083C0A2
:1019700082E0FEA3E0FF9001D0E0FDC3EF9DFFEE0B
:101980009400D082D083F0A3EFF08036122849E093
:10199000FEA3E0FF4E700D1228FAEBFFEAFEE9FD10
:1019A000E8FC80167C007D0712106A1228FA120EDD
:1019B00085E47B08FAF9F8120F2B122849EEF0A300
:1019C000EFF012288E12101B0000000012285AE4BB
:1019D000F09001CA120FF71228BAEEF0A3EFF0123E
:1019E00028491228EE405F9001C9E09FFF9001C88E
:1019F000E09EFE12354E9001C7E075F007A42476F4
:101A0000F582E43435F583D37401939FE4939E40CB
:101A10000F9001C7E0FF12284D1228A0E4F08026A5
:101A20009001C7E0FF75F007A42478F582E434350F
:101A3000F583E493FE1228ACE0C39E5009122849B6
:101A40001228A0E004F01228D822D39001E7E09FEA
:101A50009001E6E09E400AA3E09FF09001E6E09E40
:101A6000F09001EB1230EE9001EAE09C400CA3E014
:101A70009FF09001EAE09EF08002D28AD39001E9C3
:101A8000E09F9001E8E09E400AA3E09FF09001E80B
:101A9000E09EF01231005003123138D39001EDE096
:101AA0009F9001ECE09E400AA3E09FF09001ECE0E3
:101AB0009EF0D39001EFE09F9001EEE09E400AA3DC
:101AC000E09FF09001EEE09EF0D39001F5E09F9052
:101AD00001F4E09E400AA3E09FF09001F4E09EF044
:101AE000D39001F1E09F9001F0E09E400AA3E09FB7
:101AF000F09001F0E09EF0D39001F3E09F9001F2AE
:101B0000E09E400AA3E09FF09001F2E09EF0D390A7
:101B100001B6E09F9001B5E09E400AA3E09FF090DF
:101B200001B5E09EF09001F71230EE9001F6E09CD6
:101B3000400AA3E09FF09001F6E09EF012310E50B3
:101B400003123138D3900192E09F900191E09E40C2
:101B50000AA3E09FF0900191E09EF0900194123171
:101B60003E900193E09C400AA3E09FF0900193E037
:101B70009EF0D39001A8E09F9001A7E09E400AA3A9
:101B8000E09FF09001A7E09EF0D39001AAE09F9023
:101B900001A9E09E400AA3E09FF09001A9E09EF019
:101BA00090016F12313E90016EE09C400AA3E09FCD
:101BB000F090016EE09EF0D39001B8E09F9001B7E5
:101BC000E09E400AA3E09FF09001B7E09EF0123142
:101BD0001C500312313812312A5003123138D3907D
:101BE000012DE09F90012CE09E400AA3E09FF09021
:101BF000012CE09EF022C0E0C0F0C083C082C0D0C3
:101C0000E8C0E0D2AFD39001E7E094009001E6E0B5
:101C1000940040031230E7D39001EBE0940190016F
:101C2000EAE0940040051230E78002D28AD39001A6
:101C3000E9E094009001E8E0940040031230E712DC
:101C4000310050031230F9D39001EDE0940090017F
:101C5000ECE0940040031230E7D39001EFE09400F1
:101C60009001EEE0940040031230E7D39001F5E0DC
:101C700094009001F4E0940040031230E7D3900107
:101C8000F1E094009001F0E0940040031230E7D3BB
:101C90009001F3E094009001F2E0940040031230D0
:101CA000E7D39001B6E094009001B5E094004003C2
:101CB0001230E7D39001F7E094019001F6E0940030
:101CC00040031230E712310E50031230F9D3900165
:101CD00092E09400900191E0940040031230E7D329
:101CE000900194E09401900193E09400400312303D
:101CF000E7D39001A8E094009001A7E0940040038E
:101D00001230E7D39001AAE094009001A9E094007A
:101D100040031230E7D390016FE0940190016EE030
:101D2000940040031230E7D39001B8E09400900192
:101D3000B7E0940040031230E712311C5003123018
:101D4000F912312A50031230F9D390012DE094009A
:101D500090012CE0940040031230E7D0E0F8D0D09E
:101D6000D082D083D0F0D0E0329001D0EFF01226B4
:101D7000FFE070279001D0E0122736120FF7E4FB46
:101D8000FAF9F8C3120FD360129001D0E012275471
:101D9000120FF7E4F8C3120FD3705712276890019F
:101DA000D1121EA5EEF0A3EFF0ED1226FFE06029A0
:101DB000ED75F00AA42460F582E43435F583C08320
:101DC000C0829001FAE0D082D08312270D400A90A1
:101DD00001D0E01226FF7405F01226B4E0D394007F
:101DE0007480948040061226FEE014F09001D50223
:101DF0001EA1122731120FF79001D912100F1227CE
:101E000053120FF79001DD12100F9001D0E012274E
:101E100045120FF7EFF9122771E9F8120FE4EFFB03
:101E2000EEFAEDF9ECF8122771120E929001E11220
:101E3000100F9001D9120FF79001D5121003120E56
:101E4000859001E1121003120E85122762122731CC
:101E500012276E12275312276E12277712100312C1
:101E60000F2B1227629001DD121EA5EEF0A3EFF0FA
:101E7000ED75F00AA4245CF582E43435F583C08363
:101E8000C0829001FAE0D082D08312270D400F1259
:101E900026B47405F01227689001DD12100F90012E
:101EA000DD120FF722EFFBEEFA120FF7C3EF9BFFE5
:101EB000EE9AFE12354E9001D0E0FD75F013A42489
:101EC00005F582E43402F5832290017A1229B29456
:101ED00004EE9400502212297BEF25E0FFEE33FE42
:101EE00074722FF58274013EF583ECF0A3EDF0904F
:101EF000017A12298F021F949001C97401F0900198
:101F0000C9E0FFC31229535021EF12295AFCA3E064
:101F1000FDEF25E02470F582E43401F583ECF0A3B5
:101F2000EDF09001C9E004F080D490013CE0600243
:101F30008053122912FF12297BC3EF9DFFE5F09C0D
:101F4000FE12354EC3EF9428EE6480948050369094
:101F50000108122915FFC3900101E09FFF900100C5
:101F6000E095F0FE12354EC3EF9414EE6480948039
:101F700050059001088003900102122915FF90017D
:101F800078E5F0800B900100E0FFA3E0900178CFAE
:101F9000F0A3EFF09001C512101B00000000E490C8
:101FA00001C9F09001C9E0FFD390017BE09F90014F
:101FB0007AE0940040259001C51210039001C9E019
:101FC00012295AFEA3E0FFE4FCFD120E859001C524
:101FD00012100F9001C9E004F080C89001C5120FE3
:101FE000F7ECC0E0EDC0E0EEC0E0EFC0E090017AB9
:101FF000122996D0E0FFD0E0FED0E0FDD0E0FC1248
:102000000F2B9001C512100F9001C5020FF7900120
:10201000C57402F0A374BCF0D39001B8E0940090B2
:1020200001B7E094004011122912FF90010812102C
:1020300058E5F08FF0120E669001E6E07002A3E022
:10204000600B9001C5E4F0A37464F0800B90001A5B
:10205000E0641170037420F090013CE0600F7E009A
:102060007F0A7D007B017A01793D02109790013D46
:10207000121003E8C0E0E9C0E0EAC0E0EBC0E01203
:102080002912FFAEF0E4FCFDD0E0FBD0E0FAD0E096
:10209000F9D0E0F8120E8590013D12100F90014129
:1020A00012298F9001C51229B2900146E09F90013C
:1020B00045E09E500302215290013D120FF7ECC003
:1020C000E0EDC0E0EEC0E0EFC0E0900141122996E3
:1020D000D0E0FFD0E0FED0E0FDD0E0FC120F2B906E
:1020E000013D12100F9001081229152432FFE4352A
:1020F000F0FEE4FCFD90013D121003D3120FD3401B
:102100002E9001E6E07002A3E070242004219001EB
:1021100043122990D3900144E09405900143E09448
:10212000004018122900E4900143F0A3F0800C1243
:102130002900E4900143F0A3F0C20490013D121085
:102140001B00000000E4900141F0A3F0900145F075
:10215000A3F022758D20438D20538D7FE4F5B27559
:10216000B6FF75B7FF75B2A243B20153A8FB538BFC
:102170007F758B10438B08E58B20E7030080F853B5
:102180008B7F758B11438B08E58B20E7030080F86C
:10219000900228E5B5F0A3E5B4F0758B01E4F5B243
:1021A0001234FAE4F58D1234A54E701012349CFDF1
:1021B00090011DE5F0F0A3EDF002223912349CFDF0
:1021C000C3EF9DFFEE95F0FE12354ED3EF940AEE6D
:1021D00064809480402412349CFFC390011EE09FD1
:1021E00090011DE095F05006E475F0018007900124
:1021F0001D74FFF5F0120DED803F1234A57C007DBB
:102200000312106AECC0E0EDC0E0EEC0E0EFC0E009
:1022100012349CFFAEF0E4FCFDD0E0FBD0E0FAD03D
:10222000E0F9D0E0F8120E85E47B04FAF9F8120F19
:102230002B90011DEEF0A3EFF09001FAE064017025
:10224000131234A5E4FCFD7B0A1234AE7002A3E045
:10225000702580161234A57C007D1012106AE47B74
:10226000641234AE7002A3E0700D900199E0FFA3F8
:10227000E0A3CFF0A3EFF09001A1E07002A3E07023
:102280000F90011DE0FFA3E09001A1CFF0A3EFF0BC
:10229000227FFF7A0079001235647FC57A017900C8
:1022A0001235647E007F147D007B017A0179E5128E
:1022B0001097902DE0E493900001F09000047411C9
:1022C000F0A37422F0A37433F0902DE2E493900015
:1022D00012F0902DE3E493900014F09000FB740151
:1022E000F09000367410F09000F1F0900024F0A30C
:1022F0007420F07B017A0079409001021210617A1B
:102300000079449001081210617A00794290010529
:102310001210617A00792E90010B1210617A007907
:102320002A90010E1210617A007928900111121082
:10233000617A00796090011F1210617A00798090B3
:1023400001AD1210617A0079189001391210617A8A
:1023500000791B9001361210617A007932900114D5
:102360001210617A0079269001171210617A0079B3
:102370003490011A121061900114121058E475F093
:10238000C8120E66900117121058E475F064120E10
:102390006690011A121058E475F096120E667514C4
:1023A000007515C87508007509969001E67407F068
:1023B000A374D0F0E49001E5F0229001CCEFF0900E
:1023C0002E22E0FF9001D0E4F0A3EFF0758A509048
:1023D0002E227401F01231B67404F0A3E4F09001DF
:1023E000CDF09001CDE0FFC3940D74809480400344
:1023F0000224CEEFF87E02E4088006CEA2E713CED8
:1024000013D8F8FF9001CEEEF0A3EFF04E700790D6
:1024100001CEF0A304F0902E207401F0902E20E065
:1024200030E2F99001CCE0FF902E001231BDE0FCCB
:10243000A3E0D394FEEC940740401231DEE0FEA30B
:10244000E0FF9001CEE0FCA3E0FDEF2DFFEE3CFEAF
:10245000C3EF94FFEE94079001CCE075F002902E4C
:1024600010500B12104CEC8DF0120DED805012102C
:102470004C7407F0A374FFF080449001CCE0FF128D
:1024800031BAE0FCA3E0FD9001CEE0FAA3E0FBD37B
:10249000ED9BEC9A40211231DEC083C082C3A3E0E1
:1024A0009BFF0582D5820215831582E09AD082D0E7
:1024B00083F0A3EFF080071231B6E4F0A3F0902E82
:1024C00020E4F0F58D9001CDE004F00223E29001CC
:1024D000D0A3E0902E22F0758A30227FC87E007D46
:1024E000967C0012294240030225CC30072090013F
:1024F000B5E07002A3E060087514137515888006B6
:102500007514077515D07508067509408049900146
:10251000FAE0F964017006FE7FC8FC7D969001BF69
:10252000E0FAA3E0FB2FF515EA3EF514CEECCEED74
:10253000FFEB2FF509EA3EF508E964017019A3E005
:10254000FEA3E0FF2515F515EE3514F514EF25096A
:10255000F509EE3508F508900105122915FFAEF0D2
:10256000C39515EE9514500F90013CE0601AC3EF2F
:102570009509EE950840119001EEE07002A3E0701D
:102580002990013C04F080229000F1E06420900149
:10259000EE7005F0A3F080077401F0A374F4F0E48A
:1025A00090013CF09001EC1229A190013CE0FF6009
:1025B00016900024E0641090003670057410F080CE
:1025C000037420F012298490004BEFF022E4F526EA
:1025D000F525F524F523F526F525F524F523F52233
:1025E000122950502AE52225E0240AF8E6FE08E6E2
:1025F000FFE4FCFDE5262FFFE5253EFEED3524FD3D
:10260000EC35238F268E258D24F523052280D1E4F9
:102610007B04FAF9F8AF26AE25AD24AC23120F2BBC
:1026200090017EEEF0A3EFF0E47526A8752561F524
:1026300024F523F522122950505590017E122924A9
:10264000C31229AB12354ED3EF940AEE6480948006
:10265000401290017EE0FEA3E0FF900156E0FCA353
:10266000E0FD8007900156122924C31229AB33954F
:10267000E0FDFCE5262FFFE5253EFEE5243DFDE5DA
:10268000233C8F268E258D24F5230522022635E452
:102690007F607EEAFDFCAB26AA25A924A823D312DD
:1026A0000FD3400BE47526607525EAF524F523AEBB
:1026B00025AF26229001D5120FF79001D0E0FB75CF
:1026C000F013A42400F582E43402F58312100FEB1A
:1026D00075F013A4240BF582E43402F583120FF78E
:1026E0009001D5121003120EA09001D0E0FB75F0FE
:1026F00013A424FCF582E43401F58312100FEB756A
:10270000F013A42404F582E43402F5832275F00268
:1027100012104CE493FE740193FFED75F013A424A2
:1027200005F582E43402F583E0FCA3E0D39FEC9E40
:10273000229001D0E0FB75F013A42400F582E4346C
:1027400002F58322EB75F013A42407F582E434022A
:10275000F58322EB75F013A424FCF582E43401F533
:1027600083229001DD12100F9001D5020FF7121095
:102770000F9001DD020FF7EB75F013A4240BF58227
:10278000E43402F58322C0E0C083C082C0D075D09B
:1027900018D2AFE5DB30E422D205C202E5DB30E13E
:1027A00014123540E0F5DFEF64077065D28A9000BF
:1027B00007F0022834C201022837E5DB30E52C900F
:1027C00000F0E064AA7017758A10F5DAC2AFF5B2AE
:1027D000F5A8F5A9F58B758E01758DC080FED20028
:1027E000300204C2028050C205804CC202E5DB30D8
:1027F000E121E5DB30E040123540E0F5DFEF24F980
:10280000600824EE700BD2068007D28A900007E49D
:10281000F0802120010A7816A6DFD201D2028017AB
:10282000123540E5DFF0EF642470099001E804F010
:10283000A374F4F078160675DBFFD0D0D082D08375
:10284000D0E0329001CA120FF79001C7E0C454F0F3
:102850002415F582E43402F58322EBC454F02413EA
:10286000F582E43402F583E4F0A3F09001C7E0FFC1
:10287000C454F02417F582E43402F583E4F0A3F0A5
:10288000EFC454F0241CF582E43402F58322900155
:10289000C7E0FBC454F0240FF582E43402F5832230
:1028A000E0FDA3E09001C8CDF0A3EDF0EFC454F03B
:1028B000241BF582E43402F583229001C7E0C4545E
:1028C000F02419F582E43402F58322C454F0241D67
:1028D000F582E43402F583229001C8E0FEA3E0FF14
:1028E00022C454F02413F582E43402F58322E0FE7E
:1028F000A3E0FFD39400EE9400229001CA021003DB
:1029000090013D120FF7900108121058EE8FF0025F
:102910000E66900102121058020E039001C5E0FEEF
:10292000A3E0FF22E52225E0240AF8E6FE08E6FF00
:10293000E0FCA3E0FD22900105121058E4F5F0023E
:102940000E66D39001E7E094009001E6E094002247
:10295000C3E5229404748094802225E02472F582D9
:10296000E43401F583E022EE9001C5F0A3EFF022FC
:10297000121058746175F0A8020E66900100E0FC18
:10298000A3E0FD229001E87403F0A37420F022E498
:1029900075F001020DEDE0FEA3E0FBEEFAE4F9F8BC
:1029A00022F0A3F09000367410F022EF9DFFEE9C11
:1029B000FE22E0FEA3E0FFC322122FAE1234BF7E40
:1029C000007F2C7D007B017A01798112109712081B
:1029D0002EE490017AF0A3F0900168F0A3F090014A
:1029E00066F0A3F090016AF0A3F07F04122D4990E5
:1029F0000100E0FEA3E0FFA3122909900100E0FE20
:102A0000A3E0FF12290612293690010B12297090BB
:102A1000011112297090010E122939E490013CF045
:102A2000FE7F0AFD7B017A01793D121097E4900147
:102A3000F4F0A3F09001F21229A1E490004BF012FF
:102A400029849001F8E0700FC39001E7E094F490BE
:102A500001E6E09401500A9001E67401F0A374F4D9
:102A6000F022E49001C5F0A3F0900149F0A3F090AA
:102A700001477412F0A3745CF012331C7E007F04D3
:102A80007D007B017A0179561210977F0112339FE6
:102A9000E4FF12339F1231C39001C5CDF0A3EDF0D6
:102AA0009001C5E0FCA3E0FDC39405EC940040094F
:102AB000D3ED94F0EC94074017EF64014E7005904D
:102AC00001498004E4900147F0A3F0E4FF12339F32
:102AD000902E23E4F01231C39001C5CDF0A3EDF0A8
:102AE00090001D7410F0EF64014E9001C570081243
:102AF00031AA1231E880061231AA1231F2E03EFE0C
:102B00001231D2229001FAE025E02470F582E434FB
:102B100035F583E5822FF582E43583F583E493224E
:102B2000121003900162E0FEA3E0229001CAE0FFD0
:102B3000A3E0CF90015CF0A3EFF022F583E493755E
:102B4000F002902E0012104CE0FFA3E0229001FA58
:102B5000E0242AF582E43402F583E022F583E4934D
:102B60002420F582E4342EF58322CFF0A3EFF090F9
:102B70002E20E4F0758A30229001FAE064012212DE
:102B800034DD758A50902E207401F0229001CC0221
:102B90000FF7E0FCA3E0FDECFEEDFF22120E8590A6
:102BA00001CC02100F787FE4F6D8FD758126022B48
:102BB000EF020000022CC1E493A3F8E493A34003C6
:102BC000F68001F208DFF48029E493A3F854072487
:102BD0000CC8C333C4540F4420C8834004F4568047
:102BE0000146F6DFE4800B010204081020408090CB
:102BF000344AE47E019360BCA3FF543F30E509549E
:102C00001FFEE493A360010ECF54C025E060A840EE
:102C1000B8E493A3FAE493A3F8E493A3C8C582C8E5
:102C2000CAC583CAF0A3C8C582C8CAC583CADFE9BA
:102C3000DEE780BEE49001C9F0A3F0200603022C79
:102C4000C020077CC2069001FAE0902E12E0FFA39C
:102C5000E09001C9CFF0A3EFF09001C9E0FFA3E03D
:102C60009001C7CFF0A3EFF0E4FF12339F1231C3FE
:102C70009001C9CDF0A3EDF0EF64014E9001C97051
:102C8000081231AA1231E880061231AA1231F2E09C
:102C90003E9001C5F0A3EFF09001C5E0FEA3E0FF78
:102CA0001231D29001FAE09001C7E0FFA3E0902E2C
:102CB00012CFF0A3EFF09001E87403F0A37420F0BA
:102CC0002253A87F12351612229112335F12080E7A
:102CD00043A880E4F58D9000F17420F0122E4A9004
:102CE00001E5E014601514601714603814604A247C
:102CF0000470E0122A6212080380D81229B98031C8
:102D0000123479900020E0FF64206008EF642160B5
:102D100003122EC8900025E0641070B79001E5748E
:102D200004F080AF12080A9001E87403F0A3742045
:102D3000F09001E57402F0809A123290900025E044
:102D40006410608F120803808A9001C5EFF0E4A33D
:102D5000F09001C5E0FFA3E0C39F502E121118129E
:102D60002DC990016AEEF0A3EFF08E12F513C8742E
:102D70000AC87400FCE4FDFB7A00790CFE7F08129F
:102D80000D7F9001C6E004F080C71225CD900100B0
:102D9000EEF0A3EFF09001681229B2900133E09FAA
:102DA000FF900132E09EFE12354E7C007D05120D33
:102DB000B7900130ECF0A3EDF0900168E0FFA3E0E4
:102DC000900132CFF0A3EFF022900168E0FEA3E083
:102DD000FF900166EEF0A3EFF0220000000000007B
:102DE0001202AB2574AA7583F5758255A5745575C5
:102DF00083FA7582AAA574A57583F5758255A522F7
:102E00000203020AB0B00BB6B60CFFFF09020208BB
:102E1000FFFF0D77770E04041307071410101080BE
:102E2000801500001600000192121212071B020BFF
:102E30001B0F0404040404010101011118100810FF
:102E400012180804080302040204900020E0642021
:102E500070037421F0900136121058120E036410A2
:102E600045F07003123247900001E064AA7003122B
:102E700031491231FC20030890001AE06410700BF5
:102E800090001A7411F0C2031208039000FBE06076
:102E900006E4F09001E5F090016EE07004A3E064B8
:102EA00001701590016EF0A3F09001B77407F0A3C4
:102EB00074D0F0E49001E5F030000CC2009001E81D
:102EC0007401F0A374F4F022308A719001E6E0708E
:102ED00002A3E0706790016EE07002A3E0705DF500
:102EE000B2758D20438D20758D8043A808D2AF75B3
:102EF0008B4090012CE0FEA3E0FF4E758E14200065
:102F00002F20052CE5DB54047026758AA4200520AB
:102F1000E5DB5404701AF58675870300000075869A
:102F200001EF4E60047F2880027F7F7E00121A4AE4
:102F3000758B01758A3053A8F71234FA22E4FEEE3D
:102F4000C39407748094805038EE75F005A424284B
:102F5000F582E4342EF583C083C0829001FAE0D07C
:102F600082D08375F00212104C122B13FDEE75F017
:102F700005A42427F582E4342E122B5CEDF00E809C
:102F8000BEEF70109001FAE0700A900147E0700205
:102F9000A3E0600F122B787014900149E07002A337
:102FA000E0700A9001FAE0902E217412F0227E0067
:102FB0007F137D007B017A0179FC121097E4FBEB13
:102FC000C394017480948050519001FAE0FFEB7536
:102FD000F00AA4245AF582E43435F583E5822FF50E
:102FE00082E43583F583E493FFE4FCFDFE1227447D
:102FF00012100F122744120FF7EF04F87E0074012D
:10300000088005C333CE33CED8F9FFEE3395E0FD0B
:10301000FC12277712100F0B80A5229001EAE070B6
:1030200004A3E064017011900007E06004D28AE418
:10303000F0E49001EAF0A3F0900036E0FF9000FF8A
:10304000E06F603D900036E0FD9000FFF0900007DB
:10305000E09001FBF0540FF0ED7E0064207005E07D
:103060004420800CEF64104E700B9001FBE0441084
:10307000F0900007F0C28A9001EA7403F0A374E8AC
:10308000F022CFF0EFA3F0900105121058020E03CA
:10309000C3FF900186E09F900185E095F0229001AA
:1030A0001DE0FEA3E0FF2290011DE0FFA3E0CF9012
:1030B00001A1F0A3EFF0229001C8E0941E9001C797
:1030C000E09400229001A97413F0A37488F0A3E4A3
:1030D000F0A322E4F0A3F0A3F0A3F022FF90018577
:1030E000E5F0F0A3EFF02274FFF5F0020DEDEF2410
:1030F00001FDE43EFCD3E09D22E475F001020DEDFC
:10310000C3900146E094BC900145E0940222C39034
:103110000190E0946490018FE0940022C390021E1D
:10312000E094B890021DE0940B22C3900218E09442
:10313000F4900217E0940122EE8FF0020DEDEF24DF
:1031400001FDE43EFCD3E09D229001C57408F0A38C
:10315000E4F0A3743FF0A374DFF0E4FDFCF9758A9A
:1031600010538AEF009001C5E0FEA3E02DF582EE3A
:103170003CF583E493FF69F90DBD00010CBC37E514
:10318000BDDFE29001C7E0FEA3E0F5828E83E49309
:10319000FFE96F70089000017412F08005E4900060
:1031A00001F0758A30538AEF0022E0FEA3E0FF7C35
:1031B000007D0A020DA59001CCE0902E1075F00262
:1031C00002104C9001FAE0FF7E00902E12E0FDA369
:1031D000E022900139121058EE8FF0020E6675F061
:1031E00002EF902E1002104C90014AE02FFF900148
:1031F0004922900148E02FFF90014722900013E000
:10320000FF9001F9E06F600CEFF09001F67402F0AE
:10321000A37458F09001F6E07004A3E064017026F6
:103220009001F9E0FF7E0064107002D207EF642085
:103230004E7002C207900025E064106002D203E4E1
:103240009001F6F0A3F022E49001C5F0A3F0758A96
:1032500010538AEF00122DE475EA81E4F5F6F5F4D7
:1032600075F308F5F275EB0700E5EC30E7FBAFF31B
:10327000EFFEADF2EDFF900136121058EE8FF01216
:103280000E66E4F5EC75EB30758A30538AEF002258
:10329000900025E06410703FF5B2758D20438D20BD
:1032A000538D7F53A8F7F58BE5DB5404701320058D
:1032B00010F58AF586758703000000758601758A0A
:1032C00030758B019001F87401F09001E87403F0FF
:1032D000A37420F01234FA22C2D5E830E70FB2D539
:1032E000E4C39BFBE49AFAE499F9E498F8EC30E73C
:1032F00017B2D512330E120F2BE4C39BFBE49AFADC
:10330000E499F9E498F88003120F2B30D50DE4C34B
:103310009FFFE49EFEE49DFDE49CFC22E4FFEFC3DE
:10332000940D74809480502E9001FAE0FEEF75F0B9
:1033300003A42401F582E4342EF583E5822E122BBA
:1033400016FEEF75F003A42400F582E4342E122B50
:103350005CEEF00F80C8902F56E0902E2BF022E408
:10336000F5DA75DA4043DA2030881375D74075D620
:10337000409001FA04F09000157424F0801175D784
:103380004275D642E49001FAF09000157425F0538E
:1033900092FE75DA5843A80275B80275F8022290B9
:1033A00001CBEFF01234DD9001CBE0FF122F3D9006
:1033B00001CBE0FF9001FAE025E02470F582E434CF
:1033C00035F583E5822FF582E43583F583E493FFB9
:1033D0001223BA9001CBE0FF0235319001C7EFF024
:1033E0007E007F10EEC0E0EFC0E07D00E075F010E1
:1033F000A4240FF9740235F0FA7B01D0E0FFD0E08D
:10340000FE1210979001C7E01228CB740BF0A37442
:10341000B8F022900157E02418FF900156E034FCE8
:10342000FEC3900169E09F900168E09E50149001F6
:103430006EE07002A3E0701190016E04F0A374F4CA
:10344000F022E490016EF0A3F022C10542022A02AC
:1034500002C1064101FB004101FA00C1074101F927
:1034600000C101011600C100C102C104C103410035
:10347000FF104302250102280012082E7F01122DA1
:1034800049121EC99001021229091214811224DB6B
:1034900012200E12301B123413022C34900225120B
:1034A0001058020E0390011DE0FEA3E0FF22FAF97E
:1034B000F8120F2B900199EEF0A3EFF0A3E0227E1B
:1034C000007F047D007B017A01795A1210977E00FB
:1034D0007F047D007B017A017962021097EFF87416
:1034E00001088002C333D8FC42AB122B0490356D27
:1034F00093F4529152935391DF22E5B25401600646
:10350000E5A85410700F75B29275B67CE4F5B74318
:10351000B20143A81022758A30538AEF758601756F
:103520008F05E4F5AB75AC0F75913E759201D28AAB
:1035300022122B0490356D934291428843912022B0
:103540007816E6FF2400F582E43400F58322EE309D
:10355000E707C3E49FFFE49EFE2203030019001E59
:10356000001400197E007D007B01021097010220EB
:1035700001020102009600960701F400000000001D
:10358000000000000000000000000000000000003B
:10359000000000000000000000000000000000002B
:1035A000000000000000000000000000000000001B
:1035B000000000000000000000000000000000000B
:103FD000000000000000000000000000000000D908
:103FE00000000000000000000000000000000000D1
:103FF00000000000000000000000000000000000C1
:00000001FF
