:1007E00000200000000D00003F7400000000000029
:1007F00000000000000000000000000000000000F9
:10080000022D2B9001F77401F022220229AD02364D
:100810007F0000020816D2AF32000002081ED2AFDD
:10082000320000021D17D2AF320000020826122645
:10083000CC60030208B77F011230DC1226D3902E61
:1008400020E030E2F990020CE025E02421F582E47A
:1008500034371226819001DC1226B07F011236E176
:10086000900158E0FEA3E0FF4E70089001DC1226D4
:10087000EF801E7C007D0312122F9001DDE02FFF20
:100880009001DCE03EFE7802EFCEC313CE13D8F920
:10089000FFEE1226794E7003122671122671900116
:1008A00054E07002A3E0700F900158E0FFA3E090C5
:1008B0000154CFF0A3EFF09001DE1214A500002741
:1008C00010E4FF1230DCE49001D9F09001D9E0FF90
:1008D0007E00C39403748094804003020B5FEF2476
:1008E00001FFEE33FE122693FDD3EF9D7480F86E68
:1008F000984003020B56E4FF1226D3902E20E030DE
:10090000E2F990020CE025E02420F582E43437126D
:1009100026819001DA1226B0FF1236E11226CC7041
:1009200027900154E0FEA3E0FF90015812265A9050
:1009300001DA8FF0121277122643FE9001DAF0A34B
:10094000EFF090015AEE80061226439001DAF0A3F0
:10095000EFF074FFF523F524F525F526F527F528A6
:10096000E4F529F52AF52BF52CF52DF52EF532F5C4
:1009700031F530F52F9001DAE0FFA3E09001C9CF07
:10098000F0A3EFF0E4F522C3E522940A748094808A
:100990004003020A951226BEE0FEA3E04E60051257
:1009A00026BE80039001DAE0FEA3E0FFE52225E009
:1009B00024B5F582E43401F583EEF0A3EFF01226BE
:1009C00018FEA3E0D3952AEE95294017852B2D8597
:1009D0002C2E85292B852A2C122618F529A3E0F523
:1009E0002A8036122618FEA3E0D3952CEE952B40D4
:1009F00011852B2D852C2E122618F52BA3E0F52C16
:100A00008017122618FEA3E0D3952EEE952D4009EF
:100A1000122618F52DA3E0F52E122618FEA3E0C32A
:100A20009524EE952350178525278526288523258F
:100A3000852426122618F523A3E0F52480361226F5
:100A400018FEA3E0C39526EE952550118525278530
:100A50002628122618F525A3E0F526801712261859
:100A6000FEA3E0C39528EE95275009122618F52716
:100A7000A3E0F528122618FEA3E0FFE4FCFDE53212
:100A80002FFFE5313EFEED3530FDEC352F12260F00
:100A90000522020987AE29AF2AEFFB1225FBAE2BF8
:100AA000AF2C1225F8AE2DAF2E1225F8AE23AF24B1
:100AB0001225F8AE25AF261225F8AE27AF2812254D
:100AC000F8FC780212146E9001CBEEF0A3EFF090D8
:100AD0000156E0FEA3E0FF4E70089001CB1226EF16
:100AE000801E7C007D0312122F9001CCE02FFF901E
:100AF00001CBE03EFE7802EFCEC313CE13D8F9FF50
:100B0000900156EEF0FAA3EFF0FB122669FFE4FC29
:100B1000FD9001E3121499EBFFEAFEE4FCFD900165
:100B2000E7121499E4FF121E8A90015EEEF0A3EF23
:100B3000F01226CC9001DE700B1226662400FFEE28
:100B400034F080091226662400FFEE34E8FE339567
:100B5000E0FDFC1226F99001D9E004F00208CB90E8
:100B60002E23E4F09001DE12148DE8C0E0E9C0E02D
:100B7000EAC0E0EBC0E0122693FFFBE4FAF9F812BA
:100B800026E0123477D0E0FBD0E0FAD0E0F9D0E0F4
:100B9000F81226F9E47F507EC3FDFC9001DE1214AA
:100BA0008DD3121447400A9001DE1214A50000C331
:100BB000501226E0EC33500A9001DE1214A500001A
:100BC0000000900164E0FAA3E0FB4A70051226E001
:100BD00080227E007F02EBFDEAFC1214F4ECF8EDBB
:100BE000F9EEFAEFFB1226E012130FE47B03FAF999
:100BF000F81213B5900164EEF0A3EFF0900152E00B
:100C00007002A3E0700F900164E0FFA3E090015236
:100C1000CFF0A3EFF0900126122666FFE4FCFD1250
:100C2000130F90012612149990012AE475F0011215
:100C3000127790012AE0FEA3E0FFD3940AEE94001D
:100C40004029EFFBEEFAE4F9F89001261214811224
:100C500013B5900124EEF0A3EFF0E490012AF0A385
:100C6000F09001261214A50000000090012CE07005
:100C700002A3E0703A900124E0FEA3E0FFC39001DC
:100C80005FE09FFF90015EE09EFE1236FE90012223
:100C9000EEF0A3EFF0D39406EE9400401290012CF6
:100CA0007403F0A374E8F0A3E475F00112127790D6
:100CB0000164E0FEA3E0FF22E49001D7F0A3F0126C
:100CC000227790018512148D12323DE4FCFD12133F
:100CD0000F900185121499900189E475F0011212A8
:100CE00077C390018CE0946490018BE094005003F2
:100CF000020F5E900185121481ECC0E0EDC0E0EEC1
:100D0000C0E0EFC0E0900189E0FEA3E0FBEEFAE472
:100D1000F9F8D0E0FFD0E0FED0E0FDD0E0FC121307
:100D2000B590018512149990018512148190018368
:100D3000EEF0A3EFF0A31214A500000000900189CB
:100D40001232729001F8E07002A3E06003020F5EBD
:100D500090018DE07002A3E06003020F5E90013C01
:100D6000E07003020DF890017FE07002A3E0701DB7
:100D7000900183E0FFA3E090017F12322112327BC9
:100D800090018F7403F0A374E8F0020E08900183C1
:100D9000E0FEA3E0FFC3900180E09FFF90017FE0B1
:100DA0009EFE1236FE9001A91214E2EE8FF012128E
:100DB000F090017DE0701D9001A9123229C39406C4
:100DC000E5F09400500812322612327B8006900122
:100DD0007D7401F0900183E0FEA3E0FFD3900180D9
:100DE000E09F90017FE09E4007E490017EF0801834
:100DF00090017E7401F0801090017F123272900198
:100E00007DF090019112327390017DE07003020F2A
:100E10005ED3900182E09400900181E09400500341
:100E2000020F5E123226FF900181E0FCA3E0FDC3B9
:100E3000EF9DFFE5F09CFE1236FE9001D9EEF0A387
:100E4000EFF0A3E4F074C8123224D39494E5F09444
:100E500011400A9001DB7403F0A37420F09001D9D3
:100E6000E0FFA3E09001AD123221D3123230400CEA
:100E7000D39001DAE0946412325C501312322612DD
:100E8000322F50369001DAE094C812325C402BE4E5
:100E900090017DF090017FF012322412322F9001E8
:100EA0008D5008E4F0A374C8F080077401F0A374B7
:100EB0002CF0E490017EF0020F5E123226FFD31276
:100EC0003231404AD312325640449001081214E2A3
:100ED00074FF75F0F91212B8900193E475F00712DF
:100EE0001277C3900192E094E8900191E09403504E
:100EF0001DA3E09407900191E09400400A74FF75EF
:100F0000F0F91212778007E4900191F0A3F0123209
:100F10002612322F504812325640439001081214C4
:100F2000E2E475F0071212B8900191E475F007122F
:100F30001277C3900194E09458900193E09402508A
:100F40001DA3E09407900193E09400400A74FF759C
:100F5000F0F91212778007E4900193F0A3F090016A
:100F60003CE0601B9001CDE07002A3E070119001A5
:100F70001DE0FFA3E09001CDCFF0A3EFF0801F9024
:100F8000013CE07019123226C39496E5F0940050AB
:100F90000DE49001CDF0A3F09001D1F0A3F0900109
:100FA000CDE07002A3E0700302106612323DC390E0
:100FB00001CEE09FFF9001CDE09EFE1236FE900133
:100FC000D7EEF0A3EFF012323DD39001CEE09F9028
:100FD00001CDE09E400D9001D7E0FFA3E09001CF4E
:100FE000CF801A9001D7E0FEA3E0FFD394C8EE941F
:100FF00000400EEE13FEEF13FF9001CFEEF0A3EFD3
:10100000F0D39001D0E0940A9001CFE094004056D4
:10101000123226D39488E5F0941340239001D2E055
:1010200094DC9001D1E09405503C9001D0E025E0A3
:10103000FE9001CFE0339001D1F0A3CEF0802712D3
:101040003226D394E8E5F09403401B9001D2E0945B
:10105000F49001D1E09401500D9001CFE0FFA3E0A6
:10106000A3CFF0A3EFF090020CE064016003021143
:101070003890013CE0600302112812323DC3900118
:101080009EE09F90019DE09E5004EE12324E900132
:10109000A3E07002A3E0706712323DD39001A0E09C
:1010A0009F90019FE09E40129001A0E09FFF900161
:1010B0009FE09E9001A1F0A3EFF0D39001A2E094F5
:1010C000049001A1E0940040081232637464F0803F
:1010D00015D39001A2E094069001A1E0940040068F
:1010E00012326374C8F09001A37403F0A374E8F0A3
:1010F00090011DE0FFA3E090019FCFF0A3EFF090DF
:1011000001A5E07002A3E0700F123246E49001A73F
:10111000F0A3F09001D3801D9001A7E0FFA3E09021
:1011200001D3CFF0A3EFF022123246E49001D3F0C6
:10113000A3F09001A7F0A3F022E709F608DFFA80F8
:1011400046E709F208DFFA803E88828C83E709F0DF
:10115000A3DFFA8032E309F608DFFA8078E309F2C8
:1011600008DFFA807088828C83E309F0A3DFFA80BD
:101170006489828A83E0A3F608DFFA805889828A2C
:1011800083E0A3F208DFFA804C80D280FA80C68028
:10119000D4806980F28033801080A680EA809A80B3
:1011A000A880DA80E280CA803389828A83ECFAE4FC
:1011B00093A3C8C582C8CCC583CCF0A3C8C582C8D8
:1011C000CCC583CCDFE9DEE7800D89828A83E49396
:1011D000A3F608DFF9ECFAA9F0EDFB2289828A83F5
:1011E000ECFAE0A3C8C582C8CCC583CCF0A3C8C5BF
:1011F00082C8CCC583CCDFEADEE880DB89828A83C3
:10120000E493A3F208DFF980CC88F0EF60010E4E82
:1012100060C388F0ED2402B4040050B9F582EB24D9
:1012200002B4040050AF232345822390118973EF49
:101230008DF0A4A8F0CF8CF0A428CE8DF0A42EFEC3
:1012400022C2D5EC30E709B2D5E4C39DFDE49CFC95
:10125000EE30E715B2D5E4C39FFFE49EFE12154DB4
:10126000C3E49DFDE49CFC800312154D30D507C3FB
:10127000E49FFFE49EFE22C5F0F8A3E028F0C5F04D
:10128000F8E582158270021583E038F022BB010A6E
:1012900089828A83E0F5F0A3E022500687F009E70F
:1012A0001922BBFE07E3F5F009E3192289828A833C
:1012B000E493F5F074019322BB010789828A8302CB
:1012C0001277500B09C5F027F7C5F01937F722BB85
:1012D000FE0D09F8E325F0F3C5F019E338F322F821
:1012E00089828A8374019325F0C5F0F8E49338224B
:1012F000BB010A89828A83F0E5F0A3F0225006F749
:1013000009A7F01922BBFE06F3E5F009F31922EF55
:101310002BFFEE3AFEED39FDEC38FC22C3EF9BFFCC
:10132000EE9AFEED99FDEC98FC22E88FF0A4CC8BB0
:10133000F0A42CFCE98EF0A42CFC8AF0EDA42CFC8B
:10134000EA8EF0A4CDA8F08BF0A42DCC3825F0FDCA
:10135000E98FF0A42CCD35F0FCEB8EF0A4FEA9F0C3
:10136000EB8FF0A4CFC5F02ECD39FEE43CFCEAA40F
:101370002DCE35F0FDE43CFC2275F008758200EFBF
:101380002FFFEE33FECD33CDCC33CCC58233C582B7
:101390009BED9AEC99E58298400CF582EE9BFEED70
:1013A0009AFDEC99FC0FD5F0D6E4CEFBE4CDFAE43F
:1013B000CCF9A88222B800C1B90059BA002DEC8B33
:1013C000F084CFCECDFCE5F0CBF97818EF2FFFEE0F
:1013D00033FEED33FDEC33FCEB33FB10D7039940C8
:1013E00004EB99FB0FD8E5E4F9FA227818EF2FFF08
:1013F000EE33FEED33FDEC33FCC933C910D7059B4A
:10140000E99A4007EC9BFCE99AF90FD8E0E4C9FAA5
:10141000E4CCFB2275F010EF2FFFEE33FEED33FD31
:10142000CC33CCC833C810D7079BEC9AE899400A54
:10143000ED9BFDEC9AFCE899F80FD5F0DAE4CDFBD2
:10144000E4CCFAE4C8F922EB9FF5F0EA9E42F0E919
:101450009D42F0EC6480C864809845F022EB9FF5D3
:10146000F0EA9E42F0E99D42F0E89C45F022E860F7
:101470000FECC313FCED13FDEE13FEEF13FFD8F1D9
:1014800022E0FCA3E0FDA3E0FEA3E0FF22E0F8A33E
:10149000E0F9A3E0FAA3E0FB22ECF0A3EDF0A3EE69
:1014A000F0A3EFF022A8828583F0D083D0821214BB
:1014B000BC1214BC1214BC1214BCE473E493A3C594
:1014C00083C5F0C583C8C582C8F0A3C583C5F0C570
:1014D00083C8C582C822A42582F582E5F03583F54C
:1014E0008322E0FBA3E0FAA3E0F922EBF0A3EAF009
:1014F000A3E9F022EC8EF0A4CCC5F0CCCDF8EFA49B
:10150000CEC5F02DFDE43CFCE8A42EC8C5F03DFDA1
:10151000E43CFCEFA4FFE5F028FEE43DFDE43CFCE8
:1015200022EF4E6012EF60010EEDBB010B89828A43
:1015300083F0A3DFFCDEFA2289F05007F709DFFC15
:10154000A9F022BBFEFCF309DFFCA9F022BC000BD2
:10155000BE0029EF8DF084FFADF022E4CCF875F0E9
:1015600008EF2FFFEE33FEEC33FCEE9DEC984005C8
:10157000FCEE9DFE0FD5F0E9E4CEFD22EDF8F5F08E
:10158000EE8420D21CFEADF075F008EF2FFFED3396
:10159000FD4007985006D5F0F222C398FD0FD5F014
:1015A000EA22122B694003021893900108122B3C87
:1015B000FDE5F0FC122B39FFAEF0D39DEE9C402EE2
:1015C000122BD2D3EF9430EE9475400C9001D77467
:1015D00075F0A37430F0801012128DC39DFEE5F0FB
:1015E0009C9001D7F0A3CEF0E49001AF806012127E
:1015F0008DFFAEF0C3ED9FFBEC9EFAD3EB9410EAA7
:101600009427400C9001D77427F0A37410F0800940
:10161000C3ED9FFFEC9E122B859001D7E0FFA3E066
:101620009001AFCFF0A3EFF0300718D3E0942C90E7
:1016300001AFE0940140139001B17427F0A374103E
:10164000F08007E49001B1F0A3F0E49001D7F0A39B
:10165000F090013CE0604A122B42D39400EE64808B
:1016600094804014D3EF9509EE9508400B9001FE4D
:10167000E4F0A37464F0801BD39001FFE094009029
:1016800001FEE09400400C900105122B3CFFE5F0B8
:10169000122B85D204900204740FF0A374A0F08082
:1016A0000F9002027403F0A374E8F0E4FF12357A9D
:1016B000D39001D8E094009001D7E06480948050EA
:1016C00003021868E0FEA3E0FF900105122B301220
:1016D0002B42EE3395E0FDFCE47BB87A88F9F8C341
:1016E000121447500A9001D77488F0A374B8F0D34D
:1016F000900201E09400900200E0940050089000F5
:10170000F1E06420702AE509240AFFE43508FE9020
:1017100001D7E0FCA3E0FDC39FEC9E5013ED9400C5
:10172000EC648094804038122B427C007D0A802932
:1017300030072C90013CE07011122B42C39511EE42
:101740009510501B7C027DBC800F122B42C3950963
:10175000EE9508500A7C027DBC121241122B849037
:10176000013CE070030217ED900202E07002A3E07A
:1017700070149001D7E0FEA3E0FDEEFCE4FF121828
:1017800094122B848035122B42C3900135E09FFFC9
:10179000900134E09EFE1236FED3EF9428EE648072
:1017A00094804017D3900203E094C8900202E09422
:1017B00000400874FF75F09C121277900134E0FE2F
:1017C000A3E0FF7C007D0F1214F4ECF8EDF9EEFAC3
:1017D000EFFB122B42EE3395E0FDFC12130FE47B7E
:1017E00010FAF9F81213B5900134EE800B9001D77E
:1017F000E0FFA3E0900134CFF0A3EFF0900134E0DC
:10180000FEA3E0FFD39405EE9400400EEF9410EE9B
:10181000940050069001D7EE8016900130E0FEA3B0
:10182000E0FF900135E02FFF900134E03E9001D7BA
:10183000F0A3EFF0D39001D8E094309001D7E064AA
:101840008094F540077475F0A37430F0E5DB540420
:101850007041122B4290010E122B309001D8E024DF
:10186000A8FF9001D7E08022E5DB54047025122BFD
:101870005D900130E0FEA3E0FF90010E122B30904E
:10188000010E122B3C24A8FFE5F03461FE90010B01
:10189000122B30229001D9EFF0A3ECF0A3EDF0EF82
:1018A000122AE5E0FEA3E0C39DFFEE9CFE1236FE89
:1018B000D3EF9428EE64809480401C122AB5121451
:1018C000A500000000122A81E4F0122AFF122AE18A
:1018D000EEF0A3EFF0803B122A70122B15403390EC
:1018E00001DAE0FCA3E0FDD3EF9DEE9C400B9001FC
:1018F000D9E0122AA8E04401F09001D9E0FF122AB1
:1019000074E0FAA3E0C39DEA9C5007122AA7E044C2
:1019100002F09001D9E0122ABAC083C08212148D5D
:10192000122AFFE4FCFD12130FD082D08312149907
:101930009001D9E0FF122B08E475F001121277EF45
:1019400075F007A42429F582E43437F583E493FE87
:10195000740193FF9001D9E0FDC454F02429F5826D
:10196000E43402F583E0FAA3E0C39FEA9E50030249
:101970001B00ED122B08E0FEA3E0FFFBEEFAE4F9FA
:10198000F89001D9E0122ABA1214811213B590010D
:10199000DC121499122A6AE0FCA3E0C39FFFEC9EBC
:1019A000FE1236FE9001E0EEF0A3EFF09001D9E0D8
:1019B000FD75F007A42424F582E43437F583C3745D
:1019C00001939FE4939E401FED122A74E0FEA3E072
:1019D0004E60149001D9E0FB122AF2E0FEA3E0C3AE
:1019E00094B8EE940B501E9001D9E0FF122A74E0D7
:1019F000FCA3E04C7008EF122AF2E4F0A3F0122AE4
:101A00006AEE021AA7EB6003021AAD9001E2F090B1
:101A100001E0E0FEA3E0FFD39450EE94004006A363
:101A20007408F080329001D9E0122AA8E0640360C3
:101A300026D3EF943CEE940040089001E27404F049
:101A40008015D39001E1E094289001E0E0940040FB
:101A5000069001E27402F0122A70E0FEA3E0FFE4B7
:101A6000FCFD122B21D312145D40119001E2E0FF26
:101A7000122A70E48FF0121277021AE3D39001E178
:101A8000E094509001E0E094004058122A70C08326
:101A9000C082E0FEA3E0FF9001E2E0FDC3EF9DFF06
:101AA000EE9400D082D083F0A3EFF08036122A703B
:101AB000E0FEA3E0FF4E700D122B21EBFFEAFEE9E2
:101AC000FDE8FC80167C007D071214F4122B211215
:101AD000130FE47B08FAF9F81213B5122A70EEF02E
:101AE000A3EFF0122AB51214A500000000122A81FB
:101AF000E4F09001DC121481122AE1EEF0A3EFF081
:101B0000122A70122B15405F9001DBE09FFF9001BD
:101B1000DAE09EFE1236FE9001D9E075F007A424AB
:101B200026F582E43437F583D37401939FE4939EC2
:101B3000400F9001D9E0FF122A74122AC7E4F08006
:101B4000269001D9E0FF75F007A42428F582E4343B
:101B500037F583E493FE122AD3E0C39E5009122A7C
:101B600070122AC7E004F0122AFF22D39001F9E094
:101B70009F9001F8E09E400AA3E09FF09001F8E0FA
:101B80009EF09001FD12328D9001FCE09C400CA370
:101B9000E09FF09001FCE09EF08002D28AD3900199
:101BA000FBE09F9001FAE09E400AA3E09FF09001C5
:101BB000FAE09EF012329F50031232D7D39001FF09
:101BC000E09F9001FEE09E400AA3E09FF09001FE9E
:101BD000E09EF0D3900201E09F900200E09E400A58
:101BE000A3E09FF0900200E09EF0D3900207E09FF8
:101BF000900206E09E400AA3E09FF0900206E09E5D
:101C0000F0D3900203E09F900202E09E400AA3E01E
:101C10009FF0900202E09EF0D3900205E09F9002B8
:101C200004E09E400AA3E09FF0900204E09EF0D3FF
:101C30009001B2E09F9001B1E09E400AA3E09FF0C6
:101C40009001B1E09EF090020912328D900208E0FE
:101C50009C400AA3E09FF0900208E09EF01232AD93
:101C600050031232D7D390018EE09F90018DE09EF9
:101C7000400AA3E09FF090018DE09EF09001901249
:101C800032DD90018FE09C400AA3E09FF090018F2D
:101C9000E09EF0D39001A4E09F9001A3E09E400A53
:101CA000A3E09FF09001A3E09EF0D39001A6E09FF7
:101CB0009001A5E09E400AA3E09FF09001A5E09E60
:101CC000F090016B1232DD90016AE09C400AA3E0C3
:101CD0009FF090016AE09EF0D39001B4E09F9001E4
:101CE000B3E09E400AA3E09FF09001B3E09EF012A3
:101CF00032BB50031232D71232C950031232D7D33B
:101D000090012DE09F90012CE09E400AA3E09FF0FF
:101D100090012CE09EF022C0E0C0F0C083C082C0E1
:101D2000D0E8C0E0D2AFD39001F9E094009001F880
:101D3000E094004003123286D39001FDE0940190BC
:101D400001FCE0940040051232868002D28AD390D2
:101D500001FBE094009001FAE09400400312328607
:101D600012329F5003123298D39001FFE0940090FA
:101D700001FEE094004003123286D3900201E09409
:101D800000900200E094004003123286D3900207D4
:101D9000E09400900206E094004003123286D39053
:101DA0000203E09400900202E094004003123286A5
:101DB000D3900205E09400900204E09400400312E6
:101DC0003286D39001B2E094009001B1E0940040DB
:101DD00003123286D3900209E09401900208E09445
:101DE0000040031232861232AD5003123298D39063
:101DF000018EE0940090018DE09400400312328641
:101E0000D3900190E0940190018FE0940040031280
:101E10003286D39001A4E094009001A3E0940040A6
:101E200003123286D39001A6E094009001A5E094BD
:101E3000004003123286D390016BE0940190016A56
:101E4000E094004003123286D39001B4E0940090F5
:101E500001B3E0940040031232861232BB500312E9
:101E600032981232C95003123298D390012DE09467
:101E70000090012CE094004003123286D0E0F8D0AC
:101E8000D0D082D083D0F0D0E0329001E2EFF012D7
:101E90002926E070279001E2E012295D121481E406
:101EA000FBFAF9F8C312145D60129001E2E0122906
:101EB0007B121481E4F8C312145D705712298F90BD
:101EC00001E3121FC6EEF0A3EFF0ED122926E06049
:101ED00029ED75F00AA42410F582E43437F583C0A7
:101EE00083C08290020CE0D082D083122934400A51
:101EF0009001E2E01229267405F01228DBE0D39469
:101F000000748094804006122925E014F09001E7C7
:101F1000021FC21229581214819001EB1214991257
:101F2000297A1214819001EF1214999001E2E012C3
:101F3000296C121481EFF9122998E9F812146EEF46
:101F4000FBEEFAEDF9ECF812299812131C9001F34C
:101F50001214999001EB1214819001E712148D1262
:101F6000130F9001F312148D12130F1229891229E5
:101F70005812299512297A12299512299E12148D28
:101F80001213B51229899001EF121FC6EEF0A3EFCC
:101F9000F0ED75F00AA4240CF582E43437F583C023
:101FA00083C08290020CE0D082D083122934400F8B
:101FB0001228DB7405F012298F9001EF121499900A
:101FC00001EF12148122EFFBEEFA121481C3EF9B92
:101FD000FFEE9AFE1236FE9001E2E0FD75F013A4CA
:101FE0002417F582E43402F58322900176122BD96E
:101FF0009404EE94005022122B98EF25E0FFEE336C
:10200000FE746E2FF58274013EF583ECF0A3EDF0C3
:10201000900176122BAC0220B89001DB7401F09095
:1020200001DBE0FFC39404748094805021EF122BF5
:1020300077FCA3E0FDEF25E0246CF582E43401F5A4
:1020400083ECF0A3EDF09001DBE004F080D190018F
:102050003CE060028053122B39FF122B98C3EF9D96
:10206000FFE5F09CFE1236FEC3EF9428EE648094E8
:10207000805036900108122B3CFFC3900101E09F75
:10208000FF900100E095F0FE1236FEC3EF9414EECF
:102090006480948050059001088003900102122B07
:1020A0003CFF900174E5F0800B900100E0FFA3E09D
:1020B000900174CFF0A3EFF09001D71214A50000A7
:1020C0000000E49001DBF09001DBE0FFD3900177AA
:1020D000E09F900176E0940040259001D712148D86
:1020E0009001DBE0122B77FEA3E0FFE4FCFD12136E
:1020F0000F9001D71214999001DBE004F080C89092
:1021000001D7121481ECC0E0EDC0E0EEC0E0EFC0FA
:10211000E0900176122BB3D0E0FFD0E0FED0E0FDDE
:10212000D0E0FC1213B59001D71214999001D70298
:1021300014819001D77402F0A374BCF0D39001B461
:10214000E094009001B3E094004011122B39FF900D
:1021500001081214E2E5F08FF01212F09001F8E09D
:102160007002A3E0600B9001D7E4F0A37464F080E8
:102170000B90001AE0641170037420F090013CE0B1
:10218000600F7E007F0A7D007B017A01793D021598
:102190002190013D12148DE8C0E0E9C0E0EAC0E002
:1021A000EBC0E0122B39FFAEF0E4FCFDD0E0FBD039
:1021B000E0FAD0E0F9D0E0F812130F90013D1214CC
:1021C00099900141122BAC9001D7122BD990014666
:1021D000E09F900145E09E500302227690013D125F
:1021E0001481ECC0E0EDC0E0EEC0E0EFC0E0900193
:1021F00041122BB3D0E0FFD0E0FED0E0FDD0E0FCF8
:102200001213B590013D121499900108122B3C2431
:1022100032FFE435F0FEE4FCFD90013D12148DD355
:1022200012145D402E9001F8E07002A3E0702420AB
:102230000421900143122BADD3900144E09405900A
:102240000143E094004018122B27E4900143F0A3CF
:10225000F0800C122B27E4900143F0A3F0C204900D
:10226000013D1214A500000000E4900141F0A3F02C
:10227000900145F0A3F022758D20438D20538D7F72
:10228000E4F5B275B6FF75B7FF75B2A243B201535C
:10229000A8FB538B7F758B10438B08E58B20E703DE
:1022A0000080F8538B7F758B11438B08E58B20E7FB
:1022B000030080F890023AE5B5F0A3E5B4F0758B21
:1022C00001E4F5B212367FE4F58D90011DE0FEA326
:1022D000E0FF4E7010123639FD90011DE5F0F0A3BD
:1022E000EDF0022367123639FDC3EF9DFFEE95F046
:1022F000FE1236FED3EF940AEE64809480402412DE
:102300003639FFC390011EE09F90011DE095F0500B
:1023100006E475F001800790011D74FFF5F01212BC
:1023200077804490011DE0FEA3E0FF7C007D031256
:1023300014F4ECC0E0EDC0E0EEC0E0EFC0E0123617
:1023400039FFAEF0E4FCFDD0E0FBD0E0FAD0E0F9DC
:10235000D0E0F812130FE47B04FAF9F81213B590E9
:10236000011DEEF0A3EFF090020CE06401700D7D12
:102370001F1236187002A3E0701A800B7D101236FF
:10238000187002A3E0700D900195E0FFA3E0A3CFC9
:10239000F0A3EFF090019DE07002A3E0700F9001B8
:1023A0001DE0FFA3E090019DCFF0A3EFF0227FFF9F
:1023B0007A0079001237147FD77A01790012371426
:1023C0007E007F147D007B017A0179F71215219040
:1023D0002DE0E493900001F09000047411F0A374D8
:1023E00022F0A37433F0902DE2E493900012F09069
:1023F0002DE3E493900014F09000FB7401F0900042
:10240000367410F09000F1F0900024F0A37420F0E6
:102410007B017A0079409001021214EB7A00794432
:102420009001081214EB7A0079429001051214EB26
:102430007A00792E90010B1214EB7A00792A900120
:102440000E1214EB7A0079289001111214EB7A0025
:10245000796090011F1214EB7A0079809001A91223
:1024600014EB7A0079189001391214EB7A00791B79
:102470009001361214EB7A0079329001141214EBA9
:102480007A0079269001171214EB7A0079349001C2
:102490001A1214EB9001141214E2E475F0C812122F
:1024A000F09001171214E2E475F0641212F090013A
:1024B0001A1214E2E475F0961212F07510007511FC
:1024C000C87508007509969001F87407F0A374D0D8
:1024D000F0E49001F7F0229001DEEFF0902E22E080
:1024E000FF9001E2E4F0A3EFF0758A50902E227481
:1024F00001F01233557404F0A3E4F09001DFF09082
:1025000001DFE0FFC3940D7480948040030225EB4B
:10251000EFF87E02E4088006CEA2E713CE13D8F8C7
:10252000FF9001E0EEF0A3EFF04E70079001E0F0B5
:10253000A304F0902E207401F0902E20E030E2F9F8
:102540009001DEE0FF902E0012335CE0FCA3E0D3AC
:1025500094FEEC9407404012337DE0FEA3E0FF9030
:1025600001E0E0FCA3E0FDEF2DFFEE3CFEC3EF94A5
:10257000FFEE94079001DEE075F002902E10500BF4
:102580001214D6EC8DF012127780501214D6740704
:10259000F0A374FFF080449001DEE0FF123359E0B5
:1025A000FCA3E0FD9001E0E0FAA3E0FBD3ED9BEC9F
:1025B0009A402112337DC083C082C3A3E09BFF05F4
:1025C00082D5820215831582E09AD082D083F0A34F
:1025D000EFF08007123355E4F0A3F0902E20E4F0E2
:1025E000F58D9001DFE004F00224FF9001E2A3E00A
:1025F000902E22F0758A3022CBEFCBEEFAC3E53273
:102600009BFFE5319AFEE5309400FDE52F94008FA5
:10261000328E318D30F52F22E52225E024B5F5826A
:10262000E43401F583E02290020CE025E02420F55B
:1026300082E43437F583E5822FF582E43583F58330
:10264000E49322900195E0FEA3E0FF9001DBE02FF0
:10265000FF9001DAE03EFE900197E0FCA3E0FDC3AD
:10266000EF9DFFEE9C2212148D90015EE0FEA3E030
:10267000229001DCE0FFA3E0CF900158F0A3EFF03F
:1026800022F583E49375F002902E001214D6E0FF39
:10269000A3E02290020CE0243CF582E43402F583AE
:1026A000E022F583E4932420F582E4342EF583229E
:1026B000CFF0A3EFF0902E20E4F0758A3022E522CF
:1026C00025E024B7F582E43401F5832290020CE082
:1026D000640122123662758A50902E207401F02215
:1026E0009001DE0214817F047E007D007B0122E0E8
:1026F000FCA3E0FDECFEEDFF2212130F9001DE02C1
:1027000014997FC87E007D967C00122B69400302DD
:1027100027F33007209001B1E07002A3E060087554
:10272000101375118880067510077511D07508068D
:10273000750940804990020CE0F964017006FE7F43
:10274000C8FC7D969001D1E0FAA3E0FB2FF511EAD9
:102750003EF510CEECCEEDFFEB2FF509EA3EF50885
:10276000E964017019A3E0FEA3E0FF2511F511EE65
:102770003510F510EF2509F509EE3508F50890013B
:1027800005122B3CFFAEF0C39511EE9510500F9043
:10279000013CE0601AC3EF9509EE950840119002E4
:1027A00000E07002A3E0702990013C04F0802290C8
:1027B00000F1E064209002007005F0A3F08007743F
:1027C00001F0A374F4F0E490013CF09001FE122BB0
:1027D000BE90013CE0FF6016900024E06410900081
:1027E0003670057410F080037420F0122BA1900055
:1027F0004BEFF022E4F526F525F524F523F526F533
:1028000025F524F523F522122BC8502AE52225E0D0
:10281000240AF8E6FE08E6FFE4FCFDE5262FFFE5C6
:10282000253EFEED3524FDEC35238F268E258D24A7
:10283000F523052280D1E47B02FAF9F8AF26AE2514
:10284000AD24AC231213B590017AEEF0A3EFF0E4BF
:102850007526A8752561F524F523F522122BC8509D
:102860005590017A122B4BC3122BD21236FED3EFA6
:10287000940AEE64809480401290017AE0FEA3E016
:10288000FF900152E0FCA3E0FD8007900152122B63
:102890004BC3122BD23395E0FDFCE5262FFFE52537
:1028A0003EFEE5243DFDE5233C8F268E258D24F557
:1028B00023052202285CE47F607EEAFDFCAB26AAA9
:1028C00025A924A823D312145D400BE47526607556
:1028D00025EAF524F523AE25AF26229001E7121450
:1028E000819001E2E0FB75F013A42412F582E43438
:1028F00002F583121499EB75F013A4241DF582E4FC
:102900003402F5831214819001E712148D12132AF8
:102910009001E2E0FB75F013A4240EF582E434028A
:10292000F583121499EB75F013A42416F582E434A0
:1029300002F5832275F0021214D6E493FE7401931B
:10294000FFED75F013A42417F582E43402F583E05B
:10295000FCA3E0D39FEC9E229001E2E0FB75F01314
:10296000A42412F582E43402F58322EB75F013A45B
:102970002419F582E43402F58322EB75F013A424C4
:102980000EF582E43402F583229001EF121499903F
:1029900001E70214811214999001EF021481EB7582
:1029A000F013A4241DF582E43402F58322C0E0C0B4
:1029B00083C082C0D075D018D2AFE5DB30E422D21C
:1029C00005C202E5DB30E1141236F0E0F5DFEF641A
:1029D000077065D28A900007F0022A5BC201022AC2
:1029E0005EE5DB30E52C9000F0E064AA7017758A94
:1029F00010F5DAC2AFF5B2F5A8F5A9F58B758E0121
:102A0000758DC080FED200300204C2028050C20523
:102A1000804CC202E5DB30E121E5DB30E0401236DC
:102A2000F0E0F5DFEF24F9600824EE700BD20680A9
:102A300007D28A900007E4F0802120010A7812A6CC
:102A4000DFD201D20280171236F0E5DFF0EF642406
:102A500070099001FA04F0A374F4F078120675DBA3
:102A6000FFD0D0D082D083D0E0329001DC1214812C
:102A70009001D9E0C454F02427F582E43402F583B0
:102A800022EBC454F02425F582E43402F583E4F00B
:102A9000A3F09001D9E0FFC454F02429F582E43476
:102AA00002F583E4F0A3F0EFC454F0242EF582E4A1
:102AB0003402F583229001D9E0FBC454F02421F5BF
:102AC00082E43402F58322E0FDA3E09001DACDF048
:102AD000A3EDF0EFC454F0242DF582E43402F58325
:102AE000229001D9E0C454F0242BF582E43402F59D
:102AF0008322C454F0242FF582E43402F58322901B
:102B000001DAE0FEA3E0FF22C454F02425F582E4BC
:102B10003402F58322E0FEA3E0FFD39400EE94009C
:102B2000229001DC02148D90013D12148190010865
:102B30001214E2EE8FF00212F09001021214E2027F
:102B4000128D9001D7E0FEA3E0FF22E52225E024CC
:102B50000AF8E6FE08E6FFE0FCA3E0FD229001058E
:102B60001214E2E4F5F00212F0D39001F9E09400BF
:102B70009001F8E094002225E0246EF582E434010F
:102B8000F583E022EE9001D7F0A3EFF0221214E2D9
:102B9000746175F0A80212F0900100E0FCA3E0FD62
:102BA000229001FA7403F0A37420F022E475F0017E
:102BB000021277E0FEA3E0FBEEFAE4F9F822F0A3BC
:102BC000F09000367410F022C3E5229402748094D1
:102BD0008022EF9DFFEE9CFE22E0FEA3E0FFC322D9
:102BE00012314D1236427E007F2C7D007B017A012E
:102BF000797D121521120CB8E4900176F0A3F090C3
:102C00000164F0A3F0900162F0A3F0900166F0A3DC
:102C1000F07F02122F62900100E0FEA3E0FFA312FA
:102C20002B30900100E0FEA3E0FF122B2D122B5D54
:102C300090010B122B8D900111122B8D90010E1211
:102C40002B60E490013CF0FE7F0AFD7B017A017964
:102C50003D121521E4900206F0A3F0900204122B1D
:102C6000BEE490004BF0122BA190020AE0700FC35B
:102C70009001F9E094F49001F8E09401500A900179
:102C8000F87401F0A374F4F022E49001D7F0A3F0FB
:102C9000900149F0A3F09001477412F0A3745CF026
:102CA0001234BB7E007F047D007B017A01795212D1
:102CB00015217F0112353EE4FF12353E123362903A
:102CC00001D7CDF0A3EDF09001D7E0FCA3E0FDC368
:102CD0009405EC94004009D3ED94F0EC9407401770
:102CE000EF64014E70059001498004E4900147F0C3
:102CF000A3F0E4FF12353E902E23E4F012336290ED
:102D000001D7CDF0A3EDF090001D7410F0EF640139
:102D10004E9001D770081233491233878006123360
:102D200049123391E03EFE12337122787FE4F6D8E7
:102D3000FD758132022D75020000022ED7E493A3A7
:102D4000F8E493A34003F68001F208DFF48029E45D
:102D500093A3F85407240CC8C333C4540F4420C8A9
:102D6000834004F456800146F6DFE4800B01020440
:102D700008102040809035E9E47E019360BCA3FFF9
:102D8000543F30E509541FFEE493A360010ECF5475
:102D9000C025E060A840B8E493A3FAE493A3F8E464
:102DA00093A3C8C582C8CAC583CAF0A3C8C582C8D0
:102DB000CAC583CADFE9DEE780BE120CB87F011204
:102DC0002F62121FEA900102122B301215A2122755
:102DD000021221321231BA1235B2022E4A0000001C
:102DE0000D02AB2074AA7583F5758255A5745575CF
:102DF00083FA7582AAA574A57583F5758255A522F7
:102E00000203020AB0B00BB6B60CFFFF09020208BB
:102E1000FFFF0D77770E04041307071410101080BE
:102E2000801500001600000192121212071B0219F1
:102E3000120F0404040404010101011118100A1006
:102E400012180804080302040204E49001DBF0A352
:102E5000F0200603022ED620077CC20690020CE06A
:102E6000902E12E0FFA3E09001DBCFF0A3EFF090F3
:102E700001DBE0FFA3E09001D9CFF0A3EFF0E4FF86
:102E800012353E1233629001DBCDF0A3EDF0EF641A
:102E9000014E9001DB70081233491233878006120D
:102EA0003349123391E03E9001D7F0A3EFF0900147
:102EB000D7E0FEA3E0FF12337190020CE09001D93D
:102EC000E0FFA3E0902E12CFF0A3EFF09001FA7490
:102ED00003F0A37420F0221236B653A87F12369B5B
:102EE0001223AE1234FE12080E43A880E4F58D9032
:102EF00000F17420F0122FE29001F7E01460151435
:102F0000601714603814604A240470E0122C89128F
:102F1000080380D8122BE08031122DBA900020E0F7
:102F2000FF64206008EF6421600312306090002588
:102F3000E0641070B79001F77404F080AF12080AD3
:102F40009001FA7403F0A37420F09001F77402F07A
:102F5000809A12342F900025E06410608F120803CD
:102F6000808A9001D7EFF0E4A3F09001D7E0FFA3AF
:102F7000E0C39F502E12082E1236D0900166EEF05C
:102F8000A3EFF08E0EF50FC8740AC87400FCE4FDC0
:102F9000FB7A00790CFE7F041212099001D8E0043C
:102FA000F080C71227F4900100EEF0A3EFF090013B
:102FB00064122BD9900133E09FFF900132E09EFE16
:102FC0001236FE7C007D05121241900130ECF0A318
:102FD000EDF0900164E0FFA3E0900132CFF0A3EFA9
:102FE000F022900020E0642070037421F0900136FC
:102FF0001214E212128D641045F070031233E69041
:103000000001E064AA70031232E812339B20030827
:1030100090001AE06410700B90001A7411F0C20353
:103020001208039000FBE06006E4F09001F7F090D6
:10303000016AE07004A3E06401701590016AF0A3D6
:10304000F09001B37407F0A374D0F0E49001F7F0AE
:1030500030000CC2009001FA7401F0A374F4F02265
:10306000308A789001F8E07002A3E0706E90016AF7
:10307000E07002A3E07064F5B2758D20438D207579
:103080008D9043A808D2AF758B4090012CE0FEA331
:10309000E0FF4E6005758E148003758E3F20002F73
:1030A00020052CE5DB54047026758AA4200520E554
:1030B000DB5404701AF586758703000000758601DD
:1030C000EF4E60047F2880027F7F7E00121B6B75AD
:1030D0008B01758A3053A8F712367F22E4FEEEC3C7
:1030E0009407748094805038EE75F005A42428F578
:1030F00082E4342EF583C083C08290020CE0D0823B
:10310000D08375F0021214D6122636FDEE75F00546
:10311000A42427F582E4342E1226A2EDF00E80BE00
:10312000EF701090020CE0700A900147E07002A36B
:10313000E0600F1226CC7014900149E07002A3E009
:10314000700A90020CE0902E217412F0227E007F13
:10315000137D007B017A02790E121521E4FBEBC38B
:10316000940174809480505190020CE0FFEB75F054
:103170000AA4240AF582E43437F583E5822FF58228
:10318000E43583F583E493FFE4FCFDFE12296B1222
:10319000149912296B121481EF04F87E007401084F
:1031A0008005C333CE33CED8F9FFEE3395E0FDFC76
:1031B00012299E1214990B80A5229001FCE0700444
:1031C000A3E064017011900007E06004D28AE4F08B
:1031D000E49001FCF0A3F0900036E0FF9000FFE0E7
:1031E0006F603D900036E0FD9000FFF0900007E03A
:1031F00090020DF0540FF0ED7E0064207005E04465
:1032000020800CEF64104E700B90020DE04410F023
:10321000900007F0C28A9001FC7403F0A374E8F0F8
:1032200022CFF0EFA3F09001051214E202128DC339
:10323000FF900182E09F900181E095F02290011DB6
:10324000E0FEA3E0FF2290011DE0FFA3E0CF90018C
:103250009DF0A3EFF0229001DAE0941E9001D9E0F6
:103260009400229001A57413F0A37488F0A3E4F0F5
:10327000A322E4F0A3F0A3F0A3F022FF900181E5E4
:10328000F0F0A3EFF02274FFF5F0021277EF2401C3
:10329000FDE43EFCD3E09D22E475F001021277C309
:1032A000900146E094BC900145E0940222C3900155
:1032B0008CE0946490018BE0940022C3900230E093
:1032C00094B890022FE0940B22C390022AE094F469
:1032D000900229E0940122EE8FF0021277EF240190
:1032E000FDE43EFCD3E09D229001D77408F0A3E4F6
:1032F000F0A3743FF0A374DFF0E4FDFCF9758A10CD
:10330000538AEF009001D7E0FEA3E02DF582EE3C5A
:10331000F583E493FF69F90DBD00010CBC37E5BDF1
:10332000DFE29001D9E0FEA3E0F5828E83E493FF13
:10333000E96F7008900001740DF08005E4900001C1
:10334000F0758A30538AEF0022E0FEA3E0FF7C0094
:103350007D0A02122F9001DEE0902E1075F002021D
:1033600014D690020CE0FF7E00902E12E0FDA3E048
:10337000229001391214E2EE8FF00212F075F00281
:10338000EF902E100214D690014AE02FFF900149D1
:1033900022900148E02FFF90014722900013E0FFA8
:1033A00090020BE06F600CEFF09002087402F0A343
:1033B0007458F0900208E07004A3E0640170269055
:1033C000020BE0FF7E0064107002D207EF64204E13
:1033D0007002C207900025E064106002D203E490FE
:1033E0000208F0A3F022E49001D7F0A3F0758A1050
:1033F000538AEF00122DE475EA81E4F5F6F5F475D1
:10340000F308F5F275EB0700E5EC30E7FBAFF3EFFF
:10341000FEADF2EDFF9001361214E2EE8FF01212C3
:10342000F0E4F5EC75EB30758A30538AEF002290AA
:103430000025E06410703FF5B2758D20438D205358
:103440008D7F53A8F7F58BE5DB540470132005102E
:10345000F58AF586758703000000758601758A3048
:10346000758B0190020A7401F09001FA7403F0A3C5
:103470007420F012367F22C2D5E830E70FB2D5E4CF
:10348000C39BFBE49AFAE499F9E498F8EC30E71767
:10349000B2D51234AD1213B5E4C39BFBE49AFAE43F
:1034A00099F9E498F880031213B530D50DE4C39F61
:1034B000FFE49EFEE49DFDE49CFC22E4FFEFC39448
:1034C0000D74809480502E90020CE0FEEF75F00396
:1034D000A42401F582E4342EF583E5822E122639E8
:1034E000FEEF75F003A42400F582E4342E1226A228
:1034F000EEF00F80C8902F56E0902E2BF022E4F5CE
:10350000DA75DA4043DA2030881375D74075D64033
:1035100090020C04F09000157420F0801175D742D1
:1035200075D642E490020CF09000157421F053928D
:10353000FE75DA5843A80275B80275F802229001A8
:10354000DDEFF01236629001DDE0FF1230DC900119
:10355000DDE0FF90020CE025E02420F582E4343722
:10356000F583E5822FF582E43583F583E493FF123A
:1035700024D79001DDE0FF0236E19001D9EFF07E23
:10358000007F10EEC0E0EFC0E07D00E075F010A419
:103590002421F9740235F0FA7B01D0E0FFD0E0FE7F
:1035A0001215219001D9E0122AF2740BF0A374B81D
:1035B000F022900153E02424FF900152E034FAFEFF
:1035C000C3900165E09F900164E09E501490016AF1
:1035D000E07002A3E0701190016A04F0A374F4F0AB
:1035E00022E490016AF0A3F022C10542023C0203EA
:1035F000C10641020D0041020C00C10741020B004F
:10360000C101011200C100C102C104C1034100FF98
:103610001043023701023A0090011DE0FEA3E0FFD3
:103620007C001214F4E47B64FAF9F81213B59001EB
:1036300095EEF0A3EFF0A3E0229002371214E2021D
:10364000128D1226E67A0179561215211226E67A93
:1036500001795E1215217F161226E87A0179B502EA
:103660001521EFF87401088002C333D8FC42AB1275
:10367000262790371D93F4529152935391DF22E500
:10368000B254016006E5A85410700F75B29275B679
:103690007CE4F5B743B20143A81022758A30538AFF
:1036A000EF758601758F05E4F5AB75AC0F75913E2E
:1036B000759201D28A2290407F43EC40E493643BB0
:1036C000700300800753A87F000080FC53ECBF22EA
:1036D000900164E0FEA3E0FF900162EEF0A3EFF042
:1036E0002212262790371D9342914288439120222F
:1036F0007812E6FF2400F582E43400F58322EE30F0
:10370000E707C3E49FFFE49EFE2203030019001EA7
:10371000001400197E007D007B01021521010220AA
:1037200001020102009600960701F400000000006B
:103730000000000000000000000000000000000089
:103740000000000000000000000000000000000079
:103750000000000000000000000000000000000069
:103760000000000000000000000000000000000059
:103FD000000000000000000000000000000000944D
:103FE00000000000000000000000000000000000D1
:103FF00000000000000000000000000000000000C1
:00000001FF
