:100000000023000000060000DACE0000000000001F:1000100000000000000000000000000000000000E0:100020000233EF010220010002000002300C023A0C:100030009E0000020826D2AF320000020816D2AF9E:10004000320000022848D2AF32000002081E7F02B0:10005000123773122AFA902E20E030E2F990080845:10006000E4122B30FFA3E09001B4CFF0EF122B226B:100070007F02123B6E90015EE0FEA3E0FF4E700E29:100080009001B4E0FCA3E0FDECFEEDFF8014EF2551:10009000E0FFEE33FE9001B5E02FFF9001B4E012D7:1000A0002B5190015EEEF0A3EFF0900158E070024A:1000B000A3E0700F90015EE0FFA3E0900158CFF045:1000C000A3EFF0E49001AEF0122ACE5010EF122A06:1000D0007B120F9600002710122B5A80EBE4900140:1000E000AFF09001AFE0C3940574809480400302A8:1000F0000A6AE49001AEF0122ACE4003020A61A31C:10010000E02401FDE433FC74282F122B61D3ED9F12:100110007480F86C984003020A5B9001AEE0FF1215:1001200037739001AEE0FF122AFA902E20E030E201:10013000F99001AEE0FF900806122B30FCA3E0FD21:10014000EF25E024B0F582E43401F583ECF0ED1204:100150002B229001AEE0FF123B6E122A9AFDEF2592:10016000E0246CF582E43401F583ECF0A3EDF0902B:100170000158E0FEA3E0FFE4C0E0C0E0EEC0E0EF25:10018000C0E090015EE0FEA3E0FBEEFAE4F9F8D0F7:10019000E0FFD0E0FED0E0FDD0E0FC120E0DE47BED:1001A00008FA120E1BE47B0AFAF9F81238F69001ED:1001B000B0EE8FF0120CEE122A9AFD122AEFF583A0:1001C000ECF0A3EDF09001AEE0FF122ADB122AA8BA:1001D000FD4C7009122AEF122A93FF80199001AE8C:1001E000E0FBED25E0FFEC33FEEB122AF0122AA82B:1001F0002FFFEC122B519001AEE0FD122ADB122AE8:10020000B8122A894E700CED122ADB122A93FFEDE8:10021000122AAF9001AEE0FF25E02460F582E434BD:1002200001122AA8FDECC0E0EDC0E0EF122ADB12BB:100230002A93FFE4FCFD9001BD120F8A9001AEE00D:100240009001C1F0D0E0FDD0E0FCE4FF121012906C:1002500001AEE0FD122AAFED122A7BC083C08212EC:100260000F7E122A892400FFEE34E8FE3395E0FD6C:10027000FC120E00D082D083120F8A122B5A020871:10028000D79001AFE004F00208C2902E23E4F09072:1002900001AEF0122ACE4003020C25EF122A7BC0D9:1002A00083C082120F7EE8C0E0E9C0E0EAC0E0EB64:1002B000C0E09001AEE02428122B61FBE4FAF9F8CB:1002C000122A77120F721238F6D0E0FBD0E0FAD083:1002D000E0F9D0E0F8120E00D082D083120F8A121B:1002E0002A77120F72E47B507AC3F9F8C3120F38E1:1002F000500A122A77120F960000C3509001AEE008:10030000FF122A7B120F7EE833500BEF122A7B126A:100310000F96000000009001AEE0FF122AE5122ABD:10032000A84C7009EF122A7B120F72802C9001AE3C:10033000E0122AE5122A93FF7C007D02120FE5EC01:10034000F8EDF9EEFAEFFB122A77120F72120E0097:10035000E47B03FAF9F8120EA69001AEE0FD122A32:10036000E5F583EEF0A3EFF0122B3C122A934E70CA:100370000EED122AE5122A93FF122B3C122AB89096:1003800001AEE0FF122AC0C083C082120F7EEF12BE:100390002A8AFFE4FCFD120E00D082D083120F8A5D:1003A0009001AEE0FF122B0AF583E475F001120C08:1003B000EEEF122B0A122A93FFD3940AEE94004018:1003C00034EFFBEEFAE4F9F89001AEE0122AC01225:1003D0000F72120EA69001AEE0FD122B6B122AB81E:1003E000ED122B0AF583E4F0A3F0ED122AC0120FF0:1003F000960000000090012CE07002A3E070409095:1004000001AEE0FD122A8AFFED122B6B122AA8FD25:10041000123B089001AEE0FD122B75122AB8ED12C6:100420002B75122A93D39406EE9400401290012C5F:100430007407F0A374D0F0A3E475F001120CEE126F:100440002B5A020A7322BB010689828A83E022505A:1004500002E722BBFE02E32289828A83E49322BB65:10046000010689828A83F0225002F722BBFE01F343:1004700022EF8DF0A4A8F0CF8CF0A428CE8DF0A4AC:100480002EFE22BC000BBE0029EF8DF084FFADF0E4:1004900022E4CCF875F008EF2FFFEE33FEEC33FCCE:1004A000EE9DEC984005FCEE9DFE0FD5F0E9E4CE04:1004B000FD22EDF8F5F0EE8420D21CFEADF075F0D3:1004C00008EF2FFFED33FD4007985006D5F0F222DC:1004D000C398FD0FD5F0EA22C2D5EC30E709B2D5BA:1004E000E4C39DFDE49CFCEE30E715B2D5E4C39F68:1004F000FFE49EFE120C63C3E49DFDE49CFC8003BC:10050000120C6330D507C3E49FFFE49EFE22C5F0C2:10051000F8A3E028F0C5F0F8E58215827002158393:10052000E038F022BB010A89828A83E0F5F0A3E07B:1005300022500687F009E71922BBFE07E3F5F00910:10054000E3192289828A83E493F5F074019322BB34:100550000110E58229F582E5833AF583E0F5F0A301:10056000E0225009E92582F886F008E622BBFE0A5F:10057000E92582F8E2F5F008E222E5832AF583E92D:1005800093F5F0A3E99322BB010DC58229C582C56D:10059000833AC583020CEE5011C58229F808E5F0B4:1005A00026F618F5F0E58236F622BBFE11C5822943:1005B000F808E225F0F5F0F218E23582F222F8E5CB:1005C0008229F582E5832AF58374019325F0F5F0FD:1005D000E4933822BB010A89828A83F0E5F0A3F014:1005E000225006F709A7F01922BBFE06F3E5F00931:1005F000F31922F8BB0111E58229F582E5833AF56A:1006000083E8F0E5F0A3F0225009E92582C8F60856:10061000A6F022BBFE09E92582C8F2E5F008F22225:10062000EF2BFFEE3AFEED39FDEC38FC22C3EF9BD9:10063000FFEE9AFEED99FDEC98FC22E88FF0A4CC39:100640008BF0A42CFCE98EF0A42CFC8AF0EDA42CF9:10065000FCEA8EF0A4CDA8F08BF0A42DCC3825F0C8:10066000FDE98FF0A42CCD35F0FCEB8EF0A4FEA9B3:10067000F0EB8FF0A4CFC5F02ECD39FEE43CFCEAC0:10068000A42DCE35F0FDE43CFC2275F00875820007:10069000EF2FFFEE33FECD33CDCC33CCC58233C547:1006A000829BED9AEC99E58298400CF582EE9BFED8:1006B000ED9AFDEC99FC0FD5F0D6E4CEFBE4CDFA33:1006C000E4CCF9A88222B800C1B90059BA002DECD7:1006D0008BF084CFCECDFCE5F0CBF97818EF2FFF6F:1006E000EE33FEED33FDEC33FCEB33FB10D7039917:1006F0004004EB99FB0FD8E5E4F9FA227818EF2FC4:10070000FFEE33FEED33FDEC33FCC933C910D705E2:100710009BE99A4007EC9BFCE99AF90FD8E0E4C901:10072000FAE4CCFB2275F010EF2FFFEE33FEED3331:10073000FDCC33CCC833C810D7079BEC9AE899405E:100740000AED9BFDEC9AFCE899F80FD5F0DAE4CDC0:10075000FBE4CCFAE4C8F922EB9FF5F0EA9E42F004:10076000E99D42F0EC6480C864809845F022EB9FDC:10077000F5F0EA9E42F0E99D42F0E89C45F022E85F:10078000600FECC313FCED13FDEE13FEEF13FFD867:10079000F122E0FCA3E0FDA3E0FEA3E0FF22E0F8ED:1007A000A3E0F9A3E0FAA3E0FB22ECF0A3EDF0A3B1:1007B000EEF0A3EFF022A8828583F0D083D08212DE:1007C0000FAD120FAD120FAD120FADE473E493A392:1007D000C583C5F0C583C8C582C8F0A3C583C5F06D:1007E000C583C8C582C822A42582F582E5F0358379:1007F000F58322E0FBA3E0FAA3E0F922EBF0A3EA01:10080000F0A3E9F022EC8EF0A4CCC5F0CCCDF8EF4B:10081000A4CEC5F02DFDE43CFCE8A42EC8C5F03DF7:10082000FDE43CFCEFA4FFE5F028FEE43DFDE43CE4:10083000FC229001BBECF0A3EDF09001BAEFF012B6:1008400032EDC083C0829001C1E0D082D0831232E9:10085000E7E070461232DE1232FBC083C0829001A4:10086000C1E0D082D0831232E7120F72E4FBFAF9B2:10087000F8C3120F4E60231232DE123305C083C05C:10088000829001C1E0D082D0831232E7120F72E46D:10089000F8C3120F4E6003021176123322C3900187:1008A000BCE09FFF9001BBE09E121337C083C08263:1008B0009001C1E0FCD082D0831232E7EEF0A3EFCA:1008C000F0ED1232ED123339E060509001BAE0FFE2:1008D000123340C083C0829001C1E0D082D0831225:1008E00032E7E0FCA3E0FDEF75F005A42487F58274:1008F000E4343BF583E493FE740193FFD3ED9FEC66:100900009E40181232DE1232F1C083C0829001C1C3:10091000E0D082D0831232E77405F0123322123213:10092000DE1232FBC083C0829001C1E0D082D0834E:100930001232E7120F8A1232DE12330FC083C082E6:100940009001C1E0D082D0831232C7123305C08338:10095000C0829001C1E0D082D0831232E7120F8AA8:100960009001BAE0FF1232EDC083C0829001C1E075:10097000FED082D0831232E7E0D39400748094805A:10098000400EEF1232ED75F00EEE120FC7E014F0CC:100990009001BD0213331232DE1232FBC083C082DB:1009A0009001C1E0D082D0831232E7120F72900121:1009B000C2120F8A1232DE123305C083C082900148:1009C000C1E0D082D0831232E7120F729001C612BA:1009D00033191232DE12334EC083C0829001C1E05F:1009E000D082D0831232E7E0F9F8120F5FEFFBEE0E:1009F000FAEDF9ECF812331C120E0D9001CA120F29:100A00008A9001C2120F729001BD120F7E120E0069:100A10009001CA120F7E120E0012335812332212A6:100A200032DE1232FBC083C0829001C1E0D082D09E:100A3000831232E71233191232DE123305C083C03B:100A4000829001C1E0D082D0831232E7123319ECD8:100A5000C0E0EDC0E0EEC0E0EFC0E01232DE1233E5:100A60000FC083C0829001C1E0D082D0831232E7F0:100A7000E0FEA3E0FBEEFAE4F9F8D0E0FFD0E0FE00:100A8000D0E0FDD0E0FC120EA61233589001BAE07F:100A900064016003021330123322EFFBEEFA1233CB:100AA0001CC3EF9BFFEE9A121337C083C0829001E4:100AB000C1E0FCD082D0831232E7EEF0A3EFF0ED7C:100AC000123340123339E0FEA3E0FF9001BAE0FB9D:100AD00075F005A42485F582E4343BF583E493FCAA:100AE000740193FDD3EF9DEE9C4065123322EB75AC:100AF000F00EA41232FBC083C0829001C1E0D0820C:100B0000D0831232E7120F8A1232DE12330FC08303:100B1000C0829001C1E0D082D0831232C712330567:100B2000C083C0829001C1E0D082D0831232E7122C:100B30000F8A1232DE1232F1C083C0829001C1E00E:100B4000D082D0831232E77405F012332212335868:100B50009001C6120F7222FE123B579001BAE0FDBF:100B600075F00EA424F7F582E43401F58322900198:100B7000AB121AD6400302167D121968120D2FD33C:100B80009DE5F09C40329001081219F5121973127C:100B90001B319430EE9475400C9001AC7475F0A349:100BA0007430F08006121968121A8A9001ABE012B4:100BB0001AE6F583E402140F9001021219F5FF12F0:100BC0001989121BA9900108121985121B31941062:100BD000EE9427400C9001AC7427F0A37410F080C1:100BE000169001021219F5FF121989121BA9900122:100BF00008121985121A8A1219FD9001ABE0FD1234:100C00001AE6121A2730001DED121AE61219A0D3A7:100C1000942CEE94014014121A9BF5837427F0A3D0:100C20007410F08006121A9B1219EBE49001ACF0DC:100C3000A3F01219CAE0605B121AA6D39400EC6408:100C40008094804020EF25E02408121A12D3ED9FF3:100C5000EC9E40119001ABE0121AF0F583E4F0A392:100C60007464F080229001ABE0FF121AF01219B107:100C7000D39400EC9400400F900105121985120DD9:100C80002FFFE5F0121B459001ABE0121B1774011A:100C9000F0800F121A3BF5837403F0A374E8F0128E:100CA0003A50D39001ADE094009001ACE0648094A0:100CB000805003021636E0FEA3E0FF1219F212196B:100CC00089121B3EEE3395E0FDFCE47BB87A88F98F:100CD000F8C3120F38500A9001AC7488F0A374B8AE:100CE000F030003C1219CAE07016EF25E02414F829:100CF000E6FC08E6FD1219FDC39DEE9C5063801AC8:100D00009001ABE025E02408F8E6FC08E6FDA3E04E:100D1000FEA3E0FFC39DEE9C50477C007DC8803B56:100D20009001AB121A581219B1D39400EC940050F0:100D3000089000F1E064207028EF25E02408121AE2:100D400012121AA6C39FEC9E5017ED9400EC64801B:100D50009480400D1219FD7C007D0A120CB8121B04:100D6000441219CAE06074EF121A401219A04E70B2:100D7000119001ABA3E0FCA3E0FD12167E121B4410:100D8000802F121993FF121AA6123B08D3EF943248:100D9000EE9400401C121A3B1219B1D394C8EC9483:100DA00000400EEF121A40F58374FF75F09C120C90:100DB000EE121993FF7C007D07120FE5ECF8EDF9B8:100DC000EEFAEFFB1219FDEE3395E0FDFC120E007A:100DD000E47B08FAF9F8120EA680031219FD9001BF:100DE000ABE025E02434F582E43401121A2712190D:100DF00093FFD39405EE9400400EEF9410EE940010:100E000050069001ACEE80159001AB121A7E1219BB:100E1000B1FDEF1219972DFFEE3C9001ACF0A3EF5E:100E2000F0D39001ADE094309001ACE0648094F593:100E300040077475F0A37430F0E5DB5404705E1263:100E400019FD90010E1219F5FD121989121B3EEFC2:100E500024A8FFEE8034E5DB540470411219F2FF40:100E6000121989121B93EF121A801219A0FF900118:100E70000E1219F5FD121989121B3E75F002ED12C2:100E8000198C120D2F24A8FFE5F03461FE90010BA0:100E9000120FD375F002ED12198C121B3E22900135:100EA000AEEFF0A3ECF0A3EDF0EF123142E0FEA3C1:100EB000E0FF123B08D3EF9432EE9400401C123155:100EC00012120F96000000001230DEE4F012315CC6:100ED00012313EEEF0A3EFF080431230CDE0FEA3DE:100EE000E0FFD39400EE940040339001AFE0FCA308:100EF000E0FDD3EF9DEE9C400B9001AEE01231057A:100F0000E04401F09001AEE0FF1230D1E0FAA3E03E:100F1000C39DEA9C5007123104E04402F09001AEF8:100F2000E0123117C083C082120F7E12315CE4FCE4:100F3000FD120E00D082D083120F8A9001AEE0FF26:100F4000123165E475F001120CEEEF75F007A42480:100F50004EF582E4343BF583E493FE740193FF90F5:100F600001AEE0FDC454F024D6F582E43401F583EB:100F7000E0FAA3E0C39FEA9E50030218FEED12318F:100F800065E0FEA3E0FFFBEEFAE4F9F89001AEE0C5:100F9000123117120F72120EA69001B1120F8A129F:100FA00030CDE0FEA3E0FFEEC0E0EFC0E012317212:100FB000EFFDEEFCD0E0FFD0E0FE123B089001B563:100FC000EEF0A3EFF09001AEE0FD75F007A4244928:100FD000F582E4343BF583C37401939FE4939E4010:100FE0001FED1230D1E0FEA3E04E60149001AEE0A0:100FF000FB12314FE0FEA3E0C394B8EE940B5021F6:101000009001AEE0FF1230D1E0FCA3E04C7008EF9D:1010100012314FE4F0A3F01231721230CDEE02180B:10102000A8EB6007640160030218AEE49001B7F01A:101030009001B5E0FEA3E0FFD39450EE940040068B:10104000A37408F080329001AEE0123105E0640331:101050006026D3EF943CEE940040089001B77402F0:10106000F08015D39001B6E094329001B5E0940081:1010700040069001B77401F01230CDE0FEA3E0FF0E:10108000E4FCFD123178D3120F4E40119001B7E00D:10109000FF1230CDE48FF0120CEE0218E4D3900171:1010A000B6E094509001B5E0940040581230CDC0A5:1010B00083C082E0FEA3E0FF9001B7E0FDC3EF9D97:1010C000FFEE9400D082D083F0A3EFF08036123090:1010D000CDE0FEA3E0FF4E700D123178EBFFEAFE8B:1010E000E9FDE8FC80167C007D07120FE5123178DF:1010F000120E00E47B08FAF9F8120EA61230CDEEBB:10110000F0A3EFF0123112120F960000000012301F:10111000DEE4F012317212313EEEF0A3EFF0123045:10112000CDE0FCA3E0FDD39400EC940040561231D6:101130005C123B089001AEE075F007A4244BF582E9:10114000E4343BF583D37401939FE4939E400F9066:1011500001AEE0FF1230D1123124E4F0802690017C:10116000AEE0FF75F007A4244DF582E4343BF5832F:10117000E493FE123130E0C39E50091230CD12319B:1011800024E004F012315C22900108120FD3900188:10119000ABE0FF75F002A4F58285F083120D2FFD00:1011A000ACF0900102120FD3EF75F002A4F5828526:1011B000F083229001ABE025E02434F582E4340191:1011C000F583E0FEA3E022EF25E02400F582E4347D:1011D00001F583E0FCA3E0229001ABE075F00AA4E6:1011E000243DF582E43401F583229001ABE0FF2435:1011F0003CF582E43401F58322EE8FF0120DD3ED3D:1012000075F00AA42443F582E43401F583E4F0A3E5:10121000F022900105120FD39001ABE0229001ACB7:10122000E0FEA3E0FF2275F00AA4240AF8E52225D7:10123000E028F8E6FE08E6FF22120F72900108127D:101240000FD39001ABE022F583EEF0A3EFF022750F:10125000F00AA42441F582E43401229001ABE0FFBE:1012600025E02415F582E43402229001ABE025E06C:101270002478F582E4340122E0FF25E02413F5828E:10128000E43402229001ACE0FFC3940174809480A6:1012900022EF25E02470F582E43401F58322E0FF9B:1012A00025E02430F582E4340122120D2FC39DFE87:1012B000E5F09C9001ACF0A3CEF022ED25E0249B5C:1012C000F582E43401229001ACE0FCA3E0FD22258C:1012D000E0247AF582E434012225E02468F582E4F2:1012E00034012225E0246AF582E4340122F583E406:1012F00075F001020CEEEFF0D390020CE094009038:10130000020BE094002225E02499F582E4340122C6:1013100025E02411F582E43402229001ABE0FF25A0:10132000E024A3F582E4340122FDEF25E02476F5E4:1013300082E43401F5832224A9F582E43401F583A3:1013400022EC8DF0020DD3C3E522940474809480C6:1013500022120D2FC39DFFE5F09CFED3EF22EE8FEE:10136000F0020DD3EE9001ACF0A3EFF022E0FD25EA:10137000E02400F582E434012275F00AA42445F546:1013800082E434012275F00AA42443F582E4340196:1013900022900105120FD39001ABE0FF2290020DC5:1013A0007403F0A37420F022EB25E02466F582E4B8:1013B000340122E4F5F0020DD325E02432F582E475:1013C00034012275F002020FC7120D2FFDACF0227E:1013D000E49001ACF0A3F0122C84D390020CE094C2:1013E0000090020BE094004003021DF29001851270:1013F0000F7E90011DE0FEA3E0FFE4FCFD120E0055:10140000900185120F8A900189E475F001120CEEAB:10141000C390018CE0946490018BE094005003022F:101420001C7F900185120F72ECC0E0EDC0E0EEC0B1:10143000E0EFC0E0900189E0FEA3E0FBEEFAE4F902:10144000F8D0E0FFD0E0FED0E0FDD0E0FC120EA628:10145000900185120F8A900185120F72900183EE20:10146000F0A3EFF0A3120F9600000000E4900189B2:10147000F0A3F0A3F0A3F090020BE07002A3E070E1:101480001E9001ABF01226DB5015EF1226EE12264D:10149000164E7003121DF39001ABE004F080E6E4F9:1014A0009001ABF01226DB4003021DF2743C2FF5D5:1014B00082E43401F583E0FF60239001ABE0FE128B:1014C000267D12270F4C701590011DE0FCA3E0FD56:1014D000EE12267DF583ECF0A3EDF08022EF701F75:1014E0001226E89001ABE0122624C39496E5F0940E:1014F00000500C122678122671122687122671903F:1015000001ABE012267D122616FF4E7003021DE984:1015100090011DE0FCA3E0FDC3EF9DFFEE9CFE12D9:101520003B579001ACEEF0A3EFF012267812270F94:1015300090011D1226F840139001ACE0FCA3E0FDE1:10154000EF122634ECF0A3EDF0801E9001ACE0FE2B:10155000A3E0FFD394C8EE9400400EEE13FEEF1309:10156000FF122630EEF0A3EFF09001ABE0FF122661:1015700034E0FCA3E0D3940AEC94005003021DE98C:101580001226E875F002EF122627D39410E5F094A6:101590002740429001ABE0FB122688122616C39426:1015A00028EE942350639001ABE0FA2428F582E4FE:1015B0003402F583E075F018A4FFAEF0EA12263489:1015C000E0FCA3E0FD120C51EB122688F583EEF04F:1015D000A3EFF080341226E89001ABE0FF1226243E:1015E000D394E8E5F094034020122687122616C310:1015F0009458EE94025012122630E0FCA3E0FD1243:101600002687F583ECF0A3EDF09001ABE004F00247:101610001C84229001AEEFF0E0FF243CF582E4341C:1016200001F583E07003021EBDEF12265312261649:101630004E7026900183E0FEA3E0FF9001AEE0FD36:10164000122653F583EEF0A3EFF012261D1226406A:10165000E5F0F0A3EFF0021EDD9001AEE01226539C:10166000122616FF900183E0FCA3E0FD123B0890D8:101670000193120FD39001AEE0FD1226ABEE8FF076:10168000120DD3747D2D122699E0703190019312C2:101690002620C3940CE5F09400500E12261D12264D:1016A00040E5F0F0A3EFF08014E4FFEF1226E050E5:1016B0000C747D2F1226997401F00F80EE12264EC5:1016C00012270F9001831226F8400A747E2F1226EB:1016D000C8E4F080281226C27401F0802012264E41:1016E000122671EF122642E4F0A3F0747D2F122629:1016F00099E4F0EF12266812265D122671122692E6:10170000E0700302203212260CD39400EE940050B5:10171000030220321226E89001AEE0FD122624FFDB:10172000AEF0122641E0FCA3E0FD123B089001AFB1:10173000EEF0A3EFF0900197EEF0A3EFF01225F496:10174000D39DEE95F0400CD39001B0E0945A122650:10175000BB50151225F4C39DEE95F050569001B084:10176000E094961226BB404B122692E4F0EF12262C:10177000531226711226E8EF122624FF9001AEE0E4:10178000FD122642E0FAA3E0C39FEA95F0500EED69:101790001226EEF583E4F0A374C8F080109001AE39:1017A000E01226EEF5837401F0A3742CF01226C229:1017B000E4F0221225F4D39DEE95F0404FD312268B:1017C000B540499001AEE012265E122616C3947011:1017D000EE941750371226A174FF75F0F8120D67BA:1017E00012265D1227161226D0122616FFC394E881:1017F000EE94035017122704400F1226D1F583747C:10180000FF75F0F8120CEE80031226681225F4C35F:101810009DEE95F0503C1226B540371226A1E47596:10182000F008120D671226D012271612265D122616:1018300016FFC39470EE94175018122704400D122F:10184000265EF58374FF75F0F8020CEE12265E1228:101850002671229001ABEFF0A37402F0A374BCF0E8:10186000D390019EE0940090019DE09400401D9073:101870000102121A1FFF121989120D2F24C8FDE44C:1018800035F0FC900108121985121B2190020BE023:101890007002A3E0600B9001ACE4F0A37464F080EC:1018A0000B90001AE0641170037420F09001ABE01B:1018B000FB1219CFE0601A9001ABE0FA1219BC12CA:1018C0000F9600000000EA121A2F1219EBEB02210A:1018D000DD1219B8C083C082120F7EE8C0E0E9C0F3:1018E000E0EAC0E0EBC0E0900102121A1F12198971:1018F000120D2FFFAEF0E4FCFDD0E0FBD0E0FAD0FB:10190000E0F9D0E0F8120E00D082D083120F8A9056:1019100001ABE0FF121A2F121ACDEF121B59121948:10192000A0FF9001ACE0FCA3E0FDC3EF9DEE9C5056:10193000030221E31219B8C083C082120F72ECC0F7:10194000E0EDC0E0EEC0E0EFC0E09001ABE0121AC5:101950002F1219A0FBEEFAE4F9F8D0E0FFD0E0FE78:10196000D0E0FDD0E0FC120EA6D082D083120F8A08:10197000121A1C121989120D2F243CFFE435F0FEB7:10198000E4FCFD1219B8120F7ED3120F4E403F90A7:10199000020BE07002A3E070359001ABE0FF121B78:1019A00017E0702A9001ABE0FE121B65121ACDEE13:1019B000121B651219B1D39406EC94004025EF1266:1019C00019BC121A19FD1219891219D98015121988:1019D000B8121A19FD1219891219D974A92D121BDE:1019E00019E4F09001ABE0FB1219BC120F96000055:1019F0000000EB121A2F1219EB9001ABE0121B59E9:101A00001219EB229001ABEFF0121A4E1219A0FF3F:101A1000C39404EE9400502A9001ABE01219A8FD83:101A2000121A71C083C0829001ABE0FFD082D083D4:101A3000121BA3ECF0A3EDF0EF121A4E121ACD0216:101A400022ED9001B07401F09001B0E0FFC3121BD1:101A50002A5038121A71C083C0829001ABE0FED0C8:101A600082D083121BA3E0FCA3E0FDEF25E0246EEF:101A7000F582E43401F58375F002EE120FC7ECF045:101A8000A3EDF09001B0E004F080BD9001ABE01256:101A900019CFE060030222DD900102120FD3900102:101AA000ABE0FD121989120D2FFFAEF0ED1219A84F:101AB000FD123B08C3EF9428EE940050409001AB18:101AC000121B4D1219A0FF900108120FD3ED12192D:101AD00089121BA9123B08C3EF9414EE9400500521:101AE0009001088003900102120FD39001ABE0FF38:101AF000121989120D2F121B09E5F0800C9001AB11:101B0000E0FF1219A8121B09ECF0A3EDF09001AC54:101B1000120F9600000000E49001B0F0121A4A1271:101B200019A0FF9001B0E0FDD3EF9DEE9400403589:101B30009001AC120F7E9001B0E0121A72C083C007:101B4000829001ABE0D082D083121BA3E0FEA3E021:101B5000FFE4FCFD120E009001AC120F8A9001B060:101B6000E004F080B79001AC120F72ECC0E0EDC061:101B7000E0EEC0E0EFC0E0121A4A1219A0FBEEFA44:101B8000E4F9F8D0E0FFD0E0FED0E0FDD0E0FC12B8:101B90000EA69001AC120F8A9001AC020F72D39086:101BA000020CE09F90020BE09E400AA3E09FF090A1:101BB000020BE09EF09002101236CD90020FE09CD6:101BC000400CA3E09FF090020FE09EF08002D28ACA:101BD000D390020EE09F90020DE09E400AA3E09F8A:101BE000F090020DE09EF01236DF5003123717D34B:101BF000900212E09F900211E09E400AA3E09FF045:101C0000900211E09EF0D3900214E09F900213E046:101C10009E400AA3E09FF0900213E09EF0D3900252:101C200016E09F900215E09E400AA3E09FF090020C:101C300015E09EF0D390019CE09F90019BE09E40B8:101C40000AA3E09FF090019BE09EF09002181236EC:101C5000CD900217E09C400AA3E09FF0900217E0AD:101C60009EF01236ED5003123717D390018EE09F8D:101C700090018DE09E400AA3E09FF090018DE09ED0:101C8000F0EF2401FDE43EFCD390016FE09D900154:101C90006EE09C400AA3E09FF090016EE09EF0D3BE:101CA00090019EE09F90019DE09E400AA3E09FF07E:101CB00090019DE09EF01236FB5003123717123749:101CC000095003123717D390012DE09F90012CE0AB:101CD0009E400AA3E09FF090012CE09EF0227B0141:101CE0007A0079007DFF7C00123B1E7B017A01792E:101CF000007DA97C00123B1E7B017A02790A7D10CF:101D00007C00123B1E902DE0E493900001F09000C7:101D1000047411F0A37422F0A37433F0902DE2E464:101D200093900012F0902DE3E493900014F0900053:101D3000FB7401F090004A7411F09000F114F090DF:101D40000024F0A37420F07B017A00793E90010218:101D5000120FDC7A007942900108120FDC7A0079C8:101D600046900105120FDC7A00793290010B120FB8:101D7000DC7A00793A90010E120FDC7A0079369005:101D80000111120FDC7A00796090011F120FDC7ACA:101D9000007980900193120FDC7A00790A90013962:101DA000120FDC7A00791B900136120FDC7A007971:101DB0002A900114120FDC7A007926900117120F75:101DC000DC7A00792E90011A120FDC900114120FA8:101DD000D3E475F0C8120DB4900117120FD3E47557:101DE000F064120DB490011A120FD3E475F096123C:101DF0000DB47514007515C8750800750996900026:101E0000207410F090020B7407F0A374D0F0E490EB:101E1000020AF022900105120FD39001AEE0FF7587:101E2000F002A4F58285F083120D2FFDEF25E0244A:101E300081F582E43401F583E0FEA3E02290010500:101E4000120FD3ED75F002A4F58285F083020D2FF9:101E50009001ABE025E024A1F582E43401F5832272:101E6000FFED25E02481F582E43401F58322900121:101E7000AEE0FF25E0247FF582E4340122EF25E087:101E80002491F582E434012225E0248FF582E434A4:101E900001F583E4F0A3F0229001ABE0FF25E024FC:101EA0009FF582E4340122EF25E024A3F582E43497:101EB00001229001AEE0FF247DF582E43401F58338:101EC00022900108120FD39001AEE075F002A4F544:101ED0008285F083229001B0E094149001AFE094E9:101EE00000229001AEE0247EF582E43401F58322E5:101EF000EF25E0248FF582E43401229001ABE0FF6E:101F0000C394017480948022900105020FD325E0D0:101F1000248DF582E4340122FDE0FAA3E0FBD3ED49:101F20009BEC9A22EF9408EE94009001AEE022F52B:101F300083E0FCA3E022F583E475F008020CEE9048:101F400001B1EFF0902E22E0FF9001B5E4F0A3EF95:101F5000F0758A50902E227401F09001B1E0122D9C:101F6000827404F0A3E4F09001B2F09001B2E0FFBB:101F7000C3940D74809480400302283BEFF87E02E6:101F8000E4088006CEA2E713CE13D8F8FF9001B381:101F9000EEF0A3EFF04E70079001B3F0A304F090C1:101FA0002E207401F0902E20E030E2F99001B1E093:101FB000FF902E00122D85E0FCA3E0D394FEEC945C:101FC000074040122DA8E0FEA3E0FF9001B3E0FC23:101FD000A3E0FDEF2DFFEE3CFEC3EF94FFEE940770:101FE0009001B1E075F002902E10500B120FC7EC6B:101FF0008DF0120CEE8054120FC77407F0A374FF1B:10200000F080489001B1E0FF122D82E0FCA3E0FDDA:102010009001B3E0FAA3E0FBD3ED9BEC9A402112D0:102020002DA8C083C082C3A3E09BFF0582D5820296:1020300015831582E09AD082D083F0A3EFF0800B55:102040009001B1E0122D82E4F0A3F0902E20E4F094:10205000F58D9001B2E004F002274B9001B5A3E0AA:10206000902E22F0758A1022C0E0C0F0C083C0829A:10207000C0D0E8C0E0D2AFD390020CE09400900250:102080000BE0940040031236C6D3900210E0940196:1020900090020FE0940040051236C68002D28AD327:1020A00090020EE0940090020DE09400400312367E:1020B000C61236DF50031236D8D3900212E09400D5:1020C000900211E0940040031236C6D3900214E04F:1020D0009400900213E0940040031236C6D390029D:1020E00016E09400900215E0940040031236C6D327:1020F00090019CE0940090019BE094004003123614:10210000C6D3900218E09401900217E094004003B7:102110001236C61236ED50031236D8D390018EE037:10212000940090018DE0940040031236C6D39001D4:102130006FE0940190016EE0940040031236C6D324:1021400090019EE0940090019DE0940040031236BF:10215000C61236FB50031236D81237095003123616:10216000D8D390012DE0940090012CE0940040031E:102170001236C6D0E0F8D0D0D082D083D0F0D0E0F4:10218000329001AB121AD64003022A7630004290F8:1021900001ABE0121A9C1219A04E9001AB6019E03D:1021A000FF25E02414F87627087610EF25E02408B0:1021B000F8761F0876408045E0FF25E02414F87685:1021C00013087688EF25E02408F8761108769480C5:1021D0002C121AFA1219B124C8FDE43CF8EF25E0DC:1021E0002414C8F608EDF6121AFA1219B12496FD55:1021F000E43CF8EF25E02408C8F608EDF6121B7160:10220000121989120D2FFDEF25E02414121A12C3A2:10221000ED9FE5F09E50249001ABE01219CFE060F5:1022200031121B71121989120D2FFDEF25E02408C0:10223000121A12C3ED9FE5F09E40179001AB121ADF:10224000581219B14C703A743C2F1219D17401F024:10225000802F9000F1E064209001AB7009E0121A29:102260005A1219EB800CE0121A5AF583E4F0A374A9:10227000C8F09001AB1219CDE4F0EF121AF0121968:10228000EB9001ABE01219CFE06003121B7D9001CF:102290003CE090004BF0229001AEE025E025E024E8:1022A000B6F582E43401F58322ED25E02460F58261:1022B000E43401F583E0FEA3E0229001AEE0FF25C7:1022C000E024B0F582E43401F583E0FCA3E02225AC:1022D000E02460F582E43401F583EEF0A3EFF02210:1022E00025E025E02426F582E43401F583229001DF:1022F000AEE0FFC39401748094802225E0245AF557:1023000082E434012225E02468F582E4340122EFDE:1023100025E024A5F582E4340122123AEF758A50B3:1023200075B28F902E207401F02225E0242AF582C8:10233000E4340122F583E4932420F582E4342EF57D:102340008322A3F0902E20E4F0758A1075B29322B8:102350009375F002902E00120FC7E022ED25E024C5:1023600054F582E4340122EF900806939008039319:10237000223EFE7C007D03020C639001AEE004F07F:1023800022F582E43402F583E0FF2225E02424F5DF:1023900082E434012225E02422F582E434012290F3:1023A00001AEEFF0E4F526F525F524F523F526F545:1023B00025F524F523F522121B2750259001AEE0C8:1023C000121A06E4FCFDE5262FFFE5253EFEED355D:1023D00024FDEC35238F268E258D24F523052280C0:1023E000D6E47B04FAF9F8AF26AE25AD24AC23126F:1023F0000EA69001AEE0121AAF121A27E47526A8B5:10240000752561F524F523F522121B2750719001E3:10241000AEE0FD121A06ED121AAF1219B1FD123B11:1024200008D3EF940AEE94009001AEE0FF4008124A:102430001AAF1219B1801175F00AA4240AF8E52226:1024400025E028F8E6FC08E6FDEF25E02454F582B7:10245000E434011219A0FFC3ED9FFFEC9EFE3395FB:10246000E0FDFCE5262FFFE5253EFEE5243DFDE5EC:10247000233C8F268E258D24F5230522022BE9E4AB:102480007F607EEAFDFCAB26AA25A924A823D312EF:102490000F4E400BE47526607525EAF524F523AE52:1024A00025AF2622758D20438D20538D7FE4F5B214:1024B00075B6FF75B7FF75B2A243B20153A8FB53BF:1024C0008B7F758B10438B08E58B20E7030080F82A:1024D000538B7F758B11438B08E58B20E7030080BE:1024E000F8900226E5B5F0A3E5B4F0758B01E4F5AC:1024F000B27F02FE12237E123A9EE4F58D123B79E2:10250000AEF09001A7EEF0A3EFF090011DE0700295:10251000A3E07003022D73120D04FFC390011EE0AF:102520009FFF90011DE095F0FE123B57D3EF940AF8:10253000EE648094804021123B79C390011EE09F9D:1025400090011DE095F05006E475F00180079001C0:102550001D74FFF5F0020CEE90011DE0FEA3E0FFFC:102560007C007D03120FE5ECC0E0EDC0E0EEC0E0C2:10257000EFC0E0123B79AEF0E4FCFDD0E0FBD0E030:10258000FAD0E0F9D0E0F8120E00E47B04FAF9F892:10259000120EA690011DEEF0A3EFF022E0FB9008D2:1025A0000693902E1075F002020FC7E0FEA3E0FF25:1025B0007C007D0A120C51EB25E02447F582E434BF:1025C00001F583E0FCA3E02275F002EF902E1002EB:1025D0000FC7EF25E0246EF582E434012225E024C4:1025E000AEF582E43401F5832225E024ACF582E4E3:1025F0003401F58322E0FFC39401748094802200AB:102600000600AB2374AA7583F5758255A5745575BC:1026100083FA7582AAA574A57583F5758255A522DE:1026200002030AB00BB60CFF090208FF0D770E0477:102630001307141010801500160001929212071152:1026400021100F0404040401010111191010120AD1:102650000A0A030201041234FE123AD57A0179788B:10266000122F0A7A0179707D08122F1E7A0179687B:10267000122F0A7A017966122F147A01796A122FC1:10268000147A01793C7D01122F1E7F04122F26E45B:10269000FFEF121A6950491219A7FD121982121B75:1026A000211219A7FD900108121985121B21900112:1026B00005121985121B9390010B1219857461750F:1026C000F0A8120DD3900111121985746175F0A84C:1026D000120DD390010E121985121B930F022E7149:1026E0007B017A01797D7D167C00123B1E7B017A8D:1026F00001793D7D0A7C00123B1EE4900007F090BA:10270000004A7410F0A3F0121B7D900219E0700FC4:10271000C390020CE094F490020BE09401500A90F4:10272000020B7401F0A374F4F0227B017D027C00A3:10273000123B1E227B017D027C00123B1E227B018C:102740007C00123B1E229001ABEFF0E49001ADF053:102750009001ABE0FF9001ADE0C39F507612082ED0:10276000E49001ACF0121A64506012397D9001AC13:10277000E0FD121AC3121A27ED121AC3F583E0F80E:10278000A3E0FFED75F00AA42412C8F608EFF6EDF9:1027900075F00AA4FF240AF9E4FAFBC0E0C0E0E9FE:1027A000C0E0740C2FF9E49001B1120FDC9001B479:1027B000E4F0A37408F0D0E0F9D0E0FAD0E0FB1226:1027C00037C89001ACE004F0809B9001ADE004F0CC:1027D000022F30E49001ACF0121A64504E122B7F9D:1027E0009001AC121B4D121A27ED121B991219A061:1027F000FFED121AB91219B1FD123B087C007D05DC:10280000120C639001AC121A7EF583ECF0A3EDF08C:10281000EF121AB91219A0FF9001ACE0121B991225:102820001A279001ACE004F0022FB822C0E0C08368:10283000C082C0D075D018D2AFE5DB30E422D20719:10284000C206E5DB30E114123B34E0F5DFEF64074C:102850007069D28A900007F00230BEC2050230C112:10286000E5DB30E52C9000F0E064AA7017758A1063:10287000F5DAC2AFF5B2F5A8F5A9F58B758E01753D:102880008DC080FED204300604C2068054C2078088:1028900050C206E5DB30E125E5DB30E044123B3495:1028A000E0F5DFEF24F9600C24FA60042402700BD9:1028B000D2088007D28A900007E4F0802120050A20:1028C0007816A6DFD205D2068017123B34E5DFF07A:1028D000EF6424700990020D04F0A374F4F07816EC:1028E0000675DBFFD0D0D082D083D0E0329001AE2D:1028F000E0C454F024D4F582E43401F58322EBC41F:1029000054F024D2F582E43401F583E4F0A3F0908E:1029100001AEE0FFC454F024D6F582E43401F5831F:10292000E4F0A3F0EFC454F024DBF582E43401F5C5:1029300083229001AEE0FBC454F024CEF582E4344F:1029400001F58322E0FDA3E09001AFCDF0A3EDF00F:10295000EFC454F024DAF582E43401F583229001C7:10296000AEE0C454F024D8F582E43401F58322C4E7:1029700054F024DCF582E43401F583229001AFE0C9:10298000FEA3E0FF22C454F024D2F582E43401F522:1029900083229001B1020F729001B1020F7E90016B:1029A000477407F0A304F01239F07B017A017954DF:1029B0007D067C00123B1E7F02123A7AE49001AA47:1029C000F09001AA122DD55076123A7A9001AAE021:1029D00090080693FF122D82E0FCA3E0C39405EC5F:1029E0009400400F122DA8E0FEA3E0D394F0EE94E3:1029F0000740179001AAE0FF25E02447F582E43460:102A000001F583E4F0A3F0123A7A902E23E4F090DB:102A100001AA122D7C122D8B2FFFEC3EFE90013966:102A2000120FD39001AAE075F002A4F58285F0831D:102A3000EE8FF0120DD39001AAE004F00231A190C4:102A4000001D7410F022E4FFFD90020FE07004A35B:102A5000E064017011900007E06004D28AE4F0E4C1:102A600090020FF0A3F090013CE0600E900024E093:102A700064106006EF4420FF8004EF4410FF9000D4:102A80004AEFF09000FFE0FC6F605B90004AE0FFCF:102A9000EC6FFE9000FFEFF0208A1BD28A90020FAD:102AA000E4F0A37403F0900210E024FFFB90020F07:102AB000E034FF4B70F0900007E0700790004AE0B0:102AC0005E8013EEF4FF9000FFE05FFDEEFF9000EC:102AD0004AE05FFFED4F900007F090020F7403F0A3:102AE000A374E8F0C28A2275F00E120FC7E0FEA3AD:102AF000E0FFE4FCFD9001BD120F7E120E1B900161:102B0000BAE075F00EA42275F00E020FC775F00E34:102B1000A424F6F582E43401F5832224F2F582E45C:102B20003401F5832224EEF582E43401F583222476:102B3000FAF582E43401F58322120F8A9001C6026D:102B40000F729001BD020F72ED75F005A42484F59B:102B500082E4343BF583E49322EC75F00E020FC758:102B600075F00EA424F7F582E43401F5832224F9EC:102B7000F582E43401F583229001C6020F8A200811:102B8000030233EE3000030233EEC208E49001ABDF:102B9000F09001AB122DD5506BE0FE122D7EE0FCC3:102BA000A3E0FDEE122DBDECF0A3EDF0123A7A9009:102BB00001AB122D7C122D8B2FFFEC3EFE9001AB52:102BC000E0FD122DC9EEF0A3EFF0ED122DC9E0FEED:102BD000A3E0FF900139120FD375F002EDA4F58246:102BE00085F083EE8FF0120DD3ED122DBDE0FEA324:102BF000E0FFED122D7EEEF0A3EFF09001ABE004CC:102C0000F002337190020D7403F0A37420F0227867:102C10007FE4F6D8FD7581260234390200000235C2:102C2000F4E493A3F8E493A34003F68001F208DFF1:102C3000F48029E493A3F85407240CC8C333C45484:102C40000F4420C8834004F456800146F6DFE48038:102C50000B01020408102040809039BAE47E0193F1:102C600060BCA3FF543F30E509541FFEE493A3600A:102C7000010ECF54C025E060A840B8E493A3FAE465:102C800093A3F8E493A3C8C582C8CAC583CAF0A3B6:102C9000C8C582C8CAC583CADFE9DEE780BE308AFC:102CA0007CD390020CE094E890020BE09403506D0A:102CB00090016EE07002A3E07063F5B2758D204361:102CC0008D20758D8043A808D2AFF58B90012CE044:102CD000FEA3E0FF4E6005758E508003758EFE20CA:102CE000042F20072CE5DB54047026758A84200706:102CF00020E5DB5404701AF5867587030000007523:102D00008601EF4E60047F5080027FFE7E0012231A:102D10007E758B01758A1053A8F7123A9E227B01AB:102D20007A0179EE7D1C7C00123B1EE4FDEDC3941C:102D300002748094805062E49001AAF09001AAE0AD:102D4000FFC3940174809480504B123328FEED75BC:102D5000F00EA412334EEF12333AEEF01233280481:102D6000F87E007401088005C333CE33CED8F9FF56:102D7000ED75F00EA412330FC083C0829001AAE05B:102D8000D082D0831232E7EEF0A3EFF09001AAE0F8:102D900004F002351C0D02350D22900020E0642065:102DA00070037421F0900136120FD3120D046410D9:102DB00045F0700312393A900001E064AA700312E2:102DC000366B12381920090890001AE06410700F51:102DD00090001A7411F0C209E490020A123B639049:102DE00000FBE06006E4F090020AF090016EE070F3:102DF00004A3E06401700D90016EF0A3123B63E444:102E000090020AF030040CC20490020D7401F0A389:102E100074F4F02253A87F123ABA1224BE123A2652:102E200012080E43A880E4F58D12357A90020AE06C:102E300014601614601E24FE603E240470E81231F3:102E40007E90020A7401F080DD122E3690020A7420:102E500002F080D212371D900020E0FF642060084D:102E6000EF6421600312347E900025E0641070B698:102E700090020A7404F080AE1238AE900025E0642F:102E80001060A390020A7401F0809B9001AA74085C:102E9000F0A3E4F0A3743FF0A374DFF0E4FDFCF9C9:102EA000123B42009001AAE0FEA3E02DF582EE3C29:102EB000F583E493FF69F90DBD00010CBC37E5BD56:102EC000DFE29001ACE0FEA3E0F5828E83E493FFA5:102ED000E96F70089000017406F08005E49000012D:102EE000F0123B42002274FFF5F0020CEEEF2401D9:102EF000FDE43EFCD3E09D22E475F001020CEEC33C:102F0000900146E094BC900145E0940222C39001F8:102F10008CE0946490018BE0940022C39001DDE08A:102F200094B89001DCE0940B22C39001D7E094F4B4:102F30009001D6E0940122EE8FF0020CEE7F011298:102F40002F26121BB0E49001AAF09001AA121A6772:102F5000503B1238649001AAE0FF1221E4EEFCEF2E:102F6000FD900102120FD39001AAE0FF12198912FD:102F70001B2112134E9001AAE0FF1229619001AAB1:102F8000E0FF1220339001AAE004F080BD12322647:102F900002335EE4FEEEC3940774809480502FEEFB:102FA00025E025E0241BF582E4342EF583E5822F0D:102FB000F582E43583F583E493FDEE25E025E024F6:102FC0001AF582E4342E122B14EDF00E80C7EF7048:102FD00016EF25E02447F582E43401122A934E705F:102FE00006902E217412F0229001B6120FDC90018F:102FF000B1120FD39001B9120FDC9001B4E070024E:10300000A3E060349001B9120FD3120C26FF900197:10301000B6120FD3EF120C3F9001B7E475F0011216:103020000CEE9001BAE475F001120CEE9001B4744C:10303000FFF5F0120CEE80C222900013E0FF900228:103040001AE06F600CEFF09002177402F0A374584E:10305000F0900217E07004A3E06401702690021A59:10306000E0FF7E0064107002D200EF64204E700218:10307000C200900025E064106002D209E4900217BB:10308000F0A3F022EF25E02454F582E43401122D60:10309000A1243CFDEC34F6FCEF25E02468F582E445:1030A0003401F583E0FAA3E0C39DEA9C5016122D8B:1030B000B2122DA14C7016122DB2F5837401F0A33B:1030C00074F4F022122DB2F583E4F0A3F022900004:1030D00025E06410703FF5B2758D20438D20538D2F:1030E0007F53A8F7F58BE5DB54047013200710F528:1030F0008AF586758703000000758601758A10754C:103100008B019002197401F090020D7403F0A37406:1031100020F0123A9E22C2D5E830E70FB2D5E4C3C0:103120009BFBE49AFAE499F9E498F8EC30E717B2DB:10313000D512392C120EA6E4C39BFBE49AFAE4994B:10314000F9E498F88003120EA630D50DE4C39FFF72:10315000E49EFEE49DFDE49CFC22E49001AAF0A321:10316000F0123B4200122DE475EA81E4F5F6F5F425:1031700075F308F5F275EB0700E5EC30E7FBAFF30C:10318000EFFEADF2EDFF900136120FD3EE8FF0128D:103190000DB4E4F5EC75EB30123B420022EFFB126C:1031A0001AB91219A0FF121B88121A27EB121AC3A0:1031B0001219B1FDECC0E0EDC0E0121B881219A09D:1031C000FFE4FCFD9001BD120F8AEB9001C1F0D02D:1031D000E0FDD0E0FC7F01021012C107410228058A:1031E000C10841021C0041021B00C103C101C10012:1031F000C10241021A00C105011600C104C1064105:1032000001A9004100FF10C1094302230102260069:10321000E4FFEFC3940D748094805021EF25E024E7:1032200001F582E4342EF583E493FEEF25E02400DB:10323000F582E4342E122B14EEF00F80D5902F5629:10324000E0902E2BF022E4F5DA75DA4043DA2030F4:10325000880875D74075D640800675D74275D64226:103260005392FE75DA5843A80275B80275F8022227:103270009001AEEFF0E075F010A424CEF9740135A2:10328000F0FA7B017D107C00123B1E9001AEE01233:10329000314F740BF0A374B8F0229001B0EFF0122C:1032A0003AEF9001B0E0FF1237739001B0E0900860:1032B0000693FF12271F9001B0E0FF023B6EE5B2BC:1032C00054016006E5A85410700F75B29275B6F9F6:1032D000E4F5B743B20143A81022758A10538AEF70:1032E000758601758F05E4F5AB75AC0F75913E756C:1032F0009201D28A227B017A01795A7D067C0012E2:103300003B1E7B017A0179607D067C00023B1EEF4B:10331000F87401088002C333D8FC42AB122B47F487:10332000529152935391DF22D3EF9DEE9C4007EFD1:103330009DFFEE9CFE22C3ED9FFFEC9EFE22ED4C16:103340006011E4120C3F0429F9E43AFAED1D70EE25:103350001C80EB227816E6FF2400F582E43400F5A9:103360008322758A10538AEF22009600960701F493:1033700000000000000000EE30E707C3E49FFFE418:103380009EFE22F090019D04F0A374F4F022122B13:10339000474291428843912022900223120FD31278:1033A0000D04FF2204001E00190100140014000087:1033B000000000000000000000000000000000000D:1033C00000000000000000000000000000000000FD:1033D00000000000000000000000000000000000ED:1033E00000000000000000000000000000000000DD:1037F000000000000000000000000000000000BF0A:1038000000000000000000000000000000000000B8:1038100000000000000000000000000000000000A8:00000001FF