:1000000008200300811F0200451E0200491E020055
:100010009D1F0200A11F0200A51F0200000000009A
:10002000000000000000000000000000A91F020006
:10003000AD1F020000000000FD1F0100D7C101003C
:100040000000000000000000B11F0200FD1D0200C2
:100050002D0702000000000000000000000000006A
:100060000000000000000000891F020000000000E6
:100070000000000000000000FD3F01000000000043
:100080000541010047410100C51C0200C51C0200DA
:10009000F51B02000000000000000000000000004E
:1000A000F8B500224FF41261DFF8600B02F0E0F9BE
:1000B000DFF85C4B0022102104F1200002F0D8F997
:1000C000DFF8505B0022182105F10C0002F0D0F996
:1000D0000022082104F1300002F0CAF900220821B0
:1000E00004F1380002F0C4F9002020646064A064C8
:1000F000E0646862A862E862DFF81C6B7063B0635A
:10010000F0632863306470646863A863E863012067
:1001100028640020B064F0644FF0FF306864A86485
:100120000020E864306520657065F06530667066B3
:10013000B066B06202462821304602F099F90020EC
:1001400070600220308100203060DFF8D07A0246F3
:100150000C21384602F08CF9DFF8C40A7860DFF829
:10016000C40A386001203872002028702865688031
:10017000A880E8806065F066A060A065F0626865B0
:10018000A8656066A066E066706730676866286686
:10019000E86501202867E866A8660020E867A86788
:1001A0006867062030860020F067B0672067DFF8B8
:1001B000DC0DE065002020660120A081962068818A
:1001C000062070860C20E0810020B06502464021A8
:1001D00007F10C0002F04CF900220621204602F043
:1001E00047F90022102104F1100002F041F900202B
:1001F000E0616067F1BD10B584B0DFF8204A0C22E1
:10020000214600A802F072F9FFF74AFF0C2200A96C
:10021000204602F06BF91FBD2DE9F0472DED0C8B48
:1002200090B00024254600A821460A460B460EC081
:10023000302102F093F99FEDA98ADFF8D46996ED99
:100240001B0AD6ED140AC6ED1B0ADFF8CC7997ED30
:10025000149A86ED149ADFF8BC8998ED131AB8EE5B
:10026000411ADFED9F1AC1EE819AC7ED149AD8F8B2
:100270004420D8F83490A9EB0200FA30FA21B0FB00
:10028000F1F1FA2303FB110080B2002800F0228470
:100290004C2803DAD8F84010012906D12046F8622C
:1002A0000220A8F8080000F015BCD7F84CA0BAF15D
:1002B000040F24D3F4EE490AF1EE10FA1FD5B4EE80
:1002C000699AF1EE10FA1AD59FED861A20EE811A7E
:1002D000B4EE691AF1EE10FA11D59FED831AF4EE1F
:1002E000419AF1EE10FA0ADB87ED149AC6ED140A72
:1002F00086ED1B0A0320A8F8080000F025BC97ED46
:100300000DAA87ED0EAAD7ED10AAC7ED11AA0146D6
:1003100000EE101AB8EE400AD8ED0B8AC8EE800A3B
:1003200098ED0C1A81EE001A21467963396420E0B9
:10033000521C92B2FA2A00D12246DFF8D03803EBE1
:100340008203D3ED231A71EEE01AD3F8743402EE6F
:10035000103A32EE412AD7ED0D2A41EEA12AC7ED1F
:100360000D2AD7ED101A42EE021AC7ED101A491CD9
:1003700089B28142DCDBD7ED0D0A80EE80BA87EDD1
:100380000DBAD7ED100A80EE80CA87ED10CAD6EDFF
:100390001ABA98ED160AD8ED150A70EEC0CAF5EE35
:1003A00040CAF1EE10FA02DDC6ED1ACA03E030EEE3
:1003B000600A86ED1A0A00F0ADFF012802D120463E
:1003C000F86287E3BAF1000F0BD1B88D052802DB84
:1003D00005462046B885F88D052802DB45192046DC
:1003E000F8851AFA85F0002827D1B6EE00DA3CEE3F
:1003F0002A0A20EE0D0ADFEDA10AB4EE600AF1EE42
:1004000010FA11D43BEE0A0A20EE0D0ADFED9C0A29
:10041000B4EE600AF1EE10FA06D4B3EE040AF4EE7C
:1004200040CAF1EE10FA08D5B88D401CB885C8F85E
:1004300048900620A8F808004CE3B88D002802D0A8
:1004400045192046B8851AFA85F000281BD1B7EE69
:10045000000AF4EE409AF1EE10FA03D50720A8F84E
:10046000080037E39FED870AF4EE409AF1EE10FAA8
:1004700006DBF88D401CF8850820A8F8080029E361
:100480002046F88503E0F88D45192046F885284672
:1004900080B200F0E3FF012808D187ED149AC7ED80
:1004A00010AAC6ED1ABA87ED0DAA13E39FED760ADE
:1004B000F4EE409AF1EE10FA02DBDFF8380C386502
:1004C0002046B885BAF1000F10D1386D786587EDF8
:1004D0000FBAB06E706600F0B5FE40E0000000009C
:1004E00000007A446666E63F01004040B6EE00DA5E
:1004F00000F0A8FE012816D197ED140AF0EE000ACC
:1005000020EE200A87ED140A6BEE0D0AC7ED0D0AE6
:100510002CEE0D1A87ED101AC7ED0E0A87ED111A91
:1005200086ED140A6D1C97ED140AD6ED140A30EE10
:10053000200A20EE0D0A87ED150A97ED0D0AD7ED7A
:100540000E0A30EE200A20EE0D0A87ED0F0A96ED16
:100550001A0A3BEE800A20EE0D0A86ED190A98F879
:100560000100012840F0AB82D8F80C00009000A8F0
:10057000D8F810104160D8F814108160214617E0B7
:1005800000AB03EB820393ED010A50F822C000EEAA
:1005900090CAB4EE600AF1EE10FA05D500EB820CB9
:1005A0008CED000AC3ED010A521C022AE8DB491C4B
:1005B000022901DA2246F8E79DED000AB5EE400A6D
:1005C000F1EE10FA2AD5B5EE400AF1EE10FA01DC90
:1005D000B1EE400AD0ED020A30EE800A80ED020A48
:1005E0009DED000AB5EE400AF1EE10FA01DCB1EE25
:1005F000400AD0ED010A30EE800A80ED010A9DED3F
:10060000000AB5EE400AF1EE10FA01DCB1EE400A44
:10061000DDED000A30EE800A8DED000A90ED010A52
:10062000D0ED020A30EEC01ADDED000A30EE600AAD
:10063000B4EE401AF1EE10FA05D5F0EE410AB0EE34
:10064000401AB0EE600AD6ED0C0AC6ED0D0A31EE86
:10065000400A80EE010A9FED0D1A20EE010A86ED98
:100660000C0AB06BF063F4EE400AF1EE10FA0FD50D
:1006700070EE600AC6ED0E0A0EE000BF00001643E1
:100680000000A042666616400100A0400000C8427B
:1006900070EEC00AC6ED0E0A386F796F081800EBCD
:1006A000D070401002EE100A86ED102AC6ED118AB5
:1006B000D7ED100AC6ED120AD7ED141ADFF8500C68
:1006C000C0EDC41A96ED131A31EE611AD6ED132A55
:1006D00072EEE12A21EE221A00F5447181ED011A31
:1006E000C6ED131AD7ED1B1AC1ED021AD8F818106F
:1006F000039103A9C1ED011AC1ED020AC1ED038AFC
:10070000C1ED041AC1ED058AC1ED061AB8EEC22A80
:1007100081ED072AC1ED081A81ED090AC1ED0A1A17
:1007200081ED0B1ADDED032A9FEDD03A62EE832AAC
:100730009FEDCF3A41EE832A9FEDCE3A20EE833AE9
:10074000DFEDCD3A08EEA33ADFEDCC3A61EEA33A05
:100750009FEDCB4A48EE843A9FEDCA4A21EE844A87
:10076000DFEDC94A02EE244ADFEDC84A61EEA44A31
:100770009FEDC75A40EE054A9FEDC65A21EE855AB5
:10078000DFEDC55A01EE255AF8EE085AF4EE652A57
:10079000F1EE10FA00F19381DFEDC05AB4EE653A44
:1007A000F1EE10FA00F18B81DFEDBD5AF4EE653AFF
:1007B000F1EE10FA00F18381DFEDBA5AB4EE654A2A
:1007C000F1EE10FA00F17B819FEDB76AF4EE464A34
:1007D000F1EE10FA00F173819FEDDE6AB4EE465A35
:1007E000F1EE10FA00F16B81DFEDDB6AF4EE662AC0
:1007F000F1EE10FAC0F26381DFEDD82AB4EE623A6E
:10080000F1EE10FAC0F25B81F4EE653AF1EE10FA07
:10081000C0F25581B4EE464AF1EE10FAC0F24F81B3
:10082000F4EE654AF1EE10FAC0F24981DFEDCC2A10
:10083000B4EE625AF1EE10FAC0F24181DFEDC92A3E
:100840009DED033AB4EE623AF1EE10FA01D5CDED2A
:10085000032ADDED032A9FEDC43AF4EE432AF1EEBC
:1008600010FA02DBDFF8E82B0392DFEDD52AF4EE75
:10087000621AF1EE10FA01D5C1ED012A9FEDD13ACD
:10088000DFEDBA3A91ED014AB4EE634AF1EE10FAA7
:1008900001DB81ED013A9FEDB64AF4EE440AF1EE38
:1008A00010FA01D581ED024AD1ED020A9FEDB14A5D
:1008B000F4EE440AF1EE10FA02DBDFF8982B8A60BE
:1008C000DFEDC10AF4EE608AF1EE10FA01D5C1ED58
:1008D000030A9FEDBE4AD1ED034AF4EE444AF1EE1D
:1008E00010FA02DBDFF8702BCA60F4EE621AF1EE48
:1008F00010FA01D5C1ED042AD1ED044AF4EE634AA1
:10090000F1EE10FA01DB81ED043AF4EE608AF1EECB
:1009100010FA01D5C1ED050AD1ED050AF4EE440A3D
:10092000F1EE10FA02DBDFF8302B4A61F4EE621AC6
:10093000F1EE10FA01D5C1ED062AD1ED060AF4EE6A
:10094000630AF1EE10FA01DB81ED063AF1EE000ADE
:10095000B4EE602AF1EE10FA02D54FF08142CA617E
:10096000D1ED070A9FEDA32AF4EE420AF1EE10FA48
:1009700002DBDFF84C2CCA61F4EE621AF1EE10FAD9
:1009800001D5C1ED082AD1ED080AF4EE630AF1EEB3
:1009900010FA01DB81ED083ADFED970AB4EE600A48
:1009A000F1EE10FA01D5C1ED090A91ED090ADFED6A
:1009B000930AB4EE600AF1EE10FA02DBDFF8442C81
:1009C0004A62F4EE621AF1EE10FA01D5C1ED0A2A7C
:1009D00091ED0A0AB4EE630AF1EE10FA01DB81ED43
:1009E0000A3AB5EE401AF1EE10FA01D52246CA6273
:1009F00091ED0B0ADFED820AB4EE600AF1EE10FA17
:100A000002DBDFF8042CCA62214612E01B1FD3ED83
:100A1000000A92ED031AF4EE410AF1EE10FA01D544
:100A20009FED780AB8EEC00AD2ED020A00EE208AE5
:100A3000491C31293ADA9FED740A0B011A18D2F8D1
:100A400004C0BCF1010F0DF10C0C1B580CEB83031F
:100A5000DCD11B1FD3ED000A92ED031AF4EE410A1C
:100A6000F1EE10FADEDB9FED670ADBE7168733BD98
:100A7000B0568DBD03275BB9E23C9CB9983115BED9
:100A8000BF49D3B97061FDBD55C128BC36CB05BE89
:100A90003D7FDABBDDED0ABEE4BE353E6666A6BF2D
:100AA0003333F3BFCDCC4CBFCDCC8CBFB5EE408A39
:100AB000F1EE10FA03DD0F20A8F808000AE097ED28
:100AC000150A284680B200F0AFF800F055F8044649
:100AD000C8F84890C8F844900020C8F84C00C8F8FE
:100AE0002C00C8F83000C8F840000246102106F17A
:100AF000200001F0BDFC00220C2108F10C0001F0E7
:100B000031FDDFF88804F06500203066F8880028A1
:100B10001AD1F86F00280CD0B86CF968401A398ED9
:100B2000B0EB510F02DB002038810DE0012038814D
:100B30000AE0B88DF98D11FA80F0032802DB01205C
:100B4000388101E002203881204610B0BDEC0C8BCA
:100B5000BDE8F087333333BFCDCC0CC09A9919BFB1
:100B6000CDCC4CBE5017C93FC9AC454216E66840D3
:100B70007D90A341A2F2924438B50025DFF81C4CC9
:100B80000120E06700F01EFD2060E06C218E8842AD
:100B900014D3A06CE060208DA080608DE080A06DFB
:100BA0006061E06DA061206EE061606E2062A06E09
:100BB00060620120A0672846E0670125284632BD13
:100BC000A9F56E3E15E66840BA9F17443564EC44BB
:100BD0001148C16881640021C16441600221018122
:100BE00000218162C1690166416A81660021C16795
:100BF00070470000010058427B4D4F3D47FFC74200
:100C0000BEBA984101000000FFFFFFFF5C6C0300CB
:100C10003063030030620300B062030014BE0300BF
:100C200000002F43000070422DE9F84F2DED048B9A
:100C300082B08346002213461046DFF8604BE56C15
:100C400005F10F0101F00F01EE1D06F007060096F9
:100C5000DFF8506B06EB810787ED030ABBF1000F4D
:100C600018D0074614E0A1F1010CACEB070C0CF115
:100C7000100C4FEAEC0E0CEB1E7E4FEA2E1EBCEB66
:100C80000E1C03D406EB8C0C8CED030A7F1C3FB2C8
:100C90005F45E8DB102D02D2294609B200E00F21A2
:100CA0009FEDBB8ADFEDBA0A9FEDBA1A07461BE03B
:100CB00006EB810CDCED031AF5EE401AF1EE10FAAA
:100CC00010DD38EE218AF4EE610AF1EE10FA01D55A
:100CD000F0EE610AF4EE411AF1EE10FA01D5B0EE31
:100CE000611A7F1C491E09B20029E1D53FB239467D
:100CF00003290BDB78EE600A70EEC10A891E01EE53
:100D0000101AB8EEC11A80EE818A07E0012905DBCE
:100D100000EE907AF8EEE00A88EE208AB5EE408A7E
:100D2000F1EE10FA01D0002F01D1B0EE408A84ED2F
:100D3000168A9FED990AB4EE408AF1EE10FA02D5B8
:100D4000B0EE408A08E09FED950AB4EE408AF1EEDD
:100D500010FA01DBB1EE028AB0EE040AB4EE408A6A
:100D6000F1EE10FA08D494ED1B0AF0EE080AB4EE86
:100D7000600AF1EE10FA02D50321218501E0042179
:100D80002185A76C07F00709DFF8208A09EB080E18
:100D9000218D8EF8B818BBF1000F0BD0A7F1010C14
:100DA0000CF0070CC44407F0070AC2449AF8B8A82C
:100DB0008CF8B8A84FF0080C10E0BAF1040F00D17D
:100DC000401CA9F101090FFA89F9B9F1000F01D509
:100DD00009F10809ACF1010C0FFA8CFCBCF1010F10
:100DE00016DB0FFA89F909EB080A9AF9B8A8BAF1E3
:100DF000030F01D15B1C03E0BAF1040F00D1521CB8
:100E0000BCF1060FDDDBBAF1030FD6D1401ED8E7E7
:100E1000B4F82AC092B29BB29A4207D3934202D24C
:100E2000042060850DE000B2002802D50320608513
:100E300007E0012802DB0420608502E09EF9B80883
:100E40006085B4F82A90B9F1040F01D1104600E092
:100E50001846CC4509D000202081E088002820D108
:100E6000042D1ED3012020811BE012FA83F2012AF7
:100E700015DB052A10DB00EE102AB8EEC00AF6EEEC
:100E8000080A20EE200A00EE900AF8EE600AF4EE5E
:100E9000400AF1EE10FA02D50120208101E0022083
:100EA000208149B2B0EE480A304600F025F9DFED66
:100EB000900AB4EE600AF1EE10FA01D5B0EE600AC5
:100EC00084ED170A584600F1010A00EE90AAF8EEE8
:100ED000E08AD4ED180A48EE800AC4ED180A9FEDA6
:100EE000CE9A20EE080A20EE090A009908EB81014B
:100EF00001F65C0181ED000ABBF1000F1AD04FF042
:100F0000000C15E00099491EA1EB0C0108318A1074
:100F100001EB5272D210B1EBC20105D408EB810192
:100F200001F65C0181ED000A0CF1010C0FFA8CFC5A
:100F30008445E7DB082D02D2284600B203E00720F3
:100F400001E0401E00B20028FBD584ED190A494695
:100F500049B2304600F048F968EE090AB7EE001AC7
:100F6000C1EE200A20EE800AD4ED1A0A48EE800A6B
:100F7000C4ED1A0A0AEB0700A0640AEB0500E0645E
:100F800002B0BDEC048BBDE8F18F000000007A4494
:100F9000000000000000C8426666A63F01009040C5
:100FA00049B2032944D1DFED9D0AB4EE600AF1EEA7
:100FB00010FA01DBB0EE600A9FED991ADFED990A95
:100FC00040EE010A90ED011A9FED970AB4EE401A27
:100FD000F1EE10FA43DADFED951AB4EE611AF1EE94
:100FE00010FA74DBB4EE401AF1EE10FA6FD59FEDF3
:100FF000900A31EE000ADFED8F1A60EE211A9FEDA4
:101000008E0A9FED8E2A01EE002A22EE200A20EEA3
:10101000210A9FEDB72ADFEDB72A41EE022A62EEE0
:10102000A00AB7EE001A31EE611A00EE810A56E00E
:10103000DFED830A60EE200A60EE800A9FEDAE1AB3
:1010400040EE410A9FEDAD0A70EE800A90ED011A64
:101050009FED750AB4EE401AF1EE10FA0ADB90ED3E
:10106000010A9FED751ADFED751A40EE011A21EEA7
:10107000A00A34E0DFED6D1AB4EE611AF1EE10FA59
:1010800025DBB4EE401AF1EE10FA20D59FED680A88
:1010900031EE000ADFED671A60EE211A9FED660A55
:1010A0009FED662A01EE002A22EE200A20EE210A98
:1010B0009FED8F2ADFED8F2A41EE022A62EEA00A11
:1010C000B7EE001A31EE611A00EE810A07E090EDEA
:1010D000010A20EE800ADFED8A0A20EE200A007A5B
:1010E000022803D1DFEDD10A20EE200A704700006C
:1010F000CDCC4C3E0000A04010B52DED028BB0EEE3
:10110000408A0C46DFED7F8A49B2FFF749FF64B29F
:10111000042C31D1DFED7C0AB4EE608AF1EE10FAD6
:1011200016DBB1EE021AB4EE418AF1EE10FA0FD5D9
:10113000DFED760A78EE200AB1EE041A60EE810A3D
:10114000FCEEE00A10EE900AC01D08EE900A3DE0A9
:10115000B4EE608AF1EE10FA03D5072008EE900A8B
:1011600034E0F1EE020AB4EE608AF1EE10FA2DDB03
:10117000122008EE900A29E0F7EE080AB4EE608A21
:10118000F1EE10FA11DBDFEDAA0AB4EE608AF1EE9F
:1011900010FA0AD5FFEE080A78EE200AB1EE041A1A
:1011A00060EE810AFCEEE08A10E0F7EE080AB4EE89
:1011B000608AF1EE10FA09D4DFED9D0AB4EE608A80
:1011C000F1EE10FA02DB062008EE900ADFF8FC0CC4
:1011D00018EE901A00EB8100D0ED000A20EE200AF4
:1011E000BDEC028B10BD0000F0EE0C0A49B20429E0
:1011F00004D19FED901A40EE010A03E09FED8E1A94
:1012000040EE010A9FED8D0A20EE800AD0ED000A23
:1012100020EE200A70470000000070429A991940A1
:101220006ADEF13D8638163F00002A43000016436F
:10123000000016C3CDCC4C3D4260E53A6666263FC1
:101240002575C23E0020DFF8541591ED140AF7EE23
:10125000040AB4EE600AF1EE10FA47DADFF8702CF7
:10126000D288042A42DAD1ED150A9FED751A60EE94
:10127000810AB4EE600AF1EE10FA03D5022A01DB0E
:10128000012012E0DFF84C1C91ED0B0ADFED6D0A36
:10129000B4EE600AF1EE10FA07DBDFED6B0AB4EE94
:1012A000600AF1EE10FA00D5012001281ED1DFF806
:1012B000241C91ED170AD1ED180A70EEC00A9FEDBB
:1012C000631AF4EE410AF1EE10FA07DBF7EE080AB2
:1012D000B4EE600AF1EE10FA00D50020DFEDC50A89
:1012E000B4EE600AF1EE10FA00D50020704700005D
:1012F00052491D3BB81E053F7593E83F2497534064
:10130000C1C0C03B0000000066660640666606C0BD
:10131000605503000021DFF88424538D032B1FDA6E
:1013200092ED140ADFEDA50AB4EE600AF1EE10FAB0
:1013300016DB92ED0D0AF2EE040AB4EE600AF1EE4D
:1013400010FA0DD592ED100ADFEDAB0AB4EE600A8B
:10135000F1EE10FA04D50421DFF8743B1981012164
:1013600092ED100AF6EE000A92ED111A30EE011A13
:1013700021EE201AF3EE0E1AB4EE611AF1EE10FA15
:101380001CD492ED0D1AD2ED0E1A71EE211A61EEF7
:10139000A01AB2EE042AF4EE421AF1EE10FA0DD4BD
:1013A000F3EE041AB4EE610AF1EE10FA06D4B1EECF
:1013B000040AB4EE401AF1EE10FA04D50521DFF864
:1013C000103B1981012192ED140A9FED8C1AB4EEA5
:1013D000410AF1EE10FA27DBDFF8F82A92ED0A0A4B
:1013E00092ED0B1A80EE010A9FED851AB4EE410AC8
:1013F000F1EE10FA18DB00EE100AB8EE400A20EE0B
:10140000200AD2ED080AF4EE400AF1EE10FA0BD5EC
:10141000D2ED090AF4EE400AF1EE10FA04D50E20DE
:10142000DFF8AC1A08810121084670473333733F57
:101430009A993940CDCC4C3ECDCCCC3D0AD7A33B7C
:101440003333333F010020420000C8420100C03F57
:10145000C8AC4542A1F292443464EC4401460020F9
:10146000CE4AD36C13FA81F102291AD392ED140AF1
:10147000DFED8F0AB4EE600AF1EE10FA11DB92EDA7
:10148000110AD2ED100A80EE200ADFED8A0AB4EECE
:10149000600AF1EE10FA04DB0920DFF8343A188113
:1014A000012002291CD39FED840AD2ED110A92ED8E
:1014B000101AC0EE810AF4EE400AF1EE10FA0FDBCA
:1014C000D2ED0E0A92ED0D1AC0EE810AF4EE400A3A
:1014D000F1EE10FA04DB0A20DFF8F439188101205C
:1014E000002913D0DFF8EC1991ED190ADFEDA50AF8
:1014F00020EE200AD1ED1A0AF4EE400AF1EE10FABD
:1015000004D50B20DFF8C8190881012092ED140AD8
:10151000DFED9D0AB4EE600AF1EE10FA08DA92ED02
:10152000150ADFED9A0AB4EE600AF1EE10FA1EDB3E
:1015300092ED100ADFED960AB4EE600AF1EE10FAB1
:101540000DD492ED0D0ADFED930AB4EE600AF1EED0
:1015500010FA04D4DFF87819C988022907DB518D05
:10156000032904DB0C20DFF868190881012092EDC3
:101570000F0ADFED870AB4EE600AF1EE10FA08D424
:1015800092ED1B0AF1EE040AB4EE600AF1EE10FAD5
:1015900012D5116F526F511800EE101ABAEEEF0A01
:1015A000DFED7D0AB4EE600AF1EE10FA04DB0D20E7
:1015B000DFF81C190881012070470000010000407D
:1015C00000005842002075498A6C12F1640F0FD256
:1015D0009FED730AD1ED180AF4EE400AF1EE10FA0D
:1015E00006DAD1ED1A0AF4EE400AF1EE10FA00DB49
:1015F0000120704785EB113F000020420100404070
:101600003433333F46FFC742BDBA984110B4014658
:101610000020DFF8C028654BD3F8144900EE104ACB
:10162000D1ED000AB4EE600AF1EE10FA08D1147898
:10163000641C1470E4B2FE2C04DB3224147001E04C
:101640000446147003F6141393ED010AD1ED010A58
:10165000B4EE600AF1EE10FA08D15478641C5470AC
:10166000E4B2FE2C04DB3224547001E004465470D2
:1016700093ED020AD1ED020AB4EE600AF1EE10FA1F
:1016800008D19178491C9170C9B2FE2904DB32213E
:10169000917001E0014691701178322905DA517894
:1016A000322902DA9178322900DB012010BC704720
:1016B000010060400100A04001007041014600208F
:1016C00091ED000AB5EE400AF1EE10FA01DCB1EE40
:1016D000400ADFF80028DFED340AB4EE600AF1EECC
:1016E00010FA08DBD3785B1CD370DBB2FE2B04DB73
:1016F0003223D37001E00346D37091ED010AB5EEB9
:10170000400AF1EE10FA01DCB1EE400AB4EE600AD4
:10171000F1EE10FA08DB13795B1C1371DBB2FE2BC0
:1017200004DB3223137101E00346137191ED020AC9
:10173000B5EE400AF1EE10FA01DCB1EE400AB4EE6B
:10174000600AF1EE10FA08DB5179491C5171C9B2F7
:10175000FE2904DB3221517101E001465171D1783B
:10176000322905DA1179322902DA5179322900DB7E
:1017700001207047DFF89C0CC0697047DFF8940CBB
:10178000006970479A99993E01009040010080409D
:101790000000C8430000164301008C42B062030001
:1017A0008096184B14BE030035336B415C6C03000C
:1017B0002DE9F84F2DED068B86B0814688464FF017
:1017C000000A9FEDD88ADFEDD78A9FEDD69ADFED2C
:1017D000D59ADFF8444CE088ADF81000A088ADF849
:1017E00002002089ADF800005046019005464846A9
:1017F000FFF70CFF03904846FFF760FF0290DFF809
:10180000D06628467065B0653081B06EDFF80C7C1C
:10181000D7F8141900EE101AD9ED000A30EEC01AEC
:1018200001EE900AF8EEE11A21EE211AB5EE401A07
:10183000F1EE10FA1BD596ED1D1A70EE411AF5EE79
:10184000401AF1EE10FA01DC71EE401A9FEDB61A63
:10185000F4EE411AF1EE10FA05DB216F491C216705
:10186000F16D491CF16586ED1D0A4042B06607F630
:10187000141090ED010AF16E99ED011A31EE401A43
:1018800001EE901AF8EEE11A21EE211AB5EE401A97
:10189000F1EE10FA1BD596ED1E1A70EE411AF5EE18
:1018A000401AF1EE10FA01DC71EE401A9FED9E1A1B
:1018B000F4EE411AF1EE10FA05DB226F521C22679A
:1018C000326E521C326686ED1E0A4942F16690ED78
:1018D000020A306F99ED021A31EE401A01EE900AB9
:1018E000F8EEE11A21EE211AB5EE401AF1EE10FAE7
:1018F0001BD596ED1F1A70EE411AF5EE401AF1EE67
:1019000010FA01DC71EE401A9FED871AF4EE411ACD
:10191000F1EE10FA05DB216F491C2167716E491C3D
:10192000716686ED1F0A404230673078052805D180
:1019300001203064284630707080B080F06C4044E4
:10194000F064706B716C884201D101203064B06B1F
:1019500000EB400107EB810B0BF6C000C0ED000A65
:10196000D9F804104160D9F8081081604146484612
:1019700000F0B2FA2061DFF85C850398012802D0FC
:101980000298012836D19FED670ADBF8C00800EE07
:10199000900A60EEA00ADBF8C40801EE100A21EEFE
:1019A000011ADBF8C80801EE900A61EEA11A98F856
:1019B0000000322805DA98F80300322801DA30EE08
:1019C000800A98F80100322805DA98F804003228D5
:1019D00001DA30EE010A98F80200322805DA98F8A8
:1019E0000500322801DA30EE210A00F025FDB0EEC4
:1019F00040AA37E00BF50C60D0ED020A90ED011A19
:101A0000DBF8C00800EE100A20EE000A01EE010A21
:101A100000EEA00A00F010FDB0EE40AAD9ED010AD8
:101A200099ED000A20EE000A00EEA00A00F004FD85
:101A3000F0EE408AD9ED020A99ED010A20EE000A83
:101A400000EEA00A00F0F8FCB0EE409AD9ED020AD0
:101A500099ED000A20EE000A00EEA00A00F0ECFC6E
:101A6000F0EE409AF06B002824D128460CE007EBFA
:101A7000800181ED15AA07EB8002C2ED008A81ED9D
:101A8000079AC1ED0E9A401C0728F0DBF068B061A0
:101A90003069F06170693062B1EE0C0A68EE800A5C
:101AA000C6ED030A69EE000AC6ED040A29EE800AB3
:101AB00086ED050AB06B07EB800181ED15AA07E002
:101AC00007EB8A0090ED150A38EE008A0AF1010A48
:101AD000BAF1070FF4DB86ED098A96ED090A706BFF
:101AE00007EB800080ED230AD6ED0B0A70EE800A2A
:101AF000C6ED0B0AF268B2613269F2617269326254
:101B0000B26B07EB8202C2ED008A81ED079AC1ED4C
:101B10000E9A2A46DFED030A9FED021ADFED011A45
:101B200013E000BF00000000CECC4C3E07EB820368
:101B300093ED002A70EE820A93ED072A31EE021A25
:101B400093ED0E2A71EE821A521C072AEEDBC6EDC7
:101B5000030A86ED041AC6ED051AD1ED1C0A70EED3
:101B6000600A00F27442C2ED000A81ED1C0AD6ED53
:101B70000C0AD0F8742401EE102A70EE810AC6ED2A
:101B80000C0AD9ED000AF5EE400AF1EE10FA01DC7C
:101B9000F1EE600A9FEDCB1AF4EE410AF1EE10FA75
:101BA0001BDAD9ED010AF5EE400AF1EE10FA01DC7C
:101BB000F1EE600AF4EE410AF1EE10FA0DDAD9ED19
:101BC000020AF5EE400AF1EE10FA01DCF1EE600ACD
:101BD000F4EE410AF1EE10FA08DB0122C8F81C20ED
:101BE000D8F8102042F00102C8F81020B4EE41AA43
:101BF000F1EE10FA04DAB5EE40AAF1EE10FA08D5CB
:101C00000122C8F81C20D8F8102042F00202C8F8BF
:101C10001020B5EE400AF1EE10FA08D50122C8F8FE
:101C20001C20D8F8102042F00402C8F810209FEDC4
:101C3000A60AD1ED1C0AF4EE400AF1EE10FA08DB18
:101C40000121C8F81C10D8F8101041F00801C8F89C
:101C50001010D0ED230AF4EE400AF1EE10FA08DB82
:101C60000121C8F81C10D8F8101041F01001C8F874
:101C70001010D0F8741400EE101AD8ED050AF4EE26
:101C8000400AF1EE10FA10D1D8F81810491CC8F823
:101C90001810FB290CDB0121C8F81C10D8F8101013
:101CA00041F02001C8F8101002E02946C8F81810C9
:101CB00088ED050AD8F81C10012901D12846FCE05E
:101CC00007F6141199EC030A81EC030AD8F8701096
:101CD000012906D101203064284630707080B08020
:101CE0007CE0316D491C31653278012A01D0032A2C
:101CF00037D102292AD2628D042A27DAE16C002921
:101D00006CD196ED0A0ADFEDD70AB4EE600AF1EE67
:101D100010FA08D5D0F8741401EE101AB4EE601A57
:101D2000F1EE10FA0FDAF9EE0C0AB4EE600AF1EEF9
:101D300010FA53DBD0F8740400EE100AB4EE600A17
:101D4000F1EE10FA4AD50120306447E0272908D384
:101D50007288002A03D011FA82F14B2901D30121A4
:101D60003164D0F8740400EE900A96ED0A0A00F08F
:101D70007BF9D8F87400401CC8F87400FB2805DB18
:101D80000120307030647080B08030653078012878
:101D900024D17088002821D0B18800291ED00322C8
:101DA00011FA80F03D2801DB01203064608D0428A9
:101DB00000DB0222F088824201D2012030642846F2
:101DC00070663066F065FEF727FA0190206F606755
:101DD00028462067B080F080C8F87400706BB16C42
:101DE000401AFA304FF0FA084146B0FBF1F108FB17
:101DF00011007189884201D100F037FA706BB16C23
:101E0000401AFA304146B0FBF1F108FB110064289A
:101E100001D100F06BFAE088BDF81010814204D1C6
:101E2000BDF80210A288914200D00125002812D0EE
:101E3000706BB16C401AFA304146B0FBF1F108FB0F
:101E40001101322902D10120208114E04B2912D145
:101E5000002020810FE0A08800280CD0706BB16CAE
:101E6000401AFA304146B0FBF1F108FB11007D2821
:101E700001D101202081BDF800002189884200D0D5
:101E80000125706B07EB8001D1F87414B162401C1E
:101E90007063FA2801D100207063B06B401CB063FE
:101EA000072801D10020B063F06B401CF06301985B
:101EB0002843401E8041C043C00F06B0BDEC068BD6
:101EC000BDE8F28FC4F51C430C5789446C640300D1
:101ED000306203003063030010B4DFF8402590ED5A
:101EE000000AD2F8143900EE903A30EE600A02F699
:101EF0001413D0ED010A93ED011A70EEC10A90EDB2
:101F0000021AD3ED021A31EE611AB5EE400AF1EE73
:101F100010FA02DDF0EE401A01E0F1EE401AF5EEA3
:101F2000400AF1EE10FA02DDB0EE602A01E0B1EEF7
:101F3000602AB5EE401AF1EE10FA02DDF0EE412A09
:101F400001E0F1EE412A71EE821A71EEA21AB5EEAD
:101F5000400AF1EE10FA01DCB1EE400ADFF8B404F9
:101F600090ED082A32EE000A80ED080AF5EE400AEC
:101F7000F1EE10FA01DCF1EE600A90ED090A30EEA4
:101F8000200A80ED090AB5EE401AF1EE10FA01DCE4
:101F9000B1EE411A90ED0A0A30EE010A80ED0A0A0C
:101FA00090ED0B0A30EE210A80ED0B0ADFF8703459
:101FB000DB6B002B12D1002306E002EB840404F655
:101FC0007C04C4ED001A5B1C9BB21C460F2CF4DB96
:101FD000B2EE0E0A21EE800A80ED150A038902EBAB
:101FE0008302D2F87C4800EE104A31EEC00AD0EDF0
:101FF000150A30EE200A80ED150A02F67C02C2EDC9
:10200000001AF2EE0E0A80EE200ADFF80C2482EDB0
:102010001B0AD0ED170AB4EE600AF1EE10FA01D5F2
:1020200080ED170AD0ED180AF4EE400AF1EE10FA2E
:1020300001D580ED180ADFEDAB0AB4EE600AF1EECF
:1020400010FA03D5826D8918816501E00021816550
:10205000591C018189B20F2901D100210181806DB4
:1020600010BC70470100E0409FED9F1ADFF8A80305
:10207000408D042801DBB0EE001ADFF8A403B5EEB2
:10208000400AF1EE10FA07DBF5EE400AF1EE10FA25
:1020900002D5C188491CC1800178002905D00229D8
:1020A00060D02DD3032976D0B0E0F1EE0C1A31EEDA
:1020B000211AB4EE401AF1EE10FA0BDBB4EE601AFE
:1020C000F1EE10FA06D5016D1029C0F08F800021C5
:1020D00001658BE0416BDFF8442302EB8101D1F80D
:1020E000741401EE901ADFF83C1391ED010AF4EE3E
:1020F000401AF1EE10FA40F18980C1ED011A85E035
:10210000416BDFF8182302EB8101D1F8741401EE62
:10211000901ADFF8101391ED002AB4EE612AF1EE67
:1021200010FA01D5C1ED001AF7EE001AB4EE610AFB
:10213000F1EE10FA6ADBB7EE000AF4EE400AF1EEB7
:1021400010FA63D5016D418000210165B9EE0C0ADA
:1021500030EE410AF4EE400AF1EE10FA10D40221FA
:10216000017053E0F9EE0C1A31EEC11AB4EE410AD7
:10217000F1EE10FA4ADBF4EE410AF1EE10FA45D521
:1021800003210170A549426B01EB8201D1F874145F
:10219000A44A51603AE0416BA04A02EB8101D1F8B8
:1021A000741401EE901A9F4991ED012AF4EE421A3F
:1021B000F1EE10FA01D5C1ED011ADFED831AB4EE8C
:1021C000610AF1EE10FA21D5F4EE610AF1EE10FA8F
:1021D0001CDB016D818000210165B1EE0C0A31EE3E
:1021E000000AB4EE600AF1EE10FA0ED5012101707A
:1021F0008C490A6842654A688265884A436B02EBEB
:102200008302D2F874240A6000E0017000787047FD
:1022100000280CD0C168804AD160916490ED070A13
:1022200082ED070A406A506282ED180A9066704794
:10223000002803D07849282200F058B970470028B8
:1022400006D0794942684A6002680A60007A0872DA
:10225000704780B5002801D1002002BD54220146FC
:10226000724800F043F9012002BD10B56A4C608D40
:10227000218D002904D0002802D00020208106E012
:10228000084302D00120208101E0022020810020AB
:10229000E06420626061A0802085E0626065A065E6
:1022A00002464021624800F0E3F8E06F012801D1C6
:1022B000FEF78EFC57484189002909D0628E8A4278
:1022C00001D2218600E02286002141810846A067D4
:1022D000A06F012801D1608E20860020A06710BD6C
:1022E00000000000EC51383E0000000010B54A4CE0
:1022F000608D218D002904D0002802D0002020818B
:1023000006E0084302D00120208101E00220208164
:102310000020206260616085E08002460821454817
:1023200000F0A6F80020E062E06F012801D1FEF77E
:102330004FFCA06F012801D1608E208610BD80B5B2
:10234000012034490867FFF7D1FFFFF78EFFBDE892
:10235000014003E000202F49086770472D48C089DD
:102360002D49098E814200D200E070472A49CA6C8B
:102370000B8E9A4203D20886002088677047254951
:10238000488170472448C16C002904D1818DC08DDB
:1023900010FA81F0704700207047014600200029A4
:1023A00002D0012901D0704702E01B48C06C704781
:1023B0001948018EC26C891A828D891AC08D081A3B
:1023C00000D5002070470000FEFF7FBF38B50446EF
:1023D0001348104D1049012C06D106224A860C22C2
:1023E000EA819622428105E007224A860F22EA818D
:1023F00064224281A889A04209D0088E082803DA05
:10240000488EFFF7B3FF02E0E889FFF7AFFFAC812A
:1024100031BD000030630300B06203005C6C030058
:1024200030620300E4C4030014BE03006C640300C4
:1024300020BE03001475030081B08DED000A0098E2
:10244000401000F1FE500090DDED000AC0EE200AC1
:102450009DED001A70EE810ACDED000AB5EE001A6E
:10246000DDED001A80EE210A00EE810A01B070470E
:1024700062F30F2262F31F4200B500BF13009646BD
:102480009446103928BFA0E80C50FAD85FEA417C86
:1024900028BF0CC048BF40F8042BC90728BF20F84C
:1024A000022B48BF00F8012B00BD50F8041B61B19E
:1024B00050F8042BD30744BFA9F101039A18002355
:1024C000091F42F8043BFAD1EFE7704762B38B076C
:1024D00008D0521E11F8013B00F8013B00F02480A7
:1024E0008B07F6D1830740F0208000BF103A07D356
:1024F00030B4B1E83810103AA0E83810F9D230BC46
:10250000530724BFB1E80810A0E8081044BF51F8F1
:10251000043B40F8043BD20724BF31F8022B20F8DB
:10252000022B44BF0B7803707047083A07D3B1E819
:102530000810083A40F8043B40F804CBF7D25307A0
:10254000E4E78268521C8260426832B10268531C20
:10255000036011704168491E416070470022FFF717
:102560008BBF000062F30F2262F31F42401810F08D
:10257000030308D0C91A1FD3DB0748BF00F8012D99
:1025800028BF20F8022D130030B414461546103928
:1025900028BF20E93C00FAD8490728BF20E90C00F1
:1025A00048BF40F8042D890028BF20F8022D48BFFD
:1025B00000F8012D30BC7047C91818BF00F8012D74
:1025C000CB0728BF00F8012D7047000038B505463D
:1025D0000C46224629460FF2240001F053FCDFF896
:1025E000482D2046002102EBC503C3E90001108DF0
:1025F0000121A9400843108531BD0000416C617282
:102600006D5F4164642025753A25750A000000005D
:1026100010B5044621460FF21C0001F033FC0120E6
:10262000A040DFF8041D0A8D82430A854A8D1043BD
:10263000488510BD416C61726D5F57616B65757047
:102640002025750A0000000010B5044621460FF24F
:102650002C0001F017FCDFF8D00C0022134600EB31
:10266000C401C1E900230121A140C943028D0A40F0
:102670000285428D1140418510BD0000416C6172A0
:102680006D5F52656D6F76652025750A000000004C
:1026900010B500241AE0DFF8900C018D0122A24051
:1026A000114212D000EBC401D1E90023521E63F1A4
:1026B000000300EBC400C0E90023002B05DC01DBB4
:1026C000012A02D22046FFF7A3FF641C052CE2DB9F
:1026D00010BD10B5DFF8544D606E002801D1002008
:1026E00010BD01F01BFA616E401A4FF47A71B0FB15
:1026F000F1F010BD38B50446DFF8305D28780028C9
:102700000AD1012C15D100220421012000F090FEF5
:1027100001F004FA68660CE001280AD1012C08D007
:10272000FFF7D7FF02460421012000F081FE0020C0
:1027300068662C7031BD10B5DFF8F04C20790007C9
:1027400009D50FF2400001F09DFB0C2001F03FFE87
:10275000022000F0A6FE6078012808D10121206A3D
:10276000D4ED030A94ED020ABDE81040CCE2012149
:10277000206CD4ED0B0A94ED0A0ABDE81040C3E2C8
:102780000000000041637469766520474E53532072
:102790004C4F432043420A0010B5DFF8904C20789C
:1027A00001280CD1DFF8800B90F82A00800741D572
:1027B0000020FFF79FFF0120BDE8104044E7E088BC
:1027C000002801D0401CE08004F1480104F1080019
:1027D00000F0E1F900F08EF8E088032802DBBDE8A4
:1027E0001040A8E7DFF8401B91F82A10890721D58F
:1027F0002178022913D1A16C002905D1002803D129
:102800000120BDE81040C5E20120FFF71DFF0A21AD
:102810000120FFF7DBFE0320BDE810406AE7032933
:1028200008D1002802D0BDE8104084E70120BDE8AF
:102830001040AFE210BD38B5054601F06FF9DFF882
:10284000F04C024621780FF23C0001F01BFBA088FF
:102850000121A9400843A0802078022810DA4FF017
:10286000FF30A0640020E08000F077F90220FFF73D
:1028700041FF05210120FFF7A9FE01F04FF9206675
:1028800031BD00004750535F53746172742025645A
:102890002025750A0000000038B5044601F03EF915
:1028A000DFF88C5C024629780FF2380001F0EAFA72
:1028B000002C02D10020A88004E0A8880121A140BA
:1028C0008843A880287802280BDBA888002808D134
:1028D00000F052F90020FFF70DFF0120BDE8324063
:1028E000B2E631BD4750535F53746F7020256420AA
:1028F00025750A00F8B5DFF8344BD4E9062304F156
:102900001805D5E908018B4201D1824238D0002B4D
:1029100001D1002A34D00FF2F80001F0B3FA261DDD
:1029200096ED010ADFEDD20AB4EE600AF1EE10FA7C
:1029300016D4DFEDD00AB4EE600AF1EE10FA0FDA29
:1029400096ED020ADFEDCC0AB4EE600AF1EE10FA61
:1029500006D4DFEDCA0AB4EE600AF1EE10FA11DB1C
:102960000FF2C40001F08EFA287B002804D0042165
:10297000012000F070FC03E00321012000F06BFC5B
:102980000020F2BDA868652805D30521012000F0CC
:1029900062FC0020F2BD671C7A78A1880FF29C00CF
:1029A00001F070FA2079000702D4787800281FD04F
:1029B0000FF2A00001F066FADFF8780B9FEDD10A64
:1029C000D6ED010A60EE800AFDEEE00AC0ED000AD5
:1029D000D6ED020A20EE800ABDEEC00A80ED010AA3
:1029E000A9688160D4E90623C0E90423296B018327
:1029F00004F1280004F108012022FFF777FD708818
:102A0000002801D10120708001206070F2BD00001B
:102A10004750535F4C6F635F4669786564203A2086
:102A2000256C6C750A000000475053204C6F6320E2
:102A300057726F6E6721210A000000004750535FF4
:102A40004C6F635F46697865642025752025750A9B
:102A50000000000055706461746520474E53532098
:102A60006C6F630A000000000FB470B5DFF8BC693A
:102A7000307802284DD003284BD0DDE90E452246A0
:102A80002B460FF2940001F0FDF9DDE9040101F09D
:102A90008FFFB060DDE9060101F08AFFF0600020E1
:102AA00030617061C6E9064510983062012086F8F1
:102AB0002400FFF71FFF00282BD03078002807D113
:102AC00002210120FFF782FD0120FFF713FE06E03F
:102AD0000120FFF7B9FD02210120FFF777FDB07853
:102AE00000280ED04FF0FF30DFF8481A08830FF2AD
:102AF000400001F0C7F90C2001F069FC022000F051
:102B0000E4FC0321306AD6ED030A96ED020A00F0D8
:102B1000FBF870BC5DF814FB4750535F5061737352
:102B20006976655F434220256C6C750A00000000E1
:102B30005061737369766520474E5353204C4F4361
:102B40002043422025750A00002803D0DFF8E80959
:102B500001F0D5BF002001F0D2BF80B5BF2002F048
:102B600070FA014600208DF80000002903D000A86B
:102B7000C9694968884701BD80B5BF2002F061FA84
:102B8000014600208DF80000002903D000A8C96983
:102B9000C968884701BD70B504460D4602F02FF89C
:102BA0000646D6E9000101F003FF2060D6E90201E4
:102BB00001F0FEFE60600020A060E060D6E90A013E
:102BC000C4E90401306BA06100202077002D02D001
:102BD00096F83C0028600020DFF85419487070BD5A
:102BE00080B50FF2300001F04DF9DFF84008002108
:102BF00080F8681000F168019FEDD30A81ED020AA8
:102C000081ED030A00228A61012280F888200020D9
:102C1000887001BD4C4D5F496E69740A0000000068
:102C200038B50C46DFF8085995F86810012901D02D
:102C3000022907D1224601460FF24400BDE8384080
:102C400001F020B92146012807D10FF2580001F008
:102C500019F92046FFF7EFFD06E00FF25C0001F0E6
:102C600011F9204600F031F9012085F8680031BDE6
:102C70000000B4C20100B442000034C30100344378
:102C80004C4D5F5265715F4C6F633A256420616CF7
:102C900072656164792072756E6E696E673A25643B
:102CA0000A0000004C4D5F5265715F4C6F63204716
:102CB00050533A25640A00004C4D5F5265715F4CD9
:102CC0006F63204E4C503A25640A000070B50446EC
:102CD000DFF858572878022802DB2046FFF7DCFD92
:102CE000DFF8B86D307D002802D0204600F00EF9E4
:102CF0002878002805D1307D002802D1002085F8F1
:102D0000680070BD8096184BF8B52DED028B86B02B
:102D1000B0EE408AF0EE608A04460D46DFF80C679C
:102D200006F16807B9690FF2540001F0ABF8EDB293
:102D3000012D07D100220321012000F079FB0020A2
:102D4000FFF7AAFDD6E90E232146F0EE680AB0EEA1
:102D5000480A00A800F0D9FB06F1700000A918226B
:102D6000FFF7C4FB86F888500020B870022086F870
:102D7000680006B0BDEC028BF1BD00004C4D5F4C0D
:102D80006F635F46697865642061725F643A2564A9
:102D90000A00000010B5044621460FF2380001F089
:102DA00071F8DFF88C07012C0BD1032180F8681033
:102DB00000220521012000F03BFB0020BDE810406F
:102DC0006AE5042180F86810002207210120BDE88F
:102DD00010402DE34C4D5F4C6F635F54696D656F20
:102DE00075742025750A00002DE9F0472DED028B42
:102DF00086B008EE100A08EE901A92461F46DFF8D9
:102E00002C8608F16809DDE91045129ED9E9040114
:102E1000A94213D301D8A04210D322462B460FF269
:102E2000780001F02FF8002E30D0324639460720C6
:102E300006B0BDEC028BBDE8F047F9E232463946F8
:102E4000072000F0F5FA22462B465146B8EEE80A74
:102E5000DFEDC70AC0EE200AB8EEC80A9FEDC41A1B
:102E600080EE010A00A800F050FB08F1700000A9F4
:102E70001822FFF73BFB88F88870012089F80200D0
:102E8000002000F043F8022088F8680006B0BDEC8E
:102E9000028BBDE8F08700004C4D5F5365745F4CBA
:102EA0006F6320536B697021210A000080B5DFF841
:102EB000F40B90F82A00400706D5002000F026F811
:102EC0000220BDE8024065E701BD38B504460FF2B7
:102ED000300000F0D7FFDFF8C45BE88A0121A14091
:102EE0000843E882287D002808D1032001F06FFA0A
:102EF0001E210220FFF76AFB0120287531BD00006A
:102F00004E4C505F5265710A0000000038B505460E
:102F10000FF2380000F0B6FFDFF8804B002D02D131
:102F20000020E08204E0E08A0121A9408843E08299
:102F3000207D002807D0E08A002804D10220FFF776
:102F400083FB0020207531BD000048434E4C505F8C
:102F500053746F700A00000080B50FF6FC4000F05B
:102F600091FFDFF83C0B002101800161416181721A
:102F7000C160C161816101BD30B583B001AA0DF1AD
:102F8000010100A800F0B4F8DFF8144B2069002814
:102F900007D00199884202D2081AE06001E00020BF
:102FA000E0606078002801D1002161619DF8001087
:102FB00088421DD00121A1720A259DF800109DF8BC
:102FC000012015FB0122A17815FB00110FF694409A
:102FD00000F058FF62699DF800009DF8011015FB94
:102FE0000011C9B2032000F023FA0020606105E05F
:102FF0006069E168081860610020A0720198206192
:1030000000F08CFD60609DF80000012803D100F005
:1030100085FDE06107E0042805D1A07A002802D0F0
:1030200000F07CFDA0619DF8000060709DF801003B
:10303000A07037BD38B504460FF63C4000F022FFC3
:10304000DFF85C5A28890121A140084328812878AB
:10305000002805D100F02AF8002802D001202870AD
:1030600031BD0FF62040BDE8324000F00BBF38B54F
:1030700004460FF6244000F005FFDFF8245A2889A3
:103080000121A140884328812978012907D10028FE
:1030900005D100F01CF8002802D00020287031BDB6
:1030A0000FF60040BDE8324000F0ECBE80B50FF6F0
:1030B000084000F0E7FE0022DFF8541A9A2001F0E1
:1030C0009DFE002801D0002002BD012002BD80B578
:1030D0000FF6F03000F0D6FE0022DFF8341A9A2006
:1030E00001F0E8FE002801D0002002BD012002BD51
:1030F0007CB504460D46164600A802F06AFE9DF80F
:10310000000020709DF80100287002F073FE30600E
:1031100073BD10B5DFF888496078042807D100F046
:10312000FDFCA169401A44F6206188420AD2607809
:10313000012809D000F0F2FCE169401A4EF6602146
:10314000884201D3012010BD002010BD80B5DFF8FA
:103150004C09002141620A461021001DFFF702FAC6
:1031600000221521DFF8AC09BDE80840FFF780B95F
:103170008096184B2DE9FF4104460F4615462E4612
:1031800033463A4621460FF6483000F07BFE012CCC
:1031900056D1012F54D1DFF808090769DFF8FC8800
:1031A00098F80400002807D188F8045031460FF63B
:1031B000403000F067FE41E0D8F8242039460FF691
:1031C000543000F05FFED8F82400381AA8F8060042
:1031D000B8F80A00B8F80C100818B8F80E1008185B
:1031E000B8F810100818B8F812100818A8F8080055
:1031F000072001F0ECF8B8F812000390B8F81000BE
:103200000290B8F80E000190B8F80C000090B8F8E1
:103210000A30B8F80820B8F806100FF6203000F091
:1032200031FE0022102108F10400FFF79BF988F815
:10323000045031460FF6543000F024FEC8F82470D4
:10324000DFF85888B8F820000121A1400843A8F809
:103250002000BDE8FF8170B505460E460FF65030E0
:1032600000F010FEDFF8AC4821780A290CDA0FF6DE
:10327000503000F007FE20780019457020780019C2
:10328000C6722078401C207070BD10B5DFF80C08A5
:1032900090F82000800701D500F01BF802F0CEFF67
:1032A000DFF87048227801460FF6203000F0EAFD82
:1032B00002F0C4FF01280BD12078002808D00FF6B7
:1032C000243000F0DFFD082001F081F8002020709C
:1032D00010BDDFF8CC074078012805D1DFF8BC0726
:1032E0004189491C41817047022805D1DFF8AC07AC
:1032F0008189491C81817047032805D1DFF89C072B
:10330000C189491CC1817047042805D1DFF88C07A9
:10331000018A491C01827047052804D1DFF87C0727
:10332000418A491C41827047C0C1030010B5DFF8D3
:103330006C47A08B401CA08380B2322818DB002091
:10334000A083FFF7A5F939480078002801D0FFF7DE
:1033500023FA207D002801D0FFF7A8FDDFF8400701
:103360000078002801D0FFF707FEBDE810408CE789
:1033700010BD6F4890F86810022902DB002180F828
:103380006810704738B50FF6742000F07BFD0022FE
:103390003021DFF81007FFF76BF8244C00222821BA
:1033A00004F16800FFF764F8002268212046FFF767
:1033B0005FF8DFF8E8560022062105F11400FFF758
:1033C00057F800222021DFF8D806FFF751F8002037
:1033D0002870014604F12800FFF7DDFBFFF700FC31
:1033E000FFF7BAFD0120FFF7AFFB0022202105F116
:1033F0002000FFF73DF8BDE83140A7E60020FFF7C9
:10340000A3BBDFF8A80600687047DFF89C0670478A
:1034100080B50022C821DFF89006FFF729F80020C8
:10342000DFF88816086001BD00000000F8BA03004C
:10343000F8B507460E461446DFF870562868BF28D0
:1034400005D30FF6C410BDE8F24000F01BBD00F03C
:1034500065FB2A68DFF850165754521C2A605654F0
:10346000521C2A60230E5354521C2A60230C5354BE
:10347000521C2A60230A5354521C2A605454521C72
:103480002A60030E5354521C2A60030C5354521CDE
:103490002A60030A5354521C2A605054501C28605E
:1034A000F1BD10B5044621460FF6841000F0EAFC89
:1034B000012C05D103210120BDE81040FFF7B0BB6E
:1034C0000320BDE81040FFF701BC10B504462146BB
:1034D0000FF6741000F0D6FC1548012C02D1012122
:1034E000817010BD0021817010BD10B504462146C9
:1034F0000FF6701000F0C6FC2046401E8041C0430D
:10350000C00FDFF89815087010BD00B587B08DEDBD
:10351000000ACDED010A0591DFF8841509690491CF
:10352000CDE9022300A91822FEF7E0FF07B000BD95
:10353000F8BA0300A0C20300693A00002DE9704FF9
:103540002DED108B94B0B0EE418A9FED73AA21EE61
:103550008A1A00EECA1A8DED0B1A00200A9020EE8E
:103560000A0A03F07DF89FED6D9BF7EE000AF0EE7E
:10357000608A10EE100A03F023F953EC192B03F0C4
:1035800047F901F015FA00EE100AF0EE680A03F0B0
:1035900011FAF0EE408A28EE0A0A03F061F8F7EE1D
:1035A000000AB0EE608A10EE100A03F009F953EC3D
:1035B000192B03F02DF901F0FBF900EE100AF0EEE3
:1035C000480A03F0F7F9B0EE408AB0EE680A03F05B
:1035D00028FA8DED090AB0EE480A03F022FA8DEDC3
:1035E000040AB0EE680A03F01FFA8DED080AB0EE87
:1035F000480A03F019FA8DED070A9DED090ADDED81
:10360000040A20EE200A8DED060A9DED080ADDED84
:10361000070A20EE200A8DED050A9FED3EEA9FED98
:103620003DAA9DED0B8A002600E0761C36B2142ED2
:1036300080F21E828DED0C8AB0EE480A03F0F1F99B
:10364000F0EE409AB0EE480A03F0EEF9B0EE409A80
:103650009DED040A20EE090ADDED090A9DED071A29
:1036600060EE810A9DED081ADDED041A21EE211AA3
:1036700041EE690A20EE000A00EEA00AB5EE400A0B
:10368000F1EE10FA0EDB10EE100A03F099F841EC9F
:10369000100B03F0CDF951EC100B01F089F908EE95
:1036A000900A01E0DFED1B8A9DED060A9DED058A7B
:1036B00000EE298AF0EE480AB0EE680A03F07AF9C3
:1036C000B0EE40EAF5EE408AF1EE10FA02D1DFEDFD
:1036D00011EA05E09DED060A20EE090AC0EE28EA8F
:1036E000B7EE00AA0EEEEEAA18EE100A03F068F884
:1036F000CDE912011AEE100A03F062F841EC1B0B3F
:103700009FEDE49BB5EE40AAF1EE10FA0AD19FEDD1
:1037100001CA1CE00000000034FA8E3C000020B515
:1037200088E4EF3F059803F04BF853EC192B03F0B6
:103730006FF853EC1B2B03F0FBF902460B46DDE957
:10374000120103F019FB01F033F90CEE100A9FEDA2
:10375000D00A2AEE000A10EE100A03F031F841EC0C
:103760001A0B0022D24B03F053F804460D4651ECDD
:103770001A0B0022CF4B03F04BF802460B460020F9
:10378000CD4903F0F9FA02460B4651EC1A0B03F04F
:103790003FF80022C94B03F0AFFB02460B4651EC49
:1037A0001A0B03F035F80022C54B03F0A5FB2246A7
:1037B0002B4603F02DF80022D14B03F09DFB01F0C6
:1037C000F7F80A9051EC1A0B0022BE4B03F020F8D8
:1037D00004460D4651EC1A0B0022BB4B03F018F8BF
:1037E00002460B460020B94903F0C6FA02460B46D2
:1037F00051EC1A0B03F00CF80022B54B03F07CFBE4
:1038000002460B4651EC1A0B03F002F80022B14BB2
:1038100003F072FB22462B4602F0FAFF01F0C8F8D3
:103820000FEE100A9FEDACAB51EC1B0B4FF060425A
:10383000AB4B02F0EDFF04460D4651EC1B0B002292
:10384000A84B02F0E5FF02460B4651EC1A0B03F0C1
:1038500093FA4FF06042AB4B02F0DAFF53EC1A2BB5
:1038600003F04AFB22462B4602F0D2FF01F0A0F8FB
:103870000FEE900A2CEE0C0A10EE100A02F0A0FFD8
:10388000CDE9100118EE900A02F09AFFCDE90E0181
:103890001FEE100A02F094FFCDE902011CEE100A9F
:1038A00002F08EFF41EC1B0B9FED8FCB9FED90DB69
:1038B0002FEE280A10EE100A02F082FFCDE9000177
:1038C000DDE9020100228C4B02F0A2FF04460D4606
:1038D000DDE9100153EC192B02F09AFF53EC1D2B7C
:1038E00003F00AFB02460B46DDE9120102F090FFED
:1038F00082468B46DDE902010022804B03F018F975
:1039000053EC1B2B02F084FF80468946DDE90E2331
:1039100051EC1A0B02F07CFFDDE90E2302F078FF78
:1039200053EC1C2B03F0E8FA42464B4602F070FFC2
:1039300080468946DDE9102351EC1A0B02F068FF3E
:1039400053EC1C2B03F0D8FA42464B4602F060FFC2
:1039500002460B465046594603F00EFA22462B46C5
:1039600002F056FF02460B4651EC1B0B03F0C4FA63
:10397000DDE9002302F04CFF01F01AF80AEE100A0C
:103980000B9802F01DFFCDE902011FEE900A02F034
:1039900017FF02460B460020594903F0EDF94FF09E
:1039A0006042584B02F034FF04460D461EEE900A6A
:1039B00002F006FF22462B4602F02AFFCDE9000165
:1039C0001EEE100A02F0FCFE804689462FEEA80A81
:1039D00010EE100A02F0F4FE04460D462FEE880A9F
:1039E00010EE100A02F0ECFE82468B4653EC1B2BC5
:1039F00051EC190B02F00CFF53EC1B2B02F008FFEB
:103A000053EC1D2B03F078FA52465B4602F000FFA0
:103A100053EC1B2B03F070FA22462B4602F0F8FE03
:103A200042464B4603F068FADDE9002302F0F0FE5F
:103A3000DDE9022303F060FA00F0BAFF08EE100A95
:103A4000B5EE408AF1EE10FA02D19FED2F0A05E0A3
:103A50009DED0C0A38EE400A80EE080AB0EEC00A6E
:103A6000DFED2A0AB4EE600AF1EE10FA7FF5DDAD63
:103A70009DED0A0ADFED280A20EE200A7EEE4A0AB2
:103A800020EE200A14B0BDEC108BBDE8708F00BF93
:103A900032D6DC3B000000000000004094C0030070
:103AA00080C20300C0C1030030BA030020C5030078
:103AB0000000103F00E0654000007440000088C036
:103AC0000000B0400000503F00804740008052405E
:103AD000000060C0000070400000000000001040C6
:103AE0004A772B3F0000084000000000000008C09B
:103AF000000000000000F0BF0000D03F00001840B0
:103B00000000F03F4A776B3F00000000CDBC8C2BDB
:103B1000006C0300D8C3030021FEC14A00B583B086
:103B20000FF25830D0E90023CDE9002300A802F0BD
:103B3000EBFB9DF900004FF461619DF90120C2EBA0
:103B400002139A0011FB00209DF9021040FA81F047
:103B50004FF47A7148430EBD10B40B885C1C0C8086
:103B6000140A1C540B885C1C0C801A5410BC70473F
:103B700010B40B885C1C0C8014161C540B885C1C45
:103B80000C8014141C540B885C1C0C8014121C54E4
:103B90000B885C1C0C801A5410BC70472DE9F04354
:103BA0000546884616461F464FF038090CE0601C53
:103BB000A8F80000304639464A4603F011FA60552D
:103BC000A9F108091FFA89F9B8F800404846002809
:103BD000EDD1601CA8F800006655BDE8F0830278BE
:103BE00012020A8040781018088070470278120686
:103BF0000A60437802EB03420A60837802EB0322F7
:103C00000A60C0781018086070472DE9F043074635
:103C10000E464FF03809387800214A4603F0F0F993
:103C2000C6E900014FF001080EE0A9F10809D6E944
:103C30000045C05D00214A4603F0E2F920186941C1
:103C4000C6E9000108F101080FFA88F84046082883
:103C5000EBDBBDE8F083000041525F496E69740AF6
:103C60000000000041525F5052203A202564202D70
:103C70003E2025640000000041525F53746172745D
:103C80000A00000045203A4152204F70656E2046E0
:103C900061696C0A0000000041525F53746F700A42
:103CA0000000000045203A415220436C6F736520AC
:103CB0004661696C0A00000041525F4F70656E0AF0
:103CC0000000000041525F436C6F73650A00000002
:103CD0004269675F446174615F436D645F48616E10
:103CE000646C65722025642025642025640A000028
:103CF0004269675F446174615F436D645F48616EF0
:103D0000646C65722053746172742069643A25642E
:103D10000A0000004269675F446174615F436D643B
:103D20005F48616E646C6572206375725F643A25EA
:103D30007520696E695F643A25750A004269675F9C
:103D4000446174615F436D645F48616E646C657269
:103D50002053746F7020646973743A256420746F03
:103D600074616C5F74696D653A25642073743A25DB
:103D7000642077613A25642072753A25642076655F
:103D80003A25642063793A25640A00004269675F36
:103D9000446174615F436D645F48616E646C657219
:103DA0002053746172742069643A256421210A00E9
:103DB0004269675F446174615F45523031000000C1
:103DC000496E736572742025640A00004269675F5A
:103DD000446174615F50726F636573732025642062
:103DE00025640A0053656E642045523031204361DA
:103DF0006C6C6261636B210A00000000534C435FEE
:103E0000496E69740A000000534C435F5365745F48
:103E100044756D705F446174612054656D702064F9
:103E2000756D702069732046756C6C21210A000045
:103E3000534C435F476E73735F526571756573745E
:103E40003A25750A00000000534C435F476E7373B8
:103E50005F506173736976655F546573743A257555
:103E60000A000000534C435F5365745F446F7A65EA
:103E70005F4D6F64653A25750A0000000000000080
:103E8000000000000EB403B0704770B586B0044661
:103E90000D462A4621460FF6B02003F0C3F8681DF0
:103EA000ADF8000001A80FF6E0211422FEF71EFB7A
:103EB000BDF80000C01CADF80700DFF8586A01200B
:103EC0003070022200A9701CFEF700FB0120F07088
:103ED0003071372070710A2095FBF0F0B071052029
:103EE000F071BDF80000C21EDFF82C0A201800F1A6
:103EF000100106F10800FEF7E9FA314601A803F0C7
:103F00008FF906B070BDF8B5FFF77BFA0546DFF80C
:103F1000084A40F2F9402189461A002D33D0FFF7B4
:103F200074FAE06021890B19AE4216D2324601467E
:103F300003F11000FEF7CAFA40F2F9406081002058
:103F40002081AA1BE068311804F11000FEF7BEFAC8
:103F500020892818801B208113E02A46014603F19E
:103F60001000FEF7B3FA208928182081618980B2F9
:103F7000814200D2608140F2F941884201D10020A3
:103F80002081FFF745FA02F059F90546012D25D1A8
:103F900094F90400002821D100266789002F08E049
:103FA000394689B2304680B2FFF76FFFBE1960898B
:103FB000871B08D0FB2FF3D3FA21304680B2FFF7DE
:103FC00064FFFA36F3E7002240F2F94104F11000F1
:103FD000FEF74EFA012060710020A0602571F1BD4E
:103FE0000020704738B5DFF83449257829460FF6A8
:103FF0007810FFF747FF002D14D1012020700FF635
:104000007410FFF73FFFFFF7BDF900F03EF8002006
:10401000FFF710F803F010FE03F07CFE04F0FBF84D
:1040200004F0F4FD002032BD80B50FF65410FFF708
:1040300029FF00F02AF80020FFF719F80120FEF709
:1040400045FE03F00DFE03F0D3FE04F0FEF804F08D
:10405000E9FDFFF7D3F90020DFF8C018087002BDB2
:1040600080B50020DFF8B018C880FFF75FF903F0D3
:10407000DDFE04F09EF804F0A7FDFFF77AF9FFF7E4
:1040800042FF002002BD0020704780B5DFF888089D
:1040900001214171002181600A4640F2F94110304E
:1040A000FEF7E6F9BDE8014003F0D4BE70B58AB072
:1040B000144600221346CDE90823114604910591C8
:1040C0000691ADF80C10102801D008467DE120784B
:1040D000DFF84458287069706980401E322800F269
:1040E0006B81DFE810F0330037006700690178006A
:1040F0009100AC00B700BE00690169016901690166
:1041000069016901C800EA00FA00100116011F01E7
:10411000690169016901690169016901690169014F
:1041200069016901250133013901690169016901E9
:10413000690169016901690169016901690169012F
:10414000690169013F0156015C016301012000F032
:104150003EF931E104A9601CFFF748FD05A9601D87
:10416000FFF744FD06A904F10900FFF73FFD667B58
:1041700008A904F10E00FFF748FDA47D0294DDE9D3
:104180000801CDE900013346069A05990498FEF727
:104190002BFE0294DDE90801CDE900013346069AC1
:1041A0000599049804F01EF903F0B0FF022000F016
:1041B0000EF901E166783046FFF797F904F0F2F95D
:1041C00003F0D4FC002231460820FFF731F9022029
:1041D00000F0FDF8F0E0667804A9A01CFFF706FDEA
:1041E00005A9A01DFFF702FD06A904F10A00FFF7CB
:1041F000FDFC069B059A0499304603F0C4FC6870E8
:10420000022000F0E4F8D7E094F9010001282ED153
:104210000222A11C03A8FEF759F9BDF80C000146C3
:10422000090A41EA0020ADF80C00BDF90C0003F0CA
:104230007EFD00206870BDF80C00688017E066788D
:10424000E278A1783046FEF795FF6E80022000F0FC
:10425000BEF8B1E06678012E09D13046FFF721F9AA
:1042600005E06678012E02D13046FFF72EF90220D4
:1042700000F0ADF8A0E003A9601CFFF7B0FC04A9B2
:10428000E01CFFF7B3FC05A9E01DFFF7AFFC06A992
:1042900004F10B00FFF7AAFCE07B0090069B059A57
:1042A0000499BDF80C0003F0CBFA6870BDF80C005F
:1042B0006880022000F08BF87EE003A9601CFFF705
:1042C0008EFCBDF80C0003F055FB6870BDF80C00C7
:1042D0006880022000F07BF86EE003A9601CFFF705
:1042E0007EFC04A9E01CFFF781FCE2790499BDF88B
:1042F0000C0003F0C7FB6870BDF80C00688002205A
:1043000000F065F858E003F00DFC122000F05FF8B3
:1043100052E00120FEF7DAFCFFF7B7FE022000F0C2
:1043200056F849E003F0FEFB132000F050F843E09C
:1043300003A9601CFFF753FCE178BDF80C0003F003
:10434000AFFE6870022000F042F835E003F0BEFED8
:10435000022000F03CF82FE003F0C4FE022000F041
:1043600036F829E004A9601CFFF740FC05A9601D90
:10437000FFF73CFC03A904F10900FFF730FCBDF88E
:104380000C200599049803F0FDFF022000F01FF8AF
:1043900012E004F01BF8022000F019F80CE00120F4
:1043A00004F0D5F8022000F012F805E0607804F07F
:1043B000E6F8022000F00BF86879032801D002200B
:1043C0006871002004F0C3F800200AB070BD2DE928
:1043D000F04186B00021ADF80010DFF83C45E188DF
:1043E0000D46012827D0022848D0032868D0042889
:1043F00077D0072800F09780082800F0D0800C289C
:1044000000F0FC80102800F02481112800F04B817E
:10441000122800F06B81132800F08F81202800F013
:10442000C281212800F0CF81302800F0F7813128A7
:1044300000F01A8227E20820ADF80000DFF8E064FF
:1044400007208A191071491CE180012089B28A195C
:104450001071481CE080D6F80424A11D301DFFF720
:1044600087FBE088142182191171401CE0803178AB
:1044700080B282191171401CE08004E20620ADF880
:104480000000DFF89C6405208A191071491CE18046
:10449000022089B28A191071491CE180207889B202
:1044A0008A191071481CE080617880B282191171FC
:1044B000401CE0806288A11D301DFFF74DFBE2E14A
:1044C0000220ADF80000DFF8586401208A1910714D
:1044D000491CE180032089B28A191071481CE080D0
:1044E000D1E10C20ADF80000DFF834640B208A190C
:1044F0001071491CE180042089B28A191071481C8E
:10450000E080DFF820743A88A11D301DFFF724FBFE
:104510007A68A11D301DFFF72BFBBA68A11D301D65
:10452000FFF726FBAFE11120ADF80000DFF8F063E4
:1045300010208A191071491CE180072089B28A195C
:104540001071491CE180DFF8E073387889B28A196C
:104550001071481CE0807A88A11D301DFFF7FCFA1D
:10456000BA88A11D301DFFF7F7FAFA88A11D301D8A
:10457000FFF7F2FA3A89A11D301DFFF7EDFA7A89AB
:10458000A11D301DFFF7E8FABA89A11D301DFFF704
:10459000E3FAFA89A11D301DFFF7DEFA73E1E34863
:1045A00002785300DE1CADF80060DD4E9B1C8F19B5
:1045B0003B71491CE180082389B28F193B71491C6A
:1045C000E18089B28B191A71491CE1800021914266
:1045D00080F25981E3880F187F7803EB060C8CF882
:1045E00004705B1CE3800F18FF7A9BB203EB060C90
:1045F0008CF804705B1CE380491CE8E71820ADF8D8
:104600000000C74E17208A191071491CE1800C2048
:1046100089B28A191071481CE080C54F3A68A11D03
:10462000301DFFF7A5FA7A68A11D301DFFF7A0FA2B
:10463000BA68A11D301DFFF79BFAD7E90423A11D1D
:10464000301DFFF7ABFA3A8BA11D301DFFF784FA3E
:1046500019E11120ADF80000B14E10208A19107137
:10466000491CE18089B28A191071481CE080B14F61
:104670003A88A11D301DFFF76FFAE088B9788219DA
:104680001171401CE0807A68A11D301DFFF770FA9F
:10469000BA68A11D301DFFF76BFAFA68A11D301D25
:1046A000FFF766FAEFE00C20ADF800009C4E0B20FF
:1046B0008A191071491CE180112089B28A19107180
:1046C000491CE1809C4F387889B28A191071481CC6
:1046D000E080797880B282191171401CE080D7E9BE
:1046E0000223A11D301DFFF759FACCE0934F387813
:1046F0004200D31CADF80030894E921C8B191A7100
:10470000491CE180122289B28B191A71491CE1807F
:1047100089B28A191071481CE0804FF0000838787F
:10472000804580F2B08007EB48004288A11D301D13
:10473000FFF712FA08F10108F1E7804F38784200DC
:10474000D31CADF80030764E921C8B191A71491C9F
:10475000E180132289B28B191A71491CE18089B258
:104760008A191071491CE1800021814280F28B80FE
:1047700007EB41025288E3884FEA921C03EB060ED6
:104780008EF804C05B1CE38001EB070C9CF82AC088
:104790004CEA82029BB203EB060C8CF804205A1CF4
:1047A000E280491CE1E70220ADF800005C4E0120E8
:1047B0008A191071491CE180202089B28A19107170
:1047C000481CE0805FE01A20ADF80000544E19202C
:1047D0008A191071491CE180212089B28A1910714F
:1047E000481CE080564F3A68A11D301DFFF7C0F904
:1047F000D7E90223A11D301DFFF7D0F93A69A11DA9
:10480000301DFFF7B5F97A69A11D301DFFF7B0F92A
:10481000BA69A11D301DFFF7ABF934E01420ADF8E3
:1048200000003F4E13208A191071491CE18030208E
:1048300089B28A191071481CE080424F3A68A11D64
:10484000301DFFF795F97A68A11D301DFFF790F92B
:104850003A89A11D301DFFF77FF9D7E90423A11D77
:10486000301DFFF79BF90EE00220ADF800002C4E42
:1048700001208A191071491CE180312089B28A19FE
:104880001071481CE0806079032801D0022060711B
:10489000E088B0F5806F29DCBDF80000C01CADF8E1
:1048A000000001A80FF2F4011422FDF71FFEBDF86D
:1048B0000000C01CADF80700164C01202070022239
:1048C00000A9601CFDF702FE0120E0702071372076
:1048D0006071BDF80000C21E11482818011DA01DFE
:1048E000FDF7F4FD214601A802F09AFC06B0BDE8F0
:1048F000F081084901F58272C261B7220270142268
:1049000082600122027302820022428241611046CB
:1049100070470000445D03004C4C030036C50300A3
:1049200058510300B4C1030098C00300D8C303006A
:10493000A0C2030054C4030070C40300E89F030036
:1049400040C2030080BE0300736C632053656E6435
:104950004269674D53472073746172743A2564202D
:1049600073697A653A256400534C432B2025640A09
:1049700000000000736C635F73746172740A00005E
:10498000534C432D00000000050000000000000013
:104990000000000000000000000000000500000012
:1049A0000000000000000000000000000000000007
:1049B0004FEAF17CBCF1E04C2CBFBCF5001F11E0CC
:1049C0005FEA4C0C34BFBCF17F5F2EE05FEA9C0CC9
:1049D0004FEA0C1C4FEA3C0CC10071F100414CEB5A
:1049E00050707047C90241EA5051C00218BF41F0EF
:1049F000010141F000414FEA6C50C0F1090021284B
:104A000010D240EACC7CCCF1200C11FA0CF070F101
:104A10000040CCF1200C21FA0CF00CF0004C40EBE3
:104A20000C0070474FEACC707047490011F5001F29
:104A300004D84FEACC10FF30C0057047C817704744
:104A400010B5724C90ED000B84ED000B90ED020B55
:104A500084ED020B90ED040B84ED040B90ED060B3E
:104A600084ED060B00221346C4E90823D0E90A238B
:104A7000C4E90A23006B206301F02FFCA06310BD82
:104A80000021624A006882F83C0092F83C3003E062
:104A9000401C9842FCDB491C082901DA0846F8E76B
:104AA000704730B597B0574C90ED000B84ED000B7C
:104AB00090ED020B84ED020B90ED040B84ED040BE2
:104AC00090ED060B84ED060B00221346C4E9082383
:104AD000D0E90A23C4E90A23006B206301F0FDFB3F
:104AE000A06349484568280007D0214684B068463D
:104AF0006822FDF7FBFC0FBCA84717B030BD38B5E6
:104B00000400414D68680AD1002813D0002004F049
:104B10005EFB04F02DFB00206860012032BD002800
:104B200008D13E4804F016FB012004F050FB6C60F5
:104B3000012032BD002032BD10B5344C0022682166
:104B40002046FDF795FC9FED320B84ED000B84EDC4
:104B5000020B2D48002101704160084610BD000085
:104B600038B5294C94F90000002814D1274D0022B3
:104B700068212846FDF77CFC9FED250B85ED000B99
:104B800085ED020B244804F0DFFA254804F0DFFA33
:104B9000012004F0F5FA94F90000002803D4401C29
:104BA0002070002032BD032032BD80B5164890F938
:104BB000001001290CDB491E017049B2002905D102
:104BC00004F0FBFA04F0CCFA04F0CEFA002002BDA7
:104BD000032002BD0020704700207047002070476E
:104BE000104901F10C02C261BF22027024228270BE
:104BF000012202820922428241610020704703485B
:104C00007047000048BD0300C4C40300E0BC0300BB
:104C10000000000000006940415A0000A35A000053
:104C2000815A00005C6903002DE9F041002425460B
:104C3000DFF80C791EE0052004F058FC0020F16933
:104C400009688847002804D02046441CC0B20228C6
:104C5000F1DBE4B2032C0BDB0020317847F82100B4
:104C6000307857F82000C8F80400304604F04CFDB6
:104C70006D1C00241C2D18DA2C2004F02DFD064696
:104C800022462C21FDF7F4FBDFF8B888304658F8AF
:104C900035108847307847F8206008EBC508307831
:104CA00057F82000C8F80400C8E72046BDE8F081A6
:104CB000002200E0521C92B28A4204D2135CFF2B05
:104CC000F8D0012070470020704702B51346372105
:104CD00019705870022200A9981CFDF7F7FB01BD5E
:104CE00002B5104601210170022200A9401CFDF707
:104CF000EDFB01BD008A022801DB01207047002086
:104D0000704770B588B0064602A80FF69C011422C1
:104D1000FDF7ECFBDFF8280850F82600458A281D2F
:104D200004F0DAFC0446224601213046FFF7CDFFAD
:104D3000211D304604F0F1FD281DADF80B0028467A
:104D4000A0F1080189B2201DFFF7B2FF00280DD0A5
:104D500001F0C3FACDE90001082200A9281908389A
:104D6000FDF7B4FB214602A802F05AFA204604F0EF
:104D7000CBFC08B070BD10B50C46C17801290ED12E
:104D800000216160FFF7B6FF002805D0A068002869
:104D900002D001F0F3FA00E00020A06010BD8068AE
:104DA000002804D001F0EAFAA060606010BD6068DD
:104DB00001F0E4FA6060A06010BD10B400216FF053
:104DC0000042104611E0DFF87C4704EBC3035B6848
:104DD000002B09D01C6A002C06D0DB78002B03D1F5
:104DE000E368984200DD1846491C49B20B461C2B6B
:104DF000E9DB904200D1002010BC70472DE9F04162
:104E000084B0044615462646DFF8340750F826706D
:104E100008788DF800004868019088680290002F9B
:104E200001D1032043E000A93846FFF7A4FF00A901
:104E300007F1200004F0BAFE07F11C0898F80C00F6
:104E400001280BD1204604F09BFD07F1100004F06F
:104E500027FF0020F969496888470DE09DF80000A8
:104E6000002809D107F1100004F01AFF3879012851
:104E700002D12046FFF745FF2A4600213D20FB696D
:104E80001B699847F878002802D1022005F01DF828
:104E9000D8F80800002801D0012300E0002398F88A
:104EA0000C2031460FF2A86002F0BCF8002004B0DC
:104EB000BDE8F081FEB506461446DFF8840650F8DA
:104EC000265008788DF800004868019088680290A4
:104ED000002D19D09DF8000000280AD105F11C070B
:104EE000B868002810D0C0680190B86800690290C6
:104EF00003E000A92846FFF73EFF00A905F12000C6
:104F000004F074FE002801D00320FEBDEB6905F11A
:104F10001C07387B002803D10020D968884704E0AB
:104F2000224600213E201B699847022004F0CDFF55
:104F3000B868002801D0012300E000233A7B314605
:104F40000FF2186002F06EF80020FEBD30B587B099
:104F50000546DFF8EC0550F8254008788DF80C0080
:104F6000486804908868059010788DF800005068B3
:104F7000019090680290002C03D008781178884244
:104F800001D0032030E003A92046FFF7F4FE00A97A
:104F90002046FFF7F0FE04980199884205D1059854
:104FA0000299884201D100201EE000A904F12000EE
:104FB00004F01CFE002801D0032015E003A904F131
:104FC000200004F0F3FD002211463F20E3691B6935
:104FD0009847022004F079FF049B019A29460FF2BA
:104FE000885002F01FF8002007B030BD10B50C4605
:104FF00011461A46DFF8483553F82030002B01D10E
:10500000012010BD2046DB691B699847002010BDB8
:1050100010B50C4611461A46DFF8243553F82030F7
:10502000002B01D1012010BD192C04D1012100F069
:105030006CF9002010BD2046DB695B6998470020B1
:1050400010BD0146CE2901DA002801D100207047A9
:10505000DFF8EC0450F82100704710B582B0002151
:105060008DF80010082804D010281CD0202830D03B
:1050700013BD00AA01214020DFF8C4345B68DB695E
:105080005B6998479DF80000800703D50021012047
:1050900004F059FF9DF80000400732D5002102209E
:1050A00004F051FF13BD00AA01214020DFF8903425
:1050B0005B68DB695B6998479DF80000000703D5D2
:1050C0000021032004F03FFF0021042004F03BFFF7
:1050D00013BDDFF86C04046A01F0FFF8E26992681E
:1050E000904700280DD1606A002806D0006900288A
:1050F00003D10021082000F008F90021084604F03F
:1051000022FF13BD10B50446206AA268002A07D109
:10511000002810D04269521A012A05DB4068F7E7DF
:105120004069401A012806DA01F0D7F8E26992686E
:10513000BDE81040104710BD2DE9F84304460D4668
:1051400004F1100004F024FE064604F1100004F0FF
:1051500026FE07462078372802DA4FF0040801E0DF
:105160004FF00308002F42D040F2012008EB060167
:10517000814203DB2046BDE8F2438AE0B5F8031024
:1051800016FA81F2DFF8BC9308EB020181420DDBD5
:105190000FF2E0310FF2F03001F044FF09F1E001CD
:1051A000284602F03DF80020A5F80300B5F80300FA
:1051B000484400F1E0022078372803DA3946FFF747
:1051C00084FD02E03146FFF78BFD3A4604F1100101
:1051D000B5F8030018FA80F04844E03004F090FD80
:1051E000B5F8030008EB06010818A5F80300BDE8B0
:1051F000F18338B504461546606A00280FD08069EF
:10520000401A01280BDA01F015F8012802D1207BA1
:10521000002804D029462046BDE834408CE731BD43
:1052200070B586B000A80FF294311422FDF75EF934
:1052300004F041FE044600251CE0DFF8081301EBF2
:10524000C0004668002E14D096F82800002810D020
:10525000F07800280DD121463046FFF753FF00AA11
:1052600021463046FFF7C5FF214606F1200004F035
:10527000DAFC6D1CEDB228461C28DEDBBDF803000D
:10528000002803D0B04900A801F0CAFF002006B0F2
:1052900070BD2DE9F04385B0044600A80FF230310F
:1052A0001422FDF723F925784FF4FE70618A90FBF4
:1052B000F1F6B6B204F1100004F071FD0746DFF814
:1052C0008C9219E0B8464A4641462846FFF7FDFC55
:1052D000424604F1100109F1040004F011FD608A56
:1052E00000FB08F0001DADF80300494600A801F0DE
:1052F00097FFA7EB0807BFB2002F03D0B742E1DB4F
:10530000B046E0E705B0BDE8F08330B587B00446AD
:105310000D468B4850F82400FFF7BBFF002D13D03B
:1053200001A80FF2C0211422FDF7E0F800A80FF247
:10533000C8210A6802608DF802400320ADF807001A
:1053400000A901A801F06CFF07B030BD30B583B0F3
:1053500000A80FF24C210CC90CC000240FE07848C3
:1053600000A9615C50F82150002D07D02846FFF7B6
:10537000C1FC002802D02846FFF78BFF641C052CD7
:10538000EDDB37BD6E4951F82000002804D0406A9B
:10539000002801D00120704700207047684951F86B
:1053A0002000002802D14FF0FF30704790F82810FD
:1053B000481E8041C043C00F40B27047604951F859
:1053C0002000002804D0006A002801D0C06870477F
:1053D000002070472DE9F0410446012510E05848AF
:1053E00050F8250000280AD0D4E9006701200021E8
:1053F0002A4601F005FE30433943C4E900016D1C23
:10540000372DECDB04F1080681271EE04C4850F8EC
:105410002700002818D0A7F18002501102EB9060FD
:105420004FEAA0185FFA88F806EBC800D0E90045FB
:1054300001200021A2EB881201F0E2FD2043294364
:1054400006EBC802C2E900017F1CCE2FDEDBBDE8FF
:10545000F0812DE9F04186B007460C4600A80FF216
:105460009C111422FDF742F84FF4FE7004F034F959
:10547000050019D121E03E462E2010FB06F81FFA48
:1054800088F808F10200ADF80300412028706E7022
:1054900042462146A81CFDF719F8294600A801F04C
:1054A000BFFE4444BF1BFFB2002F03D00C2FE2DB32
:1054B0000B26E1E7284604F027F906B0BDE8F081A5
:1054C00038B5044601250CE01D4850F82530002B66
:1054D00006D0224600214820DB695B6998472E34BC
:1054E0006D1C372DF0DB31BD70B500240120144A4E
:1054F00000E0401CC0B20146372906DA52F82110FC
:105500000029F6D0641CE4B2F3E720462E2111FBFB
:1055100000F5ADB2284604F0DFF806000FD00022F7
:105520002946FDF71FF83046FFF7CAFF31462046EF
:10553000FFF78FFF3046BDE8704004F0E5B870BD5E
:1055400028A003007C5803005C59030004A8030052
:1055500023612025642C25642C25640023722025DA
:10556000642C25642C25640023632025642C256489
:105570003E256400617272616E67655F646174618B
:105580005F7061636B65740025733A2074785F64A3
:105590006174612069732066756C6C28256429002C
:1055A000010E0612080000000500000000000000C7
:1055B00000000000000000000000000005000000E6
:1055C00000000000000000000000000000000000DB
:1055D00005000000000000000000000000000000C6
:1055E00000000000050000000000000000000000B6
:1055F00000000000000000000501000005000000A0
:10560000000000000000000000000000000000009A
:1056100010B500224FF4A871DFF88809FCF728FFC5
:10562000DFF88449002218212046FCF721FF0020E2
:10563000606210BD0020704710B5DFF8704900F0BF
:105640007FFCA060002204F11C018320FFF7D6FB41
:10565000002801D0032010BD002204F11C01BC2051
:10566000FFF7CCFB002801D0032010BD002204F17D
:105670001C010120FFF7C2FB002801D0032010BD50
:10568000002010BD10B5DFF82449002204F11C01F0
:105690008320FFF70FFC002801D0032010BD00225B
:1056A00004F11C01BC20FFF705FC002801D00320F9
:1056B00010BD002204F11C010120FFF7FBFB0028B4
:1056C00001D0032010BDFFF7A3FF002010BD000094
:1056D00038B52DED028B84B09FEDB68ADFEDB58A2B
:1056E000DFF8C848A0693C30A0612068022801D0DA
:1056F000032809D1DFF8B8080069216981420CDA72
:10570000401A08EE100A08E0042802D1DFEDB78A3B
:1057100003E0052801D1DFEDB68ADFF894080069BF
:105720002061DFF88058B8EE480AD5ED530A30EE14
:10573000200A30EE280A85ED530ADFEDAE0AB4EEFA
:10574000600AF1EE10FA09DBDFEDCF0A30EE200A35
:1057500085ED530A0FF6700001F064FCA06947F272
:105760003051884214DBD5F84C0101F029F8CDE91D
:10577000020118EE900A01F023F8CDE9000118EEBD
:10578000102A21680FF6540001F04CFC0020A061A3
:1057900004B0BDEC028B31BD70B500F0B1F9FFF77C
:1057A00097FF00F09BF900281BD0DFF8F84704F5BD
:1057B000C4704568D4F88861701B04F031FC03465E
:1057C0002A4631460FF6440001F02CFC0020A06070
:1057D000DFF8D807DFF8D8171822FCF787FE00207B
:1057E00070BD00F0E9F8002805D0DFF8BC07416A79
:1057F00041F00401416200F0FFF8002805D0DFF815
:10580000A807416A41F00101416200F019F900283E
:1058100005D0DFF89407416A41F00201416200F0CF
:1058200035F9002805D0DFF88007416A41F008010A
:10583000416200F026F800F046F800F0B1F800F000
:105840003DFA002070BD80B500F097FA002002BD3F
:105850003EB500A900231C461D4638C1002A00D1D0
:1058600000AA3D2802D03E2805D008E006211046B7
:1058700000F019FB03E00621104600F043FB204630
:105880003EBD38B5DFF81C47DFF81C0790F8240050
:1058900000F01B0084F8400100F052FB009004F27D
:1058A0004115042200A92846FCF710FE04212846D1
:1058B00000F038FB04F5A070DFF8F4160A684271B6
:1058C0004968817131BDFEB50026DFF8E046DFF89A
:1058D000E056A868A168401A00F094FA0290206887
:1058E0002968884205D0029841F28831884200DB5D
:1058F00001260298DFF8BC16884200DB0126DFF89B
:10590000A80690F91210002906D000218174416A7E
:1059100041F0040141620126002E40D0DFF8846688
:10592000B06800EB80018F1D00280BD1042204F128
:10593000080106F10D00FCF7C9FD042106F10D0078
:1059400000F0F0FAB068401CB06070742068B919BB
:105950000873781C471C0299DFF85C26914203DB30
:1059600002218019017302E00021801901730422D1
:1059700002A9B8190C30FCF7A9FD0321B8190C30A5
:1059800000F0D0FA02980190A86800902B68A268F5
:1059900021680FF29C6001F045FBA868A060F7BD8C
:1059A000DFF80806DFF808164A68426009680160F7
:1059B0007047000000000000DFF8E805DFF8E81598
:1059C00091F90010012903DA00218160084670472F
:1059D00081683B2905DA012905DB90F9840100285B
:1059E00001D0012070470020704700006ABCD43FFE
:1059F000FA7E2A3F4154094BDFF8A80590F984014B
:105A0000002819D0DFF8A00590F90810012913DB50
:105A100090F91310012903D10021C17401207047AE
:105A2000DFF88C05DFF884150A6803689A4205D10F
:105A300049684068814201D10020704701207047C9
:105A4000DFF86405DFF86815DFF8602512680B6879
:105A50009A4201D00022027490F91020002A01D04D
:105A6000002070471A46121892F90120012A01DA23
:105A7000002070474968012903DB012101740846B1
:105A80007047002070470000405409CB10B5DFF884
:105A90001845DFF81C05DFF814150A6803689A42F8
:105AA00001D00022627494F91120002A01D0002054
:105AB00010BD0A68121992F90920012A01DA0020A2
:105AC00010BD80688968401A00F09CF961698842BD
:105AD00002DB0120607410BD002010BD80B5DFF82E
